{
  "_format": "hh-sol-artifact-1",
  "contractName": "GovernableOwnable",
  "sourceName": "contracts/core/GovernableOwnable.sol",
  "abi": [
    {
      "inputs": [],
      "name": "CallerNotTheGovernor",
      "type": "error"
    },
    {
      "inputs": [],
      "name": "InvalidGovernorAddress",
      "type": "error"
    },
    {
      "anonymous": false,
      "inputs": [
        {
          "indexed": true,
          "internalType": "address",
          "name": "previousGovernor",
          "type": "address"
        },
        {
          "indexed": true,
          "internalType": "address",
          "name": "newGovernor",
          "type": "address"
        }
      ],
      "name": "GovernshipTransferred",
      "type": "event"
    },
    {
      "anonymous": false,
      "inputs": [
        {
          "indexed": false,
          "internalType": "uint8",
          "name": "version",
          "type": "uint8"
        }
      ],
      "name": "Initialized",
      "type": "event"
    },
    {
      "anonymous": false,
      "inputs": [
        {
          "indexed": true,
          "internalType": "address",
          "name": "previousOwner",
          "type": "address"
        },
        {
          "indexed": true,
          "internalType": "address",
          "name": "newOwner",
          "type": "address"
        }
      ],
      "name": "OwnershipTransferred",
      "type": "event"
    },
    {
      "inputs": [],
      "name": "governor",
      "outputs": [
        {
          "internalType": "address",
          "name": "",
          "type": "address"
        }
      ],
      "stateMutability": "view",
      "type": "function"
    },
    {
      "inputs": [],
      "name": "owner",
      "outputs": [
        {
          "internalType": "address",
          "name": "",
          "type": "address"
        }
      ],
      "stateMutability": "view",
      "type": "function"
    },
    {
      "inputs": [],
      "name": "renounceOwnership",
      "outputs": [],
      "stateMutability": "nonpayable",
      "type": "function"
    },
    {
      "inputs": [
        {
          "internalType": "address",
          "name": "_newGovernor",
          "type": "address"
        }
      ],
      "name": "transferGovernorship",
      "outputs": [],
      "stateMutability": "nonpayable",
      "type": "function"
    },
    {
      "inputs": [
        {
          "internalType": "address",
          "name": "newOwner",
          "type": "address"
        }
      ],
      "name": "transferOwnership",
      "outputs": [],
      "stateMutability": "nonpayable",
      "type": "function"
    }
  ],
  "bytecode": "0x608060405234801561001057600080fd5b50610321806100206000396000f3fe608060405234801561001057600080fd5b50600436106100575760003560e01c80630c340a241461005c578063715018a6146100855780638da5cb5b1461008f578063b6aa515b146100a0578063f2fde38b146100b3575b600080fd5b6065546001600160a01b03165b6040516001600160a01b03909116815260200160405180910390f35b61008d6100c6565b005b6033546001600160a01b0316610069565b61008d6100ae3660046102bb565b6100da565b61008d6100c13660046102bb565b610138565b6100ce6101b3565b6100d8600061020d565b565b6065546001600160a01b031633146101055760405163e6e025c760e01b815260040160405180910390fd5b6001600160a01b03811661012c5760405163fa68714160e01b815260040160405180910390fd5b6101358161025f565b50565b6101406101b3565b6001600160a01b0381166101aa5760405162461bcd60e51b815260206004820152602660248201527f4f776e61626c653a206e6577206f776e657220697320746865207a65726f206160448201526564647265737360d01b60648201526084015b60405180910390fd5b6101358161020d565b6033546001600160a01b031633146100d85760405162461bcd60e51b815260206004820181905260248201527f4f776e61626c653a2063616c6c6572206973206e6f7420746865206f776e657260448201526064016101a1565b603380546001600160a01b038381166001600160a01b0319831681179093556040519116919082907f8be0079c531659141344cd1fd0a4f28419497f9722a3daafe3b4186f6b6457e090600090a35050565b6065546040516001600160a01b038084169216907f4a2da5517922d469e27cc43b2e88ebd65d79400caf5bb7cc34419e64cf85bb1a90600090a3606580546001600160a01b0319166001600160a01b0392909216919091179055565b6000602082840312156102cd57600080fd5b81356001600160a01b03811681146102e457600080fd5b939250505056fea26469706673582212207989428ab963a5790e8779e32e5cbfb414d0466766cb08f013d0628e6fba46e364736f6c63430008180033",
  "linkReferences": {},
  "deployedLinkReferences": {}
}