{
  "_format": "hh-sol-artifact-1",
  "contractName": "MultiStrategyVault",
  "sourceName": "contracts/core/MultiStrategyVault.sol",
  "abi": [
    {
      "inputs": [],
      "stateMutability": "nonpayable",
      "type": "constructor"
    },
    {
      "inputs": [
        {
          "internalType": "address",
          "name": "sender",
          "type": "address"
        }
      ],
      "name": "ETHTransferNotAllowed",
      "type": "error"
    },
    {
      "inputs": [],
      "name": "FailedAllowance",
      "type": "error"
    },
    {
      "inputs": [],
      "name": "InsufficientWETHBalance",
      "type": "error"
    },
    {
      "inputs": [],
      "name": "InvalidAddress",
      "type": "error"
    },
    {
      "inputs": [],
      "name": "InvalidAmount",
      "type": "error"
    },
    {
      "inputs": [],
      "name": "InvalidAsset",
      "type": "error"
    },
    {
      "inputs": [],
      "name": "InvalidAssetsState",
      "type": "error"
    },
    {
      "inputs": [],
      "name": "InvalidDivDenominator",
      "type": "error"
    },
    {
      "inputs": [
        {
          "internalType": "uint256",
          "name": "maxDifference",
          "type": "uint256"
        }
      ],
      "name": "InvalidMaxDifference",
      "type": "error"
    },
    {
      "inputs": [],
      "name": "InvalidMaxLoanToValue",
      "type": "error"
    },
    {
      "inputs": [],
      "name": "InvalidOwner",
      "type": "error"
    },
    {
      "inputs": [],
      "name": "InvalidPercentage",
      "type": "error"
    },
    {
      "inputs": [],
      "name": "InvalidReceiver",
      "type": "error"
    },
    {
      "inputs": [],
      "name": "InvalidShareBalance",
      "type": "error"
    },
    {
      "inputs": [],
      "name": "InvalidStrategies",
      "type": "error"
    },
    {
      "inputs": [],
      "name": "InvalidStrategy",
      "type": "error"
    },
    {
      "inputs": [
        {
          "internalType": "uint256",
          "name": "index",
          "type": "uint256"
        }
      ],
      "name": "InvalidStrategyIndex",
      "type": "error"
    },
    {
      "inputs": [],
      "name": "InvalidValue",
      "type": "error"
    },
    {
      "inputs": [],
      "name": "InvalidWETHAmount",
      "type": "error"
    },
    {
      "inputs": [],
      "name": "InvalidWETHContract",
      "type": "error"
    },
    {
      "inputs": [],
      "name": "InvalidWeights",
      "type": "error"
    },
    {
      "inputs": [],
      "name": "InvalidWeightsLength",
      "type": "error"
    },
    {
      "inputs": [],
      "name": "InvalidWithdrawAmount",
      "type": "error"
    },
    {
      "inputs": [],
      "name": "MaxDepositReached",
      "type": "error"
    },
    {
      "inputs": [],
      "name": "NoAllowance",
      "type": "error"
    },
    {
      "inputs": [],
      "name": "NoAssetsToWithdraw",
      "type": "error"
    },
    {
      "inputs": [],
      "name": "NoPermissions",
      "type": "error"
    },
    {
      "inputs": [],
      "name": "NotEnoughBalanceToWithdraw",
      "type": "error"
    },
    {
      "inputs": [],
      "name": "WhiteListAlreadyEnabled",
      "type": "error"
    },
    {
      "inputs": [],
      "name": "WhiteListFailedToAdd",
      "type": "error"
    },
    {
      "inputs": [],
      "name": "WhiteListFailedToRemove",
      "type": "error"
    },
    {
      "inputs": [],
      "name": "WhiteListNotEnabled",
      "type": "error"
    },
    {
      "anonymous": false,
      "inputs": [
        {
          "indexed": true,
          "internalType": "address",
          "name": "account",
          "type": "address"
        },
        {
          "indexed": false,
          "internalType": "bool",
          "name": "enabled",
          "type": "bool"
        }
      ],
      "name": "AccountWhiteList",
      "type": "event"
    },
    {
      "anonymous": false,
      "inputs": [
        {
          "indexed": true,
          "internalType": "address",
          "name": "strategy",
          "type": "address"
        }
      ],
      "name": "AddStrategy",
      "type": "event"
    },
    {
      "anonymous": false,
      "inputs": [
        {
          "indexed": true,
          "internalType": "address",
          "name": "owner",
          "type": "address"
        },
        {
          "indexed": true,
          "internalType": "address",
          "name": "spender",
          "type": "address"
        },
        {
          "indexed": false,
          "internalType": "uint256",
          "name": "value",
          "type": "uint256"
        }
      ],
      "name": "Approval",
      "type": "event"
    },
    {
      "anonymous": false,
      "inputs": [
        {
          "indexed": true,
          "internalType": "address",
          "name": "sender",
          "type": "address"
        },
        {
          "indexed": true,
          "internalType": "address",
          "name": "owner",
          "type": "address"
        },
        {
          "indexed": false,
          "internalType": "uint256",
          "name": "assets",
          "type": "uint256"
        },
        {
          "indexed": false,
          "internalType": "uint256",
          "name": "shares",
          "type": "uint256"
        }
      ],
      "name": "Deposit",
      "type": "event"
    },
    {
      "anonymous": false,
      "inputs": [
        {
          "indexed": true,
          "internalType": "address",
          "name": "value",
          "type": "address"
        }
      ],
      "name": "FeeReceiverChanged",
      "type": "event"
    },
    {
      "anonymous": false,
      "inputs": [
        {
          "indexed": false,
          "internalType": "uint8",
          "name": "version",
          "type": "uint8"
        }
      ],
      "name": "Initialized",
      "type": "event"
    },
    {
      "anonymous": false,
      "inputs": [
        {
          "indexed": true,
          "internalType": "uint256",
          "name": "value",
          "type": "uint256"
        }
      ],
      "name": "MaxDepositChanged",
      "type": "event"
    },
    {
      "anonymous": false,
      "inputs": [
        {
          "indexed": true,
          "internalType": "uint256",
          "name": "maxDifference",
          "type": "uint256"
        }
      ],
      "name": "MaxDifferenceUpdated",
      "type": "event"
    },
    {
      "anonymous": false,
      "inputs": [
        {
          "indexed": true,
          "internalType": "address",
          "name": "previousOwner",
          "type": "address"
        },
        {
          "indexed": true,
          "internalType": "address",
          "name": "newOwner",
          "type": "address"
        }
      ],
      "name": "OwnershipTransferStarted",
      "type": "event"
    },
    {
      "anonymous": false,
      "inputs": [
        {
          "indexed": true,
          "internalType": "address",
          "name": "previousOwner",
          "type": "address"
        },
        {
          "indexed": true,
          "internalType": "address",
          "name": "newOwner",
          "type": "address"
        }
      ],
      "name": "OwnershipTransferred",
      "type": "event"
    },
    {
      "anonymous": false,
      "inputs": [
        {
          "indexed": false,
          "internalType": "address",
          "name": "account",
          "type": "address"
        }
      ],
      "name": "Paused",
      "type": "event"
    },
    {
      "anonymous": false,
      "inputs": [
        {
          "indexed": true,
          "internalType": "uint256",
          "name": "value",
          "type": "uint256"
        }
      ],
      "name": "PerformanceFeeChanged",
      "type": "event"
    },
    {
      "anonymous": false,
      "inputs": [
        {
          "indexed": true,
          "internalType": "address",
          "name": "strategy",
          "type": "address"
        }
      ],
      "name": "RemoveStrategy",
      "type": "event"
    },
    {
      "anonymous": false,
      "inputs": [
        {
          "indexed": true,
          "internalType": "bytes32",
          "name": "role",
          "type": "bytes32"
        },
        {
          "indexed": true,
          "internalType": "bytes32",
          "name": "previousAdminRole",
          "type": "bytes32"
        },
        {
          "indexed": true,
          "internalType": "bytes32",
          "name": "newAdminRole",
          "type": "bytes32"
        }
      ],
      "name": "RoleAdminChanged",
      "type": "event"
    },
    {
      "anonymous": false,
      "inputs": [
        {
          "indexed": true,
          "internalType": "bytes32",
          "name": "role",
          "type": "bytes32"
        },
        {
          "indexed": true,
          "internalType": "address",
          "name": "account",
          "type": "address"
        },
        {
          "indexed": true,
          "internalType": "address",
          "name": "sender",
          "type": "address"
        }
      ],
      "name": "RoleGranted",
      "type": "event"
    },
    {
      "anonymous": false,
      "inputs": [
        {
          "indexed": true,
          "internalType": "bytes32",
          "name": "role",
          "type": "bytes32"
        },
        {
          "indexed": true,
          "internalType": "address",
          "name": "account",
          "type": "address"
        },
        {
          "indexed": true,
          "internalType": "address",
          "name": "sender",
          "type": "address"
        }
      ],
      "name": "RoleRevoked",
      "type": "event"
    },
    {
      "anonymous": false,
      "inputs": [
        {
          "indexed": true,
          "internalType": "address",
          "name": "from",
          "type": "address"
        },
        {
          "indexed": true,
          "internalType": "address",
          "name": "to",
          "type": "address"
        },
        {
          "indexed": false,
          "internalType": "uint256",
          "name": "value",
          "type": "uint256"
        }
      ],
      "name": "Transfer",
      "type": "event"
    },
    {
      "anonymous": false,
      "inputs": [
        {
          "indexed": false,
          "internalType": "address",
          "name": "account",
          "type": "address"
        }
      ],
      "name": "Unpaused",
      "type": "event"
    },
    {
      "anonymous": false,
      "inputs": [
        {
          "indexed": true,
          "internalType": "uint16[]",
          "name": "weights",
          "type": "uint16[]"
        }
      ],
      "name": "WeightsUpdated",
      "type": "event"
    },
    {
      "anonymous": false,
      "inputs": [
        {
          "indexed": true,
          "internalType": "address",
          "name": "sender",
          "type": "address"
        },
        {
          "indexed": true,
          "internalType": "address",
          "name": "receiver",
          "type": "address"
        },
        {
          "indexed": true,
          "internalType": "address",
          "name": "owner",
          "type": "address"
        },
        {
          "indexed": false,
          "internalType": "uint256",
          "name": "assets",
          "type": "uint256"
        },
        {
          "indexed": false,
          "internalType": "uint256",
          "name": "shares",
          "type": "uint256"
        }
      ],
      "name": "Withdraw",
      "type": "event"
    },
    {
      "anonymous": false,
      "inputs": [
        {
          "indexed": true,
          "internalType": "uint256",
          "name": "value",
          "type": "uint256"
        }
      ],
      "name": "WithdrawalFeeChanged",
      "type": "event"
    },
    {
      "inputs": [],
      "name": "DEFAULT_ADMIN_ROLE",
      "outputs": [
        {
          "internalType": "bytes32",
          "name": "",
          "type": "bytes32"
        }
      ],
      "stateMutability": "view",
      "type": "function"
    },
    {
      "inputs": [],
      "name": "MAX_TOTAL_WEIGHT",
      "outputs": [
        {
          "internalType": "uint16",
          "name": "",
          "type": "uint16"
        }
      ],
      "stateMutability": "view",
      "type": "function"
    },
    {
      "inputs": [],
      "name": "PAUSER_ROLE",
      "outputs": [
        {
          "internalType": "bytes32",
          "name": "",
          "type": "bytes32"
        }
      ],
      "stateMutability": "view",
      "type": "function"
    },
    {
      "inputs": [],
      "name": "_initializeVaultSettings",
      "outputs": [],
      "stateMutability": "nonpayable",
      "type": "function"
    },
    {
      "inputs": [],
      "name": "acceptOwnership",
      "outputs": [],
      "stateMutability": "nonpayable",
      "type": "function"
    },
    {
      "inputs": [
        {
          "internalType": "contract IStrategy",
          "name": "strategy",
          "type": "address"
        }
      ],
      "name": "addStrategy",
      "outputs": [],
      "stateMutability": "nonpayable",
      "type": "function"
    },
    {
      "inputs": [
        {
          "internalType": "address",
          "name": "owner",
          "type": "address"
        },
        {
          "internalType": "address",
          "name": "spender",
          "type": "address"
        }
      ],
      "name": "allowance",
      "outputs": [
        {
          "internalType": "uint256",
          "name": "",
          "type": "uint256"
        }
      ],
      "stateMutability": "view",
      "type": "function"
    },
    {
      "inputs": [
        {
          "internalType": "address",
          "name": "spender",
          "type": "address"
        },
        {
          "internalType": "uint256",
          "name": "amount",
          "type": "uint256"
        }
      ],
      "name": "approve",
      "outputs": [
        {
          "internalType": "bool",
          "name": "",
          "type": "bool"
        }
      ],
      "stateMutability": "nonpayable",
      "type": "function"
    },
    {
      "inputs": [],
      "name": "asset",
      "outputs": [
        {
          "internalType": "address",
          "name": "",
          "type": "address"
        }
      ],
      "stateMutability": "view",
      "type": "function"
    },
    {
      "inputs": [
        {
          "internalType": "address",
          "name": "account",
          "type": "address"
        }
      ],
      "name": "balanceOf",
      "outputs": [
        {
          "internalType": "uint256",
          "name": "",
          "type": "uint256"
        }
      ],
      "stateMutability": "view",
      "type": "function"
    },
    {
      "inputs": [
        {
          "internalType": "uint256",
          "name": "shares",
          "type": "uint256"
        }
      ],
      "name": "convertToAssets",
      "outputs": [
        {
          "internalType": "uint256",
          "name": "assets",
          "type": "uint256"
        }
      ],
      "stateMutability": "view",
      "type": "function"
    },
    {
      "inputs": [
        {
          "internalType": "uint256",
          "name": "assets",
          "type": "uint256"
        }
      ],
      "name": "convertToShares",
      "outputs": [
        {
          "internalType": "uint256",
          "name": "shares",
          "type": "uint256"
        }
      ],
      "stateMutability": "view",
      "type": "function"
    },
    {
      "inputs": [],
      "name": "decimals",
      "outputs": [
        {
          "internalType": "uint8",
          "name": "",
          "type": "uint8"
        }
      ],
      "stateMutability": "view",
      "type": "function"
    },
    {
      "inputs": [
        {
          "internalType": "address",
          "name": "spender",
          "type": "address"
        },
        {
          "internalType": "uint256",
          "name": "subtractedValue",
          "type": "uint256"
        }
      ],
      "name": "decreaseAllowance",
      "outputs": [
        {
          "internalType": "bool",
          "name": "",
          "type": "bool"
        }
      ],
      "stateMutability": "nonpayable",
      "type": "function"
    },
    {
      "inputs": [
        {
          "internalType": "uint256",
          "name": "assets",
          "type": "uint256"
        },
        {
          "internalType": "address",
          "name": "receiver",
          "type": "address"
        }
      ],
      "name": "deposit",
      "outputs": [
        {
          "internalType": "uint256",
          "name": "shares",
          "type": "uint256"
        }
      ],
      "stateMutability": "nonpayable",
      "type": "function"
    },
    {
      "inputs": [
        {
          "internalType": "address",
          "name": "receiver",
          "type": "address"
        }
      ],
      "name": "depositNative",
      "outputs": [
        {
          "internalType": "uint256",
          "name": "shares",
          "type": "uint256"
        }
      ],
      "stateMutability": "payable",
      "type": "function"
    },
    {
      "inputs": [
        {
          "internalType": "address",
          "name": "account",
          "type": "address"
        },
        {
          "internalType": "bool",
          "name": "enabled",
          "type": "bool"
        }
      ],
      "name": "enableAccount",
      "outputs": [],
      "stateMutability": "nonpayable",
      "type": "function"
    },
    {
      "inputs": [],
      "name": "getFeeReceiver",
      "outputs": [
        {
          "internalType": "address",
          "name": "",
          "type": "address"
        }
      ],
      "stateMutability": "view",
      "type": "function"
    },
    {
      "inputs": [],
      "name": "getMaxDeposit",
      "outputs": [
        {
          "internalType": "uint256",
          "name": "",
          "type": "uint256"
        }
      ],
      "stateMutability": "view",
      "type": "function"
    },
    {
      "inputs": [],
      "name": "getPerformanceFee",
      "outputs": [
        {
          "internalType": "uint256",
          "name": "",
          "type": "uint256"
        }
      ],
      "stateMutability": "view",
      "type": "function"
    },
    {
      "inputs": [
        {
          "internalType": "bytes32",
          "name": "role",
          "type": "bytes32"
        }
      ],
      "name": "getRoleAdmin",
      "outputs": [
        {
          "internalType": "bytes32",
          "name": "",
          "type": "bytes32"
        }
      ],
      "stateMutability": "view",
      "type": "function"
    },
    {
      "inputs": [],
      "name": "getWithdrawalFee",
      "outputs": [
        {
          "internalType": "uint256",
          "name": "",
          "type": "uint256"
        }
      ],
      "stateMutability": "view",
      "type": "function"
    },
    {
      "inputs": [
        {
          "internalType": "bytes32",
          "name": "role",
          "type": "bytes32"
        },
        {
          "internalType": "address",
          "name": "account",
          "type": "address"
        }
      ],
      "name": "grantRole",
      "outputs": [],
      "stateMutability": "nonpayable",
      "type": "function"
    },
    {
      "inputs": [
        {
          "internalType": "bytes32",
          "name": "role",
          "type": "bytes32"
        },
        {
          "internalType": "address",
          "name": "account",
          "type": "address"
        }
      ],
      "name": "hasRole",
      "outputs": [
        {
          "internalType": "bool",
          "name": "",
          "type": "bool"
        }
      ],
      "stateMutability": "view",
      "type": "function"
    },
    {
      "inputs": [
        {
          "internalType": "address",
          "name": "spender",
          "type": "address"
        },
        {
          "internalType": "uint256",
          "name": "addedValue",
          "type": "uint256"
        }
      ],
      "name": "increaseAllowance",
      "outputs": [
        {
          "internalType": "bool",
          "name": "",
          "type": "bool"
        }
      ],
      "stateMutability": "nonpayable",
      "type": "function"
    },
    {
      "inputs": [
        {
          "internalType": "address",
          "name": "initialOwner",
          "type": "address"
        },
        {
          "internalType": "string",
          "name": "tokenName",
          "type": "string"
        },
        {
          "internalType": "string",
          "name": "tokenSymbol",
          "type": "string"
        },
        {
          "internalType": "address",
          "name": "iAsset",
          "type": "address"
        },
        {
          "internalType": "contract IStrategy[]",
          "name": "istrategies",
          "type": "address[]"
        },
        {
          "internalType": "uint16[]",
          "name": "iweights",
          "type": "uint16[]"
        },
        {
          "internalType": "address",
          "name": "weth",
          "type": "address"
        }
      ],
      "name": "initialize",
      "outputs": [],
      "stateMutability": "nonpayable",
      "type": "function"
    },
    {
      "inputs": [
        {
          "internalType": "address",
          "name": "account",
          "type": "address"
        }
      ],
      "name": "isAccountEnabled",
      "outputs": [
        {
          "internalType": "bool",
          "name": "",
          "type": "bool"
        }
      ],
      "stateMutability": "view",
      "type": "function"
    },
    {
      "inputs": [
        {
          "internalType": "address",
          "name": "",
          "type": "address"
        }
      ],
      "name": "maxDeposit",
      "outputs": [
        {
          "internalType": "uint256",
          "name": "maxAssets",
          "type": "uint256"
        }
      ],
      "stateMutability": "pure",
      "type": "function"
    },
    {
      "inputs": [],
      "name": "maxDifference",
      "outputs": [
        {
          "internalType": "uint256",
          "name": "",
          "type": "uint256"
        }
      ],
      "stateMutability": "view",
      "type": "function"
    },
    {
      "inputs": [
        {
          "internalType": "address",
          "name": "",
          "type": "address"
        }
      ],
      "name": "maxMint",
      "outputs": [
        {
          "internalType": "uint256",
          "name": "maxShares",
          "type": "uint256"
        }
      ],
      "stateMutability": "pure",
      "type": "function"
    },
    {
      "inputs": [
        {
          "internalType": "address",
          "name": "shareHolder",
          "type": "address"
        }
      ],
      "name": "maxRedeem",
      "outputs": [
        {
          "internalType": "uint256",
          "name": "maxShares",
          "type": "uint256"
        }
      ],
      "stateMutability": "view",
      "type": "function"
    },
    {
      "inputs": [
        {
          "internalType": "address",
          "name": "shareHolder",
          "type": "address"
        }
      ],
      "name": "maxWithdraw",
      "outputs": [
        {
          "internalType": "uint256",
          "name": "maxAssets",
          "type": "uint256"
        }
      ],
      "stateMutability": "view",
      "type": "function"
    },
    {
      "inputs": [
        {
          "internalType": "uint256",
          "name": "shares",
          "type": "uint256"
        },
        {
          "internalType": "address",
          "name": "receiver",
          "type": "address"
        }
      ],
      "name": "mint",
      "outputs": [
        {
          "internalType": "uint256",
          "name": "assets",
          "type": "uint256"
        }
      ],
      "stateMutability": "nonpayable",
      "type": "function"
    },
    {
      "inputs": [],
      "name": "name",
      "outputs": [
        {
          "internalType": "string",
          "name": "",
          "type": "string"
        }
      ],
      "stateMutability": "view",
      "type": "function"
    },
    {
      "inputs": [],
      "name": "owner",
      "outputs": [
        {
          "internalType": "address",
          "name": "",
          "type": "address"
        }
      ],
      "stateMutability": "view",
      "type": "function"
    },
    {
      "inputs": [],
      "name": "pause",
      "outputs": [],
      "stateMutability": "nonpayable",
      "type": "function"
    },
    {
      "inputs": [],
      "name": "paused",
      "outputs": [
        {
          "internalType": "bool",
          "name": "",
          "type": "bool"
        }
      ],
      "stateMutability": "view",
      "type": "function"
    },
    {
      "inputs": [],
      "name": "pendingOwner",
      "outputs": [
        {
          "internalType": "address",
          "name": "",
          "type": "address"
        }
      ],
      "stateMutability": "view",
      "type": "function"
    },
    {
      "inputs": [
        {
          "internalType": "uint256",
          "name": "assets",
          "type": "uint256"
        }
      ],
      "name": "previewDeposit",
      "outputs": [
        {
          "internalType": "uint256",
          "name": "shares",
          "type": "uint256"
        }
      ],
      "stateMutability": "view",
      "type": "function"
    },
    {
      "inputs": [
        {
          "internalType": "uint256",
          "name": "shares",
          "type": "uint256"
        }
      ],
      "name": "previewMint",
      "outputs": [
        {
          "internalType": "uint256",
          "name": "assets",
          "type": "uint256"
        }
      ],
      "stateMutability": "view",
      "type": "function"
    },
    {
      "inputs": [
        {
          "internalType": "uint256",
          "name": "shares",
          "type": "uint256"
        }
      ],
      "name": "previewRedeem",
      "outputs": [
        {
          "internalType": "uint256",
          "name": "assets",
          "type": "uint256"
        }
      ],
      "stateMutability": "view",
      "type": "function"
    },
    {
      "inputs": [
        {
          "internalType": "uint256",
          "name": "assets",
          "type": "uint256"
        }
      ],
      "name": "previewWithdraw",
      "outputs": [
        {
          "internalType": "uint256",
          "name": "shares",
          "type": "uint256"
        }
      ],
      "stateMutability": "view",
      "type": "function"
    },
    {
      "inputs": [],
      "name": "rebalance",
      "outputs": [
        {
          "internalType": "int256",
          "name": "balanceChange",
          "type": "int256"
        }
      ],
      "stateMutability": "nonpayable",
      "type": "function"
    },
    {
      "inputs": [
        {
          "internalType": "uint256",
          "name": "shares",
          "type": "uint256"
        },
        {
          "internalType": "address",
          "name": "receiver",
          "type": "address"
        },
        {
          "internalType": "address",
          "name": "holder",
          "type": "address"
        }
      ],
      "name": "redeem",
      "outputs": [
        {
          "internalType": "uint256",
          "name": "retAmount",
          "type": "uint256"
        }
      ],
      "stateMutability": "nonpayable",
      "type": "function"
    },
    {
      "inputs": [
        {
          "internalType": "uint256",
          "name": "shares",
          "type": "uint256"
        }
      ],
      "name": "redeemNative",
      "outputs": [
        {
          "internalType": "uint256",
          "name": "assets",
          "type": "uint256"
        }
      ],
      "stateMutability": "nonpayable",
      "type": "function"
    },
    {
      "inputs": [
        {
          "internalType": "uint256",
          "name": "index",
          "type": "uint256"
        }
      ],
      "name": "removeStrategy",
      "outputs": [],
      "stateMutability": "nonpayable",
      "type": "function"
    },
    {
      "inputs": [],
      "name": "renounceOwnership",
      "outputs": [],
      "stateMutability": "nonpayable",
      "type": "function"
    },
    {
      "inputs": [
        {
          "internalType": "bytes32",
          "name": "role",
          "type": "bytes32"
        },
        {
          "internalType": "address",
          "name": "account",
          "type": "address"
        }
      ],
      "name": "renounceRole",
      "outputs": [],
      "stateMutability": "nonpayable",
      "type": "function"
    },
    {
      "inputs": [
        {
          "internalType": "bytes32",
          "name": "role",
          "type": "bytes32"
        },
        {
          "internalType": "address",
          "name": "account",
          "type": "address"
        }
      ],
      "name": "revokeRole",
      "outputs": [],
      "stateMutability": "nonpayable",
      "type": "function"
    },
    {
      "inputs": [
        {
          "internalType": "address",
          "name": "receiver",
          "type": "address"
        }
      ],
      "name": "setFeeReceiver",
      "outputs": [],
      "stateMutability": "nonpayable",
      "type": "function"
    },
    {
      "inputs": [
        {
          "internalType": "uint256",
          "name": "value",
          "type": "uint256"
        }
      ],
      "name": "setMaxDeposit",
      "outputs": [],
      "stateMutability": "nonpayable",
      "type": "function"
    },
    {
      "inputs": [
        {
          "internalType": "uint256",
          "name": "imaxDifference",
          "type": "uint256"
        }
      ],
      "name": "setMaxDifference",
      "outputs": [],
      "stateMutability": "nonpayable",
      "type": "function"
    },
    {
      "inputs": [
        {
          "internalType": "uint256",
          "name": "fee",
          "type": "uint256"
        }
      ],
      "name": "setPerformanceFee",
      "outputs": [],
      "stateMutability": "nonpayable",
      "type": "function"
    },
    {
      "inputs": [
        {
          "internalType": "uint16[]",
          "name": "iweights",
          "type": "uint16[]"
        }
      ],
      "name": "setWeights",
      "outputs": [],
      "stateMutability": "nonpayable",
      "type": "function"
    },
    {
      "inputs": [
        {
          "internalType": "uint256",
          "name": "fee",
          "type": "uint256"
        }
      ],
      "name": "setWithdrawalFee",
      "outputs": [],
      "stateMutability": "nonpayable",
      "type": "function"
    },
    {
      "inputs": [],
      "name": "strategies",
      "outputs": [
        {
          "internalType": "contract IStrategy[]",
          "name": "",
          "type": "address[]"
        }
      ],
      "stateMutability": "view",
      "type": "function"
    },
    {
      "inputs": [
        {
          "internalType": "bytes4",
          "name": "interfaceId",
          "type": "bytes4"
        }
      ],
      "name": "supportsInterface",
      "outputs": [
        {
          "internalType": "bool",
          "name": "",
          "type": "bool"
        }
      ],
      "stateMutability": "view",
      "type": "function"
    },
    {
      "inputs": [],
      "name": "symbol",
      "outputs": [
        {
          "internalType": "string",
          "name": "",
          "type": "string"
        }
      ],
      "stateMutability": "view",
      "type": "function"
    },
    {
      "inputs": [],
      "name": "tokenPerAsset",
      "outputs": [
        {
          "internalType": "uint256",
          "name": "",
          "type": "uint256"
        }
      ],
      "stateMutability": "view",
      "type": "function"
    },
    {
      "inputs": [],
      "name": "totalAssets",
      "outputs": [
        {
          "internalType": "uint256",
          "name": "amount",
          "type": "uint256"
        }
      ],
      "stateMutability": "view",
      "type": "function"
    },
    {
      "inputs": [],
      "name": "totalSupply",
      "outputs": [
        {
          "internalType": "uint256",
          "name": "",
          "type": "uint256"
        }
      ],
      "stateMutability": "view",
      "type": "function"
    },
    {
      "inputs": [],
      "name": "totalWeight",
      "outputs": [
        {
          "internalType": "uint16",
          "name": "",
          "type": "uint16"
        }
      ],
      "stateMutability": "view",
      "type": "function"
    },
    {
      "inputs": [
        {
          "internalType": "address",
          "name": "to",
          "type": "address"
        },
        {
          "internalType": "uint256",
          "name": "amount",
          "type": "uint256"
        }
      ],
      "name": "transfer",
      "outputs": [
        {
          "internalType": "bool",
          "name": "",
          "type": "bool"
        }
      ],
      "stateMutability": "nonpayable",
      "type": "function"
    },
    {
      "inputs": [
        {
          "internalType": "address",
          "name": "from",
          "type": "address"
        },
        {
          "internalType": "address",
          "name": "to",
          "type": "address"
        },
        {
          "internalType": "uint256",
          "name": "amount",
          "type": "uint256"
        }
      ],
      "name": "transferFrom",
      "outputs": [
        {
          "internalType": "bool",
          "name": "",
          "type": "bool"
        }
      ],
      "stateMutability": "nonpayable",
      "type": "function"
    },
    {
      "inputs": [
        {
          "internalType": "address",
          "name": "newOwner",
          "type": "address"
        }
      ],
      "name": "transferOwnership",
      "outputs": [],
      "stateMutability": "nonpayable",
      "type": "function"
    },
    {
      "inputs": [],
      "name": "unpause",
      "outputs": [],
      "stateMutability": "nonpayable",
      "type": "function"
    },
    {
      "inputs": [],
      "name": "weights",
      "outputs": [
        {
          "internalType": "uint16[]",
          "name": "",
          "type": "uint16[]"
        }
      ],
      "stateMutability": "view",
      "type": "function"
    },
    {
      "inputs": [
        {
          "internalType": "uint256",
          "name": "assets",
          "type": "uint256"
        },
        {
          "internalType": "address",
          "name": "receiver",
          "type": "address"
        },
        {
          "internalType": "address",
          "name": "holder",
          "type": "address"
        }
      ],
      "name": "withdraw",
      "outputs": [
        {
          "internalType": "uint256",
          "name": "shares",
          "type": "uint256"
        }
      ],
      "stateMutability": "nonpayable",
      "type": "function"
    },
    {
      "inputs": [
        {
          "internalType": "uint256",
          "name": "assets",
          "type": "uint256"
        }
      ],
      "name": "withdrawNative",
      "outputs": [
        {
          "internalType": "uint256",
          "name": "shares",
          "type": "uint256"
        }
      ],
      "stateMutability": "nonpayable",
      "type": "function"
    },
    {
      "stateMutability": "payable",
      "type": "receive"
    }
  ],
  "bytecode": "0x60806040523480156200001157600080fd5b506200001c6200002c565b620000266200002c565b620000ed565b600054610100900460ff1615620000995760405162461bcd60e51b815260206004820152602760248201527f496e697469616c697a61626c653a20636f6e747261637420697320696e697469604482015266616c697a696e6760c81b606482015260840160405180910390fd5b60005460ff90811614620000eb576000805460ff191660ff9081179091556040519081527f7f26b83ff96e1f2b6a682f133852f6798a09c465da95921460cefb38474024989060200160405180910390a15b565b61574a80620000fd6000396000f3fe6080604052600436106103fe5760003560e01c80638456cb5911610213578063bbc7dc3611610123578063d905777e116100ab578063e63ab1e91161007a578063e63ab1e914610ba7578063e8a3539214610bc9578063ef8b30f714610540578063efdcd97414610be8578063f2fde38b14610c0857600080fd5b8063d905777e14610b27578063d9f9027f14610b47578063dd62ed3e14610b69578063e30c397814610b8957600080fd5b8063c6e6f592116100f2578063c6e6f59214610a9c578063cd435cdd14610abc578063ce96cb7714610ad1578063d547741f14610af1578063d8e159f814610b1157600080fd5b8063bbc7dc3614610a3a578063c0cbbca614610a5a578063c63d75b6146106e9578063c649f04014610a7a57600080fd5b8063a457c2d7116101a6578063b3d7f6b911610175578063b3d7f6b91461072b578063b460af94146109ba578063b8b359cc146109da578063ba087652146109fa578063bb371fdd14610a1a57600080fd5b8063a457c2d714610944578063a4dbc6a814610964578063a9059cbb1461097a578063ac1e50251461099a57600080fd5b806394bf804d116101e257806394bf804d146108e057806395d89b411461090057806396c82e5714610915578063a217fddf1461092f57600080fd5b80638456cb591461086d5780638645e84b146108825780638da5cb5b146108a257806391d14854146108c057600080fd5b806336568abe1161030e57806363e334a7116102a1578063715018a611610270578063715018a6146107ee57806379ba5097146108035780637d7c2a1c1461081857806382da75e21461082d57806384276d811461084d57600080fd5b806363e334a7146107635780636e553f651461077857806370897b231461079857806370a08231146107b857600080fd5b8063402d267d116102dd578063402d267d146106e95780634bf03edf1461070b5780634cdad5061461072b5780635c975abb1461074b57600080fd5b806336568abe1461066157806338d52e0f1461068157806339509351146106b45780633f4ba83a146106d457600080fd5b806318160ddd11610391578063248a9ca311610360578063248a9ca3146105cb5780632f2ff15d146105fc57806330c867f81461061c578063313ce5671461063257806333bb7f911461064e57600080fd5b806318160ddd14610560578063223e547914610575578063235c36031461059557806323b872dd146105ab57600080fd5b806307a2d13a116103cd57806307a2d13a146104d7578063095ea7b3146104f757806309a3bbe4146105175780630a28a4771461054057600080fd5b806301e1d1141461043d57806301ffc9a71461046557806306fdde03146104955780630757d899146104b757600080fd5b3661043857610165546001600160a01b03163314610436576040516312a017cd60e11b81523360048201526024015b60405180910390fd5b005b600080fd5b34801561044957600080fd5b50610452610c28565b6040519081526020015b60405180910390f35b34801561047157600080fd5b50610485610480366004614d55565b610c37565b604051901515815260200161045c565b3480156104a157600080fd5b506104aa610c6e565b60405161045c9190614da3565b3480156104c357600080fd5b506104366104d2366004614dd6565b610d00565b3480156104e357600080fd5b506104526104f2366004614dd6565b610d62565b34801561050357600080fd5b50610485610512366004614e0f565b610d9d565b34801561052357600080fd5b5061052d61271081565b60405161ffff909116815260200161045c565b34801561054c57600080fd5b5061045261055b366004614dd6565b610db5565b34801561056c57600080fd5b5060fd54610452565b34801561058157600080fd5b50610436610590366004614e3b565b610e19565b3480156105a157600080fd5b5061012e54610452565b3480156105b757600080fd5b506104856105c6366004614e58565b610f0c565b3480156105d757600080fd5b506104526105e6366004614dd6565b6000908152610198602052604090206001015490565b34801561060857600080fd5b50610436610617366004614e99565b610f30565b34801561062857600080fd5b506101cd54610452565b34801561063e57600080fd5b506040516012815260200161045c565b61045261065c366004614e3b565b610f5b565b34801561066d57600080fd5b5061043661067c366004614e99565b611053565b34801561068d57600080fd5b506101ce546001600160a01b03165b6040516001600160a01b03909116815260200161045c565b3480156106c057600080fd5b506104856106cf366004614e0f565b6110d1565b3480156106e057600080fd5b506104366110f3565b3480156106f557600080fd5b50610452610704366004614e3b565b5060001990565b34801561071757600080fd5b50610452610726366004614dd6565b611116565b34801561073757600080fd5b50610452610746366004614dd6565b61118d565b34801561075757600080fd5b5060975460ff16610485565b34801561076f57600080fd5b506104526111b4565b34801561078457600080fd5b50610452610793366004614e99565b611215565b3480156107a457600080fd5b506104366107b3366004614dd6565b61129c565b3480156107c457600080fd5b506104526107d3366004614e3b565b6001600160a01b0316600090815260fb602052604090205490565b3480156107fa57600080fd5b506104366112fc565b34801561080f57600080fd5b50610436611310565b34801561082457600080fd5b50610452611387565b34801561083957600080fd5b50610436610848366004615065565b61147c565b34801561085957600080fd5b50610452610868366004614dd6565b61178d565b34801561087957600080fd5b50610436611871565b34801561088e57600080fd5b5061043661089d36600461515f565b611891565b3480156108ae57600080fd5b506033546001600160a01b031661069c565b3480156108cc57600080fd5b506104856108db366004614e99565b611992565b3480156108ec57600080fd5b506104526108fb366004614e99565b6119be565b34801561090c57600080fd5b506104aa611aa7565b34801561092157600080fd5b506101cc5461ffff1661052d565b34801561093b57600080fd5b50610452600081565b34801561095057600080fd5b5061048561095f366004614e0f565b611ab6565b34801561097057600080fd5b5061013254610452565b34801561098657600080fd5b50610485610995366004614e0f565b611b31565b3480156109a657600080fd5b506104366109b5366004614dd6565b611b3f565b3480156109c657600080fd5b506104526109d536600461518d565b611b9f565b3480156109e657600080fd5b506104856109f5366004614e3b565b611c51565b348015610a0657600080fd5b50610452610a1536600461518d565b611c71565b348015610a2657600080fd5b50610436610a35366004614dd6565b611cb5565b348015610a4657600080fd5b50610436610a553660046151cf565b611cf1565b348015610a6657600080fd5b50610436610a75366004614dd6565b611e23565b348015610a8657600080fd5b50610a8f6121fe565b60405161045c9190615204565b348015610aa857600080fd5b50610452610ab7366004614dd6565b61227e565b348015610ac857600080fd5b506104366122b2565b348015610add57600080fd5b50610452610aec366004614e3b565b612300565b348015610afd57600080fd5b50610436610b0c366004614e99565b612345565b348015610b1d57600080fd5b5061012d54610452565b348015610b3357600080fd5b50610452610b42366004614e3b565b61236b565b348015610b5357600080fd5b50610b5c612389565b60405161045c919061524c565b348015610b7557600080fd5b50610452610b8436600461528d565b6123eb565b348015610b9557600080fd5b506065546001600160a01b031661069c565b348015610bb357600080fd5b506104526000805160206156f583398151915281565b348015610bd557600080fd5b5061012f546001600160a01b031661069c565b348015610bf457600080fd5b50610436610c03366004614e3b565b612416565b348015610c1457600080fd5b50610436610c23366004614e3b565b612490565b6000610c32612501565b905090565b60006001600160e01b03198216637965db0b60e01b1480610c6857506301ffc9a760e01b6001600160e01b03198316145b92915050565b606060fe8054610c7d906152bb565b80601f0160208091040260200160405190810160405280929190818152602001828054610ca9906152bb565b8015610cf65780601f10610ccb57610100808354040283529160200191610cf6565b820191906000526020600020905b815481529060010190602001808311610cd957829003601f168201915b5050505050905090565b610d086125ad565b612710811115610d2e5760405163ca4a835760e01b81526004810182905260240161042d565b6101cd81905560405181907f4cebe840847c663b96db8a1dc1a58c950fb403b8d00682fc9b0bfe6f5478010790600090a250565b6000806040518060400160405280610d78612501565b8152602001610d8660fd5490565b90529050610d9681846000612607565b9392505050565b600033610dab818585612679565b5060019392505050565b6040516363737ac960e11b815260048101829052600090309063c6e6f592906024015b602060405180830381865afa158015610df5573d6000803e3d6000fd5b505050506040513d601f19601f82011682018060405250810190610c6891906152ef565b610e216125ad565b6001600160a01b038116610e4857604051632711b74d60e11b815260040160405180910390fd5b6101ca805460018082019092557f0faeda9012b7f59bd2a84ac2a33ead5fc9f720c38d8bbf90db1ac3c1518386eb0180546001600160a01b0319166001600160a01b0384169081179091556101cb8054928301815560009081527fe8bbfecd380c4167d6a1f763a233ec73e73f534b1970c4e1683f437ec23c1f4460108404018054600f9094166002026101000a61ffff021990931690925560405190917f69887873d46778fb35539b0a9992d9176ca03c1820b0afb538bc3a6f63326b1091a250565b600033610f1a85828561279d565b610f25858585612817565b506001949350505050565b60008281526101986020526040902060010154610f4c816129c2565b610f5683836129cc565b505050565b6000610f65612a53565b610f6d612aac565b610f7633611c51565b610f9257604051621cf80b60e71b815260040160405180910390fd5b34600003610fb35760405163162908e360e11b815260040160405180910390fd5b610165546101ce546001600160a01b03908116911614610fe657604051636448d6e960e11b815260040160405180910390fd5b6040805160048152602481019091526020810180516001600160e01b0316630d0e30db60e41b1790526110379034611027610165546001600160a01b031690565b6001600160a01b03169190612af2565b506110423483612b20565b905061104e600160c955565b919050565b6001600160a01b03811633146110c35760405162461bcd60e51b815260206004820152602f60248201527f416363657373436f6e74726f6c3a2063616e206f6e6c792072656e6f756e636560448201526e103937b632b9903337b91039b2b63360891b606482015260840161042d565b6110cd8282612cdf565b5050565b600033610dab8185856110e483836123eb565b6110ee919061531e565b612679565b6000805160206156f583398151915261110b816129c2565b611113612d47565b50565b6000611120612a53565b611128612aac565b61113133611c51565b61114d57604051621cf80b60e71b815260040160405180910390fd5b610165546101ce546001600160a01b0390811691161461118057604051636448d6e960e11b815260040160405180910390fd5b6110428233336001612d99565b6040516303d1689d60e11b81526004810182905260009030906307a2d13a90602401610dd8565b6000806111bf612501565b90506111ca60fd5490565b15806111d4575080155b156111e857670de0b6b3a764000091505090565b80670de0b6b3a76400006111fb60fd5490565b6112059190615331565b61120f9190615348565b91505090565b600061121f612a53565b611227612aac565b61123033611c51565b61124c57604051621cf80b60e71b815260040160405180910390fd5b8260000361126d5760405163162908e360e11b815260040160405180910390fd5b6101ce54611286906001600160a01b03163330866131e3565b6112908383612b20565b9050610c68600160c955565b6112a46125ad565b633b9aca0081106112c857604051631f3b85d360e01b815260040160405180910390fd5b61012e81905560405181907ff150d916e598956cbb01367e89d0d59fc910f13bea1441c4b2040ff89b7615bf90600090a250565b6113046125ad565b61130e600061324e565b565b60655433906001600160a01b0316811461137e5760405162461bcd60e51b815260206004820152602960248201527f4f776e61626c6532537465703a2063616c6c6572206973206e6f7420746865206044820152683732bb9037bbb732b960b91b606482015260840161042d565b6111138161324e565b6000611391612a53565b611399612aac565b60006113a3612501565b9050806000036113b757600091505061146f565b6113bf613267565b915060008213156114655760006113df61012f546001600160a01b031690565b905060006113ed61012e5490565b90506001600160a01b038216301480159061141057506001600160a01b03821615155b801561141c5750600081115b1561146257600061142d8286615331565b9050600061145361143d60fd5490565b61144b633b9aca0088615331565b84919061331f565b905061145f8482613392565b50505b50505b61146d613453565b505b611479600160c955565b90565b600054610100900460ff161580801561149c5750600054600160ff909116105b806114b65750303b1580156114b6575060005460ff166001145b6115195760405162461bcd60e51b815260206004820152602e60248201527f496e697469616c697a61626c653a20636f6e747261637420697320616c72656160448201526d191e481a5b9a5d1a585b1a5e995960921b606482015260840161042d565b6000805460ff19166001179055801561153c576000805461ff0019166101001790555b6115af89898080601f01602080910402602001604051908101604052809392919081815260200183838082843760009201919091525050604080516020601f8d018190048102820181019092528b815292508b91508a9081908401838280828437600092019190915250613aeb92505050565b6115b882613b1c565b6115c0613b7f565b6001600160a01b038a166115e7576040516349e27cff60e01b815260040160405180910390fd5b6115f260008b6129cc565b61160a6000805160206156f58339815191528b6129cc565b6116126122b2565b61161b8a61324e565b6116258484613ba6565b6101ce80546001600160a01b0319166001600160a01b03871617905560005b845181101561173a57856001600160a01b03168582815181106116695761166961536a565b60200260200101516001600160a01b03166338d52e0f6040518163ffffffff1660e01b8152600401602060405180830381865afa1580156116ae573d6000803e3d6000fd5b505050506040513d601f19601f820116820180604052508101906116d29190615380565b6001600160a01b0316146116f957604051636448d6e960e11b815260040160405180910390fd5b61173285828151811061170e5761170e61536a565b6020026020010151600019886001600160a01b0316613d2b9092919063ffffffff16565b600101611644565b508015611781576000805461ff0019169055604051600181527f7f26b83ff96e1f2b6a682f133852f6798a09c465da95921460cefb38474024989060200160405180910390a15b50505050505050505050565b6000611797612a53565b61179f612aac565b6117a833611c51565b6117c457604051621cf80b60e71b815260040160405180910390fd5b610165546101ce546001600160a01b039081169116146117f757604051636448d6e960e11b815260040160405180910390fd5b6040516363737ac960e11b815260048101839052309063c6e6f59290602401602060405180830381865afa158015611833573d6000803e3d6000fd5b505050506040513d601f19601f8201168201806040525081019061185791906152ef565b90506118668133336001612d99565b5061104e600160c955565b6000805160206156f5833981519152611889816129c2565b611113613e40565b6118996125ad565b80156118f7576118ab61013083613e7d565b156118c95760405163f0de760960e01b815260040160405180910390fd5b6118d561013083613e9f565b6118f257604051634d42d83760e01b815260040160405180910390fd5b611949565b61190361013083613e7d565b6119205760405163df7f799b60e01b815260040160405180910390fd5b61192c61013083613eb4565b61194957604051631c9b290760e11b815260040160405180910390fd5b816001600160a01b03167f78de0ca54bde2d97cdf93a275dfd5a966a9960011162ee36171985c5928ef46282604051611986911515815260200190565b60405180910390a25050565b6000918252610198602090815260408084206001600160a01b0393909316845291905290205460ff1690565b60006119c8612a53565b6119d0612aac565b6119d933611c51565b6119f557604051621cf80b60e71b815260040160405180910390fd5b82600003611a165760405163162908e360e11b815260040160405180910390fd5b6040516303d1689d60e11b81526004810184905230906307a2d13a90602401602060405180830381865afa158015611a52573d6000803e3d6000fd5b505050506040513d601f19601f82011682018060405250810190611a7691906152ef565b6101ce54909150611a92906001600160a01b03163330846131e3565b611a9c8183612b20565b50610c68600160c955565b606060ff8054610c7d906152bb565b60003381611ac482866123eb565b905083811015611b245760405162461bcd60e51b815260206004820152602560248201527f45524332303a2064656372656173656420616c6c6f77616e63652062656c6f77604482015264207a65726f60d81b606482015260840161042d565b610f258286868403612679565b600033610dab818585612817565b611b476125ad565b633b9aca008110611b6b57604051631f3b85d360e01b815260040160405180910390fd5b61012d81905560405181907ffc1353e6b18ce07b5a979c8edf77a87455939a17a9eebbb084dcde5bfb3b19ac90600090a250565b6000611ba9612a53565b611bb1612aac565b611bba33611c51565b611bd657604051621cf80b60e71b815260040160405180910390fd5b6040516363737ac960e11b815260048101859052309063c6e6f59290602401602060405180830381865afa158015611c12573d6000803e3d6000fd5b505050506040513d601f19601f82011682018060405250810190611c3691906152ef565b9050611c458184846000612d99565b9050610d96600160c955565b6000611c5e610130613ec9565b1580610c685750610c6861013083613e7d565b6000611c7b612a53565b611c8433611c51565b611ca057604051621cf80b60e71b815260040160405180910390fd5b611ca8612aac565b611c458484846000612d99565b611cbd6125ad565b61013281905560405181907f99bada54b2a917867d043b855b7725d9ecfca8069e0f793345b940f1b4f9890e90600090a250565b611cf96125ad565b6101ca54815114611d1d5760405163f846d15360e01b815260040160405180910390fd5b8051611d31906101cb906020840190614c46565b506101cc805461ffff1916905560005b8151811015611da557818181518110611d5c57611d5c61536a565b60209081029190910101516101cc8054600090611d7e90849061ffff1661539d565b92506101000a81548161ffff021916908361ffff1602179055508080600101915050611d41565b506101cc5461ffff161580611dc457506101cc5461271061ffff909116115b15611de25760405163108cef9d60e31b815260040160405180910390fd5b80604051611df091906153b8565b604051908190038120907ffbaa10e67b2ef00b12e2ab1402506620a7e8454d23060c6590e1df44858949bc90600090a250565b611e2b6125ad565b6101ca548110611e5157604051633cf93c6d60e21b81526004810182905260240161042d565b60006101ca8281548110611e6757611e6761536a565b60009182526020918290200154604080516278744560e21b815290516001600160a01b03909216926301e1d114926004808401938290030181865afa158015611eb4573d6000803e3d6000fd5b505050506040513d601f19601f82011682018060405250810190611ed891906152ef565b90506101cb8281548110611eee57611eee61536a565b6000918252602082206010820401546101cc8054600f9093166002026101000a90910461ffff908116939192611f26918591166153f2565b92506101000a81548161ffff021916908361ffff16021790555060006101cb8381548110611f5657611f5661536a565b90600052602060002090601091828204019190066002026101000a81548161ffff021916908361ffff1602179055506000811115612026576101ca8281548110611fa257611fa261536a565b60009182526020909120015460405163440e6dff60e01b8152600481018390526001600160a01b039091169063440e6dff906024016020604051808303816000875af1158015611ff6573d6000803e3d6000fd5b505050506040513d601f19601f8201168201806040525081019061201a91906152ef565b5061202481613ed3565b505b61202e613453565b6101ca546000906120419060019061540d565b905080831015612136576101ca818154811061205f5761205f61536a565b6000918252602090912001546101ca80546001600160a01b03909216918590811061208c5761208c61536a565b9060005260206000200160006101000a8154816001600160a01b0302191690836001600160a01b031602179055506101cb81815481106120ce576120ce61536a565b90600052602060002090601091828204019190066002029054906101000a900461ffff166101cb84815481106121065761210661536a565b90600052602060002090601091828204019190066002026101000a81548161ffff021916908361ffff1602179055505b6101ca818154811061214a5761214a61536a565b60009182526020822001546040516001600160a01b03909116917fd3281a40d50ae838fe77dc627744037b8f0fc6a5711d66119a9b670c5cde41af91a26101ca80548061219957612199615420565b600082815260209020810160001990810180546001600160a01b03191690550190556101cb8054806121cd576121cd615420565b600082815260209020601060001990920191820401805461ffff6002600f8516026101000a02191690559055505050565b60606101cb805480602002602001604051908101604052809291908181526020018280548015610cf657602002820191906000526020600020906000905b82829054906101000a900461ffff1661ffff168152602001906002019060208260010104928301926001038202915080841161223c5790505050505050905090565b6000806040518060400160405280612294612501565b81526020016122a260fd5490565b90529050610d9681846000613fe8565b600054610100900460ff166122d95760405162461bcd60e51b815260040161042d90615436565b6298968061012d81905561012e5561012f80546001600160a01b0319169055600061013255565b6000306307a2d13a612327846001600160a01b0316600090815260fb602052604090205490565b6040518263ffffffff1660e01b8152600401610dd891815260200190565b60008281526101986020526040902060010154612361816129c2565b610f568383612cdf565b6001600160a01b038116600090815260fb6020526040812054610c68565b60606101ca805480602002602001604051908101604052809291908181526020018280548015610cf657602002820191906000526020600020905b81546001600160a01b031681526001909101906020018083116123c4575050505050905090565b6001600160a01b03918216600090815260fc6020908152604080832093909416825291909152205490565b61241e6125ad565b6001600160a01b0381166124455760405163e6c4247b60e01b815260040160405180910390fd5b61012f80546001600160a01b0319166001600160a01b0383169081179091556040517f647672599d3468abcfa241a13c9e3d34383caadb5cc80fb67c3cdfcd5f78605990600090a250565b6124986125ad565b606580546001600160a01b0383166001600160a01b031990911681179091556124c96033546001600160a01b031690565b6001600160a01b03167f38d16b8cac22d99fc7c124b9cd0de2d3fa1faef420bfe791d8c362d765e2270060405160405180910390a350565b6000805b6101ca548110156125a9576101ca81815481106125245761252461536a565b60009182526020918290200154604080516278744560e21b815290516001600160a01b03909216926301e1d114926004808401938290030181865afa158015612571573d6000803e3d6000fd5b505050506040513d601f19601f8201168201806040525081019061259591906152ef565b61259f908361531e565b9150600101612505565b5090565b6033546001600160a01b0316331461130e5760405162461bcd60e51b815260206004820181905260248201527f4f776e61626c653a2063616c6c6572206973206e6f7420746865206f776e6572604482015260640161042d565b6000836020015160000361261c575081610d96565b6020840151845161262d9085615331565b6126379190615348565b90508180156126615750835160208501518491906126559084615331565b61265f9190615348565b105b15610d96578061267081615481565b95945050505050565b6001600160a01b0383166126db5760405162461bcd60e51b8152602060048201526024808201527f45524332303a20617070726f76652066726f6d20746865207a65726f206164646044820152637265737360e01b606482015260840161042d565b6001600160a01b03821661273c5760405162461bcd60e51b815260206004820152602260248201527f45524332303a20617070726f766520746f20746865207a65726f206164647265604482015261737360f01b606482015260840161042d565b6001600160a01b03838116600081815260fc602090815260408083209487168084529482529182902085905590518481527f8c5be1e5ebec7d5bd14f71427d1e84f3dd0314c0f7b2291e5b200ac8c7c3b925910160405180910390a3505050565b60006127a984846123eb565b9050600019811461281157818110156128045760405162461bcd60e51b815260206004820152601d60248201527f45524332303a20696e73756666696369656e7420616c6c6f77616e6365000000604482015260640161042d565b6128118484848403612679565b50505050565b6001600160a01b03831661287b5760405162461bcd60e51b815260206004820152602560248201527f45524332303a207472616e736665722066726f6d20746865207a65726f206164604482015264647265737360d81b606482015260840161042d565b6001600160a01b0382166128dd5760405162461bcd60e51b815260206004820152602360248201527f45524332303a207472616e7366657220746f20746865207a65726f206164647260448201526265737360e81b606482015260840161042d565b6001600160a01b038316600090815260fb6020526040902054818110156129555760405162461bcd60e51b815260206004820152602660248201527f45524332303a207472616e7366657220616d6f756e7420657863656564732062604482015265616c616e636560d01b606482015260840161042d565b6001600160a01b03808516600081815260fb602052604080822086860390559286168082529083902080548601905591517fddf252ad1be2c89b69c2b068fc378daa952ba7f163c4a11628f55a4df523b3ef906129b59086815260200190565b60405180910390a3612811565b6111138133614040565b6129d68282611992565b6110cd576000828152610198602090815260408083206001600160a01b03851684529091529020805460ff19166001179055612a0f3390565b6001600160a01b0316816001600160a01b0316837f2f8788117e7eff1d82e926ec794901d17c78024a50270940304540a733656f0d60405160405180910390a45050565b600260c95403612aa55760405162461bcd60e51b815260206004820152601f60248201527f5265656e7472616e637947756172643a207265656e7472616e742063616c6c00604482015260640161042d565b600260c955565b60975460ff161561130e5760405162461bcd60e51b815260206004820152601060248201526f14185d5cd8589b194e881c185d5cd95960821b604482015260640161042d565b6060612b188484846040518060600160405280602981526020016156cc60299139614099565b949350505050565b60006001600160a01b038216612b4957604051631e4ec46b60e01b815260040160405180910390fd5b60006040518060400160405280612b5e612501565b8152602001612b6c60fd5490565b90528051909150158015612b8257506020810151155b80612b9c575060008160200151118015612b9c5750805115155b612bb957604051636ccb80a360e01b815260040160405180910390fd5b6000612bc56101325490565b90508015612c38576000612bd76111b4565b33600090815260fb6020526040902054612bfa90670de0b6b3a764000090615331565b612c049190615348565b90506000612c12828861531e565b905082811115612c355760405163a942f8cd60e01b815260040160405180910390fd5b50505b6000612c4386613ed3565b9050612c5183826000613fe8565b935082602001516000148015612c6857506103e884105b15612c8657604051630aed3ed760e11b815260040160405180910390fd5b612c908585613392565b60408051878152602081018690526001600160a01b0387169133917fdcbc1c05240f31ff3ad067ef1ee35ce4997762752e3a095284754544f4c709d7910160405180910390a350505092915050565b612ce98282611992565b156110cd576000828152610198602090815260408083206001600160a01b0385168085529252808320805460ff1916905551339285917ff6391f5c32d9c69d2a47ea670b442974b53935d1edc7fd64eb21e047a839171b9190a45050565b612d4f614174565b6097805460ff191690557f5db9ee0a495bf2e6ff9c91a7834c1ba4fdd244a5e8aa4e537bd38aeae4b073aa335b6040516001600160a01b03909116815260200160405180910390a1565b600084600003612dbc57604051630db73cdf60e41b815260040160405180910390fd5b6001600160a01b038416612de357604051631e4ec46b60e01b815260040160405180910390fd5b84612e03846001600160a01b0316600090815260fb602052604090205490565b1015612e2257604051631b7451e560e21b815260040160405180910390fd5b336001600160a01b03841614612e695784612e3d84336123eb565b1015612e5c57604051631d7eb35960e31b815260040160405180910390fd5b612e67833387610f0c565b505b6000612e7460fd5490565b612e7c612501565b612e869088615331565b612e909190615348565b905080600003612eb357604051635da3252f60e11b815260040160405180910390fd5b6000612ebe826141bd565b905060008088612ecd60fd5490565b612ed7919061540d565b90506103e881108015612ee957508015155b15612f0757604051630aed3ed760e11b815260040160405180910390fd5b612f11338a6143dc565b61012d5415801590612f3f57506000612f3361012f546001600160a01b031690565b6001600160a01b031614155b156130df57612f5d612f5161012d5490565b8490633b9aca0061331f565b91508515612fb657612f6e83614510565b612f8b612f7b838561540d565b6001600160a01b038a169061461d565b612fb182612fa261012f546001600160a01b031690565b6001600160a01b03169061461d565b61317b565b6101ce546001600160a01b031663a9059cbb89612fd3858761540d565b6040516001600160e01b031960e085901b1681526001600160a01b03909216600483015260248201526044016020604051808303816000875af115801561301e573d6000803e3d6000fd5b505050506040513d601f19601f82011682018060405250810190613042919061549a565b506101ce546001600160a01b031663a9059cbb61306861012f546001600160a01b031690565b6040516001600160e01b031960e084901b1681526001600160a01b039091166004820152602481018590526044016020604051808303816000875af11580156130b5573d6000803e3d6000fd5b505050506040513d601f19601f820116820180604052508101906130d9919061549a565b5061317b565b8515613101576130ee83614510565b612fb16001600160a01b0389168461461d565b6101ce5460405163a9059cbb60e01b81526001600160a01b038a81166004830152602482018690529091169063a9059cbb906044016020604051808303816000875af1158015613155573d6000803e3d6000fd5b505050506040513d601f19601f82011682018060405250810190613179919061549a565b505b6001600160a01b03808816908916337ffbde797d201c681b91056529119e0b02407c7bb96a4a2c75c01fc9667232c8db6131b5868861540d565b60408051918252602082018f90520160405180910390a46131d6828461540d565b9998505050505050505050565b6040516001600160a01b03808516602483015283166044820152606481018290526128119085906323b872dd60e01b906084015b60408051601f198184030181529190526020810180516001600160e01b03166001600160e01b031990931692909217909152614736565b606580546001600160a01b03191690556111138161480b565b6000805b6101ca548110156125a9576101ca818154811061328a5761328a61536a565b9060005260206000200160009054906101000a90046001600160a01b03166001600160a01b0316634641257d6040518163ffffffff1660e01b81526004016020604051808303816000875af11580156132e7573d6000803e3d6000fd5b505050506040513d601f19601f8201168201806040525081019061330b91906152ef565b61331590836154b7565b915060010161326b565b60008061332c8486615331565b90508260000361334f57604051639124a73d60e01b815260040160405180910390fd5b84158061335a575083155b15613369576000915050610d96565b8261337560018361540d565b61337f9190615348565b61338a90600161531e565b915050610d96565b6001600160a01b0382166133e85760405162461bcd60e51b815260206004820152601f60248201527f45524332303a206d696e7420746f20746865207a65726f206164647265737300604482015260640161042d565b8060fd60008282546133fa919061531e565b90915550506001600160a01b038216600081815260fb60209081526040808320805486019055518481527fddf252ad1be2c89b69c2b068fc378daa952ba7f163c4a11628f55a4df523b3ef910160405180910390a35050565b600061345d612501565b6101cd546101ca549192509060008167ffffffffffffffff81111561348457613484614f12565b6040519080825280602002602001820160405280156134ad578160200160208202803683370190505b50905060008267ffffffffffffffff8111156134cb576134cb614f12565b6040519080825280602002602001820160405280156134f4578160200160208202803683370190505b50905060005b8381101561376d576101cc546101cb805460009261ffff169190849081106135245761352461536a565b6000918252602090912060108204015461354e91600f166002026101000a900461ffff1689615331565b6135589190615348565b905060006101ca83815481106135705761357061536a565b60009182526020918290200154604080516278744560e21b815290516001600160a01b03909216926301e1d114926004808401938290030181865afa1580156135bd573d6000803e3d6000fd5b505050506040513d601f19601f820116820180604052508101906135e191906152ef565b90506135ed81836154df565b8584815181106135ff576135ff61536a565b6020026020010181815250508284848151811061361e5761361e61536a565b6020908102919091010152600061363684600161531e565b90505b86811015613762578581815181106136535761365361536a565b602002602001015186858151811061366d5761366d61536a565b6020026020010151131561375a5785818151811061368d5761368d61536a565b60200260200101518685815181106136a7576136a761536a565b60200260200101518786815181106136c1576136c161536a565b602002602001018884815181106136da576136da61536a565b60200260200101828152508281525050508481815181106136fd576136fd61536a565b60200260200101518585815181106137175761371761536a565b60200260200101518686815181106137315761373161536a565b6020026020010187848151811061374a5761374a61536a565b6020908102919091010191909152525b600101613639565b5050506001016134fa565b5060005b83811015613ae3578483828151811061378c5761378c61536a565b60200260200101511380156137c157506137a5856154ff565b8382815181106137b7576137b761536a565b6020026020010151125b613adb5760008382815181106137d9576137d961536a565b602002602001015113156139e65760006101ca8383815181106137fe576137fe61536a565b6020026020010151815481106138165761381661536a565b60009182526020918290200154604080516338d52e0f60e01b815290516001600160a01b03909216926338d52e0f926004808401938290030181865afa158015613864573d6000803e3d6000fd5b505050506040513d601f19601f820116820180604052508101906138889190615380565b6040516370a0823160e01b81523060048201526001600160a01b0391909116906370a0823190602401602060405180830381865afa1580156138ce573d6000803e3d6000fd5b505050506040513d601f19601f820116820180604052508101906138f291906152ef565b90506000818584815181106139095761390961536a565b602002602001015111613935578483815181106139285761392861536a565b6020026020010151613937565b815b90506101ca84848151811061394e5761394e61536a565b6020026020010151815481106139665761396661536a565b60009182526020909120015460405163a5e3875160e01b8152600481018390526001600160a01b039091169063a5e38751906024016020604051808303816000875af11580156139ba573d6000803e3d6000fd5b505050506040513d601f19601f820116820180604052508101906139de91906152ef565b505050613adb565b60008382815181106139fa576139fa61536a565b60200260200101511215613adb576101ca828281518110613a1d57613a1d61536a565b602002602001015181548110613a3557613a3561536a565b60009182526020909120015483516001600160a01b039091169063440e6dff90859084908110613a6757613a6761536a565b6020026020010151613a78906154ff565b6040518263ffffffff1660e01b8152600401613a9691815260200190565b6020604051808303816000875af1158015613ab5573d6000803e3d6000fd5b505050506040513d601f19601f82011682018060405250810190613ad991906152ef565b505b600101613771565b505050505050565b600054610100900460ff16613b125760405162461bcd60e51b815260040161042d90615436565b6110cd828261485d565b600054610100900460ff16613b435760405162461bcd60e51b815260040161042d90615436565b61016580546001600160a01b0319166001600160a01b038316908117909155611113576040516332a1e6cf60e21b815260040160405180910390fd5b600054610100900460ff1661130e5760405162461bcd60e51b815260040161042d90615436565b600054610100900460ff16613bcd5760405162461bcd60e51b815260040161042d90615436565b8151600003613bef57604051630db580a560e31b815260040160405180910390fd5b8051600003613c115760405163108cef9d60e31b815260040160405180910390fd5b8051825114613c335760405163f846d15360e01b815260040160405180910390fd5b8151613c47906101ca906020850190614ceb565b508051613c5c906101cb906020840190614c46565b506101cc805461ffff1916905560646101cd5560005b8251811015613cd657818181518110613c8d57613c8d61536a565b60209081029190910101516101cc8054600090613caf90849061ffff1661539d565b92506101000a81548161ffff021916908361ffff1602179055508080600101915050613c72565b506101cc5461ffff16600003613cff5760405163108cef9d60e31b815260040160405180910390fd5b6101cc5461271061ffff90911611156110cd5760405163108cef9d60e31b815260040160405180910390fd5b801580613da55750604051636eb1769f60e11b81523060048201526001600160a01b03838116602483015284169063dd62ed3e90604401602060405180830381865afa158015613d7f573d6000803e3d6000fd5b505050506040513d601f19601f82011682018060405250810190613da391906152ef565b155b613e105760405162461bcd60e51b815260206004820152603660248201527f5361666545524332303a20617070726f76652066726f6d206e6f6e2d7a65726f60448201527520746f206e6f6e2d7a65726f20616c6c6f77616e636560501b606482015260840161042d565b6040516001600160a01b038316602482015260448101829052610f5690849063095ea7b360e01b90606401613217565b613e48612aac565b6097805460ff191660011790557f62e78cea01bee320cd4e420270b5ea74000d11b0c9f74754ebdbfc544b05a258612d7c3390565b6001600160a01b03811660009081526001830160205260408120541515610d96565b6000610d96836001600160a01b03841661489d565b6000610d96836001600160a01b0384166148ec565b6000610c68825490565b6000805b6101ca54811015613fe2576101cc546101cb805460009261ffff16919084908110613f0457613f0461536a565b60009182526020909120601082040154613f2e91600f166002026101000a900461ffff1686615331565b613f389190615348565b90508015613fd9576101ca8281548110613f5457613f5461536a565b60009182526020909120015460405163a5e3875160e01b8152600481018390526001600160a01b039091169063a5e38751906024016020604051808303816000875af1158015613fa8573d6000803e3d6000fd5b505050506040513d601f19601f82011682018060405250810190613fcc91906152ef565b613fd6908461531e565b92505b50600101613ed7565b50919050565b82516000901580613ffb57506020840151155b15614007575081610d96565b835160208501516140189085615331565b6140229190615348565b90508180156126615750602084015184518491906126559084615331565b61404a8282611992565b6110cd57614057816149e6565b6140628360206149f8565b60405160200161407392919061551b565b60408051601f198184030181529082905262461bcd60e51b825261042d91600401614da3565b6060824710156140fa5760405162461bcd60e51b815260206004820152602660248201527f416464726573733a20696e73756666696369656e742062616c616e636520666f6044820152651c8818d85b1b60d21b606482015260840161042d565b600080866001600160a01b031685876040516141169190615590565b60006040518083038185875af1925050503d8060008114614153576040519150601f19603f3d011682016040523d82523d6000602084013e614158565b606091505b509150915061416987838387614b94565b979650505050505050565b60975460ff1661130e5760405162461bcd60e51b815260206004820152601460248201527314185d5cd8589b194e881b9bdd081c185d5cd95960621b604482015260640161042d565b6101ca54600090819067ffffffffffffffff8111156141de576141de614f12565b604051908082528060200260200182016040528015614207578160200160208202803683370190505b506101ca54909150600090815b818110156142ee576101ca81815481106142305761423061536a565b60009182526020918290200154604080516278744560e21b815290516001600160a01b03909216926301e1d114926004808401938290030181865afa15801561427d573d6000803e3d6000fd5b505050506040513d601f19601f820116820180604052508101906142a191906152ef565b8482815181106142b3576142b361536a565b6020026020010181815250508381815181106142d1576142d161536a565b6020026020010151836142e4919061531e565b9250600101614214565b506000935060005b818110156143d3576000838583815181106143135761431361536a565b6020026020010151886143269190615331565b6143309190615348565b90506101ca82815481106143465761434661536a565b60009182526020909120015460405163440e6dff60e01b8152600481018390526001600160a01b039091169063440e6dff906024016020604051808303816000875af115801561439a573d6000803e3d6000fd5b505050506040513d601f19601f820116820180604052508101906143be91906152ef565b6143c8908761531e565b9550506001016142f6565b50505050919050565b6001600160a01b03821661443c5760405162461bcd60e51b815260206004820152602160248201527f45524332303a206275726e2066726f6d20746865207a65726f206164647265736044820152607360f81b606482015260840161042d565b6001600160a01b038216600090815260fb6020526040902054818110156144b05760405162461bcd60e51b815260206004820152602260248201527f45524332303a206275726e20616d6f756e7420657863656564732062616c616e604482015261636560f01b606482015260840161042d565b6001600160a01b038316600081815260fb60209081526040808320868603905560fd80548790039055518581529192917fddf252ad1be2c89b69c2b068fc378daa952ba7f163c4a11628f55a4df523b3ef910160405180910390a3505050565b80600003614531576040516393116e7160e01b815260040160405180910390fd5b610165546040516370a0823160e01b81523060048201526000916001600160a01b0316906370a0823190602401602060405180830381865afa15801561457b573d6000803e3d6000fd5b505050506040513d601f19601f8201168201806040525081019061459f91906152ef565b9050818110156145c25760405163ea920f3760e01b815260040160405180910390fd5b61016554604051632e1a7d4d60e01b8152600481018490526001600160a01b0390911690632e1a7d4d90602401600060405180830381600087803b15801561460957600080fd5b505af1158015613ae3573d6000803e3d6000fd5b8047101561466d5760405162461bcd60e51b815260206004820152601d60248201527f416464726573733a20696e73756666696369656e742062616c616e6365000000604482015260640161042d565b6000826001600160a01b03168260405160006040518083038185875af1925050503d80600081146146ba576040519150601f19603f3d011682016040523d82523d6000602084013e6146bf565b606091505b5050905080610f565760405162461bcd60e51b815260206004820152603a60248201527f416464726573733a20756e61626c6520746f2073656e642076616c75652c207260448201527f6563697069656e74206d61792068617665207265766572746564000000000000606482015260840161042d565b600061478b826040518060400160405280602081526020017f5361666545524332303a206c6f772d6c6576656c2063616c6c206661696c6564815250856001600160a01b0316614c0d9092919063ffffffff16565b90508051600014806147ac5750808060200190518101906147ac919061549a565b610f565760405162461bcd60e51b815260206004820152602a60248201527f5361666545524332303a204552433230206f7065726174696f6e20646964206e6044820152691bdd081cdd58d8d9595960b21b606482015260840161042d565b603380546001600160a01b038381166001600160a01b0319831681179093556040519116919082907f8be0079c531659141344cd1fd0a4f28419497f9722a3daafe3b4186f6b6457e090600090a35050565b600054610100900460ff166148845760405162461bcd60e51b815260040161042d90615436565b60fe61489083826155f4565b5060ff610f5682826155f4565b60008181526001830160205260408120546148e457508154600181810184556000848152602080822090930184905584548482528286019093526040902091909155610c68565b506000610c68565b600081815260018301602052604081205480156149d557600061491060018361540d565b85549091506000906149249060019061540d565b90508181146149895760008660000182815481106149445761494461536a565b90600052602060002001549050808760000184815481106149675761496761536a565b6000918252602080832090910192909255918252600188019052604090208390555b855486908061499a5761499a615420565b600190038181906000526020600020016000905590558560010160008681526020019081526020016000206000905560019350505050610c68565b6000915050610c68565b5092915050565b6060610c686001600160a01b03831660145b60606000614a07836002615331565b614a1290600261531e565b67ffffffffffffffff811115614a2a57614a2a614f12565b6040519080825280601f01601f191660200182016040528015614a54576020820181803683370190505b509050600360fc1b81600081518110614a6f57614a6f61536a565b60200101906001600160f81b031916908160001a905350600f60fb1b81600181518110614a9e57614a9e61536a565b60200101906001600160f81b031916908160001a9053506000614ac2846002615331565b614acd90600161531e565b90505b6001811115614b45576f181899199a1a9b1b9c1cb0b131b232b360811b85600f1660108110614b0157614b0161536a565b1a60f81b828281518110614b1757614b1761536a565b60200101906001600160f81b031916908160001a90535060049490941c93614b3e816156b4565b9050614ad0565b508315610d965760405162461bcd60e51b815260206004820181905260248201527f537472696e67733a20686578206c656e67746820696e73756666696369656e74604482015260640161042d565b60608315614c03578251600003614bfc576001600160a01b0385163b614bfc5760405162461bcd60e51b815260206004820152601d60248201527f416464726573733a2063616c6c20746f206e6f6e2d636f6e7472616374000000604482015260640161042d565b5081612b18565b612b188383614c1c565b6060612b188484600085614099565b815115614c2c5781518083602001fd5b8060405162461bcd60e51b815260040161042d9190614da3565b82805482825590600052602060002090600f01601090048101928215614cdf5791602002820160005b83821115614caf57835183826101000a81548161ffff021916908361ffff1602179055509260200192600201602081600101049283019260010302614c6f565b8015614cdd5782816101000a81549061ffff0219169055600201602081600101049283019260010302614caf565b505b506125a9929150614d40565b828054828255906000526020600020908101928215614cdf579160200282015b82811115614cdf57825182546001600160a01b0319166001600160a01b03909116178255602090920191600190910190614d0b565b5b808211156125a95760008155600101614d41565b600060208284031215614d6757600080fd5b81356001600160e01b031981168114610d9657600080fd5b60005b83811015614d9a578181015183820152602001614d82565b50506000910152565b6020815260008251806020840152614dc2816040850160208701614d7f565b601f01601f19169190910160400192915050565b600060208284031215614de857600080fd5b5035919050565b6001600160a01b038116811461111357600080fd5b803561104e81614def565b60008060408385031215614e2257600080fd5b8235614e2d81614def565b946020939093013593505050565b600060208284031215614e4d57600080fd5b8135610d9681614def565b600080600060608486031215614e6d57600080fd5b8335614e7881614def565b92506020840135614e8881614def565b929592945050506040919091013590565b60008060408385031215614eac57600080fd5b823591506020830135614ebe81614def565b809150509250929050565b60008083601f840112614edb57600080fd5b50813567ffffffffffffffff811115614ef357600080fd5b602083019150836020828501011115614f0b57600080fd5b9250929050565b634e487b7160e01b600052604160045260246000fd5b604051601f8201601f1916810167ffffffffffffffff81118282101715614f5157614f51614f12565b604052919050565b600067ffffffffffffffff821115614f7357614f73614f12565b5060051b60200190565b600082601f830112614f8e57600080fd5b81356020614fa3614f9e83614f59565b614f28565b8083825260208201915060208460051b870101935086841115614fc557600080fd5b602086015b84811015614fea578035614fdd81614def565b8352918301918301614fca565b509695505050505050565b600082601f83011261500657600080fd5b81356020615016614f9e83614f59565b8083825260208201915060208460051b87010193508684111561503857600080fd5b602086015b84811015614fea57803561ffff811681146150585760008081fd5b835291830191830161503d565b600080600080600080600080600060e08a8c03121561508357600080fd5b61508c8a614e04565b985060208a013567ffffffffffffffff808211156150a957600080fd5b6150b58d838e01614ec9565b909a50985060408c01359150808211156150ce57600080fd5b6150da8d838e01614ec9565b90985096508691506150ee60608d01614e04565b955060808c013591508082111561510457600080fd5b6151108d838e01614f7d565b945060a08c013591508082111561512657600080fd5b506151338c828d01614ff5565b92505061514260c08b01614e04565b90509295985092959850929598565b801515811461111357600080fd5b6000806040838503121561517257600080fd5b823561517d81614def565b91506020830135614ebe81615151565b6000806000606084860312156151a257600080fd5b8335925060208401356151b481614def565b915060408401356151c481614def565b809150509250925092565b6000602082840312156151e157600080fd5b813567ffffffffffffffff8111156151f857600080fd5b612b1884828501614ff5565b6020808252825182820181905260009190848201906040850190845b8181101561524057835161ffff1683529284019291840191600101615220565b50909695505050505050565b6020808252825182820181905260009190848201906040850190845b818110156152405783516001600160a01b031683529284019291840191600101615268565b600080604083850312156152a057600080fd5b82356152ab81614def565b91506020830135614ebe81614def565b600181811c908216806152cf57607f821691505b602082108103613fe257634e487b7160e01b600052602260045260246000fd5b60006020828403121561530157600080fd5b5051919050565b634e487b7160e01b600052601160045260246000fd5b80820180821115610c6857610c68615308565b8082028115828204841417610c6857610c68615308565b60008261536557634e487b7160e01b600052601260045260246000fd5b500490565b634e487b7160e01b600052603260045260246000fd5b60006020828403121561539257600080fd5b8151610d9681614def565b61ffff8181168382160190808211156149df576149df615308565b815160009082906020808601845b838110156153e657815161ffff16855293820193908201906001016153c6565b50929695505050505050565b61ffff8281168282160390808211156149df576149df615308565b81810381811115610c6857610c68615308565b634e487b7160e01b600052603160045260246000fd5b6020808252602b908201527f496e697469616c697a61626c653a20636f6e7472616374206973206e6f74206960408201526a6e697469616c697a696e6760a81b606082015260800190565b60006001820161549357615493615308565b5060010190565b6000602082840312156154ac57600080fd5b8151610d9681615151565b80820182811260008312801582168215821617156154d7576154d7615308565b505092915050565b81810360008312801583831316838312821617156149df576149df615308565b6000600160ff1b820161551457615514615308565b5060000390565b7f416363657373436f6e74726f6c3a206163636f756e7420000000000000000000815260008351615553816017850160208801614d7f565b7001034b99036b4b9b9b4b733903937b6329607d1b6017918401918201528351615584816028840160208801614d7f565b01602801949350505050565b600082516155a2818460208701614d7f565b9190910192915050565b601f821115610f56576000816000526020600020601f850160051c810160208610156155d55750805b601f850160051c820191505b81811015613ae3578281556001016155e1565b815167ffffffffffffffff81111561560e5761560e614f12565b6156228161561c84546152bb565b846155ac565b602080601f831160018114615657576000841561563f5750858301515b600019600386901b1c1916600185901b178555613ae3565b600085815260208120601f198616915b8281101561568657888601518255948401946001909101908401615667565b50858210156156a45787850151600019600388901b60f8161c191681555b5050505050600190811b01905550565b6000816156c3576156c3615308565b50600019019056fe416464726573733a206c6f772d6c6576656c2063616c6c20776974682076616c7565206661696c656465d7a28e3265b37a6474929f336521b332c1681b933f6cb9f3376673440d862aa264697066735822122034cc981f8aa9e1b77c2955902b84a2cbaf02afef930ae7eb3fa8277e76a957ca64736f6c63430008180033",
  "linkReferences": {},
  "deployedLinkReferences": {}
}