{
  "_format": "hh-sol-artifact-1",
  "contractName": "StrategyCurveSwapAnd",
  "sourceName": "contracts/core/strategies/StrategyCurveSwapAnd.sol",
  "abi": [
    {
      "inputs": [
        {
          "internalType": "address",
          "name": "initialOwner",
          "type": "address"
        },
        {
          "internalType": "contract IERC20",
          "name": "iAsset",
          "type": "address"
        },
        {
          "internalType": "contract IStrategy",
          "name": "iUnderlyingStrategy",
          "type": "address"
        },
        {
          "internalType": "contract IOracle",
          "name": "iOracle",
          "type": "address"
        },
        {
          "internalType": "contract ICurveRouterNG",
          "name": "router",
          "type": "address"
        },
        {
          "internalType": "address",
          "name": "iPool",
          "type": "address"
        },
        {
          "internalType": "uint8",
          "name": "inTokenPoolIndex",
          "type": "uint8"
        },
        {
          "internalType": "uint8",
          "name": "outTokenPoolIndex",
          "type": "uint8"
        },
        {
          "internalType": "uint8",
          "name": "iSwapType",
          "type": "uint8"
        },
        {
          "internalType": "uint8",
          "name": "iPoolType",
          "type": "uint8"
        }
      ],
      "stateMutability": "nonpayable",
      "type": "constructor"
    },
    {
      "inputs": [],
      "name": "FailedToApproveAllowance",
      "type": "error"
    },
    {
      "inputs": [],
      "name": "FailedToApproveAllowanceFor",
      "type": "error"
    },
    {
      "inputs": [],
      "name": "InsufficientBalance",
      "type": "error"
    },
    {
      "inputs": [],
      "name": "InvalidAmount",
      "type": "error"
    },
    {
      "inputs": [],
      "name": "InvalidConfiguration",
      "type": "error"
    },
    {
      "inputs": [],
      "name": "InvalidCurveRouterContract",
      "type": "error"
    },
    {
      "inputs": [],
      "name": "InvalidInputToken",
      "type": "error"
    },
    {
      "inputs": [],
      "name": "InvalidOutputToken",
      "type": "error"
    },
    {
      "inputs": [],
      "name": "SlippageExceeded",
      "type": "error"
    },
    {
      "inputs": [],
      "name": "SwapFailed",
      "type": "error"
    },
    {
      "inputs": [],
      "name": "UnsupportedSwapType",
      "type": "error"
    },
    {
      "anonymous": false,
      "inputs": [
        {
          "indexed": true,
          "internalType": "address",
          "name": "previousOwner",
          "type": "address"
        },
        {
          "indexed": true,
          "internalType": "address",
          "name": "newOwner",
          "type": "address"
        }
      ],
      "name": "OwnershipTransferred",
      "type": "event"
    },
    {
      "anonymous": false,
      "inputs": [
        {
          "indexed": true,
          "internalType": "uint256",
          "name": "newDeployment",
          "type": "uint256"
        }
      ],
      "name": "StrategyAmountUpdate",
      "type": "event"
    },
    {
      "anonymous": false,
      "inputs": [
        {
          "indexed": true,
          "internalType": "address",
          "name": "from",
          "type": "address"
        },
        {
          "indexed": true,
          "internalType": "uint256",
          "name": "amount",
          "type": "uint256"
        }
      ],
      "name": "StrategyDeploy",
      "type": "event"
    },
    {
      "anonymous": false,
      "inputs": [
        {
          "indexed": true,
          "internalType": "uint256",
          "name": "amount",
          "type": "uint256"
        }
      ],
      "name": "StrategyLoss",
      "type": "event"
    },
    {
      "anonymous": false,
      "inputs": [
        {
          "indexed": true,
          "internalType": "uint256",
          "name": "amount",
          "type": "uint256"
        }
      ],
      "name": "StrategyProfit",
      "type": "event"
    },
    {
      "anonymous": false,
      "inputs": [
        {
          "indexed": true,
          "internalType": "address",
          "name": "from",
          "type": "address"
        },
        {
          "indexed": true,
          "internalType": "uint256",
          "name": "amount",
          "type": "uint256"
        }
      ],
      "name": "StrategyUndeploy",
      "type": "event"
    },
    {
      "inputs": [],
      "name": "ETH_ADDRESS",
      "outputs": [
        {
          "internalType": "address",
          "name": "",
          "type": "address"
        }
      ],
      "stateMutability": "view",
      "type": "function"
    },
    {
      "inputs": [],
      "name": "asset",
      "outputs": [
        {
          "internalType": "address",
          "name": "",
          "type": "address"
        }
      ],
      "stateMutability": "view",
      "type": "function"
    },
    {
      "inputs": [],
      "name": "curveRouter",
      "outputs": [
        {
          "internalType": "contract ICurveRouterNG",
          "name": "",
          "type": "address"
        }
      ],
      "stateMutability": "view",
      "type": "function"
    },
    {
      "inputs": [
        {
          "internalType": "uint256",
          "name": "amount",
          "type": "uint256"
        }
      ],
      "name": "deploy",
      "outputs": [
        {
          "internalType": "uint256",
          "name": "amountUsed",
          "type": "uint256"
        }
      ],
      "stateMutability": "nonpayable",
      "type": "function"
    },
    {
      "inputs": [],
      "name": "harvest",
      "outputs": [
        {
          "internalType": "int256",
          "name": "balanceChange",
          "type": "int256"
        }
      ],
      "stateMutability": "nonpayable",
      "type": "function"
    },
    {
      "inputs": [],
      "name": "maxSlippage",
      "outputs": [
        {
          "internalType": "uint256",
          "name": "",
          "type": "uint256"
        }
      ],
      "stateMutability": "view",
      "type": "function"
    },
    {
      "inputs": [],
      "name": "oracle",
      "outputs": [
        {
          "internalType": "address",
          "name": "",
          "type": "address"
        }
      ],
      "stateMutability": "view",
      "type": "function"
    },
    {
      "inputs": [],
      "name": "owner",
      "outputs": [
        {
          "internalType": "address",
          "name": "",
          "type": "address"
        }
      ],
      "stateMutability": "view",
      "type": "function"
    },
    {
      "inputs": [],
      "name": "pool",
      "outputs": [
        {
          "internalType": "address",
          "name": "",
          "type": "address"
        }
      ],
      "stateMutability": "view",
      "type": "function"
    },
    {
      "inputs": [],
      "name": "renounceOwnership",
      "outputs": [],
      "stateMutability": "nonpayable",
      "type": "function"
    },
    {
      "inputs": [
        {
          "internalType": "uint256",
          "name": "maxSlippage_",
          "type": "uint256"
        }
      ],
      "name": "setMaxSlippage",
      "outputs": [],
      "stateMutability": "nonpayable",
      "type": "function"
    },
    {
      "inputs": [],
      "name": "totalAssets",
      "outputs": [
        {
          "internalType": "uint256",
          "name": "",
          "type": "uint256"
        }
      ],
      "stateMutability": "view",
      "type": "function"
    },
    {
      "inputs": [
        {
          "internalType": "address",
          "name": "newOwner",
          "type": "address"
        }
      ],
      "name": "transferOwnership",
      "outputs": [],
      "stateMutability": "nonpayable",
      "type": "function"
    },
    {
      "inputs": [
        {
          "internalType": "uint256",
          "name": "amount",
          "type": "uint256"
        }
      ],
      "name": "undeploy",
      "outputs": [
        {
          "internalType": "uint256",
          "name": "undeployedAmount_",
          "type": "uint256"
        }
      ],
      "stateMutability": "nonpayable",
      "type": "function"
    },
    {
      "inputs": [],
      "name": "underlyingAsset",
      "outputs": [
        {
          "internalType": "address",
          "name": "",
          "type": "address"
        }
      ],
      "stateMutability": "view",
      "type": "function"
    }
  ],
  "bytecode": "0x6101806040523480156200001257600080fd5b506040516200233c3803806200233c833981016040819052620000359162000583565b60016000558989898962000049336200031a565b6001600160a01b0383161580620000d6575060006001600160a01b0316826001600160a01b03166338d52e0f6040518163ffffffff1660e01b8152600401602060405180830381865afa158015620000a5573d6000803e3d6000fd5b505050506040513d601f19601f82011682018060405250810190620000cb919062000663565b6001600160a01b0316145b80620000e957506001600160a01b038116155b15620001085760405163c52a9bd360e01b815260040160405180910390fd5b6001600160a01b03808416608052811660a05262000126846200036c565b816001600160a01b03166338d52e0f6040518163ffffffff1660e01b8152600401602060405180830381865afa15801562000165573d6000803e3d6000fd5b505050506040513d601f19601f820116820180604052508101906200018b919062000663565b60405163095ea7b360e01b81526001600160a01b0384811660048301526000196024830152919091169063095ea7b3906044016020604051808303816000875af1158015620001de573d6000803e3d6000fd5b505050506040513d601f19601f820116820180604052508101906200020491906200068a565b620002225760405163474a9d3760e01b815260040160405180910390fd5b506001600160a01b0390811660c052871691506200025590505760405163c52a9bd360e01b815260040160405180910390fd5b6001600160a01b03851660e05260ff8085166101005283811661012052828116610140528116610160526200028a86620003ef565b62000298896000196200042a565b6200030a886001600160a01b03166338d52e0f6040518163ffffffff1660e01b8152600401602060405180830381865afa158015620002db573d6000803e3d6000fd5b505050506040513d601f19601f8201168201806040525081019062000301919062000663565b6000196200042a565b50505050505050505050620006ae565b600180546001600160a01b038381166001600160a01b0319831681179093556040519116919082907f8be0079c531659141344cd1fd0a4f28419497f9722a3daafe3b4186f6b6457e090600090a35050565b62000376620004d9565b6001600160a01b038116620003e15760405162461bcd60e51b815260206004820152602660248201527f4f776e61626c653a206e6577206f776e657220697320746865207a65726f206160448201526564647265737360d01b60648201526084015b60405180910390fd5b620003ec816200031a565b50565b6001600160a01b038116620004175760405163b90e00fb60e01b815260040160405180910390fd5b6000805160206200231c83398151915255565b6001600160a01b03821663095ea7b36200044362000537565b6040516001600160e01b031960e084901b1681526001600160a01b039091166004820152602481018490526044016020604051808303816000875af115801562000491573d6000803e3d6000fd5b505050506040513d601f19601f82011682018060405250810190620004b791906200068a565b620004d5576040516302e8763f60e31b815260040160405180910390fd5b5050565b6001546001600160a01b03163314620005355760405162461bcd60e51b815260206004820181905260248201527f4f776e61626c653a2063616c6c6572206973206e6f7420746865206f776e65726044820152606401620003d8565b565b6000620005516000805160206200231c8339815191525490565b905090565b6001600160a01b0381168114620003ec57600080fd5b805160ff811681146200057e57600080fd5b919050565b6000806000806000806000806000806101408b8d031215620005a457600080fd5b8a51620005b18162000556565b60208c0151909a50620005c48162000556565b60408c0151909950620005d78162000556565b60608c0151909850620005ea8162000556565b60808c0151909750620005fd8162000556565b60a08c0151909650620006108162000556565b94506200062060c08c016200056c565b93506200063060e08c016200056c565b9250620006416101008c016200056c565b9150620006526101208c016200056c565b90509295989b9194979a5092959850565b6000602082840312156200067657600080fd5b8151620006838162000556565b9392505050565b6000602082840312156200069d57600080fd5b815180151581146200068357600080fd5b60805160a05160c05160e05161010051610120516101405161016051611b98620007846000396000610e8601526000610e5e015260008181610d790152610e01015260008181610d9f0152610e270152600081816101170152610eb50152600081816102e801528181610607015281816107f401526109790152600081816101b701528181610b0101528181610b7401528181610c3d0152610cab015260008181610151015281816103de0152818161047e015281816106d50152818161074c01528181610d3c0152610dc40152611b986000f3fe608060405234801561001057600080fd5b50600436106100f55760003560e01c80637158da7c11610097578063a5e3875111610066578063a5e38751146101f4578063a734f06e14610207578063cda90b8814610222578063f2fde38b1461024957600080fd5b80637158da7c146101ad5780637dc0d1d0146101b55780638c04166f146101db5780638da5cb5b146101e357600080fd5b806343f68a49116100d357806343f68a4914610175578063440e6dff1461018a5780634641257d1461019d578063715018a6146101a557600080fd5b806301e1d114146100fa57806316f0115b1461011557806338d52e0f1461014f575b600080fd5b61010261025c565b6040519081526020015b60405180910390f35b7f00000000000000000000000000000000000000000000000000000000000000005b6040516001600160a01b03909116815260200161010c565b7f0000000000000000000000000000000000000000000000000000000000000000610137565b610188610183366004611773565b61026b565b005b610102610198366004611773565b610278565b610102610512565b6101886105ef565b610137610603565b7f0000000000000000000000000000000000000000000000000000000000000000610137565b600254610102565b6001546001600160a01b0316610137565b610102610202366004611773565b610687565b61013773eeeeeeeeeeeeeeeeeeeeeeeeeeeeeeeeeeeeeeee81565b7f12bf5c1f8c71d2ab50ad26cd63e0f5c50ba43161b985f5d4c823c1c5b55e3f1b54610137565b6101886102573660046117a1565b6108f6565b6000610266610974565b905090565b610273610a21565b600255565b6000610282610a7b565b816000036102a35760405163162908e360e11b815260040160405180910390fd5b6003548211156102c65760405163162908e360e11b815260040160405180910390fd5b60408051808201909152610e1081526064602082015260006001600160a01b037f00000000000000000000000000000000000000000000000000000000000000001663440e6dff6103178487610ad4565b6040518263ffffffff1660e01b815260040161033591815260200190565b6020604051808303816000875af1158015610354573d6000803e3d6000fd5b505050506040513d601f19601f8201168201806040525081019061037891906117c5565b905060006103868383610c10565b90506000633b9aca00600254633b9aca006103a191906117f4565b6103ab908461180d565b6103b59190611824565b905060006104316040518060c001604052806103cf610603565b6001600160a01b0390811682527f00000000000000000000000000000000000000000000000000000000000000001660208201526040016000815260200186815260200184815260200160405180602001604052806000815250815250610d37565b9150508181101561045557604051638199f5f360e01b815260040160405180910390fd5b836003600082825461046791906117f4565b909155509095508590506104a56001600160a01b037f0000000000000000000000000000000000000000000000000000000000000000163383610f04565b604051819033907fd876b3a71b8d3ba9e91f332c8be4f54719ce01f2583ceed9c22bf76aaa3fc35390600090a36003546040517f2dd98c29534f0234343e33770888eec9561b1580bba498c1cda8c1b8e3dbe1e090600090a2505050505061050d6001600055565b919050565b600061051c610a7b565b6000610526610974565b905060035481610536919061185c565b915060008213156105715760405182907fb24093f9ac16681be69ee94e18b6581e28387a1e4d6e25cfea38138ad5be616790600090a26105ad565b60008212156105ad5761058382611883565b6040517fede8d8525758cb6685bfabd1b6304e23cd86c77d10cc920af49e2b4637dc233e90600090a25b81156105df5760405181907f2dd98c29534f0234343e33770888eec9561b1580bba498c1cda8c1b8e3dbe1e090600090a25b6003556105ec6001600055565b90565b6105f7610a21565b6106016000610f6c565b565b60007f00000000000000000000000000000000000000000000000000000000000000006001600160a01b03166338d52e0f6040518163ffffffff1660e01b8152600401602060405180830381865afa158015610663573d6000803e3d6000fd5b505050506040513d601f19601f82011682018060405250810190610266919061189f565b6000610691610a7b565b816000036106b25760405163162908e360e11b815260040160405180910390fd5b60408051808201909152610e108152600060208201526106fd6001600160a01b037f000000000000000000000000000000000000000000000000000000000000000016333086610fbe565b60006107098285610ad4565b90506000633b9aca00600254633b9aca0061072491906117f4565b61072e908461180d565b6107389190611824565b905060006107ba6040518060c001604052807f00000000000000000000000000000000000000000000000000000000000000006001600160a01b03168152602001610781610603565b6001600160a01b031681526020016000815260200188815260200184815260200160405180602001604052806000815250815250610d37565b915050818110156107de57604051638199f5f360e01b815260040160405180910390fd5b60405163a5e3875160e01b8152600481018290527f00000000000000000000000000000000000000000000000000000000000000006001600160a01b03169063a5e38751906024016020604051808303816000875af1158015610845573d6000803e3d6000fd5b505050506040513d601f19601f8201168201806040525081019061086991906117c5565b50806003600082825461087c91906118bc565b9091555061088c90508482610c10565b604051909550869033907f642a0bcf70c335488df8376c9718c6ad9f2a5f2ce827bc883176aa0dd1062b0690600090a36003546040517f2dd98c29534f0234343e33770888eec9561b1580bba498c1cda8c1b8e3dbe1e090600090a25050505061050d6001600055565b6108fe610a21565b6001600160a01b0381166109685760405162461bcd60e51b815260206004820152602660248201527f4f776e61626c653a206e6577206f776e657220697320746865207a65726f206160448201526564647265737360d01b60648201526084015b60405180910390fd5b61097181610f6c565b50565b6000807f00000000000000000000000000000000000000000000000000000000000000006001600160a01b03166301e1d1146040518163ffffffff1660e01b8152600401602060405180830381865afa1580156109d5573d6000803e3d6000fd5b505050506040513d601f19601f820116820180604052508101906109f991906117c5565b9050610a1b604051806040016040528060008152602001600081525082610c10565b91505090565b6001546001600160a01b031633146106015760405162461bcd60e51b815260206004820181905260248201527f4f776e61626c653a2063616c6c6572206973206e6f7420746865206f776e6572604482015260640161095f565b600260005403610acd5760405162461bcd60e51b815260206004820152601f60248201527f5265656e7472616e637947756172643a207265656e7472616e742063616c6c00604482015260640161095f565b6002600055565b6040516304341d9960e01b8152825160048201526020830151602482015260009081906001600160a01b037f000000000000000000000000000000000000000000000000000000000000000016906304341d99906044016040805180830381865afa158015610b47573d6000803e3d6000fd5b505050506040513d601f19601f82011682018060405250810190610b6b91906118cf565b905080600001517f00000000000000000000000000000000000000000000000000000000000000006001600160a01b0316639670c0bc6040518163ffffffff1660e01b8152600401602060405180830381865afa158015610bd0573d6000803e3d6000fd5b505050506040513d601f19601f82011682018060405250810190610bf491906117c5565b610bfe908561180d565b610c089190611824565b949350505050565b6040516304341d9960e01b8152825160048201526020830151602482015260009081906001600160a01b037f000000000000000000000000000000000000000000000000000000000000000016906304341d99906044016040805180830381865afa158015610c83573d6000803e3d6000fd5b505050506040513d601f19601f82011682018060405250810190610ca791906118cf565b90507f00000000000000000000000000000000000000000000000000000000000000006001600160a01b0316639670c0bc6040518163ffffffff1660e01b8152600401602060405180830381865afa158015610d07573d6000803e3d6000fd5b505050506040513d601f19601f82011682018060405250810190610d2b91906117c5565b8151610bfe908561180d565b6000807f00000000000000000000000000000000000000000000000000000000000000006001600160a01b031683600001516001600160a01b031614610d9d577f0000000000000000000000000000000000000000000000000000000000000000610dbf565b7f00000000000000000000000000000000000000000000000000000000000000005b60ff167f00000000000000000000000000000000000000000000000000000000000000006001600160a01b031684602001516001600160a01b031614610e25577f0000000000000000000000000000000000000000000000000000000000000000610e47565b7f00000000000000000000000000000000000000000000000000000000000000005b60408051602081019390935260ff918216908301527f0000000000000000000000000000000000000000000000000000000000000000811660608301527f00000000000000000000000000000000000000000000000000000000000000001660808201526001600160a01b037f00000000000000000000000000000000000000000000000000000000000000001660a082015260c00160408051601f1981840301815291905260a0840152610efb83610ffc565b91509150915091565b6040516001600160a01b038316602482015260448101829052610f6790849063a9059cbb60e01b906064015b60408051601f198184030181529190526020810180516001600160e01b03166001600160e01b031990931692909217909152611030565b505050565b600180546001600160a01b038381166001600160a01b0319831681179093556040519116919082907f8be0079c531659141344cd1fd0a4f28419497f9722a3daafe3b4186f6b6457e090600090a35050565b6040516001600160a01b0380851660248301528316604482015260648101829052610ff69085906323b872dd60e01b90608401610f30565b50505050565b600080610efb61102a7f12bf5c1f8c71d2ab50ad26cd63e0f5c50ba43161b985f5d4c823c1c5b55e3f1b5490565b84611105565b6000611085826040518060400160405280602081526020017f5361666545524332303a206c6f772d6c6576656c2063616c6c206661696c6564815250856001600160a01b03166112529092919063ffffffff16565b90508051600014806110a65750808060200190518101906110a6919061192c565b610f675760405162461bcd60e51b815260206004820152602a60248201527f5361666545524332303a204552433230206f7065726174696f6e20646964206e6044820152691bdd081cdd58d8d9595960b21b606482015260840161095f565b805160009081906001600160a01b031661113257604051632df9739b60e01b815260040160405180910390fd5b60208301516001600160a01b031661115c576040516231010160e51b815260040160405180910390fd5b611164611709565b61116c611728565b611174611755565b60008060008060008a60a00151806020019051810190611194919061194e565b8f51949950929750909550935091508860006001600160a01b039092166020929092020152808860016001600160a01b03909216602092830291909101528b01518860026001600160a01b039092166020929092020152808660006001600160a01b03909216602092830291909101526040805160a08101825287815291820186905281018490526060810183905260026080820152876000602002015261123f8c8989898f611261565b9950995050505050505050509250929050565b6060610c088484600085611590565b600080808360400151600181111561127b5761127b611846565b0361135e5782516001600160a01b031673eeeeeeeeeeeeeeeeeeeeeeeeeeeeeeeeeeeeeeee146112af5782606001516112b1565b345b608084015160405163c872a3c560e01b81529193506001600160a01b0389169163c872a3c59134916112ef918b918b9189918c903090600401611a4b565b60206040518083038185885af115801561130d573d6000803e3d6000fd5b50505050506040513d601f19601f8201168201806040525081019061133291906117c5565b905082608001518110156113595760405163081ceff360e41b815260040160405180910390fd5b611586565b60018360400151600181111561137657611376611846565b0361156d57611383611755565b61138b611755565b60808501516040516390e7e20560e01b81526000916001600160a01b038c16916390e7e205916113c7918d918d918d908a908a90600401611aa1565b602060405180830381865afa1580156113e4573d6000803e3d6000fd5b505050506040513d601f19601f8201168201806040525081019061140891906117c5565b86519091506001600160a01b031673eeeeeeeeeeeeeeeeeeeeeeeeeeeeeeeeeeeeeeee14801561143757503481115b8061146e575085516001600160a01b031673eeeeeeeeeeeeeeeeeeeeeeeeeeeeeeeeeeeeeeee1480159061146e5750856060015181115b1561148c57604051631e9acf1760e31b815260040160405180910390fd5b85516001600160a01b031673eeeeeeeeeeeeeeeeeeeeeeeeeeeeeeeeeeeeeeee146114bb5785606001516114bd565b345b608087015160405163c872a3c560e01b81529196506001600160a01b038c169163c872a3c59188916114fb918e918e9185918f903090600401611a4b565b60206040518083038185885af1158015611519573d6000803e3d6000fd5b50505050506040513d601f19601f8201168201806040525081019061153e91906117c5565b935085608001518410156115655760405163081ceff360e41b815260040160405180910390fd5b505050611586565b60405163c8bde22760e01b815260040160405180910390fd5b9550959350505050565b6060824710156115f15760405162461bcd60e51b815260206004820152602660248201527f416464726573733a20696e73756666696369656e742062616c616e636520666f6044820152651c8818d85b1b60d21b606482015260840161095f565b600080866001600160a01b0316858760405161160d9190611b13565b60006040518083038185875af1925050503d806000811461164a576040519150601f19603f3d011682016040523d82523d6000602084013e61164f565b606091505b50915091506116608783838761166b565b979650505050505050565b606083156116da5782516000036116d3576001600160a01b0385163b6116d35760405162461bcd60e51b815260206004820152601d60248201527f416464726573733a2063616c6c20746f206e6f6e2d636f6e7472616374000000604482015260640161095f565b5081610c08565b610c0883838151156116ef5781518083602001fd5b8060405162461bcd60e51b815260040161095f9190611b2f565b604051806101600160405280600b906020820280368337509192915050565b6040518060a001604052806005905b61173f611755565b8152602001906001900390816117375790505090565b6040518060a001604052806005906020820280368337509192915050565b60006020828403121561178557600080fd5b5035919050565b6001600160a01b038116811461097157600080fd5b6000602082840312156117b357600080fd5b81356117be8161178c565b9392505050565b6000602082840312156117d757600080fd5b5051919050565b634e487b7160e01b600052601160045260246000fd5b81810381811115611807576118076117de565b92915050565b8082028115828204841417611807576118076117de565b60008261184157634e487b7160e01b600052601260045260246000fd5b500490565b634e487b7160e01b600052602160045260246000fd5b818103600083128015838313168383128216171561187c5761187c6117de565b5092915050565b6000600160ff1b8201611898576118986117de565b5060000390565b6000602082840312156118b157600080fd5b81516117be8161178c565b80820180821115611807576118076117de565b6000604082840312156118e157600080fd5b6040516040810181811067ffffffffffffffff8211171561191257634e487b7160e01b600052604160045260246000fd5b604052825181526020928301519281019290925250919050565b60006020828403121561193e57600080fd5b815180151581146117be57600080fd5b600080600080600060a0868803121561196657600080fd5b85519450602086015193506040860151925060608601519150608086015161198d8161178c565b809150509295509295909350565b8060005b600b811015610ff65781516001600160a01b031684526020938401939091019060010161199f565b806000805b60058082106119db5750611a18565b835186845b838110156119fe5782518252602092830192909101906001016119e0565b50505060a0959095019450602092909201916001016119cc565b5050505050565b8060005b6005811015610ff65781516001600160a01b0316845260209384019390910190600101611a23565b6105808101611a5a828961199b565b611a686101608301886119c7565b85610480830152846104a0830152611a846104c0830185611a1f565b6001600160a01b0392909216610560919091015295945050505050565b6106808101611ab0828961199b565b611abe6101608301886119c7565b85610480830152611ad36104a0830186611a1f565b611ae1610540830185611a1f565b6116606105e0830184611a1f565b60005b83811015611b0a578181015183820152602001611af2565b50506000910152565b60008251611b25818460208701611aef565b9190910192915050565b6020815260008251806020840152611b4e816040850160208701611aef565b601f01601f1916919091016040019291505056fea2646970667358221220420fd1a8db9083a49cecd81840106bd01c50082bd68de219feb68de3367fc11b64736f6c6343000818003312bf5c1f8c71d2ab50ad26cd63e0f5c50ba43161b985f5d4c823c1c5b55e3f1b",
  "linkReferences": {},
  "deployedLinkReferences": {}
}