{
  "_format": "hh-sol-artifact-1",
  "contractName": "StrategyUniV3SwapAnd",
  "sourceName": "contracts/core/strategies/StrategyUniV3SwapAnd.sol",
  "abi": [
    {
      "inputs": [
        {
          "internalType": "address",
          "name": "initialOwner",
          "type": "address"
        },
        {
          "internalType": "contract IERC20",
          "name": "iAsset",
          "type": "address"
        },
        {
          "internalType": "contract IStrategy",
          "name": "iUnderlyingStrategy",
          "type": "address"
        },
        {
          "internalType": "contract IOracle",
          "name": "iOracle",
          "type": "address"
        },
        {
          "internalType": "contract IV3SwapRouter",
          "name": "router",
          "type": "address"
        },
        {
          "internalType": "uint24",
          "name": "ifeeTier",
          "type": "uint24"
        }
      ],
      "stateMutability": "nonpayable",
      "type": "constructor"
    },
    {
      "inputs": [],
      "name": "FailedToApproveAllowanceFor",
      "type": "error"
    },
    {
      "inputs": [],
      "name": "FailedToApproveAllowanceForRouter",
      "type": "error"
    },
    {
      "inputs": [],
      "name": "InvalidAmount",
      "type": "error"
    },
    {
      "inputs": [],
      "name": "InvalidConfiguration",
      "type": "error"
    },
    {
      "inputs": [],
      "name": "InvalidFeeTier",
      "type": "error"
    },
    {
      "inputs": [],
      "name": "InvalidFeeTier",
      "type": "error"
    },
    {
      "inputs": [],
      "name": "InvalidInputToken",
      "type": "error"
    },
    {
      "inputs": [],
      "name": "InvalidInputToken",
      "type": "error"
    },
    {
      "inputs": [],
      "name": "InvalidOutputToken",
      "type": "error"
    },
    {
      "inputs": [],
      "name": "InvalidOutputToken",
      "type": "error"
    },
    {
      "inputs": [],
      "name": "InvalidUniRouterContract",
      "type": "error"
    },
    {
      "inputs": [],
      "name": "SlippageExceeded",
      "type": "error"
    },
    {
      "inputs": [],
      "name": "SwapFailed",
      "type": "error"
    },
    {
      "inputs": [],
      "name": "SwapFailed",
      "type": "error"
    },
    {
      "anonymous": false,
      "inputs": [
        {
          "indexed": true,
          "internalType": "address",
          "name": "previousOwner",
          "type": "address"
        },
        {
          "indexed": true,
          "internalType": "address",
          "name": "newOwner",
          "type": "address"
        }
      ],
      "name": "OwnershipTransferred",
      "type": "event"
    },
    {
      "anonymous": false,
      "inputs": [
        {
          "indexed": true,
          "internalType": "uint256",
          "name": "newDeployment",
          "type": "uint256"
        }
      ],
      "name": "StrategyAmountUpdate",
      "type": "event"
    },
    {
      "anonymous": false,
      "inputs": [
        {
          "indexed": true,
          "internalType": "address",
          "name": "from",
          "type": "address"
        },
        {
          "indexed": true,
          "internalType": "uint256",
          "name": "amount",
          "type": "uint256"
        }
      ],
      "name": "StrategyDeploy",
      "type": "event"
    },
    {
      "anonymous": false,
      "inputs": [
        {
          "indexed": true,
          "internalType": "uint256",
          "name": "amount",
          "type": "uint256"
        }
      ],
      "name": "StrategyLoss",
      "type": "event"
    },
    {
      "anonymous": false,
      "inputs": [
        {
          "indexed": true,
          "internalType": "uint256",
          "name": "amount",
          "type": "uint256"
        }
      ],
      "name": "StrategyProfit",
      "type": "event"
    },
    {
      "anonymous": false,
      "inputs": [
        {
          "indexed": true,
          "internalType": "address",
          "name": "from",
          "type": "address"
        },
        {
          "indexed": true,
          "internalType": "uint256",
          "name": "amount",
          "type": "uint256"
        }
      ],
      "name": "StrategyUndeploy",
      "type": "event"
    },
    {
      "inputs": [],
      "name": "asset",
      "outputs": [
        {
          "internalType": "address",
          "name": "",
          "type": "address"
        }
      ],
      "stateMutability": "view",
      "type": "function"
    },
    {
      "inputs": [
        {
          "internalType": "uint256",
          "name": "amount",
          "type": "uint256"
        }
      ],
      "name": "deploy",
      "outputs": [
        {
          "internalType": "uint256",
          "name": "amountUsed",
          "type": "uint256"
        }
      ],
      "stateMutability": "nonpayable",
      "type": "function"
    },
    {
      "inputs": [],
      "name": "feeTier",
      "outputs": [
        {
          "internalType": "uint24",
          "name": "",
          "type": "uint24"
        }
      ],
      "stateMutability": "view",
      "type": "function"
    },
    {
      "inputs": [],
      "name": "harvest",
      "outputs": [
        {
          "internalType": "int256",
          "name": "balanceChange",
          "type": "int256"
        }
      ],
      "stateMutability": "nonpayable",
      "type": "function"
    },
    {
      "inputs": [],
      "name": "maxSlippage",
      "outputs": [
        {
          "internalType": "uint256",
          "name": "",
          "type": "uint256"
        }
      ],
      "stateMutability": "view",
      "type": "function"
    },
    {
      "inputs": [],
      "name": "oracle",
      "outputs": [
        {
          "internalType": "address",
          "name": "",
          "type": "address"
        }
      ],
      "stateMutability": "view",
      "type": "function"
    },
    {
      "inputs": [],
      "name": "owner",
      "outputs": [
        {
          "internalType": "address",
          "name": "",
          "type": "address"
        }
      ],
      "stateMutability": "view",
      "type": "function"
    },
    {
      "inputs": [],
      "name": "renounceOwnership",
      "outputs": [],
      "stateMutability": "nonpayable",
      "type": "function"
    },
    {
      "inputs": [
        {
          "internalType": "uint256",
          "name": "maxSlippage_",
          "type": "uint256"
        }
      ],
      "name": "setMaxSlippage",
      "outputs": [],
      "stateMutability": "nonpayable",
      "type": "function"
    },
    {
      "inputs": [],
      "name": "totalAssets",
      "outputs": [
        {
          "internalType": "uint256",
          "name": "",
          "type": "uint256"
        }
      ],
      "stateMutability": "view",
      "type": "function"
    },
    {
      "inputs": [
        {
          "internalType": "address",
          "name": "newOwner",
          "type": "address"
        }
      ],
      "name": "transferOwnership",
      "outputs": [],
      "stateMutability": "nonpayable",
      "type": "function"
    },
    {
      "inputs": [
        {
          "internalType": "uint256",
          "name": "amount",
          "type": "uint256"
        }
      ],
      "name": "undeploy",
      "outputs": [
        {
          "internalType": "uint256",
          "name": "undeployedAmount_",
          "type": "uint256"
        }
      ],
      "stateMutability": "nonpayable",
      "type": "function"
    },
    {
      "inputs": [],
      "name": "underlyingAsset",
      "outputs": [
        {
          "internalType": "address",
          "name": "",
          "type": "address"
        }
      ],
      "stateMutability": "view",
      "type": "function"
    },
    {
      "inputs": [],
      "name": "uniRouter",
      "outputs": [
        {
          "internalType": "contract IV3SwapRouter",
          "name": "",
          "type": "address"
        }
      ],
      "stateMutability": "view",
      "type": "function"
    }
  ],
  "bytecode": "0x6101006040523480156200001257600080fd5b5060405162001ccb38038062001ccb83398101604081905262000035916200051b565b6001600055858585856200004933620002f8565b6001600160a01b0383161580620000d6575060006001600160a01b0316826001600160a01b03166338d52e0f6040518163ffffffff1660e01b8152600401602060405180830381865afa158015620000a5573d6000803e3d6000fd5b505050506040513d601f19601f82011682018060405250810190620000cb9190620005b6565b6001600160a01b0316145b80620000e957506001600160a01b038116155b15620001085760405163c52a9bd360e01b815260040160405180910390fd5b6001600160a01b03808416608052811660a05262000126846200034a565b816001600160a01b03166338d52e0f6040518163ffffffff1660e01b8152600401602060405180830381865afa15801562000165573d6000803e3d6000fd5b505050506040513d601f19601f820116820180604052508101906200018b9190620005b6565b60405163095ea7b360e01b81526001600160a01b0384811660048301526000196024830152919091169063095ea7b3906044016020604051808303816000875af1158015620001de573d6000803e3d6000fd5b505050506040513d601f19601f82011682018060405250810190620002049190620005dd565b620002225760405163474a9d3760e01b815260040160405180910390fd5b506001600160a01b031660c052505062ffffff81166000036200025857604051631b99aa4560e11b815260040160405180910390fd5b62ffffff811660e0526200026c82620003cd565b6200027a8560001962000409565b620002ec846001600160a01b03166338d52e0f6040518163ffffffff1660e01b8152600401602060405180830381865afa158015620002bd573d6000803e3d6000fd5b505050506040513d601f19601f82011682018060405250810190620002e39190620005b6565b60001962000409565b50505050505062000601565b600180546001600160a01b038381166001600160a01b0319831681179093556040519116919082907f8be0079c531659141344cd1fd0a4f28419497f9722a3daafe3b4186f6b6457e090600090a35050565b62000354620004a7565b6001600160a01b038116620003bf5760405162461bcd60e51b815260206004820152602660248201527f4f776e61626c653a206e6577206f776e657220697320746865207a65726f206160448201526564647265737360d01b60648201526084015b60405180910390fd5b620003ca81620002f8565b50565b600480546001600160a01b0319166001600160a01b038316908117909155620003ca576040516319e5352d60e31b815260040160405180910390fd5b6004805460405163095ea7b360e01b81526001600160a01b03918216928101929092526024820183905283169063095ea7b3906044016020604051808303816000875af11580156200045f573d6000803e3d6000fd5b505050506040513d601f19601f82011682018060405250810190620004859190620005dd565b620004a357604051638a3c957760e01b815260040160405180910390fd5b5050565b6001546001600160a01b03163314620005035760405162461bcd60e51b815260206004820181905260248201527f4f776e61626c653a2063616c6c6572206973206e6f7420746865206f776e65726044820152606401620003b6565b565b6001600160a01b0381168114620003ca57600080fd5b60008060008060008060c087890312156200053557600080fd5b8651620005428162000505565b6020880151909650620005558162000505565b6040880151909550620005688162000505565b60608801519094506200057b8162000505565b60808801519093506200058e8162000505565b60a088015190925062ffffff81168114620005a857600080fd5b809150509295509295509295565b600060208284031215620005c957600080fd5b8151620005d68162000505565b9392505050565b600060208284031215620005f057600080fd5b81518015158114620005d657600080fd5b60805160a05160c05160e05161163c6200068f6000396000818161018d0152610d120152600081816102b9015281816105d8015281816107c5015261094a0152600081816101b901528181610ad201528181610b4501528181610c0e0152610c7c01526000818161010c015281816103af0152818161044f015281816106a6015261071d015261163c6000f3fe608060405234801561001057600080fd5b50600436106100ea5760003560e01c806372f5d98a1161008c5780638da5cb5b116100665780638da5cb5b146101e5578063a0e47bf6146101f6578063a5e3875114610207578063f2fde38b1461021a57600080fd5b806372f5d98a146101845780637dc0d1d0146101b75780638c04166f146101dd57600080fd5b8063440e6dff116100c8578063440e6dff146101595780634641257d1461016c578063715018a6146101745780637158da7c1461017c57600080fd5b806301e1d114146100ef57806338d52e0f1461010a57806343f68a4914610144575b600080fd5b6100f761022d565b6040519081526020015b60405180910390f35b7f00000000000000000000000000000000000000000000000000000000000000005b6040516001600160a01b039091168152602001610101565b610157610152366004611334565b61023c565b005b6100f7610167366004611334565b610249565b6100f76104e3565b6101576105c0565b61012c6105d4565b60405162ffffff7f0000000000000000000000000000000000000000000000000000000000000000168152602001610101565b7f000000000000000000000000000000000000000000000000000000000000000061012c565b6002546100f7565b6001546001600160a01b031661012c565b6004546001600160a01b031661012c565b6100f7610215366004611334565b610658565b610157610228366004611362565b6108c7565b6000610237610945565b905090565b6102446109f2565b600255565b6000610253610a4c565b816000036102745760405163162908e360e11b815260040160405180910390fd5b6003548211156102975760405163162908e360e11b815260040160405180910390fd5b60408051808201909152610e1081526064602082015260006001600160a01b037f00000000000000000000000000000000000000000000000000000000000000001663440e6dff6102e88487610aa5565b6040518263ffffffff1660e01b815260040161030691815260200190565b6020604051808303816000875af1158015610325573d6000803e3d6000fd5b505050506040513d601f19601f820116820180604052508101906103499190611386565b905060006103578383610be1565b90506000633b9aca00600254633b9aca0061037291906113b5565b61037c90846113ce565b61038691906113e5565b905060006104026040518060c001604052806103a06105d4565b6001600160a01b0390811682527f00000000000000000000000000000000000000000000000000000000000000001660208201526040016000815260200186815260200184815260200160405180602001604052806000815250815250610d08565b9150508181101561042657604051638199f5f360e01b815260040160405180910390fd5b836003600082825461043891906113b5565b909155509095508590506104766001600160a01b037f0000000000000000000000000000000000000000000000000000000000000000163383610d64565b604051819033907fd876b3a71b8d3ba9e91f332c8be4f54719ce01f2583ceed9c22bf76aaa3fc35390600090a36003546040517f2dd98c29534f0234343e33770888eec9561b1580bba498c1cda8c1b8e3dbe1e090600090a250505050506104de6001600055565b919050565b60006104ed610a4c565b60006104f7610945565b905060035481610507919061141d565b915060008213156105425760405182907fb24093f9ac16681be69ee94e18b6581e28387a1e4d6e25cfea38138ad5be616790600090a261057e565b600082121561057e5761055482611444565b6040517fede8d8525758cb6685bfabd1b6304e23cd86c77d10cc920af49e2b4637dc233e90600090a25b81156105b05760405181907f2dd98c29534f0234343e33770888eec9561b1580bba498c1cda8c1b8e3dbe1e090600090a25b6003556105bd6001600055565b90565b6105c86109f2565b6105d26000610dcc565b565b60007f00000000000000000000000000000000000000000000000000000000000000006001600160a01b03166338d52e0f6040518163ffffffff1660e01b8152600401602060405180830381865afa158015610634573d6000803e3d6000fd5b505050506040513d601f19601f820116820180604052508101906102379190611460565b6000610662610a4c565b816000036106835760405163162908e360e11b815260040160405180910390fd5b60408051808201909152610e108152600060208201526106ce6001600160a01b037f000000000000000000000000000000000000000000000000000000000000000016333086610e1e565b60006106da8285610aa5565b90506000633b9aca00600254633b9aca006106f591906113b5565b6106ff90846113ce565b61070991906113e5565b9050600061078b6040518060c001604052807f00000000000000000000000000000000000000000000000000000000000000006001600160a01b031681526020016107526105d4565b6001600160a01b031681526020016000815260200188815260200184815260200160405180602001604052806000815250815250610d08565b915050818110156107af57604051638199f5f360e01b815260040160405180910390fd5b60405163a5e3875160e01b8152600481018290527f00000000000000000000000000000000000000000000000000000000000000006001600160a01b03169063a5e38751906024016020604051808303816000875af1158015610816573d6000803e3d6000fd5b505050506040513d601f19601f8201168201806040525081019061083a9190611386565b50806003600082825461084d919061147d565b9091555061085d90508482610be1565b604051909550869033907f642a0bcf70c335488df8376c9718c6ad9f2a5f2ce827bc883176aa0dd1062b0690600090a36003546040517f2dd98c29534f0234343e33770888eec9561b1580bba498c1cda8c1b8e3dbe1e090600090a2505050506104de6001600055565b6108cf6109f2565b6001600160a01b0381166109395760405162461bcd60e51b815260206004820152602660248201527f4f776e61626c653a206e6577206f776e657220697320746865207a65726f206160448201526564647265737360d01b60648201526084015b60405180910390fd5b61094281610dcc565b50565b6000807f00000000000000000000000000000000000000000000000000000000000000006001600160a01b03166301e1d1146040518163ffffffff1660e01b8152600401602060405180830381865afa1580156109a6573d6000803e3d6000fd5b505050506040513d601f19601f820116820180604052508101906109ca9190611386565b90506109ec604051806040016040528060008152602001600081525082610be1565b91505090565b6001546001600160a01b031633146105d25760405162461bcd60e51b815260206004820181905260248201527f4f776e61626c653a2063616c6c6572206973206e6f7420746865206f776e65726044820152606401610930565b600260005403610a9e5760405162461bcd60e51b815260206004820152601f60248201527f5265656e7472616e637947756172643a207265656e7472616e742063616c6c006044820152606401610930565b6002600055565b6040516304341d9960e01b8152825160048201526020830151602482015260009081906001600160a01b037f000000000000000000000000000000000000000000000000000000000000000016906304341d99906044016040805180830381865afa158015610b18573d6000803e3d6000fd5b505050506040513d601f19601f82011682018060405250810190610b3c9190611490565b905080600001517f00000000000000000000000000000000000000000000000000000000000000006001600160a01b0316639670c0bc6040518163ffffffff1660e01b8152600401602060405180830381865afa158015610ba1573d6000803e3d6000fd5b505050506040513d601f19601f82011682018060405250810190610bc59190611386565b610bcf90856113ce565b610bd991906113e5565b949350505050565b6040516304341d9960e01b8152825160048201526020830151602482015260009081906001600160a01b037f000000000000000000000000000000000000000000000000000000000000000016906304341d99906044016040805180830381865afa158015610c54573d6000803e3d6000fd5b505050506040513d601f19601f82011682018060405250810190610c789190611490565b90507f00000000000000000000000000000000000000000000000000000000000000006001600160a01b0316639670c0bc6040518163ffffffff1660e01b8152600401602060405180830381865afa158015610cd8573d6000803e3d6000fd5b505050506040513d601f19601f82011682018060405250810190610cfc9190611386565b8151610bcf90856113ce565b6040805162ffffff7f000000000000000000000000000000000000000000000000000000000000000016602082015260009182910160408051601f1981840301815291905260a0840152610d5b83610e5c565b91509150915091565b6040516001600160a01b038316602482015260448101829052610dc790849063a9059cbb60e01b906064015b60408051601f198184030181529190526020810180516001600160e01b03166001600160e01b031990931692909217909152610e7a565b505050565b600180546001600160a01b038381166001600160a01b0319831681179093556040519116919082907f8be0079c531659141344cd1fd0a4f28419497f9722a3daafe3b4186f6b6457e090600090a35050565b6040516001600160a01b0380851660248301528316604482015260648101829052610e569085906323b872dd60e01b90608401610d90565b50505050565b600080610d5b610e746004546001600160a01b031690565b84610f4f565b6000610ecf826040518060400160405280602081526020017f5361666545524332303a206c6f772d6c6576656c2063616c6c206661696c6564815250856001600160a01b03166112119092919063ffffffff16565b9050805160001480610ef0575080806020019051810190610ef091906114ed565b610dc75760405162461bcd60e51b815260206004820152602a60248201527f5361666545524332303a204552433230206f7065726174696f6e20646964206e6044820152691bdd081cdd58d8d9595960b21b6064820152608401610930565b805160009081906001600160a01b0316610f7c57604051632df9739b60e01b815260040160405180910390fd5b60208301516001600160a01b0316610fa6576040516231010160e51b815260040160405180910390fd5b60008360a00151806020019051810190610fc0919061150f565b90508062ffffff16600003610fe857604051631b99aa4560e11b815260040160405180910390fd5b60008460400151600181111561100057611000611407565b0361110b5783606001519250846001600160a01b03166304e45aaf6040518060e0016040528087600001516001600160a01b0316815260200187602001516001600160a01b031681526020018462ffffff168152602001306001600160a01b031681526020018681526020018760800151815260200160006001600160a01b03168152506040518263ffffffff1660e01b81526004016110a09190611534565b6020604051808303816000875af11580156110bf573d6000803e3d6000fd5b505050506040513d601f19601f820116820180604052508101906110e39190611386565b9150816000036111065760405163081ceff360e41b815260040160405180910390fd5b611209565b60018460400151600181111561112357611123611407565b036112095783608001519150846001600160a01b0316635023b4df6040518060e0016040528087600001516001600160a01b0316815260200187602001516001600160a01b031681526020018462ffffff168152602001306001600160a01b031681526020018581526020018760600151815260200160006001600160a01b03168152506040518263ffffffff1660e01b81526004016111c39190611534565b6020604051808303816000875af11580156111e2573d6000803e3d6000fd5b505050506040513d601f19601f820116820180604052508101906112069190611386565b92505b509250929050565b6060610bd9848460008585600080866001600160a01b0316858760405161123891906115b7565b60006040518083038185875af1925050503d8060008114611275576040519150601f19603f3d011682016040523d82523d6000602084013e61127a565b606091505b509150915061128b87838387611296565b979650505050505050565b606083156113055782516000036112fe576001600160a01b0385163b6112fe5760405162461bcd60e51b815260206004820152601d60248201527f416464726573733a2063616c6c20746f206e6f6e2d636f6e74726163740000006044820152606401610930565b5081610bd9565b610bd9838381511561131a5781518083602001fd5b8060405162461bcd60e51b815260040161093091906115d3565b60006020828403121561134657600080fd5b5035919050565b6001600160a01b038116811461094257600080fd5b60006020828403121561137457600080fd5b813561137f8161134d565b9392505050565b60006020828403121561139857600080fd5b5051919050565b634e487b7160e01b600052601160045260246000fd5b818103818111156113c8576113c861139f565b92915050565b80820281158282048414176113c8576113c861139f565b60008261140257634e487b7160e01b600052601260045260246000fd5b500490565b634e487b7160e01b600052602160045260246000fd5b818103600083128015838313168383128216171561143d5761143d61139f565b5092915050565b6000600160ff1b82016114595761145961139f565b5060000390565b60006020828403121561147257600080fd5b815161137f8161134d565b808201808211156113c8576113c861139f565b6000604082840312156114a257600080fd5b6040516040810181811067ffffffffffffffff821117156114d357634e487b7160e01b600052604160045260246000fd5b604052825181526020928301519281019290925250919050565b6000602082840312156114ff57600080fd5b8151801515811461137f57600080fd5b60006020828403121561152157600080fd5b815162ffffff8116811461137f57600080fd5b60e081016113c8828480516001600160a01b03908116835260208083015182169084015260408083015162ffffff16908401526060808301518216908401526080808301519084015260a0828101519084015260c09182015116910152565b60005b838110156115ae578181015183820152602001611596565b50506000910152565b600082516115c9818460208701611593565b9190910192915050565b60208152600082518060208401526115f2816040850160208701611593565b601f01601f1916919091016040019291505056fea2646970667358221220a1575acd07ed7e1beec82419deab644bce9f7829aa234405aed97c0b6163a65764736f6c63430008180033",
  "linkReferences": {},
  "deployedLinkReferences": {}
}