{
  "_format": "hh-sol-artifact-1",
  "contractName": "StrategyLeverageAAVEv3",
  "sourceName": "contracts/core/strategies/StrategyLeverageAAVEv3.sol",
  "abi": [
    {
      "inputs": [],
      "stateMutability": "nonpayable",
      "type": "constructor"
    },
    {
      "inputs": [],
      "name": "CallerNotTheGovernor",
      "type": "error"
    },
    {
      "inputs": [],
      "name": "CollateralLowerThanDebt",
      "type": "error"
    },
    {
      "inputs": [
        {
          "internalType": "address",
          "name": "sender",
          "type": "address"
        }
      ],
      "name": "ETHTransferNotAllowed",
      "type": "error"
    },
    {
      "inputs": [],
      "name": "FailedToApproveAllowance",
      "type": "error"
    },
    {
      "inputs": [],
      "name": "FailedToApproveAllowance",
      "type": "error"
    },
    {
      "inputs": [],
      "name": "FailedToApproveAllowanceForAAVE",
      "type": "error"
    },
    {
      "inputs": [],
      "name": "FailedToAuthenticateArgs",
      "type": "error"
    },
    {
      "inputs": [],
      "name": "FailedToRepayDebt",
      "type": "error"
    },
    {
      "inputs": [],
      "name": "FailedToRunFlashLoan",
      "type": "error"
    },
    {
      "inputs": [],
      "name": "InvalidAAVEEMode",
      "type": "error"
    },
    {
      "inputs": [],
      "name": "InvalidAAVEv3Contract",
      "type": "error"
    },
    {
      "inputs": [],
      "name": "InvalidAddress",
      "type": "error"
    },
    {
      "inputs": [],
      "name": "InvalidAllowance",
      "type": "error"
    },
    {
      "inputs": [],
      "name": "InvalidCollateralOracle",
      "type": "error"
    },
    {
      "inputs": [],
      "name": "InvalidCollateralToken",
      "type": "error"
    },
    {
      "inputs": [],
      "name": "InvalidDebtOracle",
      "type": "error"
    },
    {
      "inputs": [],
      "name": "InvalidDebtToken",
      "type": "error"
    },
    {
      "inputs": [],
      "name": "InvalidDeltaDebt",
      "type": "error"
    },
    {
      "inputs": [],
      "name": "InvalidDeployAmount",
      "type": "error"
    },
    {
      "inputs": [],
      "name": "InvalidDivDenominator",
      "type": "error"
    },
    {
      "inputs": [],
      "name": "InvalidDivisor",
      "type": "error"
    },
    {
      "inputs": [],
      "name": "InvalidFeeTier",
      "type": "error"
    },
    {
      "inputs": [],
      "name": "InvalidFlashLenderContract",
      "type": "error"
    },
    {
      "inputs": [],
      "name": "InvalidFlashLoanAction",
      "type": "error"
    },
    {
      "inputs": [],
      "name": "InvalidFlashLoanAsset",
      "type": "error"
    },
    {
      "inputs": [],
      "name": "InvalidFlashLoanSender",
      "type": "error"
    },
    {
      "inputs": [],
      "name": "InvalidGovernorAddress",
      "type": "error"
    },
    {
      "inputs": [],
      "name": "InvalidInputToken",
      "type": "error"
    },
    {
      "inputs": [],
      "name": "InvalidInputToken",
      "type": "error"
    },
    {
      "inputs": [],
      "name": "InvalidInputToken",
      "type": "error"
    },
    {
      "inputs": [],
      "name": "InvalidInputToken",
      "type": "error"
    },
    {
      "inputs": [],
      "name": "InvalidLoanInitiator",
      "type": "error"
    },
    {
      "inputs": [],
      "name": "InvalidLoanToValue",
      "type": "error"
    },
    {
      "inputs": [],
      "name": "InvalidLoopCount",
      "type": "error"
    },
    {
      "inputs": [],
      "name": "InvalidMaxLoanToValue",
      "type": "error"
    },
    {
      "inputs": [],
      "name": "InvalidNumberOfLoops",
      "type": "error"
    },
    {
      "inputs": [],
      "name": "InvalidOutputToken",
      "type": "error"
    },
    {
      "inputs": [],
      "name": "InvalidOutputToken",
      "type": "error"
    },
    {
      "inputs": [],
      "name": "InvalidOutputToken",
      "type": "error"
    },
    {
      "inputs": [],
      "name": "InvalidOutputToken",
      "type": "error"
    },
    {
      "inputs": [],
      "name": "InvalidOwner",
      "type": "error"
    },
    {
      "inputs": [],
      "name": "InvalidPercentage",
      "type": "error"
    },
    {
      "inputs": [],
      "name": "InvalidPercentageValue",
      "type": "error"
    },
    {
      "inputs": [],
      "name": "InvalidProvider",
      "type": "error"
    },
    {
      "inputs": [],
      "name": "InvalidRouter",
      "type": "error"
    },
    {
      "inputs": [],
      "name": "InvalidTargetValue",
      "type": "error"
    },
    {
      "inputs": [],
      "name": "InvalidValue",
      "type": "error"
    },
    {
      "inputs": [],
      "name": "InvalidWithdrawAmount",
      "type": "error"
    },
    {
      "inputs": [],
      "name": "NoCollateralMarginToScale",
      "type": "error"
    },
    {
      "inputs": [],
      "name": "OverflowDetected",
      "type": "error"
    },
    {
      "inputs": [],
      "name": "PriceOutdated",
      "type": "error"
    },
    {
      "inputs": [],
      "name": "RouteAlreadyAuthorized",
      "type": "error"
    },
    {
      "inputs": [],
      "name": "RouteNotAuthorized",
      "type": "error"
    },
    {
      "inputs": [],
      "name": "SwapFailed",
      "type": "error"
    },
    {
      "inputs": [],
      "name": "SwapFailed",
      "type": "error"
    },
    {
      "inputs": [],
      "name": "SwapFailed",
      "type": "error"
    },
    {
      "inputs": [],
      "name": "SwapFailed",
      "type": "error"
    },
    {
      "anonymous": false,
      "inputs": [
        {
          "indexed": true,
          "internalType": "address",
          "name": "previousGovernor",
          "type": "address"
        },
        {
          "indexed": true,
          "internalType": "address",
          "name": "newGovernor",
          "type": "address"
        }
      ],
      "name": "GovernshipTransferred",
      "type": "event"
    },
    {
      "anonymous": false,
      "inputs": [
        {
          "indexed": false,
          "internalType": "uint8",
          "name": "version",
          "type": "uint8"
        }
      ],
      "name": "Initialized",
      "type": "event"
    },
    {
      "anonymous": false,
      "inputs": [
        {
          "indexed": true,
          "internalType": "uint256",
          "name": "value",
          "type": "uint256"
        }
      ],
      "name": "LoanToValueChanged",
      "type": "event"
    },
    {
      "anonymous": false,
      "inputs": [
        {
          "indexed": true,
          "internalType": "uint256",
          "name": "value",
          "type": "uint256"
        }
      ],
      "name": "MaxLoanToValueChanged",
      "type": "event"
    },
    {
      "anonymous": false,
      "inputs": [
        {
          "indexed": true,
          "internalType": "uint256",
          "name": "value",
          "type": "uint256"
        }
      ],
      "name": "MaxSlippageChanged",
      "type": "event"
    },
    {
      "anonymous": false,
      "inputs": [
        {
          "indexed": true,
          "internalType": "uint256",
          "name": "value",
          "type": "uint256"
        }
      ],
      "name": "NrLoopsChanged",
      "type": "event"
    },
    {
      "anonymous": false,
      "inputs": [
        {
          "indexed": true,
          "internalType": "address",
          "name": "previousOwner",
          "type": "address"
        },
        {
          "indexed": true,
          "internalType": "address",
          "name": "newOwner",
          "type": "address"
        }
      ],
      "name": "OwnershipTransferred",
      "type": "event"
    },
    {
      "anonymous": false,
      "inputs": [
        {
          "indexed": true,
          "internalType": "uint256",
          "name": "value",
          "type": "uint256"
        }
      ],
      "name": "PriceMaxAgeChanged",
      "type": "event"
    },
    {
      "anonymous": false,
      "inputs": [
        {
          "indexed": true,
          "internalType": "uint256",
          "name": "value",
          "type": "uint256"
        }
      ],
      "name": "PriceMaxConfChanged",
      "type": "event"
    },
    {
      "anonymous": false,
      "inputs": [
        {
          "indexed": true,
          "internalType": "uint256",
          "name": "newDeployment",
          "type": "uint256"
        }
      ],
      "name": "StrategyAmountUpdate",
      "type": "event"
    },
    {
      "anonymous": false,
      "inputs": [
        {
          "indexed": true,
          "internalType": "address",
          "name": "from",
          "type": "address"
        },
        {
          "indexed": true,
          "internalType": "uint256",
          "name": "amount",
          "type": "uint256"
        }
      ],
      "name": "StrategyDeploy",
      "type": "event"
    },
    {
      "anonymous": false,
      "inputs": [
        {
          "indexed": true,
          "internalType": "uint256",
          "name": "amount",
          "type": "uint256"
        }
      ],
      "name": "StrategyLoss",
      "type": "event"
    },
    {
      "anonymous": false,
      "inputs": [
        {
          "indexed": true,
          "internalType": "uint256",
          "name": "amount",
          "type": "uint256"
        }
      ],
      "name": "StrategyProfit",
      "type": "event"
    },
    {
      "anonymous": false,
      "inputs": [
        {
          "indexed": true,
          "internalType": "address",
          "name": "from",
          "type": "address"
        },
        {
          "indexed": true,
          "internalType": "uint256",
          "name": "amount",
          "type": "uint256"
        }
      ],
      "name": "StrategyUndeploy",
      "type": "event"
    },
    {
      "inputs": [],
      "name": "asset",
      "outputs": [
        {
          "internalType": "address",
          "name": "",
          "type": "address"
        }
      ],
      "stateMutability": "view",
      "type": "function"
    },
    {
      "inputs": [
        {
          "internalType": "uint256",
          "name": "amount",
          "type": "uint256"
        }
      ],
      "name": "deploy",
      "outputs": [
        {
          "internalType": "uint256",
          "name": "deployedAmount",
          "type": "uint256"
        }
      ],
      "stateMutability": "nonpayable",
      "type": "function"
    },
    {
      "inputs": [
        {
          "internalType": "address",
          "name": "tokenIn",
          "type": "address"
        },
        {
          "internalType": "address",
          "name": "tokenOut",
          "type": "address"
        }
      ],
      "name": "disableRoute",
      "outputs": [],
      "stateMutability": "nonpayable",
      "type": "function"
    },
    {
      "inputs": [
        {
          "internalType": "address",
          "name": "tokenIn",
          "type": "address"
        },
        {
          "internalType": "address",
          "name": "tokenOut",
          "type": "address"
        },
        {
          "components": [
            {
              "internalType": "enum UseUnifiedSwapper.SwapProvider",
              "name": "provider",
              "type": "uint8"
            },
            {
              "internalType": "address",
              "name": "router",
              "type": "address"
            },
            {
              "internalType": "uint24",
              "name": "uniV3Tier",
              "type": "uint24"
            },
            {
              "internalType": "uint24",
              "name": "tickSpacing",
              "type": "uint24"
            }
          ],
          "internalType": "struct UseUnifiedSwapper.RouteInfo",
          "name": "routeInfo",
          "type": "tuple"
        }
      ],
      "name": "enableRoute",
      "outputs": [],
      "stateMutability": "nonpayable",
      "type": "function"
    },
    {
      "inputs": [],
      "name": "getBalances",
      "outputs": [
        {
          "internalType": "uint256",
          "name": "collateralBalance",
          "type": "uint256"
        },
        {
          "internalType": "uint256",
          "name": "debtBalance",
          "type": "uint256"
        }
      ],
      "stateMutability": "view",
      "type": "function"
    },
    {
      "inputs": [],
      "name": "getCollateralAsset",
      "outputs": [
        {
          "internalType": "address",
          "name": "",
          "type": "address"
        }
      ],
      "stateMutability": "view",
      "type": "function"
    },
    {
      "inputs": [],
      "name": "getCollateralOracle",
      "outputs": [
        {
          "internalType": "address",
          "name": "oracle",
          "type": "address"
        }
      ],
      "stateMutability": "view",
      "type": "function"
    },
    {
      "inputs": [],
      "name": "getDebAsset",
      "outputs": [
        {
          "internalType": "address",
          "name": "",
          "type": "address"
        }
      ],
      "stateMutability": "view",
      "type": "function"
    },
    {
      "inputs": [],
      "name": "getDebtOracle",
      "outputs": [
        {
          "internalType": "address",
          "name": "oracle",
          "type": "address"
        }
      ],
      "stateMutability": "view",
      "type": "function"
    },
    {
      "inputs": [],
      "name": "getLoanToValue",
      "outputs": [
        {
          "internalType": "uint256",
          "name": "",
          "type": "uint256"
        }
      ],
      "stateMutability": "view",
      "type": "function"
    },
    {
      "inputs": [],
      "name": "getMaxLoanToValue",
      "outputs": [
        {
          "internalType": "uint256",
          "name": "",
          "type": "uint256"
        }
      ],
      "stateMutability": "view",
      "type": "function"
    },
    {
      "inputs": [],
      "name": "getMaxSlippage",
      "outputs": [
        {
          "internalType": "uint256",
          "name": "",
          "type": "uint256"
        }
      ],
      "stateMutability": "view",
      "type": "function"
    },
    {
      "inputs": [],
      "name": "getNrLoops",
      "outputs": [
        {
          "internalType": "uint8",
          "name": "",
          "type": "uint8"
        }
      ],
      "stateMutability": "view",
      "type": "function"
    },
    {
      "inputs": [
        {
          "components": [
            {
              "internalType": "uint256",
              "name": "maxAge",
              "type": "uint256"
            },
            {
              "internalType": "uint256",
              "name": "maxConf",
              "type": "uint256"
            }
          ],
          "internalType": "struct IOracle.PriceOptions",
          "name": "priceOptions",
          "type": "tuple"
        }
      ],
      "name": "getPosition",
      "outputs": [
        {
          "internalType": "uint256",
          "name": "totalCollateralInUSD",
          "type": "uint256"
        },
        {
          "internalType": "uint256",
          "name": "totalDebtInUSD",
          "type": "uint256"
        },
        {
          "internalType": "uint256",
          "name": "loanToValue",
          "type": "uint256"
        }
      ],
      "stateMutability": "view",
      "type": "function"
    },
    {
      "inputs": [],
      "name": "getPriceMaxAge",
      "outputs": [
        {
          "internalType": "uint256",
          "name": "",
          "type": "uint256"
        }
      ],
      "stateMutability": "view",
      "type": "function"
    },
    {
      "inputs": [],
      "name": "getPriceMaxConf",
      "outputs": [
        {
          "internalType": "uint256",
          "name": "",
          "type": "uint256"
        }
      ],
      "stateMutability": "view",
      "type": "function"
    },
    {
      "inputs": [],
      "name": "governor",
      "outputs": [
        {
          "internalType": "address",
          "name": "",
          "type": "address"
        }
      ],
      "stateMutability": "view",
      "type": "function"
    },
    {
      "inputs": [],
      "name": "harvest",
      "outputs": [
        {
          "internalType": "int256",
          "name": "balanceChange",
          "type": "int256"
        }
      ],
      "stateMutability": "nonpayable",
      "type": "function"
    },
    {
      "inputs": [
        {
          "internalType": "address",
          "name": "initialOwner",
          "type": "address"
        },
        {
          "internalType": "address",
          "name": "initialGovernor",
          "type": "address"
        },
        {
          "internalType": "address",
          "name": "collateralToken",
          "type": "address"
        },
        {
          "internalType": "address",
          "name": "debtToken",
          "type": "address"
        },
        {
          "internalType": "address",
          "name": "collateralOracle",
          "type": "address"
        },
        {
          "internalType": "address",
          "name": "debtOracle",
          "type": "address"
        },
        {
          "internalType": "address",
          "name": "flashLender",
          "type": "address"
        },
        {
          "internalType": "address",
          "name": "aaveV3Pool",
          "type": "address"
        },
        {
          "internalType": "uint8",
          "name": "eModeCategory",
          "type": "uint8"
        }
      ],
      "name": "initialize",
      "outputs": [],
      "stateMutability": "nonpayable",
      "type": "function"
    },
    {
      "inputs": [
        {
          "internalType": "address",
          "name": "tokenIn",
          "type": "address"
        },
        {
          "internalType": "address",
          "name": "tokenOut",
          "type": "address"
        }
      ],
      "name": "isRouteEnabled",
      "outputs": [
        {
          "internalType": "bool",
          "name": "",
          "type": "bool"
        }
      ],
      "stateMutability": "view",
      "type": "function"
    },
    {
      "inputs": [
        {
          "internalType": "address",
          "name": "initiator",
          "type": "address"
        },
        {
          "internalType": "address",
          "name": "token",
          "type": "address"
        },
        {
          "internalType": "uint256",
          "name": "amount",
          "type": "uint256"
        },
        {
          "internalType": "uint256",
          "name": "fee",
          "type": "uint256"
        },
        {
          "internalType": "bytes",
          "name": "callData",
          "type": "bytes"
        }
      ],
      "name": "onFlashLoan",
      "outputs": [
        {
          "internalType": "bytes32",
          "name": "",
          "type": "bytes32"
        }
      ],
      "stateMutability": "nonpayable",
      "type": "function"
    },
    {
      "inputs": [],
      "name": "owner",
      "outputs": [
        {
          "internalType": "address",
          "name": "",
          "type": "address"
        }
      ],
      "stateMutability": "view",
      "type": "function"
    },
    {
      "inputs": [],
      "name": "renounceOwnership",
      "outputs": [],
      "stateMutability": "nonpayable",
      "type": "function"
    },
    {
      "inputs": [
        {
          "internalType": "contract IOracle",
          "name": "oracle",
          "type": "address"
        }
      ],
      "name": "setCollateralOracle",
      "outputs": [],
      "stateMutability": "nonpayable",
      "type": "function"
    },
    {
      "inputs": [
        {
          "internalType": "contract IOracle",
          "name": "oracle",
          "type": "address"
        }
      ],
      "name": "setDebtOracle",
      "outputs": [],
      "stateMutability": "nonpayable",
      "type": "function"
    },
    {
      "inputs": [
        {
          "internalType": "uint256",
          "name": "loanToValue",
          "type": "uint256"
        }
      ],
      "name": "setLoanToValue",
      "outputs": [],
      "stateMutability": "nonpayable",
      "type": "function"
    },
    {
      "inputs": [
        {
          "internalType": "uint256",
          "name": "maxLoanToValue",
          "type": "uint256"
        }
      ],
      "name": "setMaxLoanToValue",
      "outputs": [],
      "stateMutability": "nonpayable",
      "type": "function"
    },
    {
      "inputs": [
        {
          "internalType": "uint256",
          "name": "slippage",
          "type": "uint256"
        }
      ],
      "name": "setMaxSlippage",
      "outputs": [],
      "stateMutability": "nonpayable",
      "type": "function"
    },
    {
      "inputs": [
        {
          "internalType": "uint8",
          "name": "nrLoops",
          "type": "uint8"
        }
      ],
      "name": "setNrLoops",
      "outputs": [],
      "stateMutability": "nonpayable",
      "type": "function"
    },
    {
      "inputs": [
        {
          "internalType": "uint256",
          "name": "value",
          "type": "uint256"
        }
      ],
      "name": "setPriceMaxAge",
      "outputs": [],
      "stateMutability": "nonpayable",
      "type": "function"
    },
    {
      "inputs": [
        {
          "internalType": "uint256",
          "name": "value",
          "type": "uint256"
        }
      ],
      "name": "setPriceMaxConf",
      "outputs": [],
      "stateMutability": "nonpayable",
      "type": "function"
    },
    {
      "inputs": [],
      "name": "totalAssets",
      "outputs": [
        {
          "internalType": "uint256",
          "name": "totalOwnedAssetsInDebt",
          "type": "uint256"
        }
      ],
      "stateMutability": "view",
      "type": "function"
    },
    {
      "inputs": [
        {
          "internalType": "address",
          "name": "_newGovernor",
          "type": "address"
        }
      ],
      "name": "transferGovernorship",
      "outputs": [],
      "stateMutability": "nonpayable",
      "type": "function"
    },
    {
      "inputs": [
        {
          "internalType": "address",
          "name": "newOwner",
          "type": "address"
        }
      ],
      "name": "transferOwnership",
      "outputs": [],
      "stateMutability": "nonpayable",
      "type": "function"
    },
    {
      "inputs": [
        {
          "internalType": "uint256",
          "name": "amount",
          "type": "uint256"
        }
      ],
      "name": "undeploy",
      "outputs": [
        {
          "internalType": "uint256",
          "name": "undeployedAmount",
          "type": "uint256"
        }
      ],
      "stateMutability": "nonpayable",
      "type": "function"
    },
    {
      "stateMutability": "payable",
      "type": "receive"
    }
  ],
  "bytecode": "0x6080604052600060b8556000801b60bd55600060be553480156200002257600080fd5b506200002d6200003d565b620000376200003d565b620000fe565b600054610100900460ff1615620000aa5760405162461bcd60e51b815260206004820152602760248201527f496e697469616c697a61626c653a20636f6e747261637420697320696e697469604482015266616c697a696e6760c81b606482015260840160405180910390fd5b60005460ff90811614620000fc576000805460ff191660ff9081179091556040519081527f7f26b83ff96e1f2b6a682f133852f6798a09c465da95921460cefb38474024989060200160405180910390a15b565b615439806200010e6000396000f3fe6080604052600436106102075760003560e01c8063440e6dff11610118578063a33f6050116100a0578063adbfc3121161006f578063adbfc31214610605578063b6aa515b1461061a578063d6297a061461063a578063f2fde38b1461065a578063faf4d4a41461067a57600080fd5b8063a33f605014610589578063a5e38751146105a7578063a6895a7d146105c7578063a82153b3146105e757600080fd5b806384fe3754116100e757806384fe3754146104f45780638da5cb5b1461051657806392f9c669146105345780639e9667d514610554578063a252ab101461056957600080fd5b8063440e6dff1461046f5780634641257d1461048f57806348173ea9146104a4578063715018a6146104df57600080fd5b80631964c9581161019b57806326f241951161016a57806326f24195146103ea578063323ec3471461040a5780633484971f1461043a57806338d52e0f146102e557806343f68a491461044f57600080fd5b80631964c95814610375578063235eb16a1461039557806323e30c8b146103aa578063242758f3146103ca57600080fd5b80630ac6f120116101d75780630ac6f120146102e55780630c340a2414610317578063157907d01461033557806315a97e971461035557600080fd5b8062113e081461025e57806301e1d1141461028d57806306f2fb11146102b05780630722f9c2146102c557600080fd5b366102595760ba546001600160a01b03163314801590610232575060b9546001600160a01b03163314155b15610257576040516312a017cd60e11b81523360048201526024015b60405180910390fd5b005b600080fd5b34801561026a57600080fd5b50610273610698565b604080519283526020830191909152015b60405180910390f35b34801561029957600080fd5b506102a261097d565b604051908152602001610284565b3480156102bc57600080fd5b506067546102a2565b3480156102d157600080fd5b506102576102e0366004614822565b6109d3565b3480156102f157600080fd5b5060ba546001600160a01b03165b6040516001600160a01b039091168152602001610284565b34801561032357600080fd5b506065546001600160a01b03166102ff565b34801561034157600080fd5b506102576103503660046148c9565b610c31565b34801561036157600080fd5b506102576103703660046148e6565b610c7e565b34801561038157600080fd5b5061025761039036600461491f565b610e5b565b3480156103a157600080fd5b506102a2610f02565b3480156103b657600080fd5b506102a26103c5366004614938565b610f31565b3480156103d657600080fd5b506102576103e536600461491f565b611105565b3480156103f657600080fd5b50610257610405366004614a15565b611187565b34801561041657600080fd5b5061042a6104253660046148e6565b611372565b6040519015158152602001610284565b34801561044657600080fd5b506066546102a2565b34801561045b57600080fd5b5061025761046a36600461491f565b6113b1565b34801561047b57600080fd5b506102a261048a36600461491f565b611434565b34801561049b57600080fd5b506102a2611461565b3480156104b057600080fd5b506104c46104bf366004614ad1565b61165e565b60408051938452602084019290925290820152606001610284565b3480156104eb57600080fd5b506102576116a5565b34801561050057600080fd5b5060685460405160ff9091168152602001610284565b34801561052257600080fd5b506033546001600160a01b03166102ff565b34801561054057600080fd5b5061025761054f36600461491f565b6116be565b34801561056057600080fd5b506102a2611785565b34801561057557600080fd5b506102576105843660046148c9565b6117af565b34801561059557600080fd5b5060bc546001600160a01b03166102ff565b3480156105b357600080fd5b506102a26105c236600461491f565b6117fc565b3480156105d357600080fd5b506102576105e236600461491f565b611b0f565b3480156105f357600080fd5b5060bb546001600160a01b03166102ff565b34801561061157600080fd5b506069546102a2565b34801561062657600080fd5b506102576106353660046148c9565b611bd6565b34801561064657600080fd5b50610257610655366004614b03565b611c34565b34801561066657600080fd5b506102576106753660046148c9565b611cc2565b34801561068657600080fd5b5060b9546001600160a01b03166102ff565b60008060006106af60d8546001600160a01b031690565b60ba546040516335ea6a7560e01b81526001600160a01b0391821660048201529116906335ea6a75906024016101e060405180830381865afa1580156106f9573d6000803e3d6000fd5b505050506040513d601f19601f8201168201806040525081019061071d9190614bb4565b9050600061073360d8546001600160a01b031690565b60b9546040516335ea6a7560e01b81526001600160a01b0391821660048201529116906335ea6a75906024016101e060405180830381865afa15801561077d573d6000803e3d6000fd5b505050506040513d601f19601f820116820180604052508101906107a19190614bb4565b6101408301516040516370a0823160e01b81523060048201529192506001600160a01b0316906370a0823190602401602060405180830381865afa1580156107ed573d6000803e3d6000fd5b505050506040513d601f19601f820116820180604052508101906108119190614cd7565b925060008261014001516001600160a01b031663313ce5676040518163ffffffff1660e01b8152600401602060405180830381865afa158015610858573d6000803e3d6000fd5b505050506040513d601f19601f8201168201806040525081019061087c9190614cf0565b905060008261010001516001600160a01b031663313ce5676040518163ffffffff1660e01b8152600401602060405180830381865afa1580156108c3573d6000803e3d6000fd5b505050506040513d601f19601f820116820180604052508101906108e79190614cf0565b6101008401516040516370a0823160e01b81523060048201529192506001600160a01b0316906370a0823190602401602060405180830381865afa158015610933573d6000803e3d6000fd5b505050506040513d601f19601f820116820180604052508101906109579190614cd7565b955061096585836012611d38565b945061097386826012611d38565b9550505050509091565b6040805180820190915260008082526020820181905290818061099e610698565b9150915060006109b084846000611e37565b90508181116109c05760006109ca565b6109ca8282614d23565b94505050505090565b6065546001600160a01b031633146109fe5760405163e6e025c760e01b815260040160405180910390fd5b6000610a0a8484611f3e565b905060008082815260b5602052604090205460ff166003811115610a3057610a30614d36565b14610a4e57604051632291fe5360e21b815260040160405180910390fd5b836001600160a01b031663095ea7b383602001516001600019610a719190614d23565b6040518363ffffffff1660e01b8152600401610a8e929190614d4c565b6020604051808303816000875af1158015610aad573d6000803e3d6000fd5b505050506040513d601f19601f82011682018060405250810190610ad19190614d65565b610aee576040516302e8763f60e31b815260040160405180910390fd5b826001600160a01b031663095ea7b383602001516001600019610b119190614d23565b6040518363ffffffff1660e01b8152600401610b2e929190614d4c565b6020604051808303816000875af1158015610b4d573d6000803e3d6000fd5b505050506040513d601f19601f82011682018060405250810190610b719190614d65565b610b8e576040516302e8763f60e31b815260040160405180910390fd5b600081815260b5602052604090208251815484929190829060ff19166001836003811115610bbe57610bbe614d36565b021790555060208201518154604084015160609094015162ffffff908116600160c01b0262ffffff60c01b1991909516600160a81b0262ffffff60a81b196001600160a01b039094166101000293909316610100600160c01b031990921691909117919091171691909117905550505050565b6065546001600160a01b03163314610c5c5760405163e6e025c760e01b815260040160405180910390fd5b60bb80546001600160a01b0319166001600160a01b0392909216919091179055565b6065546001600160a01b03163314610ca95760405163e6e025c760e01b815260040160405180910390fd5b6000610cb58383611f3e565b905060008082815260b5602052604090205460ff166003811115610cdb57610cdb614d36565b03610cf95760405163139f8d8760e11b815260040160405180910390fd5b600081815260b5602052604080822054905163095ea7b360e01b81526001600160a01b038087169363095ea7b393610d3d9361010090910490921691600401614d4c565b6020604051808303816000875af1158015610d5c573d6000803e3d6000fd5b505050506040513d601f19601f82011682018060405250810190610d809190614d65565b610d9d576040516302e8763f60e31b815260040160405180910390fd5b600081815260b5602052604080822054905163095ea7b360e01b81526001600160a01b038086169363095ea7b393610de19361010090910490921691600401614d4c565b6020604051808303816000875af1158015610e00573d6000803e3d6000fd5b505050506040513d601f19601f82011682018060405250810190610e249190614d65565b610e41576040516302e8763f60e31b815260040160405180910390fd5b600090815260b560205260409020805460ff191690555050565b6065546001600160a01b03163314610e865760405163e6e025c760e01b815260040160405180910390fd5b633b9aca00811115610eab57604051631f3b85d360e01b815260040160405180910390fd5b610ed47fdcdd852e594407d62243674acd7258abfb4689d6abdc168bb42d4f40c75ac9d0829055565b60405181907f733b5fc312dfed2bc8ae5dbf05d5cb659ab55046ddcbec1918f52f613bbb5c3690600090a250565b6000610f2c7fdcdd852e594407d62243674acd7258abfb4689d6abdc168bb42d4f40c75ac9d05490565b905090565b6000610f4560b6546001600160a01b031690565b6001600160a01b0316336001600160a01b031614610f765760405163538a412f60e01b815260040160405180910390fd5b6001600160a01b0386163014610f9f5760405163fe12082f60e01b815260040160405180910390fd5b60ba546001600160a01b03868116911614610fcd57604051633c4edfcd60e21b815260040160405180910390fd5b600086868685604051602001610fe69493929190614dab565b6040516020818303038152906040528051906020012090508060bd54146110205760405163555fbdcb60e01b815260040160405180910390fd5b6000838060200190518101906110369190614df8565b905060008160400151600281111561105057611050614d36565b03611067578051611062908787611fc9565b6110d8565b60018160400151600281111561107f5761107f614d36565b0361109857611062816000015187878460200151612077565b6002816040015160028111156110b0576110b0614d36565b036110bf57611062868661210f565b60405163320b9ded60e21b815260040160405180910390fd5b507f439148f0bbc682ca079e46d6e2c2f0c1e3b820f1a291b069d8882abf8cf18dd9979650505050505050565b6065546001600160a01b031633146111305760405163e6e025c760e01b815260040160405180910390fd5b6111597f7e9328092c46e3d103a0cb8e24aa657ae6f6b6cc910545a9729426966d864558829055565b60405181907f4642fb7c2c063aa089f687d3360c930483c062a89b6d371ff669d45bc7ffdf3590600090a250565b600054610100900460ff16158080156111a75750600054600160ff909116105b806111c15750303b1580156111c1575060005460ff166001145b6111dd5760405162461bcd60e51b815260040161024e90614e65565b6000805460ff191660011790558015611200576000805461ff0019166101001790555b61120f8a8a8a8a8a8a8a612244565b6112188361238e565b60d8546001600160a01b03166040516328530a4760e01b815260ff841660048201526001600160a01b0391909116906328530a4790602401600060405180830381600087803b15801561126a57600080fd5b505af115801561127e573d6000803e3d6000fd5b505050508160ff1661129860d8546001600160a01b031690565b60405163eddf1b7960e01b81523060048201526001600160a01b03919091169063eddf1b7990602401602060405180830381865afa1580156112de573d6000803e3d6000fd5b505050506040513d601f19601f820116820180604052508101906113029190614cd7565b1461132057604051631c59037d60e11b815260040160405180910390fd5b8015611366576000805461ff0019169055604051600181527f7f26b83ff96e1f2b6a682f133852f6798a09c465da95921460cefb38474024989060200160405180910390a15b50505050505050505050565b60008061137f8484611f3e565b905060008082815260b5602052604090205460ff1660038111156113a5576113a5614d36565b14159150505b92915050565b6065546001600160a01b031633146113dc5760405163e6e025c760e01b815260040160405180910390fd5b633b9aca0081111561140157604051631f3b85d360e01b815260040160405180910390fd5b606981905560405181907f2464163639a2c8e8ce439351474cccf4e5d5f6226b11d8984dfdf615420672db90600090a250565b600061143e6123f0565b61144661244c565b61145082336124a5565b905061145c6001608355565b919050565b600061146b6123f0565b61147361244c565b60008061147e610698565b9150915060006114b1604051806040016040528061149a611785565b81526020016114a7610f02565b9052846000611e37565b90508015806114be575081155b156114cf5760009350505050611651565b8181116114ef57604051630e6f7d0f60e31b815260040160405180910390fd5b60b85460008083611504633b9aca0087614eb3565b61150e9190614eca565b905061151960675490565b8111801561152a5750633b9aca0081105b1561153c576115398486612836565b91505b60006115488686614d23565b905084831061156a57604051636e83070960e01b815260040160405180910390fd5b838103611581576000975050505050505050611651565b8260000361161957838111156115d257600061159d8583614d23565b60405190915081907fb24093f9ac16681be69ee94e18b6581e28387a1e4d6e25cfea38138ad5be616790600090a29750611619565b60006115de8286614d23565b60405190915081907fede8d8525758cb6685bfabd1b6304e23cd86c77d10cc920af49e2b4637dc233e90600090a261161581614eec565b9850505b60b881905560405181907f2dd98c29534f0234343e33770888eec9561b1580bba498c1cda8c1b8e3dbe1e090600090a2505050505050505b61165b6001608355565b90565b600080600061166c84612aa4565b909350915060008390036116825750600061169e565b82611691633b9aca0084614eb3565b61169b9190614eca565b90505b9193909250565b6040516349e27cff60e01b815260040160405180910390fd5b6065546001600160a01b031633146116e95760405163e6e025c760e01b815260040160405180910390fd5b60675481111561170c57604051632a9ffab760e21b815260040160405180910390fd5b633b9aca0081111561173157604051631f3b85d360e01b815260040160405180910390fd5b8060000361175257604051632a9ffab760e21b815260040160405180910390fd5b606681905560405181907f5129e5a639a8aab0c7417fa5ea8f5555436f12301866aeae67b789e31ff6ee8390600090a250565b6000610f2c7f7e9328092c46e3d103a0cb8e24aa657ae6f6b6cc910545a9729426966d8645585490565b6065546001600160a01b031633146117da5760405163e6e025c760e01b815260040160405180910390fd5b60bc80546001600160a01b0319166001600160a01b0392909216919091179055565b60006118066123f0565b61180e61244c565b8160000361182f5760405163063ccfb360e31b815260040160405180910390fd5b60ba54611847906001600160a01b0316333085612cde565b60006118618361185660665490565b60685460ff16612d4f565b9050600061186f8483614d23565b9050600061188560b6546001600160a01b031690565b60ba54604051633676633960e21b81526001600160a01b039283169263d9d98ce4926118b8929116908690600401614d4c565b602060405180830381865afa1580156118d5573d6000803e3d6000fd5b505050506040513d601f19601f820116820180604052508101906118f99190614cd7565b60ba549091506001600160a01b031663095ea7b361191f60b6546001600160a01b031690565b6119298486614f08565b6040518363ffffffff1660e01b8152600401611946929190614d4c565b6020604051808303816000875af1158015611965573d6000803e3d6000fd5b505050506040513d601f19601f820116820180604052508101906119899190614d65565b6119a6576040516302e8763f60e31b815260040160405180910390fd5b6000853360006040516020016119be93929190614f1b565b60408051601f198184030181529082905260ba549092506119f19130916001600160a01b03169086908590602001614dab565b60408051601f1981840301815290829052805160209091012060bd5560b65460ba54632e7ff4ef60e11b83526001600160a01b0391821692635cffe9de92611a4492309291169088908790600401614f89565b6020604051808303816000875af1158015611a63573d6000803e3d6000fd5b505050506040513d601f19601f82011682018060405250810190611a879190614d65565b611aaa57600060bd556040805163b2fd98a360e01b815290519081900360040190fd5b6000801b60bd8190555060be5494508460b86000828254611acb9190614f08565b909155505060b8546040517f2dd98c29534f0234343e33770888eec9561b1580bba498c1cda8c1b8e3dbe1e090600090a25050600060be5550506001608355919050565b6065546001600160a01b03163314611b3a5760405163e6e025c760e01b815260040160405180910390fd5b80600003611b5b57604051632a9ffab760e21b815260040160405180910390fd5b633b9aca00811115611b8057604051631f3b85d360e01b815260040160405180910390fd5b606654811015611ba357604051631dbaae5160e11b815260040160405180910390fd5b606781905560405181907f0e54922494ee00fae308aea0ebd64d27da978320217b536d889823332271ed3090600090a250565b6065546001600160a01b03163314611c015760405163e6e025c760e01b815260040160405180910390fd5b6001600160a01b038116611c285760405163fa68714160e01b815260040160405180910390fd5b611c3181612df4565b50565b6065546001600160a01b03163314611c5f5760405163e6e025c760e01b815260040160405180910390fd5b601460ff82161115611c8457604051632ffe3c2f60e01b815260040160405180910390fd5b6068805460ff191660ff83169081179091556040517fce0a7d191c872adf950a44afa7939230f4ed67bd8122e6138ebd5a8a1efe3dbb90600090a250565b611cca6123f0565b6001600160a01b038116611d2f5760405162461bcd60e51b815260206004820152602660248201527f4f776e61626c653a206e6577206f776e657220697320746865207a65726f206160448201526564647265737360d01b606482015260840161024e565b611c3181612e50565b60008160ff168360ff161115611d9b576040611d548385614fbc565b60ff1610611d7557604051637883ad3d60e11b815260040160405180910390fd5b611d7f8284614fbc565b611d8a90600a6150b1565b611d949085614eca565b9050611e30565b8260ff168260ff161115611e2d576040611db58484614fbc565b60ff1610611dd657604051637883ad3d60e11b815260040160405180910390fd5b6000611de28484614fbc565b611ded90600a6150b1565b9050611dfb81600019614eca565b851115611e1b57604051637883ad3d60e11b815260040160405180910390fd5b611e258186614eb3565b915050611e30565b50825b9392505050565b60bb546040516304341d9960e01b81528451600482015260208501516024820152600091611f36916001600160a01b03909116906304341d99906044016040805180830381865afa158015611e90573d6000803e3d6000fd5b505050506040513d601f19601f82011682018060405250810190611eb491906150c0565b5160bc546040516304341d9960e01b815287516004820152602088015160248201526001600160a01b03909116906304341d99906044015b6040805180830381865afa158015611f08573d6000803e3d6000fd5b505050506040513d601f19601f82011682018060405250810190611f2c91906150c0565b5185919085612ea2565b949350505050565b6000816001600160a01b0316836001600160a01b031610611f7c57604080518082019091526001600160a01b03808416825284166020820152611f9b565b604080518082019091526001600160a01b038085168252831660208201525b604051602001611fab91906150f2565b60405160208183030381529060405280519060200120905092915050565b6000611fdd611fd88486614f08565b612ecd565b9050611ff281611fed8486614f08565b612f9d565b6000612021604051806040016040528061200a611785565b8152602001612017610f02565b9052836000611e37565b90506000836120308684614d23565b61203a9190614d23565b60be819055604051909150819033907f642a0bcf70c335488df8376c9718c6ad9f2a5f2ce827bc883176aa0dd1062b0690600090a3505050505050565b6000612081610698565b50905060008582106120935785612095565b815b90506120a0856130a6565b6120aa81306131fb565b60006120b5826132ae565b905060006120c38688614f08565b82116120d05760006120e4565b6120da8688614f08565b6120e49083614d23565b905080156121035760ba54612103906001600160a01b03168683613359565b60be5550505050505050565b612118826130a6565b6000604051806040016040528061212d611785565b815260200161213a610f02565b90529050600061214c8285600161337d565b90506000633b9aca0061215e60695490565b61216c90633b9aca00614f08565b6121769084614eb3565b6121809190614eca565b905061218c81306131fb565b6040805160c08101825260b9546001600160a01b03908116825260ba541660208201526000916121eb9190810160018152602081018590526040016121d1888a614f08565b815260408051602081810190925260008152910152613436565b5090508181101561220f5760006122028284614d23565b905061220d816135f6565b505b604051869033907fd876b3a71b8d3ba9e91f332c8be4f54719ce01f2583ceed9c22bf76aaa3fc35390600090a3505050505050565b600054610100900460ff1661226b5760405162461bcd60e51b815260040161024e9061512c565b6001600160a01b038716612292576040516349e27cff60e01b815260040160405180910390fd5b61229c8787613718565b6122a581613810565b60b980546001600160a01b038088166001600160a01b0319928316811790935560ba805488831690841617905560bb805487831690841617905560bc80549186169190921617905561230a57604051633a001e0560e11b815260040160405180910390fd5b60ba546001600160a01b031661233357604051631bf8591b60e01b815260040160405180910390fd5b60bb546001600160a01b031661235c576040516366f32bfb60e01b815260040160405180910390fd5b60bc546001600160a01b03166123855760405163c191740760e01b815260040160405180910390fd5b50505050505050565b600054610100900460ff166123b55760405162461bcd60e51b815260040161024e9061512c565b60d880546001600160a01b0319166001600160a01b038316908117909155611c31576040516327fbd60160e11b815260040160405180910390fd5b6033546001600160a01b0316331461244a5760405162461bcd60e51b815260206004820181905260248201527f4f776e61626c653a2063616c6c6572206973206e6f7420746865206f776e6572604482015260640161024e565b565b60026083540361249e5760405162461bcd60e51b815260206004820152601f60248201527f5265656e7472616e637947756172643a207265656e7472616e742063616c6c00604482015260640161024e565b6002608355565b60008060405180604001604052806124bb611785565b81526020016124c8610f02565b905290506000806124d7610698565b9150915060006124e984846000611e37565b905081811161250b57604051633756348560e01b815260040160405180910390fd5b60006125178383614d23565b612525633b9aca008a614eb3565b61252f9190614eca565b905060008061253f838587613872565b9150915060006125518884600161337d565b9050600061256760b6546001600160a01b031690565b60ba54604051633676633960e21b81526001600160a01b039283169263d9d98ce49261259a929116908790600401614d4c565b602060405180830381865afa1580156125b7573d6000803e3d6000fd5b505050506040513d601f19601f820116820180604052508101906125db9190614cd7565b60ba549091506001600160a01b031663095ea7b361260160b6546001600160a01b031690565b61260b8487614f08565b6040518363ffffffff1660e01b8152600401612628929190614d4c565b6020604051808303816000875af1158015612647573d6000803e3d6000fd5b505050506040513d601f19601f8201168201806040525081019061266b9190614d65565b612688576040516302e8763f60e31b815260040160405180910390fd5b6000828c60016040516020016126a093929190614f1b565b60408051601f198184030181529082905260ba549092506126d39130916001600160a01b03169087908590602001614dab565b60408051601f1981840301815290829052805160209091012060bd5560b65460ba54632e7ff4ef60e11b83526001600160a01b0391821692635cffe9de9261272692309291169089908790600401614f89565b6020604051808303816000875af1158015612745573d6000803e3d6000fd5b505050506040513d601f19601f820116820180604052508101906127699190614d65565b61278c57600060bd556040805163b2fd98a360e01b815290519081900360040190fd5b6127968486614d23565b60405133907fd876b3a71b8d3ba9e91f332c8be4f54719ce01f2583ceed9c22bf76aaa3fc35390600090a3600060bd81905560be549b506127d78587614d23565b90508060b854116127e95760006127f7565b8060b8546127f79190614d23565b60b88190556040517f2dd98c29534f0234343e33770888eec9561b1580bba498c1cda8c1b8e3dbe1e090600090a2505050505050505050505092915050565b60008061284c61284560665490565b85856138e1565b9050600061286260b6546001600160a01b031690565b60ba54604051633676633960e21b81526001600160a01b039283169263d9d98ce492612895929116908690600401614d4c565b602060405180830381865afa1580156128b2573d6000803e3d6000fd5b505050506040513d601f19601f820116820180604052508101906128d69190614cd7565b9050600082600060026040516020016128f193929190614f1b565b60408051601f1981840301815291905260ba549091506001600160a01b031663095ea7b361292760b6546001600160a01b031690565b6129318587614f08565b6040518363ffffffff1660e01b815260040161294e929190614d4c565b6020604051808303816000875af115801561296d573d6000803e3d6000fd5b505050506040513d601f19601f820116820180604052508101906129919190614d65565b6129ae576040516302e8763f60e31b815260040160405180910390fd5b60ba546040516129d29130916001600160a01b039091169086908590602001614dab565b60408051601f1981840301815290829052805160209091012060bd5560b65460ba54632e7ff4ef60e11b83526001600160a01b0391821692635cffe9de92612a2592309291169088908790600401614f89565b6020604051808303816000875af1158015612a44573d6000803e3d6000fd5b505050506040513d601f19601f82011682018060405250810190612a689190614d65565b612a8b57600060bd556040805163b2fd98a360e01b815290519081900360040190fd5b600060bd55612a9a8284614f08565b9695505050505050565b6000808080612ab1610698565b9150915081600014612bc75760bb546040516304341d9960e01b815286516004820152602087015160248201526000916001600160a01b0316906304341d99906044016040805180830381865afa158015612b10573d6000803e3d6000fd5b505050506040513d601f19601f82011682018060405250810190612b3491906150c0565b905060bb60009054906101000a90046001600160a01b03166001600160a01b0316639670c0bc6040518163ffffffff1660e01b8152600401602060405180830381865afa158015612b89573d6000803e3d6000fd5b505050506040513d601f19601f82011682018060405250810190612bad9190614cd7565b8151612bb99085614eb3565b612bc39190614eca565b9450505b8015612cd75760bc546040516304341d9960e01b815286516004820152602087015160248201526000916001600160a01b0316906304341d99906044016040805180830381865afa158015612c20573d6000803e3d6000fd5b505050506040513d601f19601f82011682018060405250810190612c4491906150c0565b905060bc60009054906101000a90046001600160a01b03166001600160a01b0316639670c0bc6040518163ffffffff1660e01b8152600401602060405180830381865afa158015612c99573d6000803e3d6000fd5b505050506040513d601f19601f82011682018060405250810190612cbd9190614cd7565b8151612cc99084614eb3565b612cd39190614eca565b9350505b5050915091565b6040516001600160a01b0380851660248301528316604482015260648101829052612d499085906323b872dd60e01b906084015b60408051601f198184030181529190526020810180516001600160e01b03166001600160e01b031990931692909217909152613984565b50505050565b6000601460ff83161115612d7657604051637a035b7160e01b815260040160405180910390fd5b821580612d865750633b9aca0083115b15612da4576040516343e47d7560e01b815260040160405180910390fd5b838060015b8460ff168160ff1611612de9576000633b9aca00612dc78885614eb3565b612dd19190614eca565b9050612ddd8185614f08565b93509150600101612da9565b509095945050505050565b6065546040516001600160a01b038084169216907f4a2da5517922d469e27cc43b2e88ebd65d79400caf5bb7cc34419e64cf85bb1a90600090a3606580546001600160a01b0319166001600160a01b0392909216919091179055565b603380546001600160a01b038381166001600160a01b0319831681179093556040519116919082907f8be0079c531659141344cd1fd0a4f28419497f9722a3daafe3b4186f6b6457e090600090a35050565b600081612eb957612eb4858585613a59565b612ec4565b612ec4858585613aad565b95945050505050565b60008080612eda60695490565b1115612f45576000612f0f6040518060400160405280612ef8611785565b8152602001612f05610f02565b905285600061337d565b9050633b9aca00612f1f60695490565b612f2d90633b9aca00614d23565b612f379083614eb3565b612f419190614eca565b9150505b6040805160c08101825260ba546001600160a01b03908116825260b954166020820152600091612ec491908101835b815260200186815260200184815260200160405180602001604052806000815250815250613436565b612fa6826135f6565b60d8546001600160a01b031660b954604051635a3b74b960e01b81526001600160a01b03918216600482015260016024820152911690635a3b74b990604401600060405180830381600087803b158015612fff57600080fd5b505af1158015613013573d6000803e3d6000fd5b5050505061302960d8546001600160a01b031690565b60ba5460405163a415bcad60e01b81526001600160a01b03918216600482015260248101849052600260448201526000606482015230608482015291169063a415bcad9060a401600060405180830381600087803b15801561308a57600080fd5b505af115801561309e573d6000803e3d6000fd5b505050505050565b60ba546001600160a01b031663095ea7b36130c960d8546001600160a01b031690565b836040518363ffffffff1660e01b81526004016130e7929190614d4c565b6020604051808303816000875af1158015613106573d6000803e3d6000fd5b505050506040513d601f19601f8201168201806040525081019061312a9190614d65565b613147576040516319b298af60e11b815260040160405180910390fd5b8061315a60d8546001600160a01b031690565b60ba5460405163573ade8160e01b81526001600160a01b039182166004820152602481018590526002604482015230606482015291169063573ade81906084016020604051808303816000875af11580156131b9573d6000803e3d6000fd5b505050506040513d601f19601f820116820180604052508101906131dd9190614cd7565b14611c3157604051636ce36b9f60e11b815260040160405180910390fd5b8161320e60d8546001600160a01b031690565b60b954604051631a4ca37b60e21b81526001600160a01b0391821660048201526024810186905284821660448201529116906369328dec906064016020604051808303816000875af1158015613268573d6000803e3d6000fd5b505050506040513d601f19601f8201168201806040525081019061328c9190614cd7565b146132aa57604051630db73cdf60e41b815260040160405180910390fd5b5050565b600080806132bb60695490565b11156133265760006132f060405180604001604052806132d9611785565b81526020016132e6610f02565b9052856000611e37565b9050633b9aca0061330060695490565b61330e90633b9aca00614d23565b6133189083614eb3565b6133229190614eca565b9150505b6040805160c08101825260b9546001600160a01b03908116825260ba54166020820152600091612ec49190810183612f74565b6133788363a9059cbb60e01b8484604051602401612d12929190614d4c565b505050565b60bc546040516304341d9960e01b81528451600482015260208501516024820152600091611f36916001600160a01b03909116906304341d99906044016040805180830381865afa1580156133d6573d6000803e3d6000fd5b505050506040513d601f19601f820116820180604052508101906133fa91906150c0565b5160bb546040516304341d9960e01b815287516004820152602088015160248201526001600160a01b03909116906304341d9990604401611eec565b600080600061344d84600001518560200151611f3e565b600081815260b5602052604080822081516080810190925280549394509192909190829060ff16600381111561348557613485614d36565b600381111561349657613496614d36565b815290546001600160a01b03610100820416602083015262ffffff600160a81b820481166040840152600160c01b9091041660609091015290506000815160038111156134e5576134e5614d36565b036135035760405163139f8d8760e11b815260040160405180910390fd5b60018151600381111561351857613518614d36565b0361356157604080820151815162ffffff90911660208201520160408051601f1981840301815291905260a086015260208101516135569086613b18565b935093505050915091565b60028151600381111561357657613576614d36565b0361358957613556816020015186613dda565b60038151600381111561359e5761359e614d36565b036135dd5760608101516040805162ffffff90921660208301520160408051601f1981840301815291905260a086015260208101516135569086614306565b604051633b136dc160e11b815260040160405180910390fd5b60b9546001600160a01b031663095ea7b361361960d8546001600160a01b031690565b836040518363ffffffff1660e01b8152600401613637929190614d4c565b6020604051808303816000875af1158015613656573d6000803e3d6000fd5b505050506040513d601f19601f8201168201806040525081019061367a9190614d65565b613697576040516319b298af60e11b815260040160405180910390fd5b60d8546001600160a01b031660b95460405163617ba03760e01b81526001600160a01b039182166004820152602481018490523060448201526000606482015291169063617ba03790608401600060405180830381600087803b1580156136fd57600080fd5b505af1158015613711573d6000803e3d6000fd5b5050505050565b600054610100900460ff16158080156137385750600054600160ff909116105b806137525750303b158015613752575060005460ff166001145b61376e5760405162461bcd60e51b815260040161024e90614e65565b6000805460ff191660011790558015613791576000805461ff0019166101001790555b61379b83836144f3565b6137a36145c0565b632faf08006066556332a9f8806067556068805460ff1916600a17905560006069558015613378576000805461ff0019169055604051600181527f7f26b83ff96e1f2b6a682f133852f6798a09c465da95921460cefb3847402498906020015b60405180910390a1505050565b600054610100900460ff166138375760405162461bcd60e51b815260040161024e9061512c565b60b680546001600160a01b0319166001600160a01b038316908117909155611c3157604051630b751e1960e11b815260040160405180910390fd5b6000808415806138855750633b9aca0085115b156138a35760405163a15aaf3960e01b815260040160405180910390fd5b633b9aca006138b28685614eb3565b6138bc9190614eca565b9050633b9aca006138cd8686614eb3565b6138d79190614eca565b9150935093915050565b600080633b9aca006138f38587614eb3565b6138fd9190614eca565b905082811061391f57604051633c38d1b560e11b815260040160405180910390fd5b600061392b8285614d23565b9050600061393d87633b9aca00614d23565b90508060000361396057604051635281626d60e01b815260040160405180910390fd5b8061396f633b9aca0084614eb3565b6139799190614eca565b979650505050505050565b60006139d9826040518060400160405280602081526020017f5361666545524332303a206c6f772d6c6576656c2063616c6c206661696c6564815250856001600160a01b03166146329092919063ffffffff16565b90508051600014806139fa5750808060200190518101906139fa9190614d65565b6133785760405162461bcd60e51b815260206004820152602a60248201527f5361666545524332303a204552433230206f7065726174696f6e20646964206e6044820152691bdd081cdd58d8d9595960b21b606482015260840161024e565b600080613a668486614eb3565b905082600003613a8957604051639124a73d60e01b815260040160405180910390fd5b841580613a94575083155b15613aa3576000915050611e30565b611e258382614eca565b600080613aba8486614eb3565b905082600003613add57604051639124a73d60e01b815260040160405180910390fd5b841580613ae8575083155b15613af7576000915050611e30565b82613b03600183614d23565b613b0d9190614eca565b611e25906001614f08565b805160009081906001600160a01b0316613b4557604051632df9739b60e01b815260040160405180910390fd5b60208301516001600160a01b0316613b6f576040516231010160e51b815260040160405180910390fd5b60008360a00151806020019051810190613b899190615177565b90508062ffffff16600003613bb157604051631b99aa4560e11b815260040160405180910390fd5b600084604001516001811115613bc957613bc9614d36565b03613cd45783606001519250846001600160a01b03166304e45aaf6040518060e0016040528087600001516001600160a01b0316815260200187602001516001600160a01b031681526020018462ffffff168152602001306001600160a01b031681526020018681526020018760800151815260200160006001600160a01b03168152506040518263ffffffff1660e01b8152600401613c699190615194565b6020604051808303816000875af1158015613c88573d6000803e3d6000fd5b505050506040513d601f19601f82011682018060405250810190613cac9190614cd7565b915081600003613ccf5760405163081ceff360e41b815260040160405180910390fd5b613dd2565b600184604001516001811115613cec57613cec614d36565b03613dd25783608001519150846001600160a01b0316635023b4df6040518060e0016040528087600001516001600160a01b0316815260200187602001516001600160a01b031681526020018462ffffff168152602001306001600160a01b031681526020018581526020018760600151815260200160006001600160a01b03168152506040518263ffffffff1660e01b8152600401613d8c9190615194565b6020604051808303816000875af1158015613dab573d6000803e3d6000fd5b505050506040513d601f19601f82011682018060405250810190613dcf9190614cd7565b92505b509250929050565b805160009081906001600160a01b0316613e0757604051632df9739b60e01b815260040160405180910390fd5b60208301516001600160a01b0316613e31576040516231010160e51b815260040160405180910390fd5b604080516002808252606082018352600092602083019080368337019050509050836000015181600081518110613e6a57613e6a6151f3565b60200260200101906001600160a01b031690816001600160a01b031681525050836020015181600181518110613ea257613ea26151f3565b6001600160a01b0390921660209283029190910190910152600084604001516001811115613ed257613ed2614d36565b036140e0578351606085015160405163095ea7b360e01b81526001600160a01b039092169163095ea7b391613f0c91899190600401614d4c565b6020604051808303816000875af1158015613f2b573d6000803e3d6000fd5b505050506040513d601f19601f82011682018060405250810190613f4f9190614d65565b613f6c576040516302e8763f60e31b815260040160405180910390fd5b608084015160009015613f845750608084015161402a565b606085015160405163d06ca61f60e01b81526000916001600160a01b0389169163d06ca61f91613fb891879060040161524e565b600060405180830381865afa158015613fd5573d6000803e3d6000fd5b505050506040513d6000823e601f3d908101601f19168201604052613ffd9190810190615267565b9050806001825161400e9190614d23565b8151811061401e5761401e6151f3565b60200260200101519150505b846060015193506000866001600160a01b03166338ed173986848630426040518663ffffffff1660e01b815260040161406795949392919061530d565b6000604051808303816000875af1158015614086573d6000803e3d6000fd5b505050506040513d6000823e601f3d908101601f191682016040526140ae9190810190615267565b905080600182516140bf9190614d23565b815181106140cf576140cf6151f3565b6020026020010151935050506142e5565b6001846040015160018111156140f8576140f8614d36565b036142e55783608001519150600084606001516000036141ad576040516307c0329d60e21b81526000906001600160a01b03881690631f00ca7490614143908790879060040161524e565b600060405180830381865afa158015614160573d6000803e3d6000fd5b505050506040513d6000823e601f3d908101601f191682016040526141889190810190615267565b90508060008151811061419d5761419d6151f3565b60200260200101519150506141b4565b5060608401515b845160405163095ea7b360e01b81526001600160a01b039091169063095ea7b3906141e59089908590600401614d4c565b6020604051808303816000875af1158015614204573d6000803e3d6000fd5b505050506040513d601f19601f820116820180604052508101906142289190614d65565b614245576040516302e8763f60e31b815260040160405180910390fd5b604051634401edf760e11b81526000906001600160a01b03881690638803dbee9061427c908790869088903090429060040161530d565b6000604051808303816000875af115801561429b573d6000803e3d6000fd5b505050506040513d6000823e601f3d908101601f191682016040526142c39190810190615267565b9050806000815181106142d8576142d86151f3565b6020026020010151945050505b81600003613dd25760405163081ceff360e41b815260040160405180910390fd5b805160009081906001600160a01b031661433357604051632df9739b60e01b815260040160405180910390fd5b60208301516001600160a01b031661435d576040516231010160e51b815260040160405180910390fd5b60008360a001518060200190518101906143779190615349565b905060008460400151600181111561439157614391614d36565b036144365783606001519250846001600160a01b031663a026383e60405180610100016040528087600001516001600160a01b0316815260200187602001516001600160a01b031681526020018460020b8152602001306001600160a01b031681526020014281526020018681526020018760800151815260200160006001600160a01b03168152506040518263ffffffff1660e01b8152600401613c69919061536c565b60018460400151600181111561444e5761444e614d36565b03613dd25783608001519150846001600160a01b031663c714e83860405180610100016040528087600001516001600160a01b0316815260200187602001516001600160a01b031681526020018460020b8152602001306001600160a01b031681526020014281526020018581526020018760600151815260200160006001600160a01b03168152506040518263ffffffff1660e01b8152600401613d8c919061536c565b600054610100900460ff16158080156145135750600054600160ff909116105b8061452d5750303b15801561452d575060005460ff166001145b6145495760405162461bcd60e51b815260040161024e90614e65565b6000805460ff19166001179055801561456c576000805461ff0019166101001790555b61457583612e50565b61457e82612df4565b8015613378576000805461ff0019169055604051600181527f7f26b83ff96e1f2b6a682f133852f6798a09c465da95921460cefb384740249890602001613803565b600054610100900460ff166145e75760405162461bcd60e51b815260040161024e9061512c565b610e107f7e9328092c46e3d103a0cb8e24aa657ae6f6b6cc910545a9729426966d8645585560007fdcdd852e594407d62243674acd7258abfb4689d6abdc168bb42d4f40c75ac9d055565b6060611f36848460008585600080866001600160a01b0316858760405161465991906153d4565b60006040518083038185875af1925050503d8060008114614696576040519150601f19603f3d011682016040523d82523d6000602084013e61469b565b606091505b5091509150613979878383876060831561471657825160000361470f576001600160a01b0385163b61470f5760405162461bcd60e51b815260206004820152601d60248201527f416464726573733a2063616c6c20746f206e6f6e2d636f6e7472616374000000604482015260640161024e565b5081611f36565b611f36838381511561472b5781518083602001fd5b8060405162461bcd60e51b815260040161024e91906153f0565b6001600160a01b0381168114611c3157600080fd5b634e487b7160e01b600052604160045260246000fd5b6040516080810167ffffffffffffffff811182821017156147935761479361475a565b60405290565b6040805190810167ffffffffffffffff811182821017156147935761479361475a565b6040516101e0810167ffffffffffffffff811182821017156147935761479361475a565b604051601f8201601f1916810167ffffffffffffffff811182821017156148095761480961475a565b604052919050565b62ffffff81168114611c3157600080fd5b600080600083850360c081121561483857600080fd5b843561484381614745565b9350602085013561485381614745565b92506080603f198201121561486757600080fd5b50614870614770565b60408501356004811061488257600080fd5b8152606085013561489281614745565b602082015260808501356148a581614811565b604082015260a08501356148b881614811565b606082015292959194509192509050565b6000602082840312156148db57600080fd5b8135611e3081614745565b600080604083850312156148f957600080fd5b823561490481614745565b9150602083013561491481614745565b809150509250929050565b60006020828403121561493157600080fd5b5035919050565b600080600080600060a0868803121561495057600080fd5b853561495b81614745565b945060208681013561496c81614745565b94506040870135935060608701359250608087013567ffffffffffffffff8082111561499757600080fd5b818901915089601f8301126149ab57600080fd5b8135818111156149bd576149bd61475a565b6149cf601f8201601f191685016147e0565b91508082528a848285010111156149e557600080fd5b80848401858401376000848284010152508093505050509295509295909350565b60ff81168114611c3157600080fd5b60008060008060008060008060006101208a8c031215614a3457600080fd5b8935614a3f81614745565b985060208a0135614a4f81614745565b975060408a0135614a5f81614745565b965060608a0135614a6f81614745565b955060808a0135614a7f81614745565b945060a08a0135614a8f81614745565b935060c08a0135614a9f81614745565b925060e08a0135614aaf81614745565b91506101008a0135614ac081614a06565b809150509295985092959850929598565b600060408284031215614ae357600080fd5b614aeb614799565b82358152602083013560208201528091505092915050565b600060208284031215614b1557600080fd5b8135611e3081614a06565b600060208284031215614b3257600080fd5b6040516020810181811067ffffffffffffffff82111715614b5557614b5561475a565b6040529151825250919050565b80516fffffffffffffffffffffffffffffffff8116811461145c57600080fd5b805164ffffffffff8116811461145c57600080fd5b805161ffff8116811461145c57600080fd5b805161145c81614745565b60006101e08284031215614bc757600080fd5b614bcf6147bc565b614bd98484614b20565b8152614be760208401614b62565b6020820152614bf860408401614b62565b6040820152614c0960608401614b62565b6060820152614c1a60808401614b62565b6080820152614c2b60a08401614b62565b60a0820152614c3c60c08401614b82565b60c0820152614c4d60e08401614b97565b60e0820152610100614c60818501614ba9565b90820152610120614c72848201614ba9565b90820152610140614c84848201614ba9565b90820152610160614c96848201614ba9565b90820152610180614ca8848201614b62565b908201526101a0614cba848201614b62565b908201526101c0614ccc848201614b62565b908201529392505050565b600060208284031215614ce957600080fd5b5051919050565b600060208284031215614d0257600080fd5b8151611e3081614a06565b634e487b7160e01b600052601160045260246000fd5b818103818111156113ab576113ab614d0d565b634e487b7160e01b600052602160045260246000fd5b6001600160a01b03929092168252602082015260400190565b600060208284031215614d7757600080fd5b81518015158114611e3057600080fd5b60005b83811015614da2578181015183820152602001614d8a565b50506000910152565b60006bffffffffffffffffffffffff19808760601b168352808660601b166014840152508360288301528251614de8816048850160208701614d87565b9190910160480195945050505050565b600060608284031215614e0a57600080fd5b6040516060810181811067ffffffffffffffff82111715614e2d57614e2d61475a565b604052825181526020830151614e4281614745565b6020820152604083015160038110614e5957600080fd5b60408201529392505050565b6020808252602e908201527f496e697469616c697a61626c653a20636f6e747261637420697320616c72656160408201526d191e481a5b9a5d1a585b1a5e995960921b606082015260800190565b80820281158282048414176113ab576113ab614d0d565b600082614ee757634e487b7160e01b600052601260045260246000fd5b500490565b6000600160ff1b8201614f0157614f01614d0d565b5060000390565b808201808211156113ab576113ab614d0d565b8381526001600160a01b03831660208201526060810160038310614f4f57634e487b7160e01b600052602160045260246000fd5b826040830152949350505050565b60008151808452614f75816020860160208601614d87565b601f01601f19169290920160200192915050565b6001600160a01b0385811682528416602082015260408101839052608060608201819052600090612a9a90830184614f5d565b60ff82811682821603908111156113ab576113ab614d0d565b600181815b80851115613dd2578160001904821115614ff657614ff6614d0d565b8085161561500357918102915b93841c9390800290614fda565b60008261501f575060016113ab565b8161502c575060006113ab565b8160018114615042576002811461504c57615068565b60019150506113ab565b60ff84111561505d5761505d614d0d565b50506001821b6113ab565b5060208310610133831016604e8410600b841016171561508b575081810a6113ab565b6150958383614fd5565b80600019048211156150a9576150a9614d0d565b029392505050565b6000611e3060ff841683615010565b6000604082840312156150d257600080fd5b6150da614799565b82518152602083015160208201528091505092915050565b60408101818360005b60028110156151235781516001600160a01b03168352602092830192909101906001016150fb565b50505092915050565b6020808252602b908201527f496e697469616c697a61626c653a20636f6e7472616374206973206e6f74206960408201526a6e697469616c697a696e6760a81b606082015260800190565b60006020828403121561518957600080fd5b8151611e3081614811565b60e081016113ab828480516001600160a01b03908116835260208083015182169084015260408083015162ffffff16908401526060808301518216908401526080808301519084015260a0828101519084015260c09182015116910152565b634e487b7160e01b600052603260045260246000fd5b60008151808452602080850194506020840160005b838110156152435781516001600160a01b03168752958201959082019060010161521e565b509495945050505050565b828152604060208201526000611f366040830184615209565b6000602080838503121561527a57600080fd5b825167ffffffffffffffff8082111561529257600080fd5b818501915085601f8301126152a657600080fd5b8151818111156152b8576152b861475a565b8060051b91506152c98483016147e0565b81815291830184019184810190888411156152e357600080fd5b938501935b83851015615301578451825293850193908501906152e8565b98975050505050505050565b85815284602082015260a06040820152600061532c60a0830186615209565b6001600160a01b0394909416606083015250608001529392505050565b60006020828403121561535b57600080fd5b81518060020b8114611e3057600080fd5b61010081016113ab828480516001600160a01b03908116835260208083015182169084015260408083015160020b908401526060808301518216908401526080808301519084015260a0828101519084015260c0808301519084015260e09182015116910152565b600082516153e6818460208701614d87565b9190910192915050565b602081526000611e306020830184614f5d56fea26469706673582212209a59b10627c387baf660cbd8e5594932593d6032a68f792f1abdfb1aa0d8522b64736f6c63430008180033",
  "linkReferences": {},
  "deployedLinkReferences": {}
}