{
  "_format": "hh-sol-artifact-1",
  "contractName": "StrategyAeroSwapAnd",
  "sourceName": "contracts/core/strategies/StrategyAeroSwapAnd.sol",
  "abi": [
    {
      "inputs": [
        {
          "internalType": "address",
          "name": "initialOwner",
          "type": "address"
        },
        {
          "internalType": "contract IERC20",
          "name": "iAsset",
          "type": "address"
        },
        {
          "internalType": "contract IStrategy",
          "name": "iUnderlyingStrategy",
          "type": "address"
        },
        {
          "internalType": "contract IOracle",
          "name": "iOracle",
          "type": "address"
        },
        {
          "internalType": "contract ISwapRouter",
          "name": "router",
          "type": "address"
        }
      ],
      "stateMutability": "nonpayable",
      "type": "constructor"
    },
    {
      "inputs": [],
      "name": "FailedToApproveAllowanceFor",
      "type": "error"
    },
    {
      "inputs": [],
      "name": "FailedToApproveAllowanceForSwapRouter",
      "type": "error"
    },
    {
      "inputs": [],
      "name": "InvalidAeroRouterContract",
      "type": "error"
    },
    {
      "inputs": [],
      "name": "InvalidAmount",
      "type": "error"
    },
    {
      "inputs": [],
      "name": "InvalidConfiguration",
      "type": "error"
    },
    {
      "inputs": [],
      "name": "InvalidInputToken",
      "type": "error"
    },
    {
      "inputs": [],
      "name": "InvalidInputToken",
      "type": "error"
    },
    {
      "inputs": [],
      "name": "InvalidOutputToken",
      "type": "error"
    },
    {
      "inputs": [],
      "name": "InvalidOutputToken",
      "type": "error"
    },
    {
      "inputs": [],
      "name": "SlippageExceeded",
      "type": "error"
    },
    {
      "inputs": [],
      "name": "SwapFailed",
      "type": "error"
    },
    {
      "inputs": [],
      "name": "SwapFailed",
      "type": "error"
    },
    {
      "anonymous": false,
      "inputs": [
        {
          "indexed": true,
          "internalType": "address",
          "name": "previousOwner",
          "type": "address"
        },
        {
          "indexed": true,
          "internalType": "address",
          "name": "newOwner",
          "type": "address"
        }
      ],
      "name": "OwnershipTransferred",
      "type": "event"
    },
    {
      "anonymous": false,
      "inputs": [
        {
          "indexed": true,
          "internalType": "uint256",
          "name": "newDeployment",
          "type": "uint256"
        }
      ],
      "name": "StrategyAmountUpdate",
      "type": "event"
    },
    {
      "anonymous": false,
      "inputs": [
        {
          "indexed": true,
          "internalType": "address",
          "name": "from",
          "type": "address"
        },
        {
          "indexed": true,
          "internalType": "uint256",
          "name": "amount",
          "type": "uint256"
        }
      ],
      "name": "StrategyDeploy",
      "type": "event"
    },
    {
      "anonymous": false,
      "inputs": [
        {
          "indexed": true,
          "internalType": "uint256",
          "name": "amount",
          "type": "uint256"
        }
      ],
      "name": "StrategyLoss",
      "type": "event"
    },
    {
      "anonymous": false,
      "inputs": [
        {
          "indexed": true,
          "internalType": "uint256",
          "name": "amount",
          "type": "uint256"
        }
      ],
      "name": "StrategyProfit",
      "type": "event"
    },
    {
      "anonymous": false,
      "inputs": [
        {
          "indexed": true,
          "internalType": "address",
          "name": "from",
          "type": "address"
        },
        {
          "indexed": true,
          "internalType": "uint256",
          "name": "amount",
          "type": "uint256"
        }
      ],
      "name": "StrategyUndeploy",
      "type": "event"
    },
    {
      "inputs": [],
      "name": "aeroRouter",
      "outputs": [
        {
          "internalType": "contract ISwapRouter",
          "name": "",
          "type": "address"
        }
      ],
      "stateMutability": "view",
      "type": "function"
    },
    {
      "inputs": [],
      "name": "asset",
      "outputs": [
        {
          "internalType": "address",
          "name": "",
          "type": "address"
        }
      ],
      "stateMutability": "view",
      "type": "function"
    },
    {
      "inputs": [
        {
          "internalType": "uint256",
          "name": "amount",
          "type": "uint256"
        }
      ],
      "name": "deploy",
      "outputs": [
        {
          "internalType": "uint256",
          "name": "amountUsed",
          "type": "uint256"
        }
      ],
      "stateMutability": "nonpayable",
      "type": "function"
    },
    {
      "inputs": [],
      "name": "harvest",
      "outputs": [
        {
          "internalType": "int256",
          "name": "balanceChange",
          "type": "int256"
        }
      ],
      "stateMutability": "nonpayable",
      "type": "function"
    },
    {
      "inputs": [],
      "name": "maxSlippage",
      "outputs": [
        {
          "internalType": "uint256",
          "name": "",
          "type": "uint256"
        }
      ],
      "stateMutability": "view",
      "type": "function"
    },
    {
      "inputs": [],
      "name": "oracle",
      "outputs": [
        {
          "internalType": "address",
          "name": "",
          "type": "address"
        }
      ],
      "stateMutability": "view",
      "type": "function"
    },
    {
      "inputs": [],
      "name": "owner",
      "outputs": [
        {
          "internalType": "address",
          "name": "",
          "type": "address"
        }
      ],
      "stateMutability": "view",
      "type": "function"
    },
    {
      "inputs": [],
      "name": "renounceOwnership",
      "outputs": [],
      "stateMutability": "nonpayable",
      "type": "function"
    },
    {
      "inputs": [
        {
          "internalType": "uint256",
          "name": "maxSlippage_",
          "type": "uint256"
        }
      ],
      "name": "setMaxSlippage",
      "outputs": [],
      "stateMutability": "nonpayable",
      "type": "function"
    },
    {
      "inputs": [],
      "name": "totalAssets",
      "outputs": [
        {
          "internalType": "uint256",
          "name": "",
          "type": "uint256"
        }
      ],
      "stateMutability": "view",
      "type": "function"
    },
    {
      "inputs": [
        {
          "internalType": "address",
          "name": "newOwner",
          "type": "address"
        }
      ],
      "name": "transferOwnership",
      "outputs": [],
      "stateMutability": "nonpayable",
      "type": "function"
    },
    {
      "inputs": [
        {
          "internalType": "uint256",
          "name": "amount",
          "type": "uint256"
        }
      ],
      "name": "undeploy",
      "outputs": [
        {
          "internalType": "uint256",
          "name": "undeployedAmount_",
          "type": "uint256"
        }
      ],
      "stateMutability": "nonpayable",
      "type": "function"
    },
    {
      "inputs": [],
      "name": "underlyingAsset",
      "outputs": [
        {
          "internalType": "address",
          "name": "",
          "type": "address"
        }
      ],
      "stateMutability": "view",
      "type": "function"
    }
  ],
  "bytecode": "0x60e06040523480156200001157600080fd5b5060405162001bc438038062001bc48339810160408190526200003491620004ea565b6001600055848484846200004833620002c7565b6001600160a01b0383161580620000d5575060006001600160a01b0316826001600160a01b03166338d52e0f6040518163ffffffff1660e01b8152600401602060405180830381865afa158015620000a4573d6000803e3d6000fd5b505050506040513d601f19601f82011682018060405250810190620000ca91906200056a565b6001600160a01b0316145b80620000e857506001600160a01b038116155b15620001075760405163c52a9bd360e01b815260040160405180910390fd5b6001600160a01b03808416608052811660a052620001258462000319565b816001600160a01b03166338d52e0f6040518163ffffffff1660e01b8152600401602060405180830381865afa15801562000164573d6000803e3d6000fd5b505050506040513d601f19601f820116820180604052508101906200018a91906200056a565b60405163095ea7b360e01b81526001600160a01b0384811660048301526000196024830152919091169063095ea7b3906044016020604051808303816000875af1158015620001dd573d6000803e3d6000fd5b505050506040513d601f19601f8201168201806040525081019062000203919062000591565b620002215760405163474a9d3760e01b815260040160405180910390fd5b506001600160a01b031660c052506200023c9050816200039c565b6200024a84600019620003d8565b620002bc836001600160a01b03166338d52e0f6040518163ffffffff1660e01b8152600401602060405180830381865afa1580156200028d573d6000803e3d6000fd5b505050506040513d601f19601f82011682018060405250810190620002b391906200056a565b600019620003d8565b5050505050620005b5565b600180546001600160a01b038381166001600160a01b0319831681179093556040519116919082907f8be0079c531659141344cd1fd0a4f28419497f9722a3daafe3b4186f6b6457e090600090a35050565b6200032362000476565b6001600160a01b0381166200038e5760405162461bcd60e51b815260206004820152602660248201527f4f776e61626c653a206e6577206f776e657220697320746865207a65726f206160448201526564647265737360d01b60648201526084015b60405180910390fd5b6200039981620002c7565b50565b600480546001600160a01b0319166001600160a01b038316908117909155620003995760405163a0b3bbad60e01b815260040160405180910390fd5b6004805460405163095ea7b360e01b81526001600160a01b03918216928101929092526024820183905283169063095ea7b3906044016020604051808303816000875af11580156200042e573d6000803e3d6000fd5b505050506040513d601f19601f8201168201806040525081019062000454919062000591565b620004725760405163a1404d1160e01b815260040160405180910390fd5b5050565b6001546001600160a01b03163314620004d25760405162461bcd60e51b815260206004820181905260248201527f4f776e61626c653a2063616c6c6572206973206e6f7420746865206f776e6572604482015260640162000385565b565b6001600160a01b03811681146200039957600080fd5b600080600080600060a086880312156200050357600080fd5b85516200051081620004d4565b60208701519095506200052381620004d4565b60408701519094506200053681620004d4565b60608701519093506200054981620004d4565b60808701519092506200055c81620004d4565b809150509295509295909350565b6000602082840312156200057d57600080fd5b81516200058a81620004d4565b9392505050565b600060208284031215620005a457600080fd5b815180151581146200058a57600080fd5b60805160a05160c051611592620006326000396000818161026b0152818161058a0152818161077701526108fc01526000818161017c01528181610a8401528181610af701528181610bc00152610c2e01526000818161011601528181610361015281816104010152818161065801526106cf01526115926000f3fe608060405234801561001057600080fd5b50600436106100cf5760003560e01c8063715018a61161008c5780638c04166f116100665780638c04166f146101a05780638da5cb5b146101a8578063a5e38751146101b9578063f2fde38b146101cc57600080fd5b8063715018a61461016a5780637158da7c146101725780637dc0d1d01461017a57600080fd5b806301e1d114146100d45780631909c2a8146100ef57806338d52e0f1461011457806343f68a491461013a578063440e6dff1461014f5780634641257d14610162575b600080fd5b6100dc6101df565b6040519081526020015b60405180910390f35b6004546001600160a01b03165b6040516001600160a01b0390911681526020016100e6565b7f00000000000000000000000000000000000000000000000000000000000000006100fc565b61014d610148366004611283565b6101ee565b005b6100dc61015d366004611283565b6101fb565b6100dc610495565b61014d610572565b6100fc610586565b7f00000000000000000000000000000000000000000000000000000000000000006100fc565b6002546100dc565b6001546001600160a01b03166100fc565b6100dc6101c7366004611283565b61060a565b61014d6101da3660046112b1565b610879565b60006101e96108f7565b905090565b6101f66109a4565b600255565b60006102056109fe565b816000036102265760405163162908e360e11b815260040160405180910390fd5b6003548211156102495760405163162908e360e11b815260040160405180910390fd5b60408051808201909152610e1081526064602082015260006001600160a01b037f00000000000000000000000000000000000000000000000000000000000000001663440e6dff61029a8487610a57565b6040518263ffffffff1660e01b81526004016102b891815260200190565b6020604051808303816000875af11580156102d7573d6000803e3d6000fd5b505050506040513d601f19601f820116820180604052508101906102fb91906112d5565b905060006103098383610b93565b90506000633b9aca00600254633b9aca006103249190611304565b61032e908461131d565b6103389190611334565b905060006103b46040518060c00160405280610352610586565b6001600160a01b0390811682527f00000000000000000000000000000000000000000000000000000000000000001660208201526040016000815260200186815260200184815260200160405180602001604052806000815250815250610cba565b915050818110156103d857604051638199f5f360e01b815260040160405180910390fd5b83600360008282546103ea9190611304565b909155509095508590506104286001600160a01b037f0000000000000000000000000000000000000000000000000000000000000000163383610ccf565b604051819033907fd876b3a71b8d3ba9e91f332c8be4f54719ce01f2583ceed9c22bf76aaa3fc35390600090a36003546040517f2dd98c29534f0234343e33770888eec9561b1580bba498c1cda8c1b8e3dbe1e090600090a250505050506104906001600055565b919050565b600061049f6109fe565b60006104a96108f7565b9050600354816104b9919061136c565b915060008213156104f45760405182907fb24093f9ac16681be69ee94e18b6581e28387a1e4d6e25cfea38138ad5be616790600090a2610530565b60008212156105305761050682611393565b6040517fede8d8525758cb6685bfabd1b6304e23cd86c77d10cc920af49e2b4637dc233e90600090a25b81156105625760405181907f2dd98c29534f0234343e33770888eec9561b1580bba498c1cda8c1b8e3dbe1e090600090a25b60035561056f6001600055565b90565b61057a6109a4565b6105846000610d37565b565b60007f00000000000000000000000000000000000000000000000000000000000000006001600160a01b03166338d52e0f6040518163ffffffff1660e01b8152600401602060405180830381865afa1580156105e6573d6000803e3d6000fd5b505050506040513d601f19601f820116820180604052508101906101e991906113af565b60006106146109fe565b816000036106355760405163162908e360e11b815260040160405180910390fd5b60408051808201909152610e108152600060208201526106806001600160a01b037f000000000000000000000000000000000000000000000000000000000000000016333086610d89565b600061068c8285610a57565b90506000633b9aca00600254633b9aca006106a79190611304565b6106b1908461131d565b6106bb9190611334565b9050600061073d6040518060c001604052807f00000000000000000000000000000000000000000000000000000000000000006001600160a01b03168152602001610704610586565b6001600160a01b031681526020016000815260200188815260200184815260200160405180602001604052806000815250815250610cba565b9150508181101561076157604051638199f5f360e01b815260040160405180910390fd5b60405163a5e3875160e01b8152600481018290527f00000000000000000000000000000000000000000000000000000000000000006001600160a01b03169063a5e38751906024016020604051808303816000875af11580156107c8573d6000803e3d6000fd5b505050506040513d601f19601f820116820180604052508101906107ec91906112d5565b5080600360008282546107ff91906113cc565b9091555061080f90508482610b93565b604051909550869033907f642a0bcf70c335488df8376c9718c6ad9f2a5f2ce827bc883176aa0dd1062b0690600090a36003546040517f2dd98c29534f0234343e33770888eec9561b1580bba498c1cda8c1b8e3dbe1e090600090a2505050506104906001600055565b6108816109a4565b6001600160a01b0381166108eb5760405162461bcd60e51b815260206004820152602660248201527f4f776e61626c653a206e6577206f776e657220697320746865207a65726f206160448201526564647265737360d01b60648201526084015b60405180910390fd5b6108f481610d37565b50565b6000807f00000000000000000000000000000000000000000000000000000000000000006001600160a01b03166301e1d1146040518163ffffffff1660e01b8152600401602060405180830381865afa158015610958573d6000803e3d6000fd5b505050506040513d601f19601f8201168201806040525081019061097c91906112d5565b905061099e604051806040016040528060008152602001600081525082610b93565b91505090565b6001546001600160a01b031633146105845760405162461bcd60e51b815260206004820181905260248201527f4f776e61626c653a2063616c6c6572206973206e6f7420746865206f776e657260448201526064016108e2565b600260005403610a505760405162461bcd60e51b815260206004820152601f60248201527f5265656e7472616e637947756172643a207265656e7472616e742063616c6c0060448201526064016108e2565b6002600055565b6040516304341d9960e01b8152825160048201526020830151602482015260009081906001600160a01b037f000000000000000000000000000000000000000000000000000000000000000016906304341d99906044016040805180830381865afa158015610aca573d6000803e3d6000fd5b505050506040513d601f19601f82011682018060405250810190610aee91906113df565b905080600001517f00000000000000000000000000000000000000000000000000000000000000006001600160a01b0316639670c0bc6040518163ffffffff1660e01b8152600401602060405180830381865afa158015610b53573d6000803e3d6000fd5b505050506040513d601f19601f82011682018060405250810190610b7791906112d5565b610b81908561131d565b610b8b9190611334565b949350505050565b6040516304341d9960e01b8152825160048201526020830151602482015260009081906001600160a01b037f000000000000000000000000000000000000000000000000000000000000000016906304341d99906044016040805180830381865afa158015610c06573d6000803e3d6000fd5b505050506040513d601f19601f82011682018060405250810190610c2a91906113df565b90507f00000000000000000000000000000000000000000000000000000000000000006001600160a01b0316639670c0bc6040518163ffffffff1660e01b8152600401602060405180830381865afa158015610c8a573d6000803e3d6000fd5b505050506040513d601f19601f82011682018060405250810190610cae91906112d5565b8151610b81908561131d565b600080610cc683610dc7565b91509150915091565b6040516001600160a01b038316602482015260448101829052610d3290849063a9059cbb60e01b906064015b60408051601f198184030181529190526020810180516001600160e01b03166001600160e01b031990931692909217909152610de5565b505050565b600180546001600160a01b038381166001600160a01b0319831681179093556040519116919082907f8be0079c531659141344cd1fd0a4f28419497f9722a3daafe3b4186f6b6457e090600090a35050565b6040516001600160a01b0380851660248301528316604482015260648101829052610dc19085906323b872dd60e01b90608401610cfb565b50505050565b600080610cc6610ddf6004546001600160a01b031690565b84610eba565b6000610e3a826040518060400160405280602081526020017f5361666545524332303a206c6f772d6c6576656c2063616c6c206661696c6564815250856001600160a01b03166111609092919063ffffffff16565b9050805160001480610e5b575080806020019051810190610e5b919061143c565b610d325760405162461bcd60e51b815260206004820152602a60248201527f5361666545524332303a204552433230206f7065726174696f6e20646964206e6044820152691bdd081cdd58d8d9595960b21b60648201526084016108e2565b805160009081906001600160a01b0316610ee757604051632df9739b60e01b815260040160405180910390fd5b60208301516001600160a01b0316610f11576040516231010160e51b815260040160405180910390fd5b60008360a00151806020019051810190610f2b919061145e565b9050600084604001516001811115610f4557610f45611356565b036110555783606001519250846001600160a01b031663a026383e60405180610100016040528087600001516001600160a01b0316815260200187602001516001600160a01b031681526020018460020b8152602001306001600160a01b031681526020014281526020018681526020018760800151815260200160006001600160a01b03168152506040518263ffffffff1660e01b8152600401610fea9190611481565b6020604051808303816000875af1158015611009573d6000803e3d6000fd5b505050506040513d601f19601f8201168201806040525081019061102d91906112d5565b9150816000036110505760405163081ceff360e41b815260040160405180910390fd5b611158565b60018460400151600181111561106d5761106d611356565b036111585783608001519150846001600160a01b031663c714e83860405180610100016040528087600001516001600160a01b0316815260200187602001516001600160a01b031681526020018460020b8152602001306001600160a01b031681526020014281526020018581526020018760600151815260200160006001600160a01b03168152506040518263ffffffff1660e01b81526004016111129190611481565b6020604051808303816000875af1158015611131573d6000803e3d6000fd5b505050506040513d601f19601f8201168201806040525081019061115591906112d5565b92505b509250929050565b6060610b8b848460008585600080866001600160a01b03168587604051611187919061150d565b60006040518083038185875af1925050503d80600081146111c4576040519150601f19603f3d011682016040523d82523d6000602084013e6111c9565b606091505b50915091506111da878383876111e5565b979650505050505050565b6060831561125457825160000361124d576001600160a01b0385163b61124d5760405162461bcd60e51b815260206004820152601d60248201527f416464726573733a2063616c6c20746f206e6f6e2d636f6e747261637400000060448201526064016108e2565b5081610b8b565b610b8b83838151156112695781518083602001fd5b8060405162461bcd60e51b81526004016108e29190611529565b60006020828403121561129557600080fd5b5035919050565b6001600160a01b03811681146108f457600080fd5b6000602082840312156112c357600080fd5b81356112ce8161129c565b9392505050565b6000602082840312156112e757600080fd5b5051919050565b634e487b7160e01b600052601160045260246000fd5b81810381811115611317576113176112ee565b92915050565b8082028115828204841417611317576113176112ee565b60008261135157634e487b7160e01b600052601260045260246000fd5b500490565b634e487b7160e01b600052602160045260246000fd5b818103600083128015838313168383128216171561138c5761138c6112ee565b5092915050565b6000600160ff1b82016113a8576113a86112ee565b5060000390565b6000602082840312156113c157600080fd5b81516112ce8161129c565b80820180821115611317576113176112ee565b6000604082840312156113f157600080fd5b6040516040810181811067ffffffffffffffff8211171561142257634e487b7160e01b600052604160045260246000fd5b604052825181526020928301519281019290925250919050565b60006020828403121561144e57600080fd5b815180151581146112ce57600080fd5b60006020828403121561147057600080fd5b81518060020b81146112ce57600080fd5b6101008101611317828480516001600160a01b03908116835260208083015182169084015260408083015160020b908401526060808301518216908401526080808301519084015260a0828101519084015260c0808301519084015260e09182015116910152565b60005b838110156115045781810151838201526020016114ec565b50506000910152565b6000825161151f8184602087016114e9565b9190910192915050565b60208152600082518060208401526115488160408501602087016114e9565b601f01601f1916919091016040019291505056fea26469706673582212209a01166f0fb961da38d1a9841e51a5a487244e21042f4f86b4f1d68f6ec9ae4564736f6c63430008180033",
  "linkReferences": {},
  "deployedLinkReferences": {}
}