{
  "_format": "hh-sol-artifact-1",
  "contractName": "StrategyLeverageMorphoBlue",
  "sourceName": "contracts/core/strategies/StrategyLeverageMorphoBlue.sol",
  "abi": [
    {
      "inputs": [],
      "stateMutability": "nonpayable",
      "type": "constructor"
    },
    {
      "inputs": [],
      "name": "CallerNotTheGovernor",
      "type": "error"
    },
    {
      "inputs": [],
      "name": "CollateralLowerThanDebt",
      "type": "error"
    },
    {
      "inputs": [
        {
          "internalType": "address",
          "name": "sender",
          "type": "address"
        }
      ],
      "name": "ETHTransferNotAllowed",
      "type": "error"
    },
    {
      "inputs": [],
      "name": "FailedToApproveAllowance",
      "type": "error"
    },
    {
      "inputs": [],
      "name": "FailedToApproveAllowance",
      "type": "error"
    },
    {
      "inputs": [],
      "name": "FailedToAuthenticateArgs",
      "type": "error"
    },
    {
      "inputs": [],
      "name": "FailedToRepayDebt",
      "type": "error"
    },
    {
      "inputs": [],
      "name": "FailedToRunFlashLoan",
      "type": "error"
    },
    {
      "inputs": [],
      "name": "InvalidAddress",
      "type": "error"
    },
    {
      "inputs": [],
      "name": "InvalidAllowance",
      "type": "error"
    },
    {
      "inputs": [],
      "name": "InvalidCollateralOracle",
      "type": "error"
    },
    {
      "inputs": [],
      "name": "InvalidCollateralToken",
      "type": "error"
    },
    {
      "inputs": [],
      "name": "InvalidDebtOracle",
      "type": "error"
    },
    {
      "inputs": [],
      "name": "InvalidDebtToken",
      "type": "error"
    },
    {
      "inputs": [],
      "name": "InvalidDeltaDebt",
      "type": "error"
    },
    {
      "inputs": [],
      "name": "InvalidDeployAmount",
      "type": "error"
    },
    {
      "inputs": [],
      "name": "InvalidDivDenominator",
      "type": "error"
    },
    {
      "inputs": [],
      "name": "InvalidDivisor",
      "type": "error"
    },
    {
      "inputs": [],
      "name": "InvalidFeeTier",
      "type": "error"
    },
    {
      "inputs": [],
      "name": "InvalidFlashLenderContract",
      "type": "error"
    },
    {
      "inputs": [],
      "name": "InvalidFlashLoanAction",
      "type": "error"
    },
    {
      "inputs": [],
      "name": "InvalidFlashLoanAsset",
      "type": "error"
    },
    {
      "inputs": [],
      "name": "InvalidFlashLoanSender",
      "type": "error"
    },
    {
      "inputs": [],
      "name": "InvalidGovernorAddress",
      "type": "error"
    },
    {
      "inputs": [],
      "name": "InvalidInputToken",
      "type": "error"
    },
    {
      "inputs": [],
      "name": "InvalidInputToken",
      "type": "error"
    },
    {
      "inputs": [],
      "name": "InvalidInputToken",
      "type": "error"
    },
    {
      "inputs": [],
      "name": "InvalidInputToken",
      "type": "error"
    },
    {
      "inputs": [],
      "name": "InvalidLoanInitiator",
      "type": "error"
    },
    {
      "inputs": [],
      "name": "InvalidLoanToValue",
      "type": "error"
    },
    {
      "inputs": [],
      "name": "InvalidLoopCount",
      "type": "error"
    },
    {
      "inputs": [],
      "name": "InvalidMaxLoanToValue",
      "type": "error"
    },
    {
      "inputs": [],
      "name": "InvalidMorphoBlueContract",
      "type": "error"
    },
    {
      "inputs": [],
      "name": "InvalidMorphoBlueMarket",
      "type": "error"
    },
    {
      "inputs": [],
      "name": "InvalidNumberOfLoops",
      "type": "error"
    },
    {
      "inputs": [],
      "name": "InvalidOutputToken",
      "type": "error"
    },
    {
      "inputs": [],
      "name": "InvalidOutputToken",
      "type": "error"
    },
    {
      "inputs": [],
      "name": "InvalidOutputToken",
      "type": "error"
    },
    {
      "inputs": [],
      "name": "InvalidOutputToken",
      "type": "error"
    },
    {
      "inputs": [],
      "name": "InvalidOwner",
      "type": "error"
    },
    {
      "inputs": [],
      "name": "InvalidPercentage",
      "type": "error"
    },
    {
      "inputs": [],
      "name": "InvalidPercentageValue",
      "type": "error"
    },
    {
      "inputs": [],
      "name": "InvalidProvider",
      "type": "error"
    },
    {
      "inputs": [],
      "name": "InvalidRouter",
      "type": "error"
    },
    {
      "inputs": [],
      "name": "InvalidTargetValue",
      "type": "error"
    },
    {
      "inputs": [],
      "name": "InvalidValue",
      "type": "error"
    },
    {
      "inputs": [],
      "name": "NoCollateralMarginToScale",
      "type": "error"
    },
    {
      "inputs": [],
      "name": "OverflowDetected",
      "type": "error"
    },
    {
      "inputs": [],
      "name": "PriceOutdated",
      "type": "error"
    },
    {
      "inputs": [],
      "name": "RouteAlreadyAuthorized",
      "type": "error"
    },
    {
      "inputs": [],
      "name": "RouteNotAuthorized",
      "type": "error"
    },
    {
      "inputs": [],
      "name": "SwapFailed",
      "type": "error"
    },
    {
      "inputs": [],
      "name": "SwapFailed",
      "type": "error"
    },
    {
      "inputs": [],
      "name": "SwapFailed",
      "type": "error"
    },
    {
      "inputs": [],
      "name": "SwapFailed",
      "type": "error"
    },
    {
      "anonymous": false,
      "inputs": [
        {
          "indexed": true,
          "internalType": "address",
          "name": "previousGovernor",
          "type": "address"
        },
        {
          "indexed": true,
          "internalType": "address",
          "name": "newGovernor",
          "type": "address"
        }
      ],
      "name": "GovernshipTransferred",
      "type": "event"
    },
    {
      "anonymous": false,
      "inputs": [
        {
          "indexed": false,
          "internalType": "uint8",
          "name": "version",
          "type": "uint8"
        }
      ],
      "name": "Initialized",
      "type": "event"
    },
    {
      "anonymous": false,
      "inputs": [
        {
          "indexed": true,
          "internalType": "uint256",
          "name": "value",
          "type": "uint256"
        }
      ],
      "name": "LoanToValueChanged",
      "type": "event"
    },
    {
      "anonymous": false,
      "inputs": [
        {
          "indexed": true,
          "internalType": "uint256",
          "name": "value",
          "type": "uint256"
        }
      ],
      "name": "MaxLoanToValueChanged",
      "type": "event"
    },
    {
      "anonymous": false,
      "inputs": [
        {
          "indexed": true,
          "internalType": "uint256",
          "name": "value",
          "type": "uint256"
        }
      ],
      "name": "MaxSlippageChanged",
      "type": "event"
    },
    {
      "anonymous": false,
      "inputs": [
        {
          "indexed": true,
          "internalType": "uint256",
          "name": "value",
          "type": "uint256"
        }
      ],
      "name": "NrLoopsChanged",
      "type": "event"
    },
    {
      "anonymous": false,
      "inputs": [
        {
          "indexed": true,
          "internalType": "address",
          "name": "previousOwner",
          "type": "address"
        },
        {
          "indexed": true,
          "internalType": "address",
          "name": "newOwner",
          "type": "address"
        }
      ],
      "name": "OwnershipTransferred",
      "type": "event"
    },
    {
      "anonymous": false,
      "inputs": [
        {
          "indexed": true,
          "internalType": "uint256",
          "name": "value",
          "type": "uint256"
        }
      ],
      "name": "PriceMaxAgeChanged",
      "type": "event"
    },
    {
      "anonymous": false,
      "inputs": [
        {
          "indexed": true,
          "internalType": "uint256",
          "name": "value",
          "type": "uint256"
        }
      ],
      "name": "PriceMaxConfChanged",
      "type": "event"
    },
    {
      "anonymous": false,
      "inputs": [
        {
          "indexed": true,
          "internalType": "uint256",
          "name": "newDeployment",
          "type": "uint256"
        }
      ],
      "name": "StrategyAmountUpdate",
      "type": "event"
    },
    {
      "anonymous": false,
      "inputs": [
        {
          "indexed": true,
          "internalType": "address",
          "name": "from",
          "type": "address"
        },
        {
          "indexed": true,
          "internalType": "uint256",
          "name": "amount",
          "type": "uint256"
        }
      ],
      "name": "StrategyDeploy",
      "type": "event"
    },
    {
      "anonymous": false,
      "inputs": [
        {
          "indexed": true,
          "internalType": "uint256",
          "name": "amount",
          "type": "uint256"
        }
      ],
      "name": "StrategyLoss",
      "type": "event"
    },
    {
      "anonymous": false,
      "inputs": [
        {
          "indexed": true,
          "internalType": "uint256",
          "name": "amount",
          "type": "uint256"
        }
      ],
      "name": "StrategyProfit",
      "type": "event"
    },
    {
      "anonymous": false,
      "inputs": [
        {
          "indexed": true,
          "internalType": "address",
          "name": "from",
          "type": "address"
        },
        {
          "indexed": true,
          "internalType": "uint256",
          "name": "amount",
          "type": "uint256"
        }
      ],
      "name": "StrategyUndeploy",
      "type": "event"
    },
    {
      "inputs": [],
      "name": "asset",
      "outputs": [
        {
          "internalType": "address",
          "name": "",
          "type": "address"
        }
      ],
      "stateMutability": "view",
      "type": "function"
    },
    {
      "inputs": [
        {
          "internalType": "uint256",
          "name": "amount",
          "type": "uint256"
        }
      ],
      "name": "deploy",
      "outputs": [
        {
          "internalType": "uint256",
          "name": "deployedAmount",
          "type": "uint256"
        }
      ],
      "stateMutability": "nonpayable",
      "type": "function"
    },
    {
      "inputs": [
        {
          "internalType": "address",
          "name": "tokenIn",
          "type": "address"
        },
        {
          "internalType": "address",
          "name": "tokenOut",
          "type": "address"
        }
      ],
      "name": "disableRoute",
      "outputs": [],
      "stateMutability": "nonpayable",
      "type": "function"
    },
    {
      "inputs": [
        {
          "internalType": "address",
          "name": "tokenIn",
          "type": "address"
        },
        {
          "internalType": "address",
          "name": "tokenOut",
          "type": "address"
        },
        {
          "components": [
            {
              "internalType": "enum UseUnifiedSwapper.SwapProvider",
              "name": "provider",
              "type": "uint8"
            },
            {
              "internalType": "address",
              "name": "router",
              "type": "address"
            },
            {
              "internalType": "uint24",
              "name": "uniV3Tier",
              "type": "uint24"
            },
            {
              "internalType": "uint24",
              "name": "tickSpacing",
              "type": "uint24"
            }
          ],
          "internalType": "struct UseUnifiedSwapper.RouteInfo",
          "name": "routeInfo",
          "type": "tuple"
        }
      ],
      "name": "enableRoute",
      "outputs": [],
      "stateMutability": "nonpayable",
      "type": "function"
    },
    {
      "inputs": [],
      "name": "getBalances",
      "outputs": [
        {
          "internalType": "uint256",
          "name": "collateralBalance",
          "type": "uint256"
        },
        {
          "internalType": "uint256",
          "name": "debtBalance",
          "type": "uint256"
        }
      ],
      "stateMutability": "view",
      "type": "function"
    },
    {
      "inputs": [],
      "name": "getCollateralAsset",
      "outputs": [
        {
          "internalType": "address",
          "name": "",
          "type": "address"
        }
      ],
      "stateMutability": "view",
      "type": "function"
    },
    {
      "inputs": [],
      "name": "getCollateralOracle",
      "outputs": [
        {
          "internalType": "address",
          "name": "oracle",
          "type": "address"
        }
      ],
      "stateMutability": "view",
      "type": "function"
    },
    {
      "inputs": [],
      "name": "getDebAsset",
      "outputs": [
        {
          "internalType": "address",
          "name": "",
          "type": "address"
        }
      ],
      "stateMutability": "view",
      "type": "function"
    },
    {
      "inputs": [],
      "name": "getDebtOracle",
      "outputs": [
        {
          "internalType": "address",
          "name": "oracle",
          "type": "address"
        }
      ],
      "stateMutability": "view",
      "type": "function"
    },
    {
      "inputs": [],
      "name": "getLoanToValue",
      "outputs": [
        {
          "internalType": "uint256",
          "name": "",
          "type": "uint256"
        }
      ],
      "stateMutability": "view",
      "type": "function"
    },
    {
      "inputs": [],
      "name": "getMaxLoanToValue",
      "outputs": [
        {
          "internalType": "uint256",
          "name": "",
          "type": "uint256"
        }
      ],
      "stateMutability": "view",
      "type": "function"
    },
    {
      "inputs": [],
      "name": "getMaxSlippage",
      "outputs": [
        {
          "internalType": "uint256",
          "name": "",
          "type": "uint256"
        }
      ],
      "stateMutability": "view",
      "type": "function"
    },
    {
      "inputs": [],
      "name": "getNrLoops",
      "outputs": [
        {
          "internalType": "uint8",
          "name": "",
          "type": "uint8"
        }
      ],
      "stateMutability": "view",
      "type": "function"
    },
    {
      "inputs": [
        {
          "components": [
            {
              "internalType": "uint256",
              "name": "maxAge",
              "type": "uint256"
            },
            {
              "internalType": "uint256",
              "name": "maxConf",
              "type": "uint256"
            }
          ],
          "internalType": "struct IOracle.PriceOptions",
          "name": "priceOptions",
          "type": "tuple"
        }
      ],
      "name": "getPosition",
      "outputs": [
        {
          "internalType": "uint256",
          "name": "totalCollateralInUSD",
          "type": "uint256"
        },
        {
          "internalType": "uint256",
          "name": "totalDebtInUSD",
          "type": "uint256"
        },
        {
          "internalType": "uint256",
          "name": "loanToValue",
          "type": "uint256"
        }
      ],
      "stateMutability": "view",
      "type": "function"
    },
    {
      "inputs": [],
      "name": "getPriceMaxAge",
      "outputs": [
        {
          "internalType": "uint256",
          "name": "",
          "type": "uint256"
        }
      ],
      "stateMutability": "view",
      "type": "function"
    },
    {
      "inputs": [],
      "name": "getPriceMaxConf",
      "outputs": [
        {
          "internalType": "uint256",
          "name": "",
          "type": "uint256"
        }
      ],
      "stateMutability": "view",
      "type": "function"
    },
    {
      "inputs": [],
      "name": "governor",
      "outputs": [
        {
          "internalType": "address",
          "name": "",
          "type": "address"
        }
      ],
      "stateMutability": "view",
      "type": "function"
    },
    {
      "inputs": [],
      "name": "harvest",
      "outputs": [
        {
          "internalType": "int256",
          "name": "balanceChange",
          "type": "int256"
        }
      ],
      "stateMutability": "nonpayable",
      "type": "function"
    },
    {
      "inputs": [
        {
          "internalType": "address",
          "name": "initialOwner",
          "type": "address"
        },
        {
          "internalType": "address",
          "name": "initialGovernor",
          "type": "address"
        },
        {
          "components": [
            {
              "internalType": "address",
              "name": "collateralToken",
              "type": "address"
            },
            {
              "internalType": "address",
              "name": "debtToken",
              "type": "address"
            },
            {
              "internalType": "address",
              "name": "collateralOracle",
              "type": "address"
            },
            {
              "internalType": "address",
              "name": "debtOracle",
              "type": "address"
            },
            {
              "internalType": "address",
              "name": "flashLender",
              "type": "address"
            },
            {
              "internalType": "address",
              "name": "morphoBlue",
              "type": "address"
            },
            {
              "internalType": "address",
              "name": "univ3Router",
              "type": "address"
            },
            {
              "internalType": "uint24",
              "name": "swapFeeTier",
              "type": "uint24"
            },
            {
              "internalType": "address",
              "name": "morphoOracle",
              "type": "address"
            },
            {
              "internalType": "address",
              "name": "irm",
              "type": "address"
            },
            {
              "internalType": "uint256",
              "name": "lltv",
              "type": "uint256"
            }
          ],
          "internalType": "struct StrategyLeverageMorphoBlue.StrategyLeverageMorphoParams",
          "name": "params",
          "type": "tuple"
        }
      ],
      "name": "initialize",
      "outputs": [],
      "stateMutability": "nonpayable",
      "type": "function"
    },
    {
      "inputs": [
        {
          "internalType": "address",
          "name": "tokenIn",
          "type": "address"
        },
        {
          "internalType": "address",
          "name": "tokenOut",
          "type": "address"
        }
      ],
      "name": "isRouteEnabled",
      "outputs": [
        {
          "internalType": "bool",
          "name": "",
          "type": "bool"
        }
      ],
      "stateMutability": "view",
      "type": "function"
    },
    {
      "inputs": [
        {
          "internalType": "address",
          "name": "initiator",
          "type": "address"
        },
        {
          "internalType": "address",
          "name": "token",
          "type": "address"
        },
        {
          "internalType": "uint256",
          "name": "amount",
          "type": "uint256"
        },
        {
          "internalType": "uint256",
          "name": "fee",
          "type": "uint256"
        },
        {
          "internalType": "bytes",
          "name": "callData",
          "type": "bytes"
        }
      ],
      "name": "onFlashLoan",
      "outputs": [
        {
          "internalType": "bytes32",
          "name": "",
          "type": "bytes32"
        }
      ],
      "stateMutability": "nonpayable",
      "type": "function"
    },
    {
      "inputs": [],
      "name": "owner",
      "outputs": [
        {
          "internalType": "address",
          "name": "",
          "type": "address"
        }
      ],
      "stateMutability": "view",
      "type": "function"
    },
    {
      "inputs": [],
      "name": "renounceOwnership",
      "outputs": [],
      "stateMutability": "nonpayable",
      "type": "function"
    },
    {
      "inputs": [
        {
          "internalType": "contract IOracle",
          "name": "oracle",
          "type": "address"
        }
      ],
      "name": "setCollateralOracle",
      "outputs": [],
      "stateMutability": "nonpayable",
      "type": "function"
    },
    {
      "inputs": [
        {
          "internalType": "contract IOracle",
          "name": "oracle",
          "type": "address"
        }
      ],
      "name": "setDebtOracle",
      "outputs": [],
      "stateMutability": "nonpayable",
      "type": "function"
    },
    {
      "inputs": [
        {
          "internalType": "uint256",
          "name": "loanToValue",
          "type": "uint256"
        }
      ],
      "name": "setLoanToValue",
      "outputs": [],
      "stateMutability": "nonpayable",
      "type": "function"
    },
    {
      "inputs": [
        {
          "internalType": "uint256",
          "name": "maxLoanToValue",
          "type": "uint256"
        }
      ],
      "name": "setMaxLoanToValue",
      "outputs": [],
      "stateMutability": "nonpayable",
      "type": "function"
    },
    {
      "inputs": [
        {
          "internalType": "uint256",
          "name": "slippage",
          "type": "uint256"
        }
      ],
      "name": "setMaxSlippage",
      "outputs": [],
      "stateMutability": "nonpayable",
      "type": "function"
    },
    {
      "inputs": [
        {
          "internalType": "uint8",
          "name": "nrLoops",
          "type": "uint8"
        }
      ],
      "name": "setNrLoops",
      "outputs": [],
      "stateMutability": "nonpayable",
      "type": "function"
    },
    {
      "inputs": [
        {
          "internalType": "uint256",
          "name": "value",
          "type": "uint256"
        }
      ],
      "name": "setPriceMaxAge",
      "outputs": [],
      "stateMutability": "nonpayable",
      "type": "function"
    },
    {
      "inputs": [
        {
          "internalType": "uint256",
          "name": "value",
          "type": "uint256"
        }
      ],
      "name": "setPriceMaxConf",
      "outputs": [],
      "stateMutability": "nonpayable",
      "type": "function"
    },
    {
      "inputs": [],
      "name": "totalAssets",
      "outputs": [
        {
          "internalType": "uint256",
          "name": "totalOwnedAssetsInDebt",
          "type": "uint256"
        }
      ],
      "stateMutability": "view",
      "type": "function"
    },
    {
      "inputs": [
        {
          "internalType": "address",
          "name": "_newGovernor",
          "type": "address"
        }
      ],
      "name": "transferGovernorship",
      "outputs": [],
      "stateMutability": "nonpayable",
      "type": "function"
    },
    {
      "inputs": [
        {
          "internalType": "address",
          "name": "newOwner",
          "type": "address"
        }
      ],
      "name": "transferOwnership",
      "outputs": [],
      "stateMutability": "nonpayable",
      "type": "function"
    },
    {
      "inputs": [
        {
          "internalType": "uint256",
          "name": "amount",
          "type": "uint256"
        }
      ],
      "name": "undeploy",
      "outputs": [
        {
          "internalType": "uint256",
          "name": "undeployedAmount",
          "type": "uint256"
        }
      ],
      "stateMutability": "nonpayable",
      "type": "function"
    },
    {
      "stateMutability": "payable",
      "type": "receive"
    }
  ],
  "bytecode": "0x6080604052600060b8556000801b60bd55600060be553480156200002257600080fd5b506200002d6200003d565b620000376200003d565b620000fe565b600054610100900460ff1615620000aa5760405162461bcd60e51b815260206004820152602760248201527f496e697469616c697a61626c653a20636f6e747261637420697320696e697469604482015266616c697a696e6760c81b606482015260840160405180910390fd5b60005460ff90811614620000fc576000805460ff191660ff9081179091556040519081527f7f26b83ff96e1f2b6a682f133852f6798a09c465da95921460cefb38474024989060200160405180910390a15b565b615c6e806200010e6000396000f3fe6080604052600436106102075760003560e01c80634641257d11610118578063a5e38751116100a0578063b6aa515b1161006f578063b6aa515b146105fa578063d6297a061461061a578063e6c7f9701461063a578063f2fde38b1461065a578063faf4d4a41461067a57600080fd5b8063a5e3875114610587578063a6895a7d146105a7578063a82153b3146105c7578063adbfc312146105e557600080fd5b80638da5cb5b116100e75780638da5cb5b146104f657806392f9c669146105145780639e9667d514610534578063a252ab1014610549578063a33f60501461056957600080fd5b80634641257d1461046f57806348173ea914610484578063715018a6146104bf57806384fe3754146104d457600080fd5b80631964c9581161019b578063323ec3471161016a578063323ec347146103ea5780633484971f1461041a57806338d52e0f146102e557806343f68a491461042f578063440e6dff1461044f57600080fd5b80631964c95814610375578063235eb16a1461039557806323e30c8b146103aa578063242758f3146103ca57600080fd5b80630ac6f120116101d75780630ac6f120146102e55780630c340a2414610317578063157907d01461033557806315a97e971461035557600080fd5b8062113e081461025e57806301e1d1141461028d57806306f2fb11146102b05780630722f9c2146102c557600080fd5b366102595760ba546001600160a01b03163314801590610232575060b9546001600160a01b03163314155b15610257576040516312a017cd60e11b81523360048201526024015b60405180910390fd5b005b600080fd5b34801561026a57600080fd5b50610273610698565b604080519283526020830191909152015b60405180910390f35b34801561029957600080fd5b506102a261086e565b604051908152602001610284565b3480156102bc57600080fd5b506067546102a2565b3480156102d157600080fd5b506102576102e0366004614f41565b6108c4565b3480156102f157600080fd5b5060ba546001600160a01b03165b6040516001600160a01b039091168152602001610284565b34801561032357600080fd5b506065546001600160a01b03166102ff565b34801561034157600080fd5b50610257610350366004614fe8565b610b22565b34801561036157600080fd5b50610257610370366004615005565b610b6f565b34801561038157600080fd5b5061025761039036600461503e565b610d4c565b3480156103a157600080fd5b506102a2610df3565b3480156103b657600080fd5b506102a26103c5366004615057565b610e22565b3480156103d657600080fd5b506102576103e536600461503e565b610ff6565b3480156103f657600080fd5b5061040a610405366004615005565b611078565b6040519015158152602001610284565b34801561042657600080fd5b506066546102a2565b34801561043b57600080fd5b5061025761044a36600461503e565b6110b7565b34801561045b57600080fd5b506102a261046a36600461503e565b61113a565b34801561047b57600080fd5b506102a2611167565b34801561049057600080fd5b506104a461049f366004615125565b611364565b60408051938452602084019290925290820152606001610284565b3480156104cb57600080fd5b506102576113ab565b3480156104e057600080fd5b5060685460405160ff9091168152602001610284565b34801561050257600080fd5b506033546001600160a01b03166102ff565b34801561052057600080fd5b5061025761052f36600461503e565b6113c4565b34801561054057600080fd5b506102a261148b565b34801561055557600080fd5b50610257610564366004614fe8565b6114b5565b34801561057557600080fd5b5060bc546001600160a01b03166102ff565b34801561059357600080fd5b506102a26105a236600461503e565b611502565b3480156105b357600080fd5b506102576105c236600461503e565b611815565b3480156105d357600080fd5b5060bb546001600160a01b03166102ff565b3480156105f157600080fd5b506069546102a2565b34801561060657600080fd5b50610257610615366004614fe8565b6118dc565b34801561062657600080fd5b50610257610635366004615166565b61193a565b34801561064657600080fd5b50610257610655366004615183565b6119c8565b34801561066657600080fd5b50610257610675366004614fe8565b611cd1565b34801561068657600080fd5b5060b9546001600160a01b03166102ff565b6040805160a0808201835260d8546001600160a01b03908116835260d9548116602084015260da5481169383019390935260db548316606083015260dc546080830152902060dd5460009283929183916106f491168330611d47565b6040805160a08101825260d8546001600160a01b03908116825260d9548116602083015260da5481169282019290925260db548216606082015260dc54608082015260dd5492935060009261074b92169030611dfb565b9050600060d860000160009054906101000a90046001600160a01b03166001600160a01b031663313ce5676040518163ffffffff1660e01b8152600401602060405180830381865afa1580156107a5573d6000803e3d6000fd5b505050506040513d601f19601f820116820180604052508101906107c991906151d8565b9050600060d860010160009054906101000a90046001600160a01b03166001600160a01b031663313ce5676040518163ffffffff1660e01b8152600401602060405180830381865afa158015610823573d6000803e3d6000fd5b505050506040513d601f19601f8201168201806040525081019061084791906151d8565b905061085583836012611e50565b955061086384826012611e50565b965050505050509091565b6040805180820190915260008082526020820181905290818061088f610698565b9150915060006108a184846000611f4d565b90508181116108b15760006108bb565b6108bb828261520b565b94505050505090565b6065546001600160a01b031633146108ef5760405163e6e025c760e01b815260040160405180910390fd5b60006108fb8484612054565b905060008082815260b5602052604090205460ff1660038111156109215761092161521e565b1461093f57604051632291fe5360e21b815260040160405180910390fd5b836001600160a01b031663095ea7b383602001516001600019610962919061520b565b6040518363ffffffff1660e01b815260040161097f929190615234565b6020604051808303816000875af115801561099e573d6000803e3d6000fd5b505050506040513d601f19601f820116820180604052508101906109c2919061524d565b6109df576040516302e8763f60e31b815260040160405180910390fd5b826001600160a01b031663095ea7b383602001516001600019610a02919061520b565b6040518363ffffffff1660e01b8152600401610a1f929190615234565b6020604051808303816000875af1158015610a3e573d6000803e3d6000fd5b505050506040513d601f19601f82011682018060405250810190610a62919061524d565b610a7f576040516302e8763f60e31b815260040160405180910390fd5b600081815260b5602052604090208251815484929190829060ff19166001836003811115610aaf57610aaf61521e565b021790555060208201518154604084015160609094015162ffffff908116600160c01b0262ffffff60c01b1991909516600160a81b0262ffffff60a81b196001600160a01b039094166101000293909316610100600160c01b031990921691909117919091171691909117905550505050565b6065546001600160a01b03163314610b4d5760405163e6e025c760e01b815260040160405180910390fd5b60bb80546001600160a01b0319166001600160a01b0392909216919091179055565b6065546001600160a01b03163314610b9a5760405163e6e025c760e01b815260040160405180910390fd5b6000610ba68383612054565b905060008082815260b5602052604090205460ff166003811115610bcc57610bcc61521e565b03610bea5760405163139f8d8760e11b815260040160405180910390fd5b600081815260b5602052604080822054905163095ea7b360e01b81526001600160a01b038087169363095ea7b393610c2e9361010090910490921691600401615234565b6020604051808303816000875af1158015610c4d573d6000803e3d6000fd5b505050506040513d601f19601f82011682018060405250810190610c71919061524d565b610c8e576040516302e8763f60e31b815260040160405180910390fd5b600081815260b5602052604080822054905163095ea7b360e01b81526001600160a01b038086169363095ea7b393610cd29361010090910490921691600401615234565b6020604051808303816000875af1158015610cf1573d6000803e3d6000fd5b505050506040513d601f19601f82011682018060405250810190610d15919061524d565b610d32576040516302e8763f60e31b815260040160405180910390fd5b600090815260b560205260409020805460ff191690555050565b6065546001600160a01b03163314610d775760405163e6e025c760e01b815260040160405180910390fd5b633b9aca00811115610d9c57604051631f3b85d360e01b815260040160405180910390fd5b610dc57fdcdd852e594407d62243674acd7258abfb4689d6abdc168bb42d4f40c75ac9d0829055565b60405181907f733b5fc312dfed2bc8ae5dbf05d5cb659ab55046ddcbec1918f52f613bbb5c3690600090a250565b6000610e1d7fdcdd852e594407d62243674acd7258abfb4689d6abdc168bb42d4f40c75ac9d05490565b905090565b6000610e3660b6546001600160a01b031690565b6001600160a01b0316336001600160a01b031614610e675760405163538a412f60e01b815260040160405180910390fd5b6001600160a01b0386163014610e905760405163fe12082f60e01b815260040160405180910390fd5b60ba546001600160a01b03868116911614610ebe57604051633c4edfcd60e21b815260040160405180910390fd5b600086868685604051602001610ed79493929190615293565b6040516020818303038152906040528051906020012090508060bd5414610f115760405163555fbdcb60e01b815260040160405180910390fd5b600083806020019051810190610f2791906152e0565b9050600081604001516002811115610f4157610f4161521e565b03610f58578051610f539087876120df565b610fc9565b600181604001516002811115610f7057610f7061521e565b03610f8957610f5381600001518787846020015161218d565b600281604001516002811115610fa157610fa161521e565b03610fb057610f538686612225565b60405163320b9ded60e21b815260040160405180910390fd5b507f439148f0bbc682ca079e46d6e2c2f0c1e3b820f1a291b069d8882abf8cf18dd9979650505050505050565b6065546001600160a01b031633146110215760405163e6e025c760e01b815260040160405180910390fd5b61104a7f7e9328092c46e3d103a0cb8e24aa657ae6f6b6cc910545a9729426966d864558829055565b60405181907f4642fb7c2c063aa089f687d3360c930483c062a89b6d371ff669d45bc7ffdf3590600090a250565b6000806110858484612054565b905060008082815260b5602052604090205460ff1660038111156110ab576110ab61521e565b14159150505b92915050565b6065546001600160a01b031633146110e25760405163e6e025c760e01b815260040160405180910390fd5b633b9aca0081111561110757604051631f3b85d360e01b815260040160405180910390fd5b606981905560405181907f2464163639a2c8e8ce439351474cccf4e5d5f6226b11d8984dfdf615420672db90600090a250565b600061114461235a565b61114c6123b6565b611156823361240f565b90506111626001608355565b919050565b600061117161235a565b6111796123b6565b600080611184610698565b9150915060006111b760405180604001604052806111a061148b565b81526020016111ad610df3565b9052846000611f4d565b90508015806111c4575081155b156111d55760009350505050611357565b8181116111f557604051630e6f7d0f60e31b815260040160405180910390fd5b60b8546000808361120a633b9aca008761532f565b6112149190615346565b905061121f60675490565b811180156112305750633b9aca0081105b156112425761123f84866127a0565b91505b600061124e868661520b565b905084831061127057604051636e83070960e01b815260040160405180910390fd5b838103611287576000975050505050505050611357565b8260000361131f57838111156112d85760006112a3858361520b565b60405190915081907fb24093f9ac16681be69ee94e18b6581e28387a1e4d6e25cfea38138ad5be616790600090a2975061131f565b60006112e4828661520b565b60405190915081907fede8d8525758cb6685bfabd1b6304e23cd86c77d10cc920af49e2b4637dc233e90600090a261131b81615368565b9850505b60b881905560405181907f2dd98c29534f0234343e33770888eec9561b1580bba498c1cda8c1b8e3dbe1e090600090a2505050505050505b6113616001608355565b90565b600080600061137284612a0e565b90935091506000839003611388575060006113a4565b82611397633b9aca008461532f565b6113a19190615346565b90505b9193909250565b6040516349e27cff60e01b815260040160405180910390fd5b6065546001600160a01b031633146113ef5760405163e6e025c760e01b815260040160405180910390fd5b60675481111561141257604051632a9ffab760e21b815260040160405180910390fd5b633b9aca0081111561143757604051631f3b85d360e01b815260040160405180910390fd5b8060000361145857604051632a9ffab760e21b815260040160405180910390fd5b606681905560405181907f5129e5a639a8aab0c7417fa5ea8f5555436f12301866aeae67b789e31ff6ee8390600090a250565b6000610e1d7f7e9328092c46e3d103a0cb8e24aa657ae6f6b6cc910545a9729426966d8645585490565b6065546001600160a01b031633146114e05760405163e6e025c760e01b815260040160405180910390fd5b60bc80546001600160a01b0319166001600160a01b0392909216919091179055565b600061150c61235a565b6115146123b6565b816000036115355760405163063ccfb360e31b815260040160405180910390fd5b60ba5461154d906001600160a01b0316333085612c48565b60006115678361155c60665490565b60685460ff16612cb3565b90506000611575848361520b565b9050600061158b60b6546001600160a01b031690565b60ba54604051633676633960e21b81526001600160a01b039283169263d9d98ce4926115be929116908690600401615234565b602060405180830381865afa1580156115db573d6000803e3d6000fd5b505050506040513d601f19601f820116820180604052508101906115ff9190615384565b60ba549091506001600160a01b031663095ea7b361162560b6546001600160a01b031690565b61162f848661539d565b6040518363ffffffff1660e01b815260040161164c929190615234565b6020604051808303816000875af115801561166b573d6000803e3d6000fd5b505050506040513d601f19601f8201168201806040525081019061168f919061524d565b6116ac576040516302e8763f60e31b815260040160405180910390fd5b6000853360006040516020016116c4939291906153b0565b60408051601f198184030181529082905260ba549092506116f79130916001600160a01b03169086908590602001615293565b60408051601f1981840301815290829052805160209091012060bd5560b65460ba54632e7ff4ef60e11b83526001600160a01b0391821692635cffe9de9261174a9230929116908890879060040161541e565b6020604051808303816000875af1158015611769573d6000803e3d6000fd5b505050506040513d601f19601f8201168201806040525081019061178d919061524d565b6117b057600060bd556040805163b2fd98a360e01b815290519081900360040190fd5b6000801b60bd8190555060be5494508460b860008282546117d1919061539d565b909155505060b8546040517f2dd98c29534f0234343e33770888eec9561b1580bba498c1cda8c1b8e3dbe1e090600090a25050600060be5550506001608355919050565b6065546001600160a01b031633146118405760405163e6e025c760e01b815260040160405180910390fd5b8060000361186157604051632a9ffab760e21b815260040160405180910390fd5b633b9aca0081111561188657604051631f3b85d360e01b815260040160405180910390fd5b6066548110156118a957604051631dbaae5160e11b815260040160405180910390fd5b606781905560405181907f0e54922494ee00fae308aea0ebd64d27da978320217b536d889823332271ed3090600090a250565b6065546001600160a01b031633146119075760405163e6e025c760e01b815260040160405180910390fd5b6001600160a01b03811661192e5760405163fa68714160e01b815260040160405180910390fd5b61193781612d58565b50565b6065546001600160a01b031633146119655760405163e6e025c760e01b815260040160405180910390fd5b601460ff8216111561198a57604051632ffe3c2f60e01b815260040160405180910390fd5b6068805460ff191660ff83169081179091556040517fce0a7d191c872adf950a44afa7939230f4ed67bd8122e6138ebd5a8a1efe3dbb90600090a250565b600054610100900460ff16158080156119e85750600054600160ff909116105b80611a025750303b158015611a02575060005460ff166001145b611a1e5760405162461bcd60e51b815260040161024e90615451565b6000805460ff191660011790558015611a41576000805461ff0019166101001790555b611a988484611a536020860186614fe8565b611a636040870160208801614fe8565b611a736060880160408901614fe8565b611a836080890160608a01614fe8565b611a9360a08a0160808b01614fe8565b612db4565b611aa860c0830160a08401614fe8565b60dd80546001600160a01b0319166001600160a01b03929092169182179055611ae457604051636b37287f60e01b815260040160405180910390fd5b611af46040830160208401614fe8565b60d880546001600160a01b0319166001600160a01b0392909216919091179055611b216020830183614fe8565b60d980546001600160a01b0319166001600160a01b0392909216919091179055611b5361012083016101008401614fe8565b60da80546001600160a01b0319166001600160a01b0392909216919091179055611b8561014083016101208401614fe8565b60db80546001600160a01b0319166001600160a01b0392831690811790915561014084013560dc8190556040805160a0808201835260d8548616825260d9548616602083015260da5490951691810191909152606081019290925260808201522060009060dd54604051632c3c915760e01b8152600481018390529192506000916001600160a01b0390911690632c3c91579060240160a060405180830381865afa158015611c38573d6000803e3d6000fd5b505050506040513d601f19601f82011682018060405250810190611c5c919061549f565b90508060800151600003611c8357604051636d8be57960e11b815260040160405180910390fd5b50508015611ccb576000805461ff0019169055604051600181527f7f26b83ff96e1f2b6a682f133852f6798a09c465da95921460cefb38474024989060200160405180910390a15b50505050565b611cd961235a565b6001600160a01b038116611d3e5760405162461bcd60e51b815260206004820152602660248201527f4f776e61626c653a206e6577206f776e657220697320746865207a65726f206160448201526564647265737360d01b606482015260840161024e565b61193781612efe565b600080611d5c611d578585612f50565b612fbc565b90506080856001600160a01b0316637784c685836040518263ffffffff1660e01b8152600401611d8c9190615530565b600060405180830381865afa158015611da9573d6000803e3d6000fd5b505050506040513d6000823e601f3d908101601f19168201604052611dd19190810190615598565b600081518110611de357611de3615623565b6020026020010151901c60001c9150505b9392505050565b600080611e098460a0902090565b90506000611e216001600160a01b0387168386613007565b9050600080611e3088886130bb565b9094509250611e44915084905083836133bf565b98975050505050505050565b60008160ff168360ff161115611eb3576040611e6c8385615639565b60ff1610611e8d57604051637883ad3d60e11b815260040160405180910390fd5b611e978284615639565b611ea290600a61572e565b611eac9085615346565b9050611df4565b8260ff168260ff161115611f45576040611ecd8484615639565b60ff1610611eee57604051637883ad3d60e11b815260040160405180910390fd5b6000611efa8484615639565b611f0590600a61572e565b9050611f1381600019615346565b851115611f3357604051637883ad3d60e11b815260040160405180910390fd5b611f3d818661532f565b915050611df4565b509192915050565b60bb546040516304341d9960e01b8152845160048201526020850151602482015260009161204c916001600160a01b03909116906304341d99906044016040805180830381865afa158015611fa6573d6000803e3d6000fd5b505050506040513d601f19601f82011682018060405250810190611fca919061573d565b5160bc546040516304341d9960e01b815287516004820152602088015160248201526001600160a01b03909116906304341d99906044015b6040805180830381865afa15801561201e573d6000803e3d6000fd5b505050506040513d601f19601f82011682018060405250810190612042919061573d565b51859190856133e4565b949350505050565b6000816001600160a01b0316836001600160a01b03161061209257604080518082019091526001600160a01b038084168252841660208201526120b1565b604080518082019091526001600160a01b038085168252831660208201525b6040516020016120c1919061576f565b60405160208183030381529060405280519060200120905092915050565b60006120f36120ee848661539d565b61340f565b905061210881612103848661539d565b6134df565b6000612137604051806040016040528061212061148b565b815260200161212d610df3565b9052836000611f4d565b9050600083612146868461520b565b612150919061520b565b60be819055604051909150819033907f642a0bcf70c335488df8376c9718c6ad9f2a5f2ce827bc883176aa0dd1062b0690600090a3505050505050565b6000612197610698565b50905060008582106121a957856121ab565b815b90506121b685613568565b6121c081306137e6565b60006121cb82613859565b905060006121d9868861539d565b82116121e65760006121fa565b6121f0868861539d565b6121fa908361520b565b905080156122195760ba54612219906001600160a01b03168683613904565b60be5550505050505050565b61222e82613568565b6000604051806040016040528061224361148b565b8152602001612250610df3565b90529050600061226282856001613928565b90506000633b9aca0061227460695490565b61228290633b9aca0061539d565b61228c908461532f565b6122969190615346565b90506122a281306137e6565b6040805160c08101825260b9546001600160a01b03908116825260ba541660208201526000916123019190810160018152602081018590526040016122e7888a61539d565b8152604080516020818101909252600081529101526139e1565b50905081811015612325576000612318828461520b565b905061232381613ba1565b505b604051869033907fd876b3a71b8d3ba9e91f332c8be4f54719ce01f2583ceed9c22bf76aaa3fc35390600090a3505050505050565b6033546001600160a01b031633146123b45760405162461bcd60e51b815260206004820181905260248201527f4f776e61626c653a2063616c6c6572206973206e6f7420746865206f776e6572604482015260640161024e565b565b6002608354036124085760405162461bcd60e51b815260206004820152601f60248201527f5265656e7472616e637947756172643a207265656e7472616e742063616c6c00604482015260640161024e565b6002608355565b600080604051806040016040528061242561148b565b8152602001612432610df3565b90529050600080612441610698565b91509150600061245384846000611f4d565b905081811161247557604051633756348560e01b815260040160405180910390fd5b6000612481838361520b565b61248f633b9aca008a61532f565b6124999190615346565b90506000806124a9838587613ca2565b9150915060006124bb88846001613928565b905060006124d160b6546001600160a01b031690565b60ba54604051633676633960e21b81526001600160a01b039283169263d9d98ce492612504929116908790600401615234565b602060405180830381865afa158015612521573d6000803e3d6000fd5b505050506040513d601f19601f820116820180604052508101906125459190615384565b60ba549091506001600160a01b031663095ea7b361256b60b6546001600160a01b031690565b612575848761539d565b6040518363ffffffff1660e01b8152600401612592929190615234565b6020604051808303816000875af11580156125b1573d6000803e3d6000fd5b505050506040513d601f19601f820116820180604052508101906125d5919061524d565b6125f2576040516302e8763f60e31b815260040160405180910390fd5b6000828c600160405160200161260a939291906153b0565b60408051601f198184030181529082905260ba5490925061263d9130916001600160a01b03169087908590602001615293565b60408051601f1981840301815290829052805160209091012060bd5560b65460ba54632e7ff4ef60e11b83526001600160a01b0391821692635cffe9de926126909230929116908990879060040161541e565b6020604051808303816000875af11580156126af573d6000803e3d6000fd5b505050506040513d601f19601f820116820180604052508101906126d3919061524d565b6126f657600060bd556040805163b2fd98a360e01b815290519081900360040190fd5b612700848661520b565b60405133907fd876b3a71b8d3ba9e91f332c8be4f54719ce01f2583ceed9c22bf76aaa3fc35390600090a3600060bd81905560be549b50612741858761520b565b90508060b85411612753576000612761565b8060b854612761919061520b565b60b88190556040517f2dd98c29534f0234343e33770888eec9561b1580bba498c1cda8c1b8e3dbe1e090600090a2505050505050505050505092915050565b6000806127b66127af60665490565b8585613d11565b905060006127cc60b6546001600160a01b031690565b60ba54604051633676633960e21b81526001600160a01b039283169263d9d98ce4926127ff929116908690600401615234565b602060405180830381865afa15801561281c573d6000803e3d6000fd5b505050506040513d601f19601f820116820180604052508101906128409190615384565b90506000826000600260405160200161285b939291906153b0565b60408051601f1981840301815291905260ba549091506001600160a01b031663095ea7b361289160b6546001600160a01b031690565b61289b858761539d565b6040518363ffffffff1660e01b81526004016128b8929190615234565b6020604051808303816000875af11580156128d7573d6000803e3d6000fd5b505050506040513d601f19601f820116820180604052508101906128fb919061524d565b612918576040516302e8763f60e31b815260040160405180910390fd5b60ba5460405161293c9130916001600160a01b039091169086908590602001615293565b60408051601f1981840301815290829052805160209091012060bd5560b65460ba54632e7ff4ef60e11b83526001600160a01b0391821692635cffe9de9261298f9230929116908890879060040161541e565b6020604051808303816000875af11580156129ae573d6000803e3d6000fd5b505050506040513d601f19601f820116820180604052508101906129d2919061524d565b6129f557600060bd556040805163b2fd98a360e01b815290519081900360040190fd5b600060bd55612a04828461539d565b9695505050505050565b6000808080612a1b610698565b9150915081600014612b315760bb546040516304341d9960e01b815286516004820152602087015160248201526000916001600160a01b0316906304341d99906044016040805180830381865afa158015612a7a573d6000803e3d6000fd5b505050506040513d601f19601f82011682018060405250810190612a9e919061573d565b905060bb60009054906101000a90046001600160a01b03166001600160a01b0316639670c0bc6040518163ffffffff1660e01b8152600401602060405180830381865afa158015612af3573d6000803e3d6000fd5b505050506040513d601f19601f82011682018060405250810190612b179190615384565b8151612b23908561532f565b612b2d9190615346565b9450505b8015612c415760bc546040516304341d9960e01b815286516004820152602087015160248201526000916001600160a01b0316906304341d99906044016040805180830381865afa158015612b8a573d6000803e3d6000fd5b505050506040513d601f19601f82011682018060405250810190612bae919061573d565b905060bc60009054906101000a90046001600160a01b03166001600160a01b0316639670c0bc6040518163ffffffff1660e01b8152600401602060405180830381865afa158015612c03573d6000803e3d6000fd5b505050506040513d601f19601f82011682018060405250810190612c279190615384565b8151612c33908461532f565b612c3d9190615346565b9350505b5050915091565b6040516001600160a01b0380851660248301528316604482015260648101829052611ccb9085906323b872dd60e01b906084015b60408051601f198184030181529190526020810180516001600160e01b03166001600160e01b031990931692909217909152613db4565b6000601460ff83161115612cda57604051637a035b7160e01b815260040160405180910390fd5b821580612cea5750633b9aca0083115b15612d08576040516343e47d7560e01b815260040160405180910390fd5b838060015b8460ff168160ff1611612d4d576000633b9aca00612d2b888561532f565b612d359190615346565b9050612d41818561539d565b93509150600101612d0d565b509095945050505050565b6065546040516001600160a01b038084169216907f4a2da5517922d469e27cc43b2e88ebd65d79400caf5bb7cc34419e64cf85bb1a90600090a3606580546001600160a01b0319166001600160a01b0392909216919091179055565b600054610100900460ff16612ddb5760405162461bcd60e51b815260040161024e906157a9565b6001600160a01b038716612e02576040516349e27cff60e01b815260040160405180910390fd5b612e0c8787613e89565b612e1581613f81565b60b980546001600160a01b038088166001600160a01b0319928316811790935560ba805488831690841617905560bb805487831690841617905560bc805491861691909216179055612e7a57604051633a001e0560e11b815260040160405180910390fd5b60ba546001600160a01b0316612ea357604051631bf8591b60e01b815260040160405180910390fd5b60bb546001600160a01b0316612ecc576040516366f32bfb60e01b815260040160405180910390fd5b60bc546001600160a01b0316612ef55760405163c191740760e01b815260040160405180910390fd5b50505050505050565b603380546001600160a01b038381166001600160a01b0319831681179093556040519116919082907f8be0079c531659141344cd1fd0a4f28419497f9722a3daafe3b4186f6b6457e090600090a35050565b6000600182846002604051602001612f72929190918252602082015260400190565b60405160208183030381529060405280519060200120604051602001612f99929190615234565b6040516020818303038152906040528051906020012060001c611df4919061539d565b60408051600180825281830190925260609160009190602080830190803683370190505090508281600081518110612ff657612ff6615623565b602090810291909101015292915050565b600080613017611d578585612f50565b604051637784c68560e01b81529091506001600160a01b03861690637784c68590613046908490600401615530565b600060405180830381865afa158015613063573d6000803e3d6000fd5b505050506040513d6000823e601f3d908101601f1916820160405261308b9190810190615598565b60008151811061309d5761309d615623565b602002602001015160001c6001600160801b03169150509392505050565b60008060008060006130ce8660a0902090565b604051632e3071cd60e11b8152600481018290529091506000906001600160a01b03891690635c60e39a9060240160c060405180830381865afa158015613119573d6000803e3d6000fd5b505050506040513d601f19601f8201168201806040525081019061313d919061580b565b9050600081608001516001600160801b03164261315a919061520b565b90508015801590613177575060408201516001600160801b031615155b801561318f575060608801516001600160a01b031615155b1561338b576060888101805160408051638c00bf6b60e01b81528c516001600160a01b0390811660048301526020808f015182166024840152838f0151821660448401529451811660648301526080808f0151608484015288516001600160801b0390811660a485015295890151861660c484015292880151851660e483015294870151841661010482015290860151831661012482015260a08601519092166101448301526000921690638c00bf6b9061016401602060405180830381865afa158015613261573d6000803e3d6000fd5b505050506040513d601f19601f820116820180604052508101906132859190615384565b905060006132aa6132968385613fe3565b60408601516001600160801b031690614044565b90506132b581614059565b846040018181516132c691906158aa565b6001600160801b03169052506132db81614059565b845185906132ea9083906158aa565b6001600160801b0390811690915260a0860151161590506133885760006133278560a001516001600160801b03168361404490919063ffffffff16565b9050600061335d8287600001516001600160801b0316613347919061520b565b60208801518491906001600160801b03166140b6565b905061336881614059565b8660200181815161337991906158aa565b6001600160801b031690525050505b50505b508051602082015160408301516060909301516001600160801b039283169b9183169a509282169850911695509350505050565b600061204c6133cf60018561539d565b6133dc620f42408561539d565b8691906140db565b6000816133fb576133f6858585614107565b613406565b61340685858561415b565b95945050505050565b6000808061341c60695490565b1115613487576000613451604051806040016040528061343a61148b565b8152602001613447610df3565b9052856000613928565b9050633b9aca0061346160695490565b61346f90633b9aca0061520b565b613479908361532f565b6134839190615346565b9150505b6040805160c08101825260ba546001600160a01b03908116825260b95416602082015260009161340691908101835b8152602001868152602001848152602001604051806020016040528060008152508152506139e1565b6134e882613ba1565b60dd546040516350d8cd4b60e01b8152600091309182916001600160a01b0316906350d8cd4b906135269060d890889088908790819060040161590f565b60408051808303816000875af1158015613544573d6000803e3d6000fd5b505050506040513d601f19601f82011682018060405250810190612ef5919061594b565b60ba5460dd5460405163095ea7b360e01b81526001600160a01b039283169263095ea7b39261359e929116908590600401615234565b6020604051808303816000875af11580156135bd573d6000803e3d6000fd5b505050506040513d601f19601f820116820180604052508101906135e1919061524d565b6135fe576040516302e8763f60e31b815260040160405180910390fd5b6040805160a0808201835260d8546001600160a01b0390811680845260d9548216602080860182905260da54841686880181905260db548516606080890182905260dc546080808b01829052998990208b51998a018c529689529388019490945297860152908401959095529282019390935260dd549192309260009283928392839261368f9291909116906130bb565b60dd546040516349e2903160e11b8152600481018c9052306024820152929650909450600093506001600160a01b031691506393c5206290604401606060405180830381865afa1580156136e7573d6000803e3d6000fd5b505050506040513d601f19601f8201168201806040525081019061370b919061596f565b602001516001600160801b0316905060006137278285856133bf565b90508089106137385781955061373c565b8894505b60dd546040516320b76e8160e01b81526000916001600160a01b0316906320b76e81906137749060d8908a908c908e906004016159aa565b60408051808303816000875af1158015613792573d6000803e3d6000fd5b505050506040513d601f19601f820116820180604052508101906137b6919061594b565b509050898110156137da57604051636ce36b9f60e11b815260040160405180910390fd5b50505050505050505050565b60dd54604051638720316d60e01b8152309183916001600160a01b0390911690638720316d906138219060d8908890879087906004016159f2565b600060405180830381600087803b15801561383b57600080fd5b505af115801561384f573d6000803e3d6000fd5b5050505050505050565b6000808061386660695490565b11156138d157600061389b604051806040016040528061388461148b565b8152602001613891610df3565b9052856000611f4d565b9050633b9aca006138ab60695490565b6138b990633b9aca0061520b565b6138c3908361532f565b6138cd9190615346565b9150505b6040805160c08101825260b9546001600160a01b03908116825260ba5416602082015260009161340691908101836134b6565b6139238363a9059cbb60e01b8484604051602401612c7c929190615234565b505050565b60bc546040516304341d9960e01b8152845160048201526020850151602482015260009161204c916001600160a01b03909116906304341d99906044016040805180830381865afa158015613981573d6000803e3d6000fd5b505050506040513d601f19601f820116820180604052508101906139a5919061573d565b5160bb546040516304341d9960e01b815287516004820152602088015160248201526001600160a01b03909116906304341d9990604401612002565b60008060006139f884600001518560200151612054565b600081815260b5602052604080822081516080810190925280549394509192909190829060ff166003811115613a3057613a3061521e565b6003811115613a4157613a4161521e565b815290546001600160a01b03610100820416602083015262ffffff600160a81b820481166040840152600160c01b909104166060909101529050600081516003811115613a9057613a9061521e565b03613aae5760405163139f8d8760e11b815260040160405180910390fd5b600181516003811115613ac357613ac361521e565b03613b0c57604080820151815162ffffff90911660208201520160408051601f1981840301815291905260a08601526020810151613b0190866141c6565b935093505050915091565b600281516003811115613b2157613b2161521e565b03613b3457613b01816020015186614488565b600381516003811115613b4957613b4961521e565b03613b885760608101516040805162ffffff90921660208301520160408051601f1981840301815291905260a08601526020810151613b0190866149b4565b604051633b136dc160e11b815260040160405180910390fd5b60b95460dd5460405163095ea7b360e01b81526001600160a01b039283169263095ea7b392613bd7929116908590600401615234565b6020604051808303816000875af1158015613bf6573d6000803e3d6000fd5b505050506040513d601f19601f82011682018060405250810190613c1a919061524d565b613c37576040516302e8763f60e31b815260040160405180910390fd5b60dd5460405163238d657960e01b815230916001600160a01b03169063238d657990613c6c9060d89086908690600401615a26565b600060405180830381600087803b158015613c8657600080fd5b505af1158015613c9a573d6000803e3d6000fd5b505050505050565b600080841580613cb55750633b9aca0085115b15613cd35760405163a15aaf3960e01b815260040160405180910390fd5b633b9aca00613ce2868561532f565b613cec9190615346565b9050633b9aca00613cfd868661532f565b613d079190615346565b9150935093915050565b600080633b9aca00613d23858761532f565b613d2d9190615346565b9050828110613d4f57604051633c38d1b560e11b815260040160405180910390fd5b6000613d5b828561520b565b90506000613d6d87633b9aca0061520b565b905080600003613d9057604051635281626d60e01b815260040160405180910390fd5b80613d9f633b9aca008461532f565b613da99190615346565b979650505050505050565b6000613e09826040518060400160405280602081526020017f5361666545524332303a206c6f772d6c6576656c2063616c6c206661696c6564815250856001600160a01b0316614ba19092919063ffffffff16565b9050805160001480613e2a575080806020019051810190613e2a919061524d565b6139235760405162461bcd60e51b815260206004820152602a60248201527f5361666545524332303a204552433230206f7065726174696f6e20646964206e6044820152691bdd081cdd58d8d9595960b21b606482015260840161024e565b600054610100900460ff1615808015613ea95750600054600160ff909116105b80613ec35750303b158015613ec3575060005460ff166001145b613edf5760405162461bcd60e51b815260040161024e90615451565b6000805460ff191660011790558015613f02576000805461ff0019166101001790555b613f0c8383614bb0565b613f14614c7d565b632faf08006066556332a9f8806067556068805460ff1916600a17905560006069558015613923576000805461ff0019169055604051600181527f7f26b83ff96e1f2b6a682f133852f6798a09c465da95921460cefb3847402498906020015b60405180910390a1505050565b600054610100900460ff16613fa85760405162461bcd60e51b815260040161024e906157a9565b60b680546001600160a01b0319166001600160a01b03831690811790915561193757604051630b751e1960e11b815260040160405180910390fd5b600080613ff0838561532f565b90506000614011828061400c670de0b6b3a7640000600261532f565b614cef565b9050600061402d828461400c670de0b6b3a7640000600361532f565b90508061403a838561539d565b612a04919061539d565b6000611df48383670de0b6b3a7640000614cef565b6040805180820190915260148152731b585e081d5a5b9d0c4c8e08195e18d95959195960621b60208201526000906001600160801b038311156140af5760405162461bcd60e51b815260040161024e9190615a68565b5090919050565b600061204c6140c8620f42408461539d565b6140d360018661539d565b869190614cef565b6000816140e960018261520b565b6140f3858761532f565b6140fd919061539d565b61204c9190615346565b600080614114848661532f565b90508260000361413757604051639124a73d60e01b815260040160405180910390fd5b841580614142575083155b15614151576000915050611df4565b611f3d8382615346565b600080614168848661532f565b90508260000361418b57604051639124a73d60e01b815260040160405180910390fd5b841580614196575083155b156141a5576000915050611df4565b826141b160018361520b565b6141bb9190615346565b611f3d90600161539d565b805160009081906001600160a01b03166141f357604051632df9739b60e01b815260040160405180910390fd5b60208301516001600160a01b031661421d576040516231010160e51b815260040160405180910390fd5b60008360a001518060200190518101906142379190615a7b565b90508062ffffff1660000361425f57604051631b99aa4560e11b815260040160405180910390fd5b6000846040015160018111156142775761427761521e565b036143825783606001519250846001600160a01b03166304e45aaf6040518060e0016040528087600001516001600160a01b0316815260200187602001516001600160a01b031681526020018462ffffff168152602001306001600160a01b031681526020018681526020018760800151815260200160006001600160a01b03168152506040518263ffffffff1660e01b81526004016143179190615a98565b6020604051808303816000875af1158015614336573d6000803e3d6000fd5b505050506040513d601f19601f8201168201806040525081019061435a9190615384565b91508160000361437d5760405163081ceff360e41b815260040160405180910390fd5b614480565b60018460400151600181111561439a5761439a61521e565b036144805783608001519150846001600160a01b0316635023b4df6040518060e0016040528087600001516001600160a01b0316815260200187602001516001600160a01b031681526020018462ffffff168152602001306001600160a01b031681526020018581526020018760600151815260200160006001600160a01b03168152506040518263ffffffff1660e01b815260040161443a9190615a98565b6020604051808303816000875af1158015614459573d6000803e3d6000fd5b505050506040513d601f19601f8201168201806040525081019061447d9190615384565b92505b509250929050565b805160009081906001600160a01b03166144b557604051632df9739b60e01b815260040160405180910390fd5b60208301516001600160a01b03166144df576040516231010160e51b815260040160405180910390fd5b60408051600280825260608201835260009260208301908036833701905050905083600001518160008151811061451857614518615623565b60200260200101906001600160a01b031690816001600160a01b03168152505083602001518160018151811061455057614550615623565b6001600160a01b03909216602092830291909101909101526000846040015160018111156145805761458061521e565b0361478e578351606085015160405163095ea7b360e01b81526001600160a01b039092169163095ea7b3916145ba91899190600401615234565b6020604051808303816000875af11580156145d9573d6000803e3d6000fd5b505050506040513d601f19601f820116820180604052508101906145fd919061524d565b61461a576040516302e8763f60e31b815260040160405180910390fd5b608084015160009015614632575060808401516146d8565b606085015160405163d06ca61f60e01b81526000916001600160a01b0389169163d06ca61f91614666918790600401615b3c565b600060405180830381865afa158015614683573d6000803e3d6000fd5b505050506040513d6000823e601f3d908101601f191682016040526146ab9190810190615598565b905080600182516146bc919061520b565b815181106146cc576146cc615623565b60200260200101519150505b846060015193506000866001600160a01b03166338ed173986848630426040518663ffffffff1660e01b8152600401614715959493929190615b55565b6000604051808303816000875af1158015614734573d6000803e3d6000fd5b505050506040513d6000823e601f3d908101601f1916820160405261475c9190810190615598565b9050806001825161476d919061520b565b8151811061477d5761477d615623565b602002602001015193505050614993565b6001846040015160018111156147a6576147a661521e565b0361499357836080015191506000846060015160000361485b576040516307c0329d60e21b81526000906001600160a01b03881690631f00ca74906147f19087908790600401615b3c565b600060405180830381865afa15801561480e573d6000803e3d6000fd5b505050506040513d6000823e601f3d908101601f191682016040526148369190810190615598565b90508060008151811061484b5761484b615623565b6020026020010151915050614862565b5060608401515b845160405163095ea7b360e01b81526001600160a01b039091169063095ea7b3906148939089908590600401615234565b6020604051808303816000875af11580156148b2573d6000803e3d6000fd5b505050506040513d601f19601f820116820180604052508101906148d6919061524d565b6148f3576040516302e8763f60e31b815260040160405180910390fd5b604051634401edf760e11b81526000906001600160a01b03881690638803dbee9061492a9087908690889030904290600401615b55565b6000604051808303816000875af1158015614949573d6000803e3d6000fd5b505050506040513d6000823e601f3d908101601f191682016040526149719190810190615598565b90508060008151811061498657614986615623565b6020026020010151945050505b816000036144805760405163081ceff360e41b815260040160405180910390fd5b805160009081906001600160a01b03166149e157604051632df9739b60e01b815260040160405180910390fd5b60208301516001600160a01b0316614a0b576040516231010160e51b815260040160405180910390fd5b60008360a00151806020019051810190614a259190615b91565b9050600084604001516001811115614a3f57614a3f61521e565b03614ae45783606001519250846001600160a01b031663a026383e60405180610100016040528087600001516001600160a01b0316815260200187602001516001600160a01b031681526020018460020b8152602001306001600160a01b031681526020014281526020018681526020018760800151815260200160006001600160a01b03168152506040518263ffffffff1660e01b81526004016143179190615bb4565b600184604001516001811115614afc57614afc61521e565b036144805783608001519150846001600160a01b031663c714e83860405180610100016040528087600001516001600160a01b0316815260200187602001516001600160a01b031681526020018460020b8152602001306001600160a01b031681526020014281526020018581526020018760600151815260200160006001600160a01b03168152506040518263ffffffff1660e01b815260040161443a9190615bb4565b606061204c8484600085614cfc565b600054610100900460ff1615808015614bd05750600054600160ff909116105b80614bea5750303b158015614bea575060005460ff166001145b614c065760405162461bcd60e51b815260040161024e90615451565b6000805460ff191660011790558015614c29576000805461ff0019166101001790555b614c3283612efe565b614c3b82612d58565b8015613923576000805461ff0019169055604051600181527f7f26b83ff96e1f2b6a682f133852f6798a09c465da95921460cefb384740249890602001613f74565b600054610100900460ff16614ca45760405162461bcd60e51b815260040161024e906157a9565b610e107f7e9328092c46e3d103a0cb8e24aa657ae6f6b6cc910545a9729426966d8645585560007fdcdd852e594407d62243674acd7258abfb4689d6abdc168bb42d4f40c75ac9d055565b6000816140fd848661532f565b606082471015614d5d5760405162461bcd60e51b815260206004820152602660248201527f416464726573733a20696e73756666696369656e742062616c616e636520666f6044820152651c8818d85b1b60d21b606482015260840161024e565b600080866001600160a01b03168587604051614d799190615c1c565b60006040518083038185875af1925050503d8060008114614db6576040519150601f19603f3d011682016040523d82523d6000602084013e614dbb565b606091505b5091509150613da98783838760608315614e36578251600003614e2f576001600160a01b0385163b614e2f5760405162461bcd60e51b815260206004820152601d60248201527f416464726573733a2063616c6c20746f206e6f6e2d636f6e7472616374000000604482015260640161024e565b508161204c565b61204c8383815115614e4b5781518083602001fd5b8060405162461bcd60e51b815260040161024e9190615a68565b6001600160a01b038116811461193757600080fd5b634e487b7160e01b600052604160045260246000fd5b6040516080810167ffffffffffffffff81118282101715614eb357614eb3614e7a565b60405290565b6040805190810167ffffffffffffffff81118282101715614eb357614eb3614e7a565b6040516060810167ffffffffffffffff81118282101715614eb357614eb3614e7a565b604051601f8201601f1916810167ffffffffffffffff81118282101715614f2857614f28614e7a565b604052919050565b62ffffff8116811461193757600080fd5b600080600083850360c0811215614f5757600080fd5b8435614f6281614e65565b93506020850135614f7281614e65565b92506080603f1982011215614f8657600080fd5b50614f8f614e90565b604085013560048110614fa157600080fd5b81526060850135614fb181614e65565b60208201526080850135614fc481614f30565b604082015260a0850135614fd781614f30565b606082015292959194509192509050565b600060208284031215614ffa57600080fd5b8135611df481614e65565b6000806040838503121561501857600080fd5b823561502381614e65565b9150602083013561503381614e65565b809150509250929050565b60006020828403121561505057600080fd5b5035919050565b600080600080600060a0868803121561506f57600080fd5b853561507a81614e65565b945060208681013561508b81614e65565b94506040870135935060608701359250608087013567ffffffffffffffff808211156150b657600080fd5b818901915089601f8301126150ca57600080fd5b8135818111156150dc576150dc614e7a565b6150ee601f8201601f19168501614eff565b91508082528a8482850101111561510457600080fd5b80848401858401376000848284010152508093505050509295509295909350565b60006040828403121561513757600080fd5b61513f614eb9565b82358152602083013560208201528091505092915050565b60ff8116811461193757600080fd5b60006020828403121561517857600080fd5b8135611df481615157565b60008060008385036101a081121561519a57600080fd5b84356151a581614e65565b935060208501356151b581614e65565b9250610160603f19820112156151ca57600080fd5b506040840190509250925092565b6000602082840312156151ea57600080fd5b8151611df481615157565b634e487b7160e01b600052601160045260246000fd5b818103818111156110b1576110b16151f5565b634e487b7160e01b600052602160045260246000fd5b6001600160a01b03929092168252602082015260400190565b60006020828403121561525f57600080fd5b81518015158114611df457600080fd5b60005b8381101561528a578181015183820152602001615272565b50506000910152565b60006bffffffffffffffffffffffff19808760601b168352808660601b1660148401525083602883015282516152d081604885016020870161526f565b9190910160480195945050505050565b6000606082840312156152f257600080fd5b6152fa614edc565b82518152602083015161530c81614e65565b602082015260408301516003811061532357600080fd5b60408201529392505050565b80820281158282048414176110b1576110b16151f5565b60008261536357634e487b7160e01b600052601260045260246000fd5b500490565b6000600160ff1b820161537d5761537d6151f5565b5060000390565b60006020828403121561539657600080fd5b5051919050565b808201808211156110b1576110b16151f5565b8381526001600160a01b038316602082015260608101600383106153e457634e487b7160e01b600052602160045260246000fd5b826040830152949350505050565b6000815180845261540a81602086016020860161526f565b601f01601f19169290920160200192915050565b6001600160a01b0385811682528416602082015260408101839052608060608201819052600090612a04908301846153f2565b6020808252602e908201527f496e697469616c697a61626c653a20636f6e747261637420697320616c72656160408201526d191e481a5b9a5d1a585b1a5e995960921b606082015260800190565b600060a082840312156154b157600080fd5b60405160a0810181811067ffffffffffffffff821117156154d4576154d4614e7a565b60405282516154e281614e65565b815260208301516154f281614e65565b6020820152604083015161550581614e65565b6040820152606083015161551881614e65565b60608201526080928301519281019290925250919050565b6020808252825182820181905260009190848201906040850190845b818110156155685783518352928401929184019160010161554c565b50909695505050505050565b600067ffffffffffffffff82111561558e5761558e614e7a565b5060051b60200190565b600060208083850312156155ab57600080fd5b825167ffffffffffffffff8111156155c257600080fd5b8301601f810185136155d357600080fd5b80516155e66155e182615574565b614eff565b81815260059190911b8201830190838101908783111561560557600080fd5b928401925b82841015613da95783518252928401929084019061560a565b634e487b7160e01b600052603260045260246000fd5b60ff82811682821603908111156110b1576110b16151f5565b600181815b80851115614480578160001904821115615673576156736151f5565b8085161561568057918102915b93841c9390800290615657565b60008261569c575060016110b1565b816156a9575060006110b1565b81600181146156bf57600281146156c9576156e5565b60019150506110b1565b60ff8411156156da576156da6151f5565b50506001821b6110b1565b5060208310610133831016604e8410600b8410161715615708575081810a6110b1565b6157128383615652565b8060001904821115615726576157266151f5565b029392505050565b6000611df460ff84168361568d565b60006040828403121561574f57600080fd5b615757614eb9565b82518152602083015160208201528091505092915050565b60408101818360005b60028110156157a05781516001600160a01b0316835260209283019290910190600101615778565b50505092915050565b6020808252602b908201527f496e697469616c697a61626c653a20636f6e7472616374206973206e6f74206960408201526a6e697469616c697a696e6760a81b606082015260800190565b80516001600160801b038116811461116257600080fd5b600060c0828403121561581d57600080fd5b60405160c0810181811067ffffffffffffffff8211171561584057615840614e7a565b60405261584c836157f4565b815261585a602084016157f4565b602082015261586b604084016157f4565b604082015261587c606084016157f4565b606082015261588d608084016157f4565b608082015261589e60a084016157f4565b60a08201529392505050565b6001600160801b038181168382160190808211156158ca576158ca6151f5565b5092915050565b80546001600160a01b039081168352600182015481166020840152600282015481166040840152600382015416606083015260040154608090910152565b610120810161591e82886158d1565b60a082019590955260c08101939093526001600160a01b0391821660e08401521661010090910152919050565b6000806040838503121561595e57600080fd5b505080516020909101519092909150565b60006060828403121561598157600080fd5b615989614edc565b82518152615999602084016157f4565b6020820152615323604084016157f4565b60006101206159b983886158d1565b60a08301959095525060c08101929092526001600160a01b031660e0820152610100810182905260009181019190915261014001919050565b6101008101615a0182876158d1565b60a08201949094526001600160a01b0392831660c0820152911660e090910152919050565b6000610100615a3583876158d1565b60a0830194909452506001600160a01b039190911660c082015260e0810182905260009181019190915261012001919050565b602081526000611df460208301846153f2565b600060208284031215615a8d57600080fd5b8151611df481614f30565b60e081016110b1828480516001600160a01b03908116835260208083015182169084015260408083015162ffffff16908401526060808301518216908401526080808301519084015260a0828101519084015260c09182015116910152565b60008151808452602080850194506020840160005b83811015615b315781516001600160a01b031687529582019590820190600101615b0c565b509495945050505050565b82815260406020820152600061204c6040830184615af7565b85815284602082015260a060408201526000615b7460a0830186615af7565b6001600160a01b0394909416606083015250608001529392505050565b600060208284031215615ba357600080fd5b81518060020b8114611df457600080fd5b61010081016110b1828480516001600160a01b03908116835260208083015182169084015260408083015160020b908401526060808301518216908401526080808301519084015260a0828101519084015260c0808301519084015260e09182015116910152565b60008251615c2e81846020870161526f565b919091019291505056fea2646970667358221220f61572687c77df69ba69fa08fb310cc77e9a966d75a78cbe448e1185857dd4a664736f6c63430008180033",
  "linkReferences": {},
  "deployedLinkReferences": {}
}