{
  "_format": "hh-sol-artifact-1",
  "contractName": "StrategyPark",
  "sourceName": "contracts/core/strategies/StrategyPark.sol",
  "abi": [
    {
      "inputs": [
        {
          "internalType": "address",
          "name": "initialOwner",
          "type": "address"
        },
        {
          "internalType": "address",
          "name": "asset_",
          "type": "address"
        }
      ],
      "stateMutability": "nonpayable",
      "type": "constructor"
    },
    {
      "inputs": [],
      "name": "InsufficientBalance",
      "type": "error"
    },
    {
      "inputs": [],
      "name": "ZeroAddress",
      "type": "error"
    },
    {
      "inputs": [],
      "name": "ZeroAmount",
      "type": "error"
    },
    {
      "anonymous": false,
      "inputs": [
        {
          "indexed": true,
          "internalType": "address",
          "name": "previousOwner",
          "type": "address"
        },
        {
          "indexed": true,
          "internalType": "address",
          "name": "newOwner",
          "type": "address"
        }
      ],
      "name": "OwnershipTransferred",
      "type": "event"
    },
    {
      "anonymous": false,
      "inputs": [
        {
          "indexed": true,
          "internalType": "uint256",
          "name": "newDeployment",
          "type": "uint256"
        }
      ],
      "name": "StrategyAmountUpdate",
      "type": "event"
    },
    {
      "anonymous": false,
      "inputs": [
        {
          "indexed": true,
          "internalType": "address",
          "name": "from",
          "type": "address"
        },
        {
          "indexed": true,
          "internalType": "uint256",
          "name": "amount",
          "type": "uint256"
        }
      ],
      "name": "StrategyDeploy",
      "type": "event"
    },
    {
      "anonymous": false,
      "inputs": [
        {
          "indexed": true,
          "internalType": "uint256",
          "name": "amount",
          "type": "uint256"
        }
      ],
      "name": "StrategyLoss",
      "type": "event"
    },
    {
      "anonymous": false,
      "inputs": [
        {
          "indexed": true,
          "internalType": "uint256",
          "name": "amount",
          "type": "uint256"
        }
      ],
      "name": "StrategyProfit",
      "type": "event"
    },
    {
      "anonymous": false,
      "inputs": [
        {
          "indexed": true,
          "internalType": "address",
          "name": "from",
          "type": "address"
        },
        {
          "indexed": true,
          "internalType": "uint256",
          "name": "amount",
          "type": "uint256"
        }
      ],
      "name": "StrategyUndeploy",
      "type": "event"
    },
    {
      "inputs": [],
      "name": "asset",
      "outputs": [
        {
          "internalType": "address",
          "name": "",
          "type": "address"
        }
      ],
      "stateMutability": "view",
      "type": "function"
    },
    {
      "inputs": [
        {
          "internalType": "uint256",
          "name": "amount",
          "type": "uint256"
        }
      ],
      "name": "deploy",
      "outputs": [
        {
          "internalType": "uint256",
          "name": "deployedAmount",
          "type": "uint256"
        }
      ],
      "stateMutability": "nonpayable",
      "type": "function"
    },
    {
      "inputs": [],
      "name": "harvest",
      "outputs": [
        {
          "internalType": "int256",
          "name": "balanceChange",
          "type": "int256"
        }
      ],
      "stateMutability": "nonpayable",
      "type": "function"
    },
    {
      "inputs": [],
      "name": "owner",
      "outputs": [
        {
          "internalType": "address",
          "name": "",
          "type": "address"
        }
      ],
      "stateMutability": "view",
      "type": "function"
    },
    {
      "inputs": [],
      "name": "renounceOwnership",
      "outputs": [],
      "stateMutability": "nonpayable",
      "type": "function"
    },
    {
      "inputs": [],
      "name": "totalAssets",
      "outputs": [
        {
          "internalType": "uint256",
          "name": "assets",
          "type": "uint256"
        }
      ],
      "stateMutability": "view",
      "type": "function"
    },
    {
      "inputs": [
        {
          "internalType": "address",
          "name": "newOwner",
          "type": "address"
        }
      ],
      "name": "transferOwnership",
      "outputs": [],
      "stateMutability": "nonpayable",
      "type": "function"
    },
    {
      "inputs": [
        {
          "internalType": "uint256",
          "name": "amount",
          "type": "uint256"
        }
      ],
      "name": "undeploy",
      "outputs": [
        {
          "internalType": "uint256",
          "name": "undeployedAmount",
          "type": "uint256"
        }
      ],
      "stateMutability": "nonpayable",
      "type": "function"
    }
  ],
  "bytecode": "0x60a060405234801561001057600080fd5b50604051610cb5380380610cb583398101604081905261002f916100ef565b600160005561003d33610081565b6001600160a01b0381166100645760405163d92e233d60e01b815260040160405180910390fd5b6001600160a01b03811660805261007a82610081565b5050610122565b600180546001600160a01b038381166001600160a01b0319831681179093556040519116919082907f8be0079c531659141344cd1fd0a4f28419497f9722a3daafe3b4186f6b6457e090600090a35050565b80516001600160a01b03811681146100ea57600080fd5b919050565b6000806040838503121561010257600080fd5b61010b836100d3565b9150610119602084016100d3565b90509250929050565b608051610b5d6101586000396000818160aa0152818161015601528181610231015281816102fb01526104790152610b5d6000f3fe608060405234801561001057600080fd5b50600436106100885760003560e01c8063715018a61161005b578063715018a6146100fd5780638da5cb5b14610107578063a5e3875114610118578063f2fde38b1461012b57600080fd5b806301e1d1141461008d57806338d52e0f146100a8578063440e6dff146100e25780634641257d146100f5575b600080fd5b61009561013e565b6040519081526020015b60405180910390f35b7f00000000000000000000000000000000000000000000000000000000000000005b6040516001600160a01b03909116815260200161009f565b6100956100f03660046109ab565b6101ce565b6100956102d9565b610105610425565b005b6001546001600160a01b03166100ca565b6100956101263660046109ab565b610439565b6101056101393660046109c4565b61051d565b6040516370a0823160e01b81523060048201526000907f00000000000000000000000000000000000000000000000000000000000000006001600160a01b0316906370a0823190602401602060405180830381865afa1580156101a5573d6000803e3d6000fd5b505050506040513d601f19601f820116820180604052508101906101c991906109f4565b905090565b60006101d861059b565b6101e06105f4565b8160000361020157604051631f2a200560e01b815260040160405180910390fd5b60025482111561022457604051631e9acf1760e31b815260040160405180910390fd5b6102586001600160a01b037f000000000000000000000000000000000000000000000000000000000000000016338461064e565b816002600082825461026a9190610a23565b9091555050604051829033907fd876b3a71b8d3ba9e91f332c8be4f54719ce01f2583ceed9c22bf76aaa3fc35390600090a36002546040517f2dd98c29534f0234343e33770888eec9561b1580bba498c1cda8c1b8e3dbe1e090600090a250806102d46001600055565b919050565b6040516370a0823160e01b815230600482015260009081906001600160a01b037f000000000000000000000000000000000000000000000000000000000000000016906370a0823190602401602060405180830381865afa158015610342573d6000803e3d6000fd5b505050506040513d601f19601f8201168201806040525081019061036691906109f4565b9050600254816103769190610a3c565b915060008213156103b15760405182907fb24093f9ac16681be69ee94e18b6581e28387a1e4d6e25cfea38138ad5be616790600090a26103ed565b60008212156103ed576103c382610a63565b6040517fede8d8525758cb6685bfabd1b6304e23cd86c77d10cc920af49e2b4637dc233e90600090a25b811561041f5760405181907f2dd98c29534f0234343e33770888eec9561b1580bba498c1cda8c1b8e3dbe1e090600090a25b60025590565b61042d6105f4565b61043760006106b6565b565b600061044361059b565b61044b6105f4565b8160000361046c57604051631f2a200560e01b815260040160405180910390fd5b6104a16001600160a01b037f000000000000000000000000000000000000000000000000000000000000000016333085610708565b81600260008282546104b39190610a7f565b9091555050604051829033907f642a0bcf70c335488df8376c9718c6ad9f2a5f2ce827bc883176aa0dd1062b0690600090a36002546040517f2dd98c29534f0234343e33770888eec9561b1580bba498c1cda8c1b8e3dbe1e090600090a250806102d46001600055565b6105256105f4565b6001600160a01b03811661058f5760405162461bcd60e51b815260206004820152602660248201527f4f776e61626c653a206e6577206f776e657220697320746865207a65726f206160448201526564647265737360d01b60648201526084015b60405180910390fd5b610598816106b6565b50565b6002600054036105ed5760405162461bcd60e51b815260206004820152601f60248201527f5265656e7472616e637947756172643a207265656e7472616e742063616c6c006044820152606401610586565b6002600055565b6001546001600160a01b031633146104375760405162461bcd60e51b815260206004820181905260248201527f4f776e61626c653a2063616c6c6572206973206e6f7420746865206f776e65726044820152606401610586565b6040516001600160a01b0383166024820152604481018290526106b190849063a9059cbb60e01b906064015b60408051601f198184030181529190526020810180516001600160e01b03166001600160e01b031990931692909217909152610746565b505050565b600180546001600160a01b038381166001600160a01b0319831681179093556040519116919082907f8be0079c531659141344cd1fd0a4f28419497f9722a3daafe3b4186f6b6457e090600090a35050565b6040516001600160a01b03808516602483015283166044820152606481018290526107409085906323b872dd60e01b9060840161067a565b50505050565b600061079b826040518060400160405280602081526020017f5361666545524332303a206c6f772d6c6576656c2063616c6c206661696c6564815250856001600160a01b031661081b9092919063ffffffff16565b90508051600014806107bc5750808060200190518101906107bc9190610a92565b6106b15760405162461bcd60e51b815260206004820152602a60248201527f5361666545524332303a204552433230206f7065726174696f6e20646964206e6044820152691bdd081cdd58d8d9595960b21b6064820152608401610586565b606061082a8484600085610832565b949350505050565b6060824710156108935760405162461bcd60e51b815260206004820152602660248201527f416464726573733a20696e73756666696369656e742062616c616e636520666f6044820152651c8818d85b1b60d21b6064820152608401610586565b600080866001600160a01b031685876040516108af9190610ad8565b60006040518083038185875af1925050503d80600081146108ec576040519150601f19603f3d011682016040523d82523d6000602084013e6108f1565b606091505b50915091506109028783838761090d565b979650505050505050565b6060831561097c578251600003610975576001600160a01b0385163b6109755760405162461bcd60e51b815260206004820152601d60248201527f416464726573733a2063616c6c20746f206e6f6e2d636f6e74726163740000006044820152606401610586565b508161082a565b61082a83838151156109915781518083602001fd5b8060405162461bcd60e51b81526004016105869190610af4565b6000602082840312156109bd57600080fd5b5035919050565b6000602082840312156109d657600080fd5b81356001600160a01b03811681146109ed57600080fd5b9392505050565b600060208284031215610a0657600080fd5b5051919050565b634e487b7160e01b600052601160045260246000fd5b81810381811115610a3657610a36610a0d565b92915050565b8181036000831280158383131683831282161715610a5c57610a5c610a0d565b5092915050565b6000600160ff1b8201610a7857610a78610a0d565b5060000390565b80820180821115610a3657610a36610a0d565b600060208284031215610aa457600080fd5b815180151581146109ed57600080fd5b60005b83811015610acf578181015183820152602001610ab7565b50506000910152565b60008251610aea818460208701610ab4565b9190910192915050565b6020815260008251806020840152610b13816040850160208701610ab4565b601f01601f1916919091016040019291505056fea26469706673582212207d95d255cfaa3aba4227a05dc42f8049232b89aa68656b7da8473999b5da48e964736f6c63430008180033",
  "linkReferences": {},
  "deployedLinkReferences": {}
}