{
  "_format": "hh-sol-artifact-1",
  "contractName": "StrategyUniV2SwapAnd",
  "sourceName": "contracts/core/strategies/StrategyUniV2SwapAnd.sol",
  "abi": [
    {
      "inputs": [
        {
          "internalType": "address",
          "name": "initialOwner",
          "type": "address"
        },
        {
          "internalType": "contract IERC20",
          "name": "iAsset",
          "type": "address"
        },
        {
          "internalType": "contract IStrategy",
          "name": "iUnderlyingStrategy",
          "type": "address"
        },
        {
          "internalType": "contract IOracle",
          "name": "iOracle",
          "type": "address"
        },
        {
          "internalType": "contract IUniswapV2Router02",
          "name": "router",
          "type": "address"
        }
      ],
      "stateMutability": "nonpayable",
      "type": "constructor"
    },
    {
      "inputs": [],
      "name": "FailedToApproveAllowance",
      "type": "error"
    },
    {
      "inputs": [],
      "name": "FailedToApproveAllowance",
      "type": "error"
    },
    {
      "inputs": [],
      "name": "FailedToApproveAllowanceFor",
      "type": "error"
    },
    {
      "inputs": [],
      "name": "InvalidAmount",
      "type": "error"
    },
    {
      "inputs": [],
      "name": "InvalidConfiguration",
      "type": "error"
    },
    {
      "inputs": [],
      "name": "InvalidInputToken",
      "type": "error"
    },
    {
      "inputs": [],
      "name": "InvalidInputToken",
      "type": "error"
    },
    {
      "inputs": [],
      "name": "InvalidOutputToken",
      "type": "error"
    },
    {
      "inputs": [],
      "name": "InvalidOutputToken",
      "type": "error"
    },
    {
      "inputs": [],
      "name": "InvalidV2RouterContract",
      "type": "error"
    },
    {
      "inputs": [],
      "name": "SlippageExceeded",
      "type": "error"
    },
    {
      "inputs": [],
      "name": "SwapFailed",
      "type": "error"
    },
    {
      "inputs": [],
      "name": "SwapFailed",
      "type": "error"
    },
    {
      "anonymous": false,
      "inputs": [
        {
          "indexed": true,
          "internalType": "address",
          "name": "previousOwner",
          "type": "address"
        },
        {
          "indexed": true,
          "internalType": "address",
          "name": "newOwner",
          "type": "address"
        }
      ],
      "name": "OwnershipTransferred",
      "type": "event"
    },
    {
      "anonymous": false,
      "inputs": [
        {
          "indexed": true,
          "internalType": "uint256",
          "name": "newDeployment",
          "type": "uint256"
        }
      ],
      "name": "StrategyAmountUpdate",
      "type": "event"
    },
    {
      "anonymous": false,
      "inputs": [
        {
          "indexed": true,
          "internalType": "address",
          "name": "from",
          "type": "address"
        },
        {
          "indexed": true,
          "internalType": "uint256",
          "name": "amount",
          "type": "uint256"
        }
      ],
      "name": "StrategyDeploy",
      "type": "event"
    },
    {
      "anonymous": false,
      "inputs": [
        {
          "indexed": true,
          "internalType": "uint256",
          "name": "amount",
          "type": "uint256"
        }
      ],
      "name": "StrategyLoss",
      "type": "event"
    },
    {
      "anonymous": false,
      "inputs": [
        {
          "indexed": true,
          "internalType": "uint256",
          "name": "amount",
          "type": "uint256"
        }
      ],
      "name": "StrategyProfit",
      "type": "event"
    },
    {
      "anonymous": false,
      "inputs": [
        {
          "indexed": true,
          "internalType": "address",
          "name": "from",
          "type": "address"
        },
        {
          "indexed": true,
          "internalType": "uint256",
          "name": "amount",
          "type": "uint256"
        }
      ],
      "name": "StrategyUndeploy",
      "type": "event"
    },
    {
      "inputs": [],
      "name": "asset",
      "outputs": [
        {
          "internalType": "address",
          "name": "",
          "type": "address"
        }
      ],
      "stateMutability": "view",
      "type": "function"
    },
    {
      "inputs": [
        {
          "internalType": "uint256",
          "name": "amount",
          "type": "uint256"
        }
      ],
      "name": "deploy",
      "outputs": [
        {
          "internalType": "uint256",
          "name": "amountUsed",
          "type": "uint256"
        }
      ],
      "stateMutability": "nonpayable",
      "type": "function"
    },
    {
      "inputs": [],
      "name": "harvest",
      "outputs": [
        {
          "internalType": "int256",
          "name": "balanceChange",
          "type": "int256"
        }
      ],
      "stateMutability": "nonpayable",
      "type": "function"
    },
    {
      "inputs": [],
      "name": "maxSlippage",
      "outputs": [
        {
          "internalType": "uint256",
          "name": "",
          "type": "uint256"
        }
      ],
      "stateMutability": "view",
      "type": "function"
    },
    {
      "inputs": [],
      "name": "oracle",
      "outputs": [
        {
          "internalType": "address",
          "name": "",
          "type": "address"
        }
      ],
      "stateMutability": "view",
      "type": "function"
    },
    {
      "inputs": [],
      "name": "owner",
      "outputs": [
        {
          "internalType": "address",
          "name": "",
          "type": "address"
        }
      ],
      "stateMutability": "view",
      "type": "function"
    },
    {
      "inputs": [],
      "name": "renounceOwnership",
      "outputs": [],
      "stateMutability": "nonpayable",
      "type": "function"
    },
    {
      "inputs": [
        {
          "internalType": "uint256",
          "name": "maxSlippage_",
          "type": "uint256"
        }
      ],
      "name": "setMaxSlippage",
      "outputs": [],
      "stateMutability": "nonpayable",
      "type": "function"
    },
    {
      "inputs": [],
      "name": "totalAssets",
      "outputs": [
        {
          "internalType": "uint256",
          "name": "",
          "type": "uint256"
        }
      ],
      "stateMutability": "view",
      "type": "function"
    },
    {
      "inputs": [
        {
          "internalType": "address",
          "name": "newOwner",
          "type": "address"
        }
      ],
      "name": "transferOwnership",
      "outputs": [],
      "stateMutability": "nonpayable",
      "type": "function"
    },
    {
      "inputs": [
        {
          "internalType": "uint256",
          "name": "amount",
          "type": "uint256"
        }
      ],
      "name": "undeploy",
      "outputs": [
        {
          "internalType": "uint256",
          "name": "undeployedAmount_",
          "type": "uint256"
        }
      ],
      "stateMutability": "nonpayable",
      "type": "function"
    },
    {
      "inputs": [],
      "name": "underlyingAsset",
      "outputs": [
        {
          "internalType": "address",
          "name": "",
          "type": "address"
        }
      ],
      "stateMutability": "view",
      "type": "function"
    }
  ],
  "bytecode": "0x60e06040523480156200001157600080fd5b5060405162001f8238038062001f82833981016040819052620000349162000508565b6001600055848484846200004833620002c7565b6001600160a01b0383161580620000d5575060006001600160a01b0316826001600160a01b03166338d52e0f6040518163ffffffff1660e01b8152600401602060405180830381865afa158015620000a4573d6000803e3d6000fd5b505050506040513d601f19601f82011682018060405250810190620000ca919062000588565b6001600160a01b0316145b80620000e857506001600160a01b038116155b15620001075760405163c52a9bd360e01b815260040160405180910390fd5b6001600160a01b03808416608052811660a052620001258462000319565b816001600160a01b03166338d52e0f6040518163ffffffff1660e01b8152600401602060405180830381865afa15801562000164573d6000803e3d6000fd5b505050506040513d601f19601f820116820180604052508101906200018a919062000588565b60405163095ea7b360e01b81526001600160a01b0384811660048301526000196024830152919091169063095ea7b3906044016020604051808303816000875af1158015620001dd573d6000803e3d6000fd5b505050506040513d601f19601f82011682018060405250810190620002039190620005af565b620002215760405163474a9d3760e01b815260040160405180910390fd5b506001600160a01b031660c052506200023c9050816200039c565b6200024a84600019620003d7565b620002bc836001600160a01b03166338d52e0f6040518163ffffffff1660e01b8152600401602060405180830381865afa1580156200028d573d6000803e3d6000fd5b505050506040513d601f19601f82011682018060405250810190620002b3919062000588565b600019620003d7565b5050505050620005d3565b600180546001600160a01b038381166001600160a01b0319831681179093556040519116919082907f8be0079c531659141344cd1fd0a4f28419497f9722a3daafe3b4186f6b6457e090600090a35050565b6200032362000494565b6001600160a01b0381166200038e5760405162461bcd60e51b815260206004820152602660248201527f4f776e61626c653a206e6577206f776e657220697320746865207a65726f206160448201526564647265737360d01b60648201526084015b60405180910390fd5b6200039981620002c7565b50565b6001600160a01b038116620003c4576040516342881e2f60e01b815260040160405180910390fd5b60008051602062001f6283398151915255565b6001600160a01b03821663095ea7b3620003fe60008051602062001f628339815191525490565b6040516001600160e01b031960e084901b1681526001600160a01b039091166004820152602481018490526044016020604051808303816000875af11580156200044c573d6000803e3d6000fd5b505050506040513d601f19601f82011682018060405250810190620004729190620005af565b62000490576040516302e8763f60e31b815260040160405180910390fd5b5050565b6001546001600160a01b03163314620004f05760405162461bcd60e51b815260206004820181905260248201527f4f776e61626c653a2063616c6c6572206973206e6f7420746865206f776e6572604482015260640162000385565b565b6001600160a01b03811681146200039957600080fd5b600080600080600060a086880312156200052157600080fd5b85516200052e81620004f2565b60208701519095506200054181620004f2565b60408701519094506200055481620004f2565b60608701519093506200056781620004f2565b60808701519092506200057a81620004f2565b809150509295509295909350565b6000602082840312156200059b57600080fd5b8151620005a881620004f2565b9392505050565b600060208284031215620005c257600080fd5b81518015158114620005a857600080fd5b60805160a05160c0516119136200064f6000396000818161023f0152818161055e0152818161074b01526108d001526000818161015001528181610a5801528181610acb01528181610b940152610c0201526000818160d601528181610335015281816103d50152818161062c01526106a301526119136000f3fe608060405234801561001057600080fd5b50600436106100b45760003560e01c80637158da7c116100715780637158da7c146101465780637dc0d1d01461014e5780638c04166f146101745780638da5cb5b1461017c578063a5e387511461018d578063f2fde38b146101a057600080fd5b806301e1d114146100b957806338d52e0f146100d457806343f68a491461010e578063440e6dff146101235780634641257d14610136578063715018a61461013e575b600080fd5b6100c16101b3565b6040519081526020015b60405180910390f35b7f00000000000000000000000000000000000000000000000000000000000000005b6040516001600160a01b0390911681526020016100cb565b61012161011c366004611500565b6101c2565b005b6100c1610131366004611500565b6101cf565b6100c1610469565b610121610546565b6100f661055a565b7f00000000000000000000000000000000000000000000000000000000000000006100f6565b6002546100c1565b6001546001600160a01b03166100f6565b6100c161019b366004611500565b6105de565b6101216101ae36600461152e565b61084d565b60006101bd6108cb565b905090565b6101ca610978565b600255565b60006101d96109d2565b816000036101fa5760405163162908e360e11b815260040160405180910390fd5b60035482111561021d5760405163162908e360e11b815260040160405180910390fd5b60408051808201909152610e1081526064602082015260006001600160a01b037f00000000000000000000000000000000000000000000000000000000000000001663440e6dff61026e8487610a2b565b6040518263ffffffff1660e01b815260040161028c91815260200190565b6020604051808303816000875af11580156102ab573d6000803e3d6000fd5b505050506040513d601f19601f820116820180604052508101906102cf9190611552565b905060006102dd8383610b67565b90506000633b9aca00600254633b9aca006102f89190611581565b610302908461159a565b61030c91906115b1565b905060006103886040518060c0016040528061032661055a565b6001600160a01b0390811682527f00000000000000000000000000000000000000000000000000000000000000001660208201526040016000815260200186815260200184815260200160405180602001604052806000815250815250610c8e565b915050818110156103ac57604051638199f5f360e01b815260040160405180910390fd5b83600360008282546103be9190611581565b909155509095508590506103fc6001600160a01b037f0000000000000000000000000000000000000000000000000000000000000000163383610ca3565b604051819033907fd876b3a71b8d3ba9e91f332c8be4f54719ce01f2583ceed9c22bf76aaa3fc35390600090a36003546040517f2dd98c29534f0234343e33770888eec9561b1580bba498c1cda8c1b8e3dbe1e090600090a250505050506104646001600055565b919050565b60006104736109d2565b600061047d6108cb565b90506003548161048d91906115e9565b915060008213156104c85760405182907fb24093f9ac16681be69ee94e18b6581e28387a1e4d6e25cfea38138ad5be616790600090a2610504565b6000821215610504576104da82611610565b6040517fede8d8525758cb6685bfabd1b6304e23cd86c77d10cc920af49e2b4637dc233e90600090a25b81156105365760405181907f2dd98c29534f0234343e33770888eec9561b1580bba498c1cda8c1b8e3dbe1e090600090a25b6003556105436001600055565b90565b61054e610978565b6105586000610d0b565b565b60007f00000000000000000000000000000000000000000000000000000000000000006001600160a01b03166338d52e0f6040518163ffffffff1660e01b8152600401602060405180830381865afa1580156105ba573d6000803e3d6000fd5b505050506040513d601f19601f820116820180604052508101906101bd919061162c565b60006105e86109d2565b816000036106095760405163162908e360e11b815260040160405180910390fd5b60408051808201909152610e108152600060208201526106546001600160a01b037f000000000000000000000000000000000000000000000000000000000000000016333086610d5d565b60006106608285610a2b565b90506000633b9aca00600254633b9aca0061067b9190611581565b610685908461159a565b61068f91906115b1565b905060006107116040518060c001604052807f00000000000000000000000000000000000000000000000000000000000000006001600160a01b031681526020016106d861055a565b6001600160a01b031681526020016000815260200188815260200184815260200160405180602001604052806000815250815250610c8e565b9150508181101561073557604051638199f5f360e01b815260040160405180910390fd5b60405163a5e3875160e01b8152600481018290527f00000000000000000000000000000000000000000000000000000000000000006001600160a01b03169063a5e38751906024016020604051808303816000875af115801561079c573d6000803e3d6000fd5b505050506040513d601f19601f820116820180604052508101906107c09190611552565b5080600360008282546107d39190611649565b909155506107e390508482610b67565b604051909550869033907f642a0bcf70c335488df8376c9718c6ad9f2a5f2ce827bc883176aa0dd1062b0690600090a36003546040517f2dd98c29534f0234343e33770888eec9561b1580bba498c1cda8c1b8e3dbe1e090600090a2505050506104646001600055565b610855610978565b6001600160a01b0381166108bf5760405162461bcd60e51b815260206004820152602660248201527f4f776e61626c653a206e6577206f776e657220697320746865207a65726f206160448201526564647265737360d01b60648201526084015b60405180910390fd5b6108c881610d0b565b50565b6000807f00000000000000000000000000000000000000000000000000000000000000006001600160a01b03166301e1d1146040518163ffffffff1660e01b8152600401602060405180830381865afa15801561092c573d6000803e3d6000fd5b505050506040513d601f19601f820116820180604052508101906109509190611552565b9050610972604051806040016040528060008152602001600081525082610b67565b91505090565b6001546001600160a01b031633146105585760405162461bcd60e51b815260206004820181905260248201527f4f776e61626c653a2063616c6c6572206973206e6f7420746865206f776e657260448201526064016108b6565b600260005403610a245760405162461bcd60e51b815260206004820152601f60248201527f5265656e7472616e637947756172643a207265656e7472616e742063616c6c0060448201526064016108b6565b6002600055565b6040516304341d9960e01b8152825160048201526020830151602482015260009081906001600160a01b037f000000000000000000000000000000000000000000000000000000000000000016906304341d99906044016040805180830381865afa158015610a9e573d6000803e3d6000fd5b505050506040513d601f19601f82011682018060405250810190610ac291906116a3565b905080600001517f00000000000000000000000000000000000000000000000000000000000000006001600160a01b0316639670c0bc6040518163ffffffff1660e01b8152600401602060405180830381865afa158015610b27573d6000803e3d6000fd5b505050506040513d601f19601f82011682018060405250810190610b4b9190611552565b610b55908561159a565b610b5f91906115b1565b949350505050565b6040516304341d9960e01b8152825160048201526020830151602482015260009081906001600160a01b037f000000000000000000000000000000000000000000000000000000000000000016906304341d99906044016040805180830381865afa158015610bda573d6000803e3d6000fd5b505050506040513d601f19601f82011682018060405250810190610bfe91906116a3565b90507f00000000000000000000000000000000000000000000000000000000000000006001600160a01b0316639670c0bc6040518163ffffffff1660e01b8152600401602060405180830381865afa158015610c5e573d6000803e3d6000fd5b505050506040513d601f19601f82011682018060405250810190610c829190611552565b8151610b55908561159a565b600080610c9a83610d9b565b91509150915091565b6040516001600160a01b038316602482015260448101829052610d0690849063a9059cbb60e01b906064015b60408051601f198184030181529190526020810180516001600160e01b03166001600160e01b031990931692909217909152610dcf565b505050565b600180546001600160a01b038381166001600160a01b0319831681179093556040519116919082907f8be0079c531659141344cd1fd0a4f28419497f9722a3daafe3b4186f6b6457e090600090a35050565b6040516001600160a01b0380851660248301528316604482015260648101829052610d959085906323b872dd60e01b90608401610ccf565b50505050565b600080610c9a610dc97f47b2c96b5499f1e2d1a7c2ef4c1a5a1e0d4a0c2e4b6d8f0a2c4e6f8a0c2e4b6d5490565b84610ea4565b6000610e24826040518060400160405280602081526020017f5361666545524332303a206c6f772d6c6576656c2063616c6c206661696c6564815250856001600160a01b03166113dd9092919063ffffffff16565b9050805160001480610e45575080806020019051810190610e4591906116f2565b610d065760405162461bcd60e51b815260206004820152602a60248201527f5361666545524332303a204552433230206f7065726174696f6e20646964206e6044820152691bdd081cdd58d8d9595960b21b60648201526084016108b6565b805160009081906001600160a01b0316610ed157604051632df9739b60e01b815260040160405180910390fd5b60208301516001600160a01b0316610efb576040516231010160e51b815260040160405180910390fd5b604080516002808252606082018352600092602083019080368337019050509050836000015181600081518110610f3457610f34611714565b60200260200101906001600160a01b031690816001600160a01b031681525050836020015181600181518110610f6c57610f6c611714565b6001600160a01b0390921660209283029190910190910152600084604001516001811115610f9c57610f9c6115d3565b036111ad578351606085015160405163095ea7b360e01b81526001600160a01b038881166004830152602482019290925291169063095ea7b3906044016020604051808303816000875af1158015610ff8573d6000803e3d6000fd5b505050506040513d601f19601f8201168201806040525081019061101c91906116f2565b611039576040516302e8763f60e31b815260040160405180910390fd5b608084015160009015611051575060808401516110f7565b606085015160405163d06ca61f60e01b81526000916001600160a01b0389169163d06ca61f9161108591879060040161176f565b600060405180830381865afa1580156110a2573d6000803e3d6000fd5b505050506040513d6000823e601f3d908101601f191682016040526110ca9190810190611788565b905080600182516110db9190611581565b815181106110eb576110eb611714565b60200260200101519150505b846060015193506000866001600160a01b03166338ed173986848630426040518663ffffffff1660e01b815260040161113495949392919061182e565b6000604051808303816000875af1158015611153573d6000803e3d6000fd5b505050506040513d6000823e601f3d908101601f1916820160405261117b9190810190611788565b9050806001825161118c9190611581565b8151811061119c5761119c611714565b6020026020010151935050506113b4565b6001846040015160018111156111c5576111c56115d3565b036113b457836080015191506000846060015160000361127a576040516307c0329d60e21b81526000906001600160a01b03881690631f00ca7490611210908790879060040161176f565b600060405180830381865afa15801561122d573d6000803e3d6000fd5b505050506040513d6000823e601f3d908101601f191682016040526112559190810190611788565b90508060008151811061126a5761126a611714565b6020026020010151915050611281565b5060608401515b845160405163095ea7b360e01b81526001600160a01b038881166004830152602482018490529091169063095ea7b3906044016020604051808303816000875af11580156112d3573d6000803e3d6000fd5b505050506040513d601f19601f820116820180604052508101906112f791906116f2565b611314576040516302e8763f60e31b815260040160405180910390fd5b604051634401edf760e11b81526000906001600160a01b03881690638803dbee9061134b908790869088903090429060040161182e565b6000604051808303816000875af115801561136a573d6000803e3d6000fd5b505050506040513d6000823e601f3d908101601f191682016040526113929190810190611788565b9050806000815181106113a7576113a7611714565b6020026020010151945050505b816000036113d55760405163081ceff360e41b815260040160405180910390fd5b509250929050565b6060610b5f848460008585600080866001600160a01b03168587604051611404919061188e565b60006040518083038185875af1925050503d8060008114611441576040519150601f19603f3d011682016040523d82523d6000602084013e611446565b606091505b509150915061145787838387611462565b979650505050505050565b606083156114d15782516000036114ca576001600160a01b0385163b6114ca5760405162461bcd60e51b815260206004820152601d60248201527f416464726573733a2063616c6c20746f206e6f6e2d636f6e747261637400000060448201526064016108b6565b5081610b5f565b610b5f83838151156114e65781518083602001fd5b8060405162461bcd60e51b81526004016108b691906118aa565b60006020828403121561151257600080fd5b5035919050565b6001600160a01b03811681146108c857600080fd5b60006020828403121561154057600080fd5b813561154b81611519565b9392505050565b60006020828403121561156457600080fd5b5051919050565b634e487b7160e01b600052601160045260246000fd5b818103818111156115945761159461156b565b92915050565b80820281158282048414176115945761159461156b565b6000826115ce57634e487b7160e01b600052601260045260246000fd5b500490565b634e487b7160e01b600052602160045260246000fd5b81810360008312801583831316838312821617156116095761160961156b565b5092915050565b6000600160ff1b82016116255761162561156b565b5060000390565b60006020828403121561163e57600080fd5b815161154b81611519565b808201808211156115945761159461156b565b634e487b7160e01b600052604160045260246000fd5b604051601f8201601f1916810167ffffffffffffffff8111828210171561169b5761169b61165c565b604052919050565b6000604082840312156116b557600080fd5b6040516040810181811067ffffffffffffffff821117156116d8576116d861165c565b604052825181526020928301519281019290925250919050565b60006020828403121561170457600080fd5b8151801515811461154b57600080fd5b634e487b7160e01b600052603260045260246000fd5b60008151808452602080850194506020840160005b838110156117645781516001600160a01b03168752958201959082019060010161173f565b509495945050505050565b828152604060208201526000610b5f604083018461172a565b6000602080838503121561179b57600080fd5b825167ffffffffffffffff808211156117b357600080fd5b818501915085601f8301126117c757600080fd5b8151818111156117d9576117d961165c565b8060051b91506117ea848301611672565b818152918301840191848101908884111561180457600080fd5b938501935b8385101561182257845182529385019390850190611809565b98975050505050505050565b85815284602082015260a06040820152600061184d60a083018661172a565b6001600160a01b0394909416606083015250608001529392505050565b60005b8381101561188557818101518382015260200161186d565b50506000910152565b600082516118a081846020870161186a565b9190910192915050565b60208152600082518060208401526118c981604085016020870161186a565b601f01601f1916919091016040019291505056fea26469706673582212203ea9708243ef75c1cb0145e5caf1a772c86771e50386e7984e7fad3f5802c4c364736f6c6343000818003347b2c96b5499f1e2d1a7c2ef4c1a5a1e0d4a0c2e4b6d8f0a2c4e6f8a0c2e4b6d",
  "linkReferences": {},
  "deployedLinkReferences": {}
}