{
  "_format": "hh-sol-artifact-1",
  "contractName": "StrategySupplyAAVEv3",
  "sourceName": "contracts/core/strategies/StrategySupplyAAVEv3.sol",
  "abi": [
    {
      "inputs": [
        {
          "internalType": "address",
          "name": "initialOwner",
          "type": "address"
        },
        {
          "internalType": "address",
          "name": "asset_",
          "type": "address"
        },
        {
          "internalType": "address",
          "name": "aavev3Address",
          "type": "address"
        }
      ],
      "stateMutability": "nonpayable",
      "type": "constructor"
    },
    {
      "inputs": [],
      "name": "FailedToApproveAllowanceForAAVE",
      "type": "error"
    },
    {
      "inputs": [],
      "name": "InsufficientBalance",
      "type": "error"
    },
    {
      "inputs": [],
      "name": "OverflowDetected",
      "type": "error"
    },
    {
      "inputs": [],
      "name": "WithdrawalValueMismatch",
      "type": "error"
    },
    {
      "inputs": [],
      "name": "ZeroAddress",
      "type": "error"
    },
    {
      "inputs": [],
      "name": "ZeroAmount",
      "type": "error"
    },
    {
      "anonymous": false,
      "inputs": [
        {
          "indexed": true,
          "internalType": "address",
          "name": "previousOwner",
          "type": "address"
        },
        {
          "indexed": true,
          "internalType": "address",
          "name": "newOwner",
          "type": "address"
        }
      ],
      "name": "OwnershipTransferred",
      "type": "event"
    },
    {
      "anonymous": false,
      "inputs": [
        {
          "indexed": true,
          "internalType": "uint256",
          "name": "newDeployment",
          "type": "uint256"
        }
      ],
      "name": "StrategyAmountUpdate",
      "type": "event"
    },
    {
      "anonymous": false,
      "inputs": [
        {
          "indexed": true,
          "internalType": "address",
          "name": "from",
          "type": "address"
        },
        {
          "indexed": true,
          "internalType": "uint256",
          "name": "amount",
          "type": "uint256"
        }
      ],
      "name": "StrategyDeploy",
      "type": "event"
    },
    {
      "anonymous": false,
      "inputs": [
        {
          "indexed": true,
          "internalType": "uint256",
          "name": "amount",
          "type": "uint256"
        }
      ],
      "name": "StrategyLoss",
      "type": "event"
    },
    {
      "anonymous": false,
      "inputs": [
        {
          "indexed": true,
          "internalType": "uint256",
          "name": "amount",
          "type": "uint256"
        }
      ],
      "name": "StrategyProfit",
      "type": "event"
    },
    {
      "anonymous": false,
      "inputs": [
        {
          "indexed": true,
          "internalType": "address",
          "name": "from",
          "type": "address"
        },
        {
          "indexed": true,
          "internalType": "uint256",
          "name": "amount",
          "type": "uint256"
        }
      ],
      "name": "StrategyUndeploy",
      "type": "event"
    },
    {
      "inputs": [],
      "name": "asset",
      "outputs": [
        {
          "internalType": "address",
          "name": "",
          "type": "address"
        }
      ],
      "stateMutability": "view",
      "type": "function"
    },
    {
      "inputs": [
        {
          "internalType": "uint256",
          "name": "amount",
          "type": "uint256"
        }
      ],
      "name": "deploy",
      "outputs": [
        {
          "internalType": "uint256",
          "name": "",
          "type": "uint256"
        }
      ],
      "stateMutability": "nonpayable",
      "type": "function"
    },
    {
      "inputs": [],
      "name": "getBalance",
      "outputs": [
        {
          "internalType": "uint256",
          "name": "",
          "type": "uint256"
        }
      ],
      "stateMutability": "view",
      "type": "function"
    },
    {
      "inputs": [],
      "name": "harvest",
      "outputs": [
        {
          "internalType": "int256",
          "name": "balanceChange",
          "type": "int256"
        }
      ],
      "stateMutability": "nonpayable",
      "type": "function"
    },
    {
      "inputs": [],
      "name": "owner",
      "outputs": [
        {
          "internalType": "address",
          "name": "",
          "type": "address"
        }
      ],
      "stateMutability": "view",
      "type": "function"
    },
    {
      "inputs": [],
      "name": "renounceOwnership",
      "outputs": [],
      "stateMutability": "nonpayable",
      "type": "function"
    },
    {
      "inputs": [],
      "name": "totalAssets",
      "outputs": [
        {
          "internalType": "uint256",
          "name": "",
          "type": "uint256"
        }
      ],
      "stateMutability": "view",
      "type": "function"
    },
    {
      "inputs": [
        {
          "internalType": "address",
          "name": "newOwner",
          "type": "address"
        }
      ],
      "name": "transferOwnership",
      "outputs": [],
      "stateMutability": "nonpayable",
      "type": "function"
    },
    {
      "inputs": [
        {
          "internalType": "uint256",
          "name": "amount",
          "type": "uint256"
        }
      ],
      "name": "undeploy",
      "outputs": [
        {
          "internalType": "uint256",
          "name": "undeployedAmount",
          "type": "uint256"
        }
      ],
      "stateMutability": "nonpayable",
      "type": "function"
    }
  ],
  "bytecode": "0x60c06040523480156200001157600080fd5b5060405162001429380380620014298339810160408190526200003491620001c3565b6001600055620000443362000154565b6001600160a01b03831615806200006257506001600160a01b038216155b806200007557506001600160a01b038116155b15620000945760405163d92e233d60e01b815260040160405180910390fd5b6001600160a01b03808316608052811660a052620000b28362000154565b60805160405163095ea7b360e01b81526001600160a01b03838116600483015260001960248301529091169063095ea7b3906044016020604051808303816000875af115801562000107573d6000803e3d6000fd5b505050506040513d601f19601f820116820180604052508101906200012d91906200020d565b6200014b576040516319b298af60e11b815260040160405180910390fd5b50505062000238565b600180546001600160a01b038381166001600160a01b0319831681179093556040519116919082907f8be0079c531659141344cd1fd0a4f28419497f9722a3daafe3b4186f6b6457e090600090a35050565b80516001600160a01b0381168114620001be57600080fd5b919050565b600080600060608486031215620001d957600080fd5b620001e484620001a6565b9250620001f460208501620001a6565b91506200020460408501620001a6565b90509250925092565b6000602082840312156200022057600080fd5b815180151581146200023157600080fd5b9392505050565b60805160a05161119b6200028e600039600081816101a4015281816103b5015261068801526000818160bd015281816101770152818161037d015281816104530152818161060d015261064c015261119b6000f3fe608060405234801561001057600080fd5b50600436106100935760003560e01c80634641257d116100665780634641257d14610108578063715018a6146101105780638da5cb5b1461011a578063a5e387511461012b578063f2fde38b1461013e57600080fd5b806301e1d1141461009857806312065fe0146100b357806338d52e0f146100bb578063440e6dff146100f5575b600080fd5b6100a0610151565b6040519081526020015b60405180910390f35b6100a0610160565b7f00000000000000000000000000000000000000000000000000000000000000005b6040516001600160a01b0390911681526020016100aa565b6100a0610103366004610c82565b610306565b6100a06104ef565b6101186105b9565b005b6001546001600160a01b03166100dd565b6100a0610139366004610c82565b6105cd565b61011861014c366004610cb0565b610762565b600061015b610160565b905090565b6040516335ea6a7560e01b81526001600160a01b037f00000000000000000000000000000000000000000000000000000000000000008116600483015260009182917f000000000000000000000000000000000000000000000000000000000000000016906335ea6a75906024016101e060405180830381865afa1580156101ec573d6000803e3d6000fd5b505050506040513d601f19601f820116820180604052508101906102109190610da7565b905060008161010001516001600160a01b031663313ce5676040518163ffffffff1660e01b8152600401602060405180830381865afa158015610257573d6000803e3d6000fd5b505050506040513d601f19601f8201168201806040525081019061027b9190610eca565b6101008301516040516370a0823160e01b81523060048201529192506000916001600160a01b03909116906370a0823190602401602060405180830381865afa1580156102cc573d6000803e3d6000fd5b505050506040513d601f19601f820116820180604052508101906102f09190610eed565b90506102fe818360126107e0565b949350505050565b60006103106108df565b610318610938565b8160000361033957604051631f2a200560e01b815260040160405180910390fd5b6000610343610160565b90508083111561036657604051631e9acf1760e31b815260040160405180910390fd5b604051631a4ca37b60e21b81526001600160a01b037f000000000000000000000000000000000000000000000000000000000000000081166004830152602482018590523060448301526000917f0000000000000000000000000000000000000000000000000000000000000000909116906369328dec906064016020604051808303816000875af1158015610400573d6000803e3d6000fd5b505050506040513d601f19601f820116820180604052508101906104249190610eed565b905083811461044657604051630ad9ca3760e31b815260040160405180910390fd5b61047a6001600160a01b037f0000000000000000000000000000000000000000000000000000000000000000163386610992565b6104848483610f1c565b604051909250849033907fd876b3a71b8d3ba9e91f332c8be4f54719ce01f2583ceed9c22bf76aaa3fc35390600090a360405182907f2dd98c29534f0234343e33770888eec9561b1580bba498c1cda8c1b8e3dbe1e090600090a2505060016000555090565b919050565b6000806104fa610160565b90506002548161050a9190610f35565b915060008213156105455760405182907fb24093f9ac16681be69ee94e18b6581e28387a1e4d6e25cfea38138ad5be616790600090a2610581565b60008212156105815761055782610f5c565b6040517fede8d8525758cb6685bfabd1b6304e23cd86c77d10cc920af49e2b4637dc233e90600090a25b81156105b35760405181907f2dd98c29534f0234343e33770888eec9561b1580bba498c1cda8c1b8e3dbe1e090600090a25b60025590565b6105c1610938565b6105cb60006109fa565b565b60006105d76108df565b6105df610938565b8160000361060057604051631f2a200560e01b815260040160405180910390fd5b6106356001600160a01b037f000000000000000000000000000000000000000000000000000000000000000016333085610a4c565b60405163617ba03760e01b81526001600160a01b037f00000000000000000000000000000000000000000000000000000000000000008116600483015260248201849052306044830152600060648301527f0000000000000000000000000000000000000000000000000000000000000000169063617ba03790608401600060405180830381600087803b1580156106cc57600080fd5b505af11580156106e0573d6000803e3d6000fd5b5050505081600260008282546106f69190610f78565b9091555050604051829033907f642a0bcf70c335488df8376c9718c6ad9f2a5f2ce827bc883176aa0dd1062b0690600090a36002546040517f2dd98c29534f0234343e33770888eec9561b1580bba498c1cda8c1b8e3dbe1e090600090a2506002546104ea6001600055565b61076a610938565b6001600160a01b0381166107d45760405162461bcd60e51b815260206004820152602660248201527f4f776e61626c653a206e6577206f776e657220697320746865207a65726f206160448201526564647265737360d01b60648201526084015b60405180910390fd5b6107dd816109fa565b50565b60008160ff168360ff1611156108435760406107fc8385610f8b565b60ff161061081d57604051637883ad3d60e11b815260040160405180910390fd5b6108278284610f8b565b61083290600a611088565b61083c9085611097565b90506108d8565b8260ff168260ff1611156108d557604061085d8484610f8b565b60ff161061087e57604051637883ad3d60e11b815260040160405180910390fd5b600061088a8484610f8b565b61089590600a611088565b90506108a381600019611097565b8511156108c357604051637883ad3d60e11b815260040160405180910390fd5b6108cd81866110b9565b9150506108d8565b50825b9392505050565b6002600054036109315760405162461bcd60e51b815260206004820152601f60248201527f5265656e7472616e637947756172643a207265656e7472616e742063616c6c0060448201526064016107cb565b6002600055565b6001546001600160a01b031633146105cb5760405162461bcd60e51b815260206004820181905260248201527f4f776e61626c653a2063616c6c6572206973206e6f7420746865206f776e657260448201526064016107cb565b6040516001600160a01b0383166024820152604481018290526109f590849063a9059cbb60e01b906064015b60408051601f198184030181529190526020810180516001600160e01b03166001600160e01b031990931692909217909152610a8a565b505050565b600180546001600160a01b038381166001600160a01b0319831681179093556040519116919082907f8be0079c531659141344cd1fd0a4f28419497f9722a3daafe3b4186f6b6457e090600090a35050565b6040516001600160a01b0380851660248301528316604482015260648101829052610a849085906323b872dd60e01b906084016109be565b50505050565b6000610adf826040518060400160405280602081526020017f5361666545524332303a206c6f772d6c6576656c2063616c6c206661696c6564815250856001600160a01b0316610b5f9092919063ffffffff16565b9050805160001480610b00575080806020019051810190610b0091906110d0565b6109f55760405162461bcd60e51b815260206004820152602a60248201527f5361666545524332303a204552433230206f7065726174696f6e20646964206e6044820152691bdd081cdd58d8d9595960b21b60648201526084016107cb565b60606102fe848460008585600080866001600160a01b03168587604051610b869190611116565b60006040518083038185875af1925050503d8060008114610bc3576040519150601f19603f3d011682016040523d82523d6000602084013e610bc8565b606091505b5091509150610bd987838387610be4565b979650505050505050565b60608315610c53578251600003610c4c576001600160a01b0385163b610c4c5760405162461bcd60e51b815260206004820152601d60248201527f416464726573733a2063616c6c20746f206e6f6e2d636f6e747261637400000060448201526064016107cb565b50816102fe565b6102fe8383815115610c685781518083602001fd5b8060405162461bcd60e51b81526004016107cb9190611132565b600060208284031215610c9457600080fd5b5035919050565b6001600160a01b03811681146107dd57600080fd5b600060208284031215610cc257600080fd5b81356108d881610c9b565b6040516101e0810167ffffffffffffffff81118282101715610cff57634e487b7160e01b600052604160045260246000fd5b60405290565b600060208284031215610d1757600080fd5b6040516020810181811067ffffffffffffffff82111715610d4857634e487b7160e01b600052604160045260246000fd5b6040529151825250919050565b80516fffffffffffffffffffffffffffffffff811681146104ea57600080fd5b805164ffffffffff811681146104ea57600080fd5b805161ffff811681146104ea57600080fd5b80516104ea81610c9b565b60006101e08284031215610dba57600080fd5b610dc2610ccd565b610dcc8484610d05565b8152610dda60208401610d55565b6020820152610deb60408401610d55565b6040820152610dfc60608401610d55565b6060820152610e0d60808401610d55565b6080820152610e1e60a08401610d55565b60a0820152610e2f60c08401610d75565b60c0820152610e4060e08401610d8a565b60e0820152610100610e53818501610d9c565b90820152610120610e65848201610d9c565b90820152610140610e77848201610d9c565b90820152610160610e89848201610d9c565b90820152610180610e9b848201610d55565b908201526101a0610ead848201610d55565b908201526101c0610ebf848201610d55565b908201529392505050565b600060208284031215610edc57600080fd5b815160ff811681146108d857600080fd5b600060208284031215610eff57600080fd5b5051919050565b634e487b7160e01b600052601160045260246000fd5b81810381811115610f2f57610f2f610f06565b92915050565b8181036000831280158383131683831282161715610f5557610f55610f06565b5092915050565b6000600160ff1b8201610f7157610f71610f06565b5060000390565b80820180821115610f2f57610f2f610f06565b60ff8281168282160390811115610f2f57610f2f610f06565b600181815b80851115610fdf578160001904821115610fc557610fc5610f06565b80851615610fd257918102915b93841c9390800290610fa9565b509250929050565b600082610ff657506001610f2f565b8161100357506000610f2f565b816001811461101957600281146110235761103f565b6001915050610f2f565b60ff84111561103457611034610f06565b50506001821b610f2f565b5060208310610133831016604e8410600b8410161715611062575081810a610f2f565b61106c8383610fa4565b806000190482111561108057611080610f06565b029392505050565b60006108d860ff841683610fe7565b6000826110b457634e487b7160e01b600052601260045260246000fd5b500490565b8082028115828204841417610f2f57610f2f610f06565b6000602082840312156110e257600080fd5b815180151581146108d857600080fd5b60005b8381101561110d5781810151838201526020016110f5565b50506000910152565b600082516111288184602087016110f2565b9190910192915050565b60208152600082518060208401526111518160408501602087016110f2565b601f01601f1916919091016040019291505056fea2646970667358221220710fa5c5a8778e23716d05880389a09835631a573cb391a8e08146bbe81ad32864736f6c63430008180033",
  "linkReferences": {},
  "deployedLinkReferences": {}
}