{
  "_format": "hh-sol-artifact-1",
  "contractName": "VaultRouter",
  "sourceName": "contracts/core/VaultRouter.sol",
  "abi": [
    {
      "inputs": [],
      "stateMutability": "nonpayable",
      "type": "constructor"
    },
    {
      "inputs": [],
      "name": "CallerNotTheGovernor",
      "type": "error"
    },
    {
      "inputs": [
        {
          "internalType": "address",
          "name": "sender",
          "type": "address"
        }
      ],
      "name": "ETHTransferNotAllowed",
      "type": "error"
    },
    {
      "inputs": [
        {
          "internalType": "uint256",
          "name": "commandIndex",
          "type": "uint256"
        },
        {
          "internalType": "bytes",
          "name": "message",
          "type": "bytes"
        }
      ],
      "name": "ExecutionFailed",
      "type": "error"
    },
    {
      "inputs": [],
      "name": "FailedAllowance",
      "type": "error"
    },
    {
      "inputs": [],
      "name": "FailedToApproveAllowance",
      "type": "error"
    },
    {
      "inputs": [],
      "name": "FailedToApproveAllowance",
      "type": "error"
    },
    {
      "inputs": [],
      "name": "FailedToApproveAllowanceForVault",
      "type": "error"
    },
    {
      "inputs": [],
      "name": "InsufficientWETHBalance",
      "type": "error"
    },
    {
      "inputs": [
        {
          "internalType": "uint256",
          "name": "action",
          "type": "uint256"
        }
      ],
      "name": "InvalidCommand",
      "type": "error"
    },
    {
      "inputs": [],
      "name": "InvalidFeeTier",
      "type": "error"
    },
    {
      "inputs": [],
      "name": "InvalidGovernorAddress",
      "type": "error"
    },
    {
      "inputs": [],
      "name": "InvalidInputToken",
      "type": "error"
    },
    {
      "inputs": [],
      "name": "InvalidInputToken",
      "type": "error"
    },
    {
      "inputs": [],
      "name": "InvalidInputToken",
      "type": "error"
    },
    {
      "inputs": [],
      "name": "InvalidInputToken",
      "type": "error"
    },
    {
      "inputs": [
        {
          "internalType": "uint8",
          "name": "index",
          "type": "uint8"
        }
      ],
      "name": "InvalidMappingIndex",
      "type": "error"
    },
    {
      "inputs": [],
      "name": "InvalidOutputToken",
      "type": "error"
    },
    {
      "inputs": [],
      "name": "InvalidOutputToken",
      "type": "error"
    },
    {
      "inputs": [],
      "name": "InvalidOutputToken",
      "type": "error"
    },
    {
      "inputs": [],
      "name": "InvalidOutputToken",
      "type": "error"
    },
    {
      "inputs": [
        {
          "internalType": "uint8",
          "name": "position",
          "type": "uint8"
        }
      ],
      "name": "InvalidPosition",
      "type": "error"
    },
    {
      "inputs": [],
      "name": "InvalidProvider",
      "type": "error"
    },
    {
      "inputs": [],
      "name": "InvalidRecipient",
      "type": "error"
    },
    {
      "inputs": [],
      "name": "InvalidRouter",
      "type": "error"
    },
    {
      "inputs": [],
      "name": "InvalidToken",
      "type": "error"
    },
    {
      "inputs": [],
      "name": "InvalidVaultAddress",
      "type": "error"
    },
    {
      "inputs": [],
      "name": "InvalidWETHAmount",
      "type": "error"
    },
    {
      "inputs": [],
      "name": "InvalidWETHContract",
      "type": "error"
    },
    {
      "inputs": [],
      "name": "NotEnoughAllowance",
      "type": "error"
    },
    {
      "inputs": [],
      "name": "RouteAlreadyAuthorized",
      "type": "error"
    },
    {
      "inputs": [],
      "name": "RouteNotAuthorized",
      "type": "error"
    },
    {
      "inputs": [],
      "name": "SwapFailed",
      "type": "error"
    },
    {
      "inputs": [],
      "name": "SwapFailed",
      "type": "error"
    },
    {
      "inputs": [],
      "name": "SwapFailed",
      "type": "error"
    },
    {
      "inputs": [],
      "name": "SwapFailed",
      "type": "error"
    },
    {
      "anonymous": false,
      "inputs": [
        {
          "indexed": true,
          "internalType": "address",
          "name": "previousGovernor",
          "type": "address"
        },
        {
          "indexed": true,
          "internalType": "address",
          "name": "newGovernor",
          "type": "address"
        }
      ],
      "name": "GovernshipTransferred",
      "type": "event"
    },
    {
      "anonymous": false,
      "inputs": [
        {
          "indexed": false,
          "internalType": "uint8",
          "name": "version",
          "type": "uint8"
        }
      ],
      "name": "Initialized",
      "type": "event"
    },
    {
      "anonymous": false,
      "inputs": [
        {
          "indexed": true,
          "internalType": "address",
          "name": "previousOwner",
          "type": "address"
        },
        {
          "indexed": true,
          "internalType": "address",
          "name": "newOwner",
          "type": "address"
        }
      ],
      "name": "OwnershipTransferred",
      "type": "event"
    },
    {
      "inputs": [
        {
          "internalType": "contract IERC4626",
          "name": "vault",
          "type": "address"
        },
        {
          "internalType": "contract IERC20",
          "name": "token",
          "type": "address"
        }
      ],
      "name": "approveTokenForVault",
      "outputs": [],
      "stateMutability": "nonpayable",
      "type": "function"
    },
    {
      "inputs": [
        {
          "internalType": "address",
          "name": "tokenIn",
          "type": "address"
        },
        {
          "internalType": "address",
          "name": "tokenOut",
          "type": "address"
        }
      ],
      "name": "disableRoute",
      "outputs": [],
      "stateMutability": "nonpayable",
      "type": "function"
    },
    {
      "inputs": [
        {
          "internalType": "address",
          "name": "tokenIn",
          "type": "address"
        },
        {
          "internalType": "address",
          "name": "tokenOut",
          "type": "address"
        },
        {
          "components": [
            {
              "internalType": "enum UseUnifiedSwapper.SwapProvider",
              "name": "provider",
              "type": "uint8"
            },
            {
              "internalType": "address",
              "name": "router",
              "type": "address"
            },
            {
              "internalType": "uint24",
              "name": "uniV3Tier",
              "type": "uint24"
            },
            {
              "internalType": "uint24",
              "name": "tickSpacing",
              "type": "uint24"
            }
          ],
          "internalType": "struct UseUnifiedSwapper.RouteInfo",
          "name": "routeInfo",
          "type": "tuple"
        }
      ],
      "name": "enableRoute",
      "outputs": [],
      "stateMutability": "nonpayable",
      "type": "function"
    },
    {
      "inputs": [
        {
          "components": [
            {
              "internalType": "uint256",
              "name": "action",
              "type": "uint256"
            },
            {
              "internalType": "bytes",
              "name": "data",
              "type": "bytes"
            }
          ],
          "internalType": "struct Command[]",
          "name": "commands",
          "type": "tuple[]"
        }
      ],
      "name": "execute",
      "outputs": [],
      "stateMutability": "payable",
      "type": "function"
    },
    {
      "inputs": [],
      "name": "governor",
      "outputs": [
        {
          "internalType": "address",
          "name": "",
          "type": "address"
        }
      ],
      "stateMutability": "view",
      "type": "function"
    },
    {
      "inputs": [
        {
          "internalType": "address",
          "name": "initialOwner",
          "type": "address"
        },
        {
          "internalType": "contract IWETH",
          "name": "weth",
          "type": "address"
        }
      ],
      "name": "initialize",
      "outputs": [],
      "stateMutability": "nonpayable",
      "type": "function"
    },
    {
      "inputs": [
        {
          "internalType": "address",
          "name": "tokenIn",
          "type": "address"
        },
        {
          "internalType": "address",
          "name": "tokenOut",
          "type": "address"
        }
      ],
      "name": "isRouteEnabled",
      "outputs": [
        {
          "internalType": "bool",
          "name": "",
          "type": "bool"
        }
      ],
      "stateMutability": "view",
      "type": "function"
    },
    {
      "inputs": [
        {
          "internalType": "contract IERC4626",
          "name": "vault",
          "type": "address"
        },
        {
          "internalType": "contract IERC20",
          "name": "token",
          "type": "address"
        }
      ],
      "name": "isTokenApprovedForVault",
      "outputs": [
        {
          "internalType": "bool",
          "name": "",
          "type": "bool"
        }
      ],
      "stateMutability": "view",
      "type": "function"
    },
    {
      "inputs": [],
      "name": "owner",
      "outputs": [
        {
          "internalType": "address",
          "name": "",
          "type": "address"
        }
      ],
      "stateMutability": "view",
      "type": "function"
    },
    {
      "inputs": [],
      "name": "renounceOwnership",
      "outputs": [],
      "stateMutability": "nonpayable",
      "type": "function"
    },
    {
      "inputs": [
        {
          "internalType": "address",
          "name": "_newGovernor",
          "type": "address"
        }
      ],
      "name": "transferGovernorship",
      "outputs": [],
      "stateMutability": "nonpayable",
      "type": "function"
    },
    {
      "inputs": [
        {
          "internalType": "address",
          "name": "newOwner",
          "type": "address"
        }
      ],
      "name": "transferOwnership",
      "outputs": [],
      "stateMutability": "nonpayable",
      "type": "function"
    },
    {
      "inputs": [
        {
          "internalType": "contract IERC4626",
          "name": "vault",
          "type": "address"
        },
        {
          "internalType": "contract IERC20",
          "name": "token",
          "type": "address"
        }
      ],
      "name": "unapproveTokenForVault",
      "outputs": [],
      "stateMutability": "nonpayable",
      "type": "function"
    },
    {
      "stateMutability": "payable",
      "type": "receive"
    }
  ],
  "bytecode": "0x60806040523480156200001157600080fd5b506200001c62000022565b620000e3565b600054610100900460ff16156200008f5760405162461bcd60e51b815260206004820152602760248201527f496e697469616c697a61626c653a20636f6e747261637420697320696e697469604482015266616c697a696e6760c81b606482015260840160405180910390fd5b60005460ff90811614620000e1576000805460ff191660ff9081179091556040519081527f7f26b83ff96e1f2b6a682f133852f6798a09c465da95921460cefb38474024989060200160405180910390a15b565b61348880620000f36000396000f3fe6080604052600436106100c65760003560e01c8063715018a61161007f578063ae7d2e3c11610059578063ae7d2e3c1461020e578063b58ce21d14610257578063b6aa515b1461026a578063f2fde38b1461028a57600080fd5b8063715018a6146101bb5780638da5cb5b146101d05780638e791f75146101ee57600080fd5b80630722f9c2146100d25780630c340a24146100f457806315a97e971461012b578063323ec3471461014b57806339bc9c5c1461017b578063485cc9551461019b57600080fd5b366100cd57005b600080fd5b3480156100de57600080fd5b506100f26100ed366004612d1c565b6102aa565b005b34801561010057600080fd5b506065546001600160a01b03165b6040516001600160a01b0390911681526020015b60405180910390f35b34801561013757600080fd5b506100f2610146366004612dc3565b610526565b34801561015757600080fd5b5061016b610166366004612dc3565b610705565b6040519015158152602001610122565b34801561018757600080fd5b506100f2610196366004612dc3565b610744565b3480156101a757600080fd5b506100f26101b6366004612dc3565b61080a565b3480156101c757600080fd5b506100f261092c565b3480156101dc57600080fd5b506033546001600160a01b031661010e565b3480156101fa57600080fd5b506100f2610209366004612dc3565b610940565b34801561021a57600080fd5b5061016b610229366004612dc3565b6001600160a01b03918216600090815260676020908152604080832093909416825291909152205460ff1690565b6100f2610265366004612dfc565b61099f565b34801561027657600080fd5b506100f2610285366004612e71565b610a6e565b34801561029657600080fd5b506100f26102a5366004612e71565b610acc565b6065546001600160a01b031633146102d55760405163e6e025c760e01b815260040160405180910390fd5b60006102e18484610b42565b90506000808281526066602052604090205460ff16600381111561030757610307612e8e565b1461032557604051632291fe5360e21b815260040160405180910390fd5b836001600160a01b031663095ea7b3836020015160016000196103489190612eba565b6040516001600160e01b031960e085901b1681526001600160a01b03909216600483015260248201526044016020604051808303816000875af1158015610393573d6000803e3d6000fd5b505050506040513d601f19601f820116820180604052508101906103b79190612ecd565b6103d4576040516302e8763f60e31b815260040160405180910390fd5b826001600160a01b031663095ea7b3836020015160016000196103f79190612eba565b6040516001600160e01b031960e085901b1681526001600160a01b03909216600483015260248201526044016020604051808303816000875af1158015610442573d6000803e3d6000fd5b505050506040513d601f19601f820116820180604052508101906104669190612ecd565b610483576040516302e8763f60e31b815260040160405180910390fd5b60008181526066602052604090208251815484929190829060ff191660018360038111156104b3576104b3612e8e565b021790555060208201518154604084015160609094015162ffffff908116600160c01b0262ffffff60c01b1991909516600160a81b0262ffffff60a81b196001600160a01b039094166101000293909316610100600160c01b031990921691909117919091171691909117905550505050565b6065546001600160a01b031633146105515760405163e6e025c760e01b815260040160405180910390fd5b600061055d8383610b42565b90506000808281526066602052604090205460ff16600381111561058357610583612e8e565b036105a15760405163139f8d8760e11b815260040160405180910390fd5b60008181526066602052604080822054905163095ea7b360e01b81526001600160a01b0361010090920482166004820152602481019290925284169063095ea7b3906044016020604051808303816000875af1158015610605573d6000803e3d6000fd5b505050506040513d601f19601f820116820180604052508101906106299190612ecd565b610646576040516302e8763f60e31b815260040160405180910390fd5b60008181526066602052604080822054905163095ea7b360e01b81526001600160a01b0361010090920482166004820152602481019290925283169063095ea7b3906044016020604051808303816000875af11580156106aa573d6000803e3d6000fd5b505050506040513d601f19601f820116820180604052508101906106ce9190612ecd565b6106eb576040516302e8763f60e31b815260040160405180910390fd5b6000908152606660205260409020805460ff191690555050565b6000806107128484610b42565b90506000808281526066602052604090205460ff16600381111561073857610738612e8e565b14159150505b92915050565b61074c610bcd565b6001600160a01b0382811660008181526067602090815260408083209486168084529490915290819020805460ff191660011790555163095ea7b360e01b81526004810191909152600019602482015263095ea7b3906044015b6020604051808303816000875af11580156107c5573d6000803e3d6000fd5b505050506040513d601f19601f820116820180604052508101906107e99190612ecd565b610806576040516376e540db60e01b815260040160405180910390fd5b5050565b600054610100900460ff161580801561082a5750600054600160ff909116105b806108445750303b158015610844575060005460ff166001145b6108ac5760405162461bcd60e51b815260206004820152602e60248201527f496e697469616c697a61626c653a20636f6e747261637420697320616c72656160448201526d191e481a5b9a5d1a585b1a5e995960921b60648201526084015b60405180910390fd5b6000805460ff1916600117905580156108cf576000805461ff0019166101001790555b6108d883610c27565b6108e182610c57565b8015610927576000805461ff0019169055604051600181527f7f26b83ff96e1f2b6a682f133852f6798a09c465da95921460cefb38474024989060200160405180910390a15b505050565b610934610bcd565b61093e6000610cb9565b565b610948610bcd565b6001600160a01b03828116600081815260676020908152604080832094861680845294909152808220805460ff191690555163095ea7b360e01b81526004810192909252602482015263095ea7b3906044016107a6565b60408051600880825261012082019092526060916000918491839190602082016101008036833701905050905060005b82811015610a6557610a378787838181106109ec576109ec612eef565b90506020028101906109fe9190612f05565b35888884818110610a1157610a11612eef565b9050602002810190610a239190612f05565b610a31906020810190612f25565b85610d0b565b9550935083610a5d578085604051632c4029e960e01b81526004016108a3929190612fc3565b6001016109cf565b50505050505050565b6065546001600160a01b03163314610a995760405163e6e025c760e01b815260040160405180910390fd5b6001600160a01b038116610ac05760405163fa68714160e01b815260040160405180910390fd5b610ac981610f07565b50565b610ad4610bcd565b6001600160a01b038116610b395760405162461bcd60e51b815260206004820152602660248201527f4f776e61626c653a206e6577206f776e657220697320746865207a65726f206160448201526564647265737360d01b60648201526084016108a3565b610ac981610cb9565b6000816001600160a01b0316836001600160a01b031610610b8057604080518082019091526001600160a01b03808416825284166020820152610b9f565b604080518082019091526001600160a01b038085168252831660208201525b604051602001610baf9190612fdc565b60405160208183030381529060405280519060200120905092915050565b6033546001600160a01b0316331461093e5760405162461bcd60e51b815260206004820181905260248201527f4f776e61626c653a2063616c6c6572206973206e6f7420746865206f776e657260448201526064016108a3565b600054610100900460ff16610c4e5760405162461bcd60e51b81526004016108a390613016565b610ac081610cb9565b600054610100900460ff16610c7e5760405162461bcd60e51b81526004016108a390613016565b606880546001600160a01b0319166001600160a01b038316908117909155610ac9576040516332a1e6cf60e21b815260040160405180910390fd5b603380546001600160a01b038381166001600160a01b0319831681179093556040519116919082907f8be0079c531659141344cd1fd0a4f28419497f9722a3daafe3b4186f6b6457e090600090a35050565b6001606063ffffffff861661ffff602088901c811690604089901c1682851480610d3b575063ffffffff83166020145b80610d4c575063ffffffff83166021145b15610d6557610d5e8888888585610f63565b9350610efb565b6001198901610d7a57610d5e88888885611017565b60021963ffffffff841601610d9557610d5e8888888561105c565b60031963ffffffff841601610db057610d5e888888856110a5565b60041963ffffffff841601610dcb57610d5e888888856110d3565b60051963ffffffff841601610de657610d5e88888884611122565b60061963ffffffff841601610e0157610d5e88888885611174565b60071963ffffffff841601610e1c57610d5e888888856111af565b60081963ffffffff841601610e3757610d5e888888856111d1565b600f1963ffffffff841601610e5357610d5e8888888585611235565b60101963ffffffff841601610e6f57610d5e88888885856112a4565b60111963ffffffff841601610e8b57610d5e88888885856112d4565b60121963ffffffff841601610ea757610d5e8888888585611349565b60131963ffffffff841601610ec357610d5e888888858561137e565b60141963ffffffff841601610edf57610d5e88888885856113ce565b6040516320c9d88960e21b8152600481018a90526024016108a3565b50505094509492505050565b6065546040516001600160a01b038084169216907f4a2da5517922d469e27cc43b2e88ebd65d79400caf5bb7cc34419e64cf85bb1a90600090a3606580546001600160a01b0319166001600160a01b0392909216919091179055565b60606000610f73868801886130d1565b9050610f8c8582606001518663ffffffff1660016113f8565b60608201526080810151610faa90869063ffffffff871660026113f8565b6080820152600080610fbb836114be565b91509150610fd287838763ffffffff16600161167e565b610fe587828763ffffffff16600261167e565b60408051602081018490529081018290526060015b604051602081830303815290604052935050505095945050505050565b606084356020860135611033858263ffffffff871660016113f8565b905061103f828261173c565b60405180602001604052806000815250925050505b949350505050565b606084356020860135604087013561107d868263ffffffff881660016113f8565b905061108a838383611807565b50506040805160208101909152600081529695505050505050565b60608435602086013560408701356110c6868263ffffffff881660016113f8565b905061108a8383836118d5565b6060843560208601356040870135878401356110f8878263ffffffff891660016113f8565b905061110684848484611937565b5050604080516020810190915260008152979650505050505050565b60608435602086013560006111378383611a32565b905061114c86828763ffffffff16600161167e565b6040805160208101839052016040516020818303038152906040529350505050949350505050565b6060843561118b848263ffffffff861660016113f8565b905061119681611b00565b5050604080516020810190915260008152949350505050565b606084356111c6848263ffffffff861660016113f8565b905061119681611b83565b606084356020860135604087013587840135608089013560a08a013560c08b01356112058a8763ffffffff8c1660016113f8565b955061121687878787878787611c7a565b50506040805160208101909152600081529a9950505050505050505050565b6060853560208701356040880135611256878363ffffffff891660016113f8565b91506000611265848484611d16565b905061127a88828863ffffffff16600161167e565b60408051602081018390520160405160208183030381529060405294505050505095945050505050565b60608535602087013560408801356112c5878363ffffffff891660016113f8565b91506000611265848484611db3565b6060853560208701356040880135888401356112f9888463ffffffff8a1660016113f8565b9250600061130985858585611e11565b905061131e89828963ffffffff16600161167e565b6040805160208101839052016040516020818303038152906040529550505050505095945050505050565b60608535602087013560408801358884013561136e888463ffffffff8a1660016113f8565b9250600061130985858585611ebf565b60608535602087013561139a868263ffffffff881660016113f8565b905060006113a88383611f00565b90506113bd87828763ffffffff16600161167e565b604080516020810183905201610ffa565b6060853560208701356113ea868263ffffffff881660016113f8565b905060006113a88383611f9a565b600060088260ff16111561142457604051634e6153af60e11b815260ff831660048201526024016108a3565b600060ff611433600185613191565b61143e9060086131aa565b60ff168567ffffffffffffffff16901c16905060088160ff16111561147b576040516353f4667560e11b815260ff821660048201526024016108a3565b60008160ff161161148c57846114b4565b85611498600183613191565b60ff16815181106114ab576114ab612eef565b60200260200101515b9695505050505050565b60008060006114d584600001518560200151610b42565b60008181526066602052604080822081516080810190925280549394509192909190829060ff16600381111561150d5761150d612e8e565b600381111561151e5761151e612e8e565b815290546001600160a01b03610100820416602083015262ffffff600160a81b820481166040840152600160c01b90910416606090910152905060008151600381111561156d5761156d612e8e565b0361158b5760405163139f8d8760e11b815260040160405180910390fd5b6001815160038111156115a0576115a0612e8e565b036115e957604080820151815162ffffff90911660208201520160408051601f1981840301815291905260a086015260208101516115de9086611ff0565b935093505050915091565b6002815160038111156115fe576115fe612e8e565b03611611576115de8160200151866122b2565b60038151600381111561162657611626612e8e565b036116655760608101516040805162ffffff90921660208301520160408051601f1981840301815291905260a086015260208101516115de90866127e3565b604051633b136dc160e11b815260040160405180910390fd5b60088160ff1611156116a857604051634e6153af60e11b815260ff821660048201526024016108a3565b600060ff6116b7600184613191565b6116c29060086131aa565b60ff168467ffffffffffffffff16901c16905060088160ff1611156116ff576040516353f4667560e11b815260ff821660048201526024016108a3565b60ff811615611735578385611715600184613191565b60ff168151811061172857611728612eef565b6020026020010181815250505b5050505050565b6001600160a01b0382166117635760405163c1ab6dc160e01b815260040160405180910390fd5b604051636eb1769f60e11b815233600482015230602482015281906001600160a01b0384169063dd62ed3e90604401602060405180830381865afa1580156117af573d6000803e3d6000fd5b505050506040513d601f19601f820116820180604052508101906117d391906131cd565b10156117f257604051634fd3af0760e01b815260040160405180910390fd5b6108066001600160a01b0383163330846129d0565b6001600160a01b03831661182e5760405163c1ab6dc160e01b815260040160405180910390fd5b604051636eb1769f60e11b81526001600160a01b03838116600483015230602483015282919085169063dd62ed3e90604401602060405180830381865afa15801561187d573d6000803e3d6000fd5b505050506040513d601f19601f820116820180604052508101906118a191906131cd565b10156118c057604051634fd3af0760e01b815260040160405180910390fd5b6109276001600160a01b0384168330846129d0565b6001600160a01b0383166118fc5760405163c1ab6dc160e01b815260040160405180910390fd5b6001600160a01b03821661192357604051634e46966960e11b815260040160405180910390fd5b6109276001600160a01b0384168383612a3b565b6001600160a01b03841661195e5760405163c1ab6dc160e01b815260040160405180910390fd5b6001600160a01b03821661198557604051634e46966960e11b815260040160405180910390fd5b604051636eb1769f60e11b81526001600160a01b03848116600483015230602483015282919086169063dd62ed3e90604401602060405180830381865afa1580156119d4573d6000803e3d6000fd5b505050506040513d601f19601f820116820180604052508101906119f891906131cd565b1015611a1757604051634fd3af0760e01b815260040160405180910390fd5b611a2c6001600160a01b0385168484846129d0565b50505050565b60006001600160a01b038316611a5b5760405163c1ab6dc160e01b815260040160405180910390fd5b6001600160a01b038216611a8257604051634e46966960e11b815260040160405180910390fd5b6040516370a0823160e01b81523060048201526001600160a01b038416906370a0823190602401602060405180830381865afa158015611ac6573d6000803e3d6000fd5b505050506040513d601f19601f82011682018060405250810190611aea91906131cd565b905061073e6001600160a01b0384168383612a3b565b80471015611b21576040516393116e7160e01b815260040160405180910390fd5b6068546001600160a01b03166001600160a01b031663d0e30db0826040518263ffffffff1660e01b81526004016000604051808303818588803b158015611b6757600080fd5b505af1158015611b7b573d6000803e3d6000fd5b505050505050565b80600003611ba4576040516393116e7160e01b815260040160405180910390fd5b6068546040516370a0823160e01b81523060048201526000916001600160a01b0316906370a0823190602401602060405180830381865afa158015611bed573d6000803e3d6000fd5b505050506040513d601f19601f82011682018060405250810190611c1191906131cd565b905081811015611c345760405163ea920f3760e01b815260040160405180910390fd5b606854604051632e1a7d4d60e01b8152600481018490526001600160a01b0390911690632e1a7d4d90602401600060405180830381600087803b158015611b6757600080fd5b60405163d505accf60e01b81526001600160a01b038681166004830152306024830152604482018890526064820186905260ff8516608483015260a4820184905260c4820183905288169063d505accf9060e401600060405180830381600087803b158015611ce857600080fd5b505af1158015611cfc573d6000803e3d6000fd5b50610a65925050506001600160a01b0388168630896129d0565b60006001600160a01b038416611d3f57604051630306120160e01b815260040160405180910390fd5b604051636e553f6560e01b8152600481018490526001600160a01b038381166024830152851690636e553f65906044015b6020604051808303816000875af1158015611d8f573d6000803e3d6000fd5b505050506040513d601f19601f8201168201806040525081019061105491906131cd565b60006001600160a01b038416611ddc57604051630306120160e01b815260040160405180910390fd5b6040516394bf804d60e01b8152600481018490526001600160a01b0383811660248301528516906394bf804d90604401611d70565b60006001600160a01b038516611e3a57604051630306120160e01b815260040160405180910390fd5b604051635d043b2960e11b8152600481018590526001600160a01b038481166024830152838116604483015286169063ba087652906064015b6020604051808303816000875af1158015611e92573d6000803e3d6000fd5b505050506040513d601f19601f82011682018060405250810190611eb691906131cd565b95945050505050565b604051632d182be560e21b8152600481018490526001600160a01b03838116602483015282811660448301526000919086169063b460af9490606401611e73565b60006001600160a01b038316611f2957604051630306120160e01b815260040160405180910390fd5b6040516363737ac960e11b8152600481018390526001600160a01b0384169063c6e6f592906024015b602060405180830381865afa158015611f6f573d6000803e3d6000fd5b505050506040513d601f19601f82011682018060405250810190611f9391906131cd565b9392505050565b60006001600160a01b038316611fc357604051630306120160e01b815260040160405180910390fd5b6040516303d1689d60e11b8152600481018390526001600160a01b038416906307a2d13a90602401611f52565b805160009081906001600160a01b031661201d57604051632df9739b60e01b815260040160405180910390fd5b60208301516001600160a01b0316612047576040516231010160e51b815260040160405180910390fd5b60008360a0015180602001905181019061206191906131e6565b90508062ffffff1660000361208957604051631b99aa4560e11b815260040160405180910390fd5b6000846040015160018111156120a1576120a1612e8e565b036121ac5783606001519250846001600160a01b03166304e45aaf6040518060e0016040528087600001516001600160a01b0316815260200187602001516001600160a01b031681526020018462ffffff168152602001306001600160a01b031681526020018681526020018760800151815260200160006001600160a01b03168152506040518263ffffffff1660e01b81526004016121419190613203565b6020604051808303816000875af1158015612160573d6000803e3d6000fd5b505050506040513d601f19601f8201168201806040525081019061218491906131cd565b9150816000036121a75760405163081ceff360e41b815260040160405180910390fd5b6122aa565b6001846040015160018111156121c4576121c4612e8e565b036122aa5783608001519150846001600160a01b0316635023b4df6040518060e0016040528087600001516001600160a01b0316815260200187602001516001600160a01b031681526020018462ffffff168152602001306001600160a01b031681526020018581526020018760600151815260200160006001600160a01b03168152506040518263ffffffff1660e01b81526004016122649190613203565b6020604051808303816000875af1158015612283573d6000803e3d6000fd5b505050506040513d601f19601f820116820180604052508101906122a791906131cd565b92505b509250929050565b805160009081906001600160a01b03166122df57604051632df9739b60e01b815260040160405180910390fd5b60208301516001600160a01b0316612309576040516231010160e51b815260040160405180910390fd5b60408051600280825260608201835260009260208301908036833701905050905083600001518160008151811061234257612342612eef565b60200260200101906001600160a01b031690816001600160a01b03168152505083602001518160018151811061237a5761237a612eef565b6001600160a01b03909216602092830291909101909101526000846040015160018111156123aa576123aa612e8e565b036125bb578351606085015160405163095ea7b360e01b81526001600160a01b038881166004830152602482019290925291169063095ea7b3906044016020604051808303816000875af1158015612406573d6000803e3d6000fd5b505050506040513d601f19601f8201168201806040525081019061242a9190612ecd565b612447576040516302e8763f60e31b815260040160405180910390fd5b60808401516000901561245f57506080840151612505565b606085015160405163d06ca61f60e01b81526000916001600160a01b0389169163d06ca61f916124939187906004016132a7565b600060405180830381865afa1580156124b0573d6000803e3d6000fd5b505050506040513d6000823e601f3d908101601f191682016040526124d891908101906132c0565b905080600182516124e99190612eba565b815181106124f9576124f9612eef565b60200260200101519150505b846060015193506000866001600160a01b03166338ed173986848630426040518663ffffffff1660e01b8152600401612542959493929190613366565b6000604051808303816000875af1158015612561573d6000803e3d6000fd5b505050506040513d6000823e601f3d908101601f1916820160405261258991908101906132c0565b9050806001825161259a9190612eba565b815181106125aa576125aa612eef565b6020026020010151935050506127c2565b6001846040015160018111156125d3576125d3612e8e565b036127c2578360800151915060008460600151600003612688576040516307c0329d60e21b81526000906001600160a01b03881690631f00ca749061261e90879087906004016132a7565b600060405180830381865afa15801561263b573d6000803e3d6000fd5b505050506040513d6000823e601f3d908101601f1916820160405261266391908101906132c0565b90508060008151811061267857612678612eef565b602002602001015191505061268f565b5060608401515b845160405163095ea7b360e01b81526001600160a01b038881166004830152602482018490529091169063095ea7b3906044016020604051808303816000875af11580156126e1573d6000803e3d6000fd5b505050506040513d601f19601f820116820180604052508101906127059190612ecd565b612722576040516302e8763f60e31b815260040160405180910390fd5b604051634401edf760e11b81526000906001600160a01b03881690638803dbee906127599087908690889030904290600401613366565b6000604051808303816000875af1158015612778573d6000803e3d6000fd5b505050506040513d6000823e601f3d908101601f191682016040526127a091908101906132c0565b9050806000815181106127b5576127b5612eef565b6020026020010151945050505b816000036122aa5760405163081ceff360e41b815260040160405180910390fd5b805160009081906001600160a01b031661281057604051632df9739b60e01b815260040160405180910390fd5b60208301516001600160a01b031661283a576040516231010160e51b815260040160405180910390fd5b60008360a0015180602001905181019061285491906133a2565b905060008460400151600181111561286e5761286e612e8e565b036129135783606001519250846001600160a01b031663a026383e60405180610100016040528087600001516001600160a01b0316815260200187602001516001600160a01b031681526020018460020b8152602001306001600160a01b031681526020014281526020018681526020018760800151815260200160006001600160a01b03168152506040518263ffffffff1660e01b815260040161214191906133c5565b60018460400151600181111561292b5761292b612e8e565b036122aa5783608001519150846001600160a01b031663c714e83860405180610100016040528087600001516001600160a01b0316815260200187602001516001600160a01b031681526020018460020b8152602001306001600160a01b031681526020014281526020018581526020018760600151815260200160006001600160a01b03168152506040518263ffffffff1660e01b815260040161226491906133c5565b6040516001600160a01b0380851660248301528316604482015260648101829052611a2c9085906323b872dd60e01b906084015b60408051601f198184030181529190526020810180516001600160e01b03166001600160e01b031990931692909217909152612a6b565b6040516001600160a01b03831660248201526044810182905261092790849063a9059cbb60e01b90606401612a04565b6000612ac0826040518060400160405280602081526020017f5361666545524332303a206c6f772d6c6576656c2063616c6c206661696c6564815250856001600160a01b0316612b409092919063ffffffff16565b9050805160001480612ae1575080806020019051810190612ae19190612ecd565b6109275760405162461bcd60e51b815260206004820152602a60248201527f5361666545524332303a204552433230206f7065726174696f6e20646964206e6044820152691bdd081cdd58d8d9595960b21b60648201526084016108a3565b6060611054848460008585600080866001600160a01b03168587604051612b67919061342d565b60006040518083038185875af1925050503d8060008114612ba4576040519150601f19603f3d011682016040523d82523d6000602084013e612ba9565b606091505b5091509150612bba87838387612bc5565b979650505050505050565b60608315612c34578251600003612c2d576001600160a01b0385163b612c2d5760405162461bcd60e51b815260206004820152601d60248201527f416464726573733a2063616c6c20746f206e6f6e2d636f6e747261637400000060448201526064016108a3565b5081611054565b6110548383815115612c495781518083602001fd5b8060405162461bcd60e51b81526004016108a3919061343f565b6001600160a01b0381168114610ac957600080fd5b634e487b7160e01b600052604160045260246000fd5b6040516080810167ffffffffffffffff81118282101715612cb157612cb1612c78565b60405290565b60405160c0810167ffffffffffffffff81118282101715612cb157612cb1612c78565b604051601f8201601f1916810167ffffffffffffffff81118282101715612d0357612d03612c78565b604052919050565b62ffffff81168114610ac957600080fd5b600080600083850360c0811215612d3257600080fd5b8435612d3d81612c63565b93506020850135612d4d81612c63565b92506080603f1982011215612d6157600080fd5b50612d6a612c8e565b604085013560048110612d7c57600080fd5b81526060850135612d8c81612c63565b60208201526080850135612d9f81612d0b565b604082015260a0850135612db281612d0b565b606082015292959194509192509050565b60008060408385031215612dd657600080fd5b8235612de181612c63565b91506020830135612df181612c63565b809150509250929050565b60008060208385031215612e0f57600080fd5b823567ffffffffffffffff80821115612e2757600080fd5b818501915085601f830112612e3b57600080fd5b813581811115612e4a57600080fd5b8660208260051b8501011115612e5f57600080fd5b60209290920196919550909350505050565b600060208284031215612e8357600080fd5b8135611f9381612c63565b634e487b7160e01b600052602160045260246000fd5b634e487b7160e01b600052601160045260246000fd5b8181038181111561073e5761073e612ea4565b600060208284031215612edf57600080fd5b81518015158114611f9357600080fd5b634e487b7160e01b600052603260045260246000fd5b60008235603e19833603018112612f1b57600080fd5b9190910192915050565b6000808335601e19843603018112612f3c57600080fd5b83018035915067ffffffffffffffff821115612f5757600080fd5b602001915036819003821315612f6c57600080fd5b9250929050565b60005b83811015612f8e578181015183820152602001612f76565b50506000910152565b60008151808452612faf816020860160208601612f73565b601f01601f19169290920160200192915050565b8281526040602082015260006110546040830184612f97565b60408101818360005b600281101561300d5781516001600160a01b0316835260209283019290910190600101612fe5565b50505092915050565b6020808252602b908201527f496e697469616c697a61626c653a20636f6e7472616374206973206e6f74206960408201526a6e697469616c697a696e6760a81b606082015260800190565b600082601f83011261307257600080fd5b813567ffffffffffffffff81111561308c5761308c612c78565b61309f601f8201601f1916602001612cda565b8181528460208386010111156130b457600080fd5b816020850160208301376000918101602001919091529392505050565b6000602082840312156130e357600080fd5b813567ffffffffffffffff808211156130fb57600080fd5b9083019060c0828603121561310f57600080fd5b613117612cb7565b823561312281612c63565b8152602083013561313281612c63565b602082015260408301356002811061314957600080fd5b80604083015250606083013560608201526080830135608082015260a08301358281111561317657600080fd5b61318287828601613061565b60a08301525095945050505050565b60ff828116828216039081111561073e5761073e612ea4565b60ff81811683821602908116908181146131c6576131c6612ea4565b5092915050565b6000602082840312156131df57600080fd5b5051919050565b6000602082840312156131f857600080fd5b8151611f9381612d0b565b60e0810161073e828480516001600160a01b03908116835260208083015182169084015260408083015162ffffff16908401526060808301518216908401526080808301519084015260a0828101519084015260c09182015116910152565b60008151808452602080850194506020840160005b8381101561329c5781516001600160a01b031687529582019590820190600101613277565b509495945050505050565b8281526040602082015260006110546040830184613262565b600060208083850312156132d357600080fd5b825167ffffffffffffffff808211156132eb57600080fd5b818501915085601f8301126132ff57600080fd5b81518181111561331157613311612c78565b8060051b9150613322848301612cda565b818152918301840191848101908884111561333c57600080fd5b938501935b8385101561335a57845182529385019390850190613341565b98975050505050505050565b85815284602082015260a06040820152600061338560a0830186613262565b6001600160a01b0394909416606083015250608001529392505050565b6000602082840312156133b457600080fd5b81518060020b8114611f9357600080fd5b610100810161073e828480516001600160a01b03908116835260208083015182169084015260408083015160020b908401526060808301518216908401526080808301519084015260a0828101519084015260c0808301519084015260e09182015116910152565b60008251612f1b818460208701612f73565b602081526000611f936020830184612f9756fea264697066735822122098be6226507fbab590033f69ede0c1529d59277dd3809e7d7a4972e5c44fcc5564736f6c63430008180033",
  "linkReferences": {},
  "deployedLinkReferences": {}
}