{
  "_format": "hh-sol-artifact-1",
  "contractName": "Vault",
  "sourceName": "contracts/core/Vault.sol",
  "abi": [
    {
      "inputs": [],
      "stateMutability": "nonpayable",
      "type": "constructor"
    },
    {
      "inputs": [
        {
          "internalType": "address",
          "name": "sender",
          "type": "address"
        }
      ],
      "name": "ETHTransferNotAllowed",
      "type": "error"
    },
    {
      "inputs": [],
      "name": "FailedAllowance",
      "type": "error"
    },
    {
      "inputs": [],
      "name": "InsufficientWETHBalance",
      "type": "error"
    },
    {
      "inputs": [],
      "name": "InvalidAddress",
      "type": "error"
    },
    {
      "inputs": [],
      "name": "InvalidAsset",
      "type": "error"
    },
    {
      "inputs": [],
      "name": "InvalidAssetsState",
      "type": "error"
    },
    {
      "inputs": [],
      "name": "InvalidDepositAmount",
      "type": "error"
    },
    {
      "inputs": [],
      "name": "InvalidDepositAsset",
      "type": "error"
    },
    {
      "inputs": [],
      "name": "InvalidDivDenominator",
      "type": "error"
    },
    {
      "inputs": [],
      "name": "InvalidMaxLoanToValue",
      "type": "error"
    },
    {
      "inputs": [],
      "name": "InvalidOwner",
      "type": "error"
    },
    {
      "inputs": [],
      "name": "InvalidPercentage",
      "type": "error"
    },
    {
      "inputs": [],
      "name": "InvalidReceiver",
      "type": "error"
    },
    {
      "inputs": [],
      "name": "InvalidShareBalance",
      "type": "error"
    },
    {
      "inputs": [],
      "name": "InvalidValue",
      "type": "error"
    },
    {
      "inputs": [],
      "name": "InvalidWETHAmount",
      "type": "error"
    },
    {
      "inputs": [],
      "name": "InvalidWETHContract",
      "type": "error"
    },
    {
      "inputs": [],
      "name": "InvalidWithdrawAmount",
      "type": "error"
    },
    {
      "inputs": [],
      "name": "MaxDepositReached",
      "type": "error"
    },
    {
      "inputs": [],
      "name": "NoAllowance",
      "type": "error"
    },
    {
      "inputs": [],
      "name": "NoAssetsToWithdraw",
      "type": "error"
    },
    {
      "inputs": [],
      "name": "NoPermissions",
      "type": "error"
    },
    {
      "inputs": [],
      "name": "NotEnoughBalanceToWithdraw",
      "type": "error"
    },
    {
      "inputs": [],
      "name": "WhiteListAlreadyEnabled",
      "type": "error"
    },
    {
      "inputs": [],
      "name": "WhiteListFailedToAdd",
      "type": "error"
    },
    {
      "inputs": [],
      "name": "WhiteListFailedToRemove",
      "type": "error"
    },
    {
      "inputs": [],
      "name": "WhiteListNotEnabled",
      "type": "error"
    },
    {
      "anonymous": false,
      "inputs": [
        {
          "indexed": true,
          "internalType": "address",
          "name": "account",
          "type": "address"
        },
        {
          "indexed": false,
          "internalType": "bool",
          "name": "enabled",
          "type": "bool"
        }
      ],
      "name": "AccountWhiteList",
      "type": "event"
    },
    {
      "anonymous": false,
      "inputs": [
        {
          "indexed": true,
          "internalType": "address",
          "name": "owner",
          "type": "address"
        },
        {
          "indexed": true,
          "internalType": "address",
          "name": "spender",
          "type": "address"
        },
        {
          "indexed": false,
          "internalType": "uint256",
          "name": "value",
          "type": "uint256"
        }
      ],
      "name": "Approval",
      "type": "event"
    },
    {
      "anonymous": false,
      "inputs": [
        {
          "indexed": true,
          "internalType": "address",
          "name": "sender",
          "type": "address"
        },
        {
          "indexed": true,
          "internalType": "address",
          "name": "owner",
          "type": "address"
        },
        {
          "indexed": false,
          "internalType": "uint256",
          "name": "assets",
          "type": "uint256"
        },
        {
          "indexed": false,
          "internalType": "uint256",
          "name": "shares",
          "type": "uint256"
        }
      ],
      "name": "Deposit",
      "type": "event"
    },
    {
      "anonymous": false,
      "inputs": [],
      "name": "EIP712DomainChanged",
      "type": "event"
    },
    {
      "anonymous": false,
      "inputs": [
        {
          "indexed": true,
          "internalType": "address",
          "name": "value",
          "type": "address"
        }
      ],
      "name": "FeeReceiverChanged",
      "type": "event"
    },
    {
      "anonymous": false,
      "inputs": [
        {
          "indexed": false,
          "internalType": "uint8",
          "name": "version",
          "type": "uint8"
        }
      ],
      "name": "Initialized",
      "type": "event"
    },
    {
      "anonymous": false,
      "inputs": [
        {
          "indexed": true,
          "internalType": "uint256",
          "name": "value",
          "type": "uint256"
        }
      ],
      "name": "MaxDepositChanged",
      "type": "event"
    },
    {
      "anonymous": false,
      "inputs": [
        {
          "indexed": true,
          "internalType": "address",
          "name": "previousOwner",
          "type": "address"
        },
        {
          "indexed": true,
          "internalType": "address",
          "name": "newOwner",
          "type": "address"
        }
      ],
      "name": "OwnershipTransferStarted",
      "type": "event"
    },
    {
      "anonymous": false,
      "inputs": [
        {
          "indexed": true,
          "internalType": "address",
          "name": "previousOwner",
          "type": "address"
        },
        {
          "indexed": true,
          "internalType": "address",
          "name": "newOwner",
          "type": "address"
        }
      ],
      "name": "OwnershipTransferred",
      "type": "event"
    },
    {
      "anonymous": false,
      "inputs": [
        {
          "indexed": false,
          "internalType": "address",
          "name": "account",
          "type": "address"
        }
      ],
      "name": "Paused",
      "type": "event"
    },
    {
      "anonymous": false,
      "inputs": [
        {
          "indexed": true,
          "internalType": "uint256",
          "name": "value",
          "type": "uint256"
        }
      ],
      "name": "PerformanceFeeChanged",
      "type": "event"
    },
    {
      "anonymous": false,
      "inputs": [
        {
          "indexed": true,
          "internalType": "bytes32",
          "name": "role",
          "type": "bytes32"
        },
        {
          "indexed": true,
          "internalType": "bytes32",
          "name": "previousAdminRole",
          "type": "bytes32"
        },
        {
          "indexed": true,
          "internalType": "bytes32",
          "name": "newAdminRole",
          "type": "bytes32"
        }
      ],
      "name": "RoleAdminChanged",
      "type": "event"
    },
    {
      "anonymous": false,
      "inputs": [
        {
          "indexed": true,
          "internalType": "bytes32",
          "name": "role",
          "type": "bytes32"
        },
        {
          "indexed": true,
          "internalType": "address",
          "name": "account",
          "type": "address"
        },
        {
          "indexed": true,
          "internalType": "address",
          "name": "sender",
          "type": "address"
        }
      ],
      "name": "RoleGranted",
      "type": "event"
    },
    {
      "anonymous": false,
      "inputs": [
        {
          "indexed": true,
          "internalType": "bytes32",
          "name": "role",
          "type": "bytes32"
        },
        {
          "indexed": true,
          "internalType": "address",
          "name": "account",
          "type": "address"
        },
        {
          "indexed": true,
          "internalType": "address",
          "name": "sender",
          "type": "address"
        }
      ],
      "name": "RoleRevoked",
      "type": "event"
    },
    {
      "anonymous": false,
      "inputs": [
        {
          "indexed": true,
          "internalType": "address",
          "name": "from",
          "type": "address"
        },
        {
          "indexed": true,
          "internalType": "address",
          "name": "to",
          "type": "address"
        },
        {
          "indexed": false,
          "internalType": "uint256",
          "name": "value",
          "type": "uint256"
        }
      ],
      "name": "Transfer",
      "type": "event"
    },
    {
      "anonymous": false,
      "inputs": [
        {
          "indexed": false,
          "internalType": "address",
          "name": "account",
          "type": "address"
        }
      ],
      "name": "Unpaused",
      "type": "event"
    },
    {
      "anonymous": false,
      "inputs": [
        {
          "indexed": true,
          "internalType": "address",
          "name": "sender",
          "type": "address"
        },
        {
          "indexed": true,
          "internalType": "address",
          "name": "receiver",
          "type": "address"
        },
        {
          "indexed": true,
          "internalType": "address",
          "name": "owner",
          "type": "address"
        },
        {
          "indexed": false,
          "internalType": "uint256",
          "name": "assets",
          "type": "uint256"
        },
        {
          "indexed": false,
          "internalType": "uint256",
          "name": "shares",
          "type": "uint256"
        }
      ],
      "name": "Withdraw",
      "type": "event"
    },
    {
      "anonymous": false,
      "inputs": [
        {
          "indexed": true,
          "internalType": "uint256",
          "name": "value",
          "type": "uint256"
        }
      ],
      "name": "WithdrawalFeeChanged",
      "type": "event"
    },
    {
      "inputs": [],
      "name": "DEFAULT_ADMIN_ROLE",
      "outputs": [
        {
          "internalType": "bytes32",
          "name": "",
          "type": "bytes32"
        }
      ],
      "stateMutability": "view",
      "type": "function"
    },
    {
      "inputs": [],
      "name": "DOMAIN_SEPARATOR",
      "outputs": [
        {
          "internalType": "bytes32",
          "name": "",
          "type": "bytes32"
        }
      ],
      "stateMutability": "view",
      "type": "function"
    },
    {
      "inputs": [],
      "name": "PAUSER_ROLE",
      "outputs": [
        {
          "internalType": "bytes32",
          "name": "",
          "type": "bytes32"
        }
      ],
      "stateMutability": "view",
      "type": "function"
    },
    {
      "inputs": [],
      "name": "_initializeVaultSettings",
      "outputs": [],
      "stateMutability": "nonpayable",
      "type": "function"
    },
    {
      "inputs": [],
      "name": "acceptOwnership",
      "outputs": [],
      "stateMutability": "nonpayable",
      "type": "function"
    },
    {
      "inputs": [
        {
          "internalType": "address",
          "name": "owner",
          "type": "address"
        },
        {
          "internalType": "address",
          "name": "spender",
          "type": "address"
        }
      ],
      "name": "allowance",
      "outputs": [
        {
          "internalType": "uint256",
          "name": "",
          "type": "uint256"
        }
      ],
      "stateMutability": "view",
      "type": "function"
    },
    {
      "inputs": [
        {
          "internalType": "address",
          "name": "spender",
          "type": "address"
        },
        {
          "internalType": "uint256",
          "name": "amount",
          "type": "uint256"
        }
      ],
      "name": "approve",
      "outputs": [
        {
          "internalType": "bool",
          "name": "",
          "type": "bool"
        }
      ],
      "stateMutability": "nonpayable",
      "type": "function"
    },
    {
      "inputs": [],
      "name": "asset",
      "outputs": [
        {
          "internalType": "address",
          "name": "",
          "type": "address"
        }
      ],
      "stateMutability": "view",
      "type": "function"
    },
    {
      "inputs": [
        {
          "internalType": "address",
          "name": "account",
          "type": "address"
        }
      ],
      "name": "balanceOf",
      "outputs": [
        {
          "internalType": "uint256",
          "name": "",
          "type": "uint256"
        }
      ],
      "stateMutability": "view",
      "type": "function"
    },
    {
      "inputs": [
        {
          "internalType": "uint256",
          "name": "shares",
          "type": "uint256"
        }
      ],
      "name": "convertToAssets",
      "outputs": [
        {
          "internalType": "uint256",
          "name": "assets",
          "type": "uint256"
        }
      ],
      "stateMutability": "view",
      "type": "function"
    },
    {
      "inputs": [
        {
          "internalType": "uint256",
          "name": "assets",
          "type": "uint256"
        }
      ],
      "name": "convertToShares",
      "outputs": [
        {
          "internalType": "uint256",
          "name": "shares",
          "type": "uint256"
        }
      ],
      "stateMutability": "view",
      "type": "function"
    },
    {
      "inputs": [],
      "name": "decimals",
      "outputs": [
        {
          "internalType": "uint8",
          "name": "",
          "type": "uint8"
        }
      ],
      "stateMutability": "view",
      "type": "function"
    },
    {
      "inputs": [
        {
          "internalType": "address",
          "name": "spender",
          "type": "address"
        },
        {
          "internalType": "uint256",
          "name": "subtractedValue",
          "type": "uint256"
        }
      ],
      "name": "decreaseAllowance",
      "outputs": [
        {
          "internalType": "bool",
          "name": "",
          "type": "bool"
        }
      ],
      "stateMutability": "nonpayable",
      "type": "function"
    },
    {
      "inputs": [
        {
          "internalType": "uint256",
          "name": "assets",
          "type": "uint256"
        },
        {
          "internalType": "address",
          "name": "receiver",
          "type": "address"
        }
      ],
      "name": "deposit",
      "outputs": [
        {
          "internalType": "uint256",
          "name": "shares",
          "type": "uint256"
        }
      ],
      "stateMutability": "nonpayable",
      "type": "function"
    },
    {
      "inputs": [
        {
          "internalType": "address",
          "name": "receiver",
          "type": "address"
        }
      ],
      "name": "depositNative",
      "outputs": [
        {
          "internalType": "uint256",
          "name": "shares",
          "type": "uint256"
        }
      ],
      "stateMutability": "payable",
      "type": "function"
    },
    {
      "inputs": [],
      "name": "eip712Domain",
      "outputs": [
        {
          "internalType": "bytes1",
          "name": "fields",
          "type": "bytes1"
        },
        {
          "internalType": "string",
          "name": "name",
          "type": "string"
        },
        {
          "internalType": "string",
          "name": "version",
          "type": "string"
        },
        {
          "internalType": "uint256",
          "name": "chainId",
          "type": "uint256"
        },
        {
          "internalType": "address",
          "name": "verifyingContract",
          "type": "address"
        },
        {
          "internalType": "bytes32",
          "name": "salt",
          "type": "bytes32"
        },
        {
          "internalType": "uint256[]",
          "name": "extensions",
          "type": "uint256[]"
        }
      ],
      "stateMutability": "view",
      "type": "function"
    },
    {
      "inputs": [
        {
          "internalType": "address",
          "name": "account",
          "type": "address"
        },
        {
          "internalType": "bool",
          "name": "enabled",
          "type": "bool"
        }
      ],
      "name": "enableAccount",
      "outputs": [],
      "stateMutability": "nonpayable",
      "type": "function"
    },
    {
      "inputs": [],
      "name": "getFeeReceiver",
      "outputs": [
        {
          "internalType": "address",
          "name": "",
          "type": "address"
        }
      ],
      "stateMutability": "view",
      "type": "function"
    },
    {
      "inputs": [],
      "name": "getMaxDeposit",
      "outputs": [
        {
          "internalType": "uint256",
          "name": "",
          "type": "uint256"
        }
      ],
      "stateMutability": "view",
      "type": "function"
    },
    {
      "inputs": [],
      "name": "getPerformanceFee",
      "outputs": [
        {
          "internalType": "uint256",
          "name": "",
          "type": "uint256"
        }
      ],
      "stateMutability": "view",
      "type": "function"
    },
    {
      "inputs": [
        {
          "internalType": "bytes32",
          "name": "role",
          "type": "bytes32"
        }
      ],
      "name": "getRoleAdmin",
      "outputs": [
        {
          "internalType": "bytes32",
          "name": "",
          "type": "bytes32"
        }
      ],
      "stateMutability": "view",
      "type": "function"
    },
    {
      "inputs": [],
      "name": "getWithdrawalFee",
      "outputs": [
        {
          "internalType": "uint256",
          "name": "",
          "type": "uint256"
        }
      ],
      "stateMutability": "view",
      "type": "function"
    },
    {
      "inputs": [
        {
          "internalType": "bytes32",
          "name": "role",
          "type": "bytes32"
        },
        {
          "internalType": "address",
          "name": "account",
          "type": "address"
        }
      ],
      "name": "grantRole",
      "outputs": [],
      "stateMutability": "nonpayable",
      "type": "function"
    },
    {
      "inputs": [
        {
          "internalType": "bytes32",
          "name": "role",
          "type": "bytes32"
        },
        {
          "internalType": "address",
          "name": "account",
          "type": "address"
        }
      ],
      "name": "hasRole",
      "outputs": [
        {
          "internalType": "bool",
          "name": "",
          "type": "bool"
        }
      ],
      "stateMutability": "view",
      "type": "function"
    },
    {
      "inputs": [
        {
          "internalType": "address",
          "name": "spender",
          "type": "address"
        },
        {
          "internalType": "uint256",
          "name": "addedValue",
          "type": "uint256"
        }
      ],
      "name": "increaseAllowance",
      "outputs": [
        {
          "internalType": "bool",
          "name": "",
          "type": "bool"
        }
      ],
      "stateMutability": "nonpayable",
      "type": "function"
    },
    {
      "inputs": [
        {
          "internalType": "address",
          "name": "initialOwner",
          "type": "address"
        },
        {
          "internalType": "string",
          "name": "tokenName",
          "type": "string"
        },
        {
          "internalType": "string",
          "name": "tokenSymbol",
          "type": "string"
        },
        {
          "internalType": "address",
          "name": "iAsset",
          "type": "address"
        },
        {
          "internalType": "contract IStrategy",
          "name": "strategy",
          "type": "address"
        },
        {
          "internalType": "address",
          "name": "weth",
          "type": "address"
        }
      ],
      "name": "initialize",
      "outputs": [],
      "stateMutability": "nonpayable",
      "type": "function"
    },
    {
      "inputs": [
        {
          "internalType": "address",
          "name": "account",
          "type": "address"
        }
      ],
      "name": "isAccountEnabled",
      "outputs": [
        {
          "internalType": "bool",
          "name": "",
          "type": "bool"
        }
      ],
      "stateMutability": "view",
      "type": "function"
    },
    {
      "inputs": [
        {
          "internalType": "address",
          "name": "",
          "type": "address"
        }
      ],
      "name": "maxDeposit",
      "outputs": [
        {
          "internalType": "uint256",
          "name": "maxAssets",
          "type": "uint256"
        }
      ],
      "stateMutability": "pure",
      "type": "function"
    },
    {
      "inputs": [
        {
          "internalType": "address",
          "name": "",
          "type": "address"
        }
      ],
      "name": "maxMint",
      "outputs": [
        {
          "internalType": "uint256",
          "name": "maxShares",
          "type": "uint256"
        }
      ],
      "stateMutability": "pure",
      "type": "function"
    },
    {
      "inputs": [
        {
          "internalType": "address",
          "name": "shareHolder",
          "type": "address"
        }
      ],
      "name": "maxRedeem",
      "outputs": [
        {
          "internalType": "uint256",
          "name": "maxShares",
          "type": "uint256"
        }
      ],
      "stateMutability": "view",
      "type": "function"
    },
    {
      "inputs": [
        {
          "internalType": "address",
          "name": "shareHolder",
          "type": "address"
        }
      ],
      "name": "maxWithdraw",
      "outputs": [
        {
          "internalType": "uint256",
          "name": "maxAssets",
          "type": "uint256"
        }
      ],
      "stateMutability": "view",
      "type": "function"
    },
    {
      "inputs": [
        {
          "internalType": "uint256",
          "name": "shares",
          "type": "uint256"
        },
        {
          "internalType": "address",
          "name": "receiver",
          "type": "address"
        }
      ],
      "name": "mint",
      "outputs": [
        {
          "internalType": "uint256",
          "name": "assets",
          "type": "uint256"
        }
      ],
      "stateMutability": "nonpayable",
      "type": "function"
    },
    {
      "inputs": [],
      "name": "name",
      "outputs": [
        {
          "internalType": "string",
          "name": "",
          "type": "string"
        }
      ],
      "stateMutability": "view",
      "type": "function"
    },
    {
      "inputs": [
        {
          "internalType": "address",
          "name": "owner",
          "type": "address"
        }
      ],
      "name": "nonces",
      "outputs": [
        {
          "internalType": "uint256",
          "name": "",
          "type": "uint256"
        }
      ],
      "stateMutability": "view",
      "type": "function"
    },
    {
      "inputs": [],
      "name": "owner",
      "outputs": [
        {
          "internalType": "address",
          "name": "",
          "type": "address"
        }
      ],
      "stateMutability": "view",
      "type": "function"
    },
    {
      "inputs": [],
      "name": "pause",
      "outputs": [],
      "stateMutability": "nonpayable",
      "type": "function"
    },
    {
      "inputs": [],
      "name": "paused",
      "outputs": [
        {
          "internalType": "bool",
          "name": "",
          "type": "bool"
        }
      ],
      "stateMutability": "view",
      "type": "function"
    },
    {
      "inputs": [],
      "name": "pendingOwner",
      "outputs": [
        {
          "internalType": "address",
          "name": "",
          "type": "address"
        }
      ],
      "stateMutability": "view",
      "type": "function"
    },
    {
      "inputs": [
        {
          "internalType": "address",
          "name": "owner",
          "type": "address"
        },
        {
          "internalType": "address",
          "name": "spender",
          "type": "address"
        },
        {
          "internalType": "uint256",
          "name": "value",
          "type": "uint256"
        },
        {
          "internalType": "uint256",
          "name": "deadline",
          "type": "uint256"
        },
        {
          "internalType": "uint8",
          "name": "v",
          "type": "uint8"
        },
        {
          "internalType": "bytes32",
          "name": "r",
          "type": "bytes32"
        },
        {
          "internalType": "bytes32",
          "name": "s",
          "type": "bytes32"
        }
      ],
      "name": "permit",
      "outputs": [],
      "stateMutability": "nonpayable",
      "type": "function"
    },
    {
      "inputs": [
        {
          "internalType": "uint256",
          "name": "assets",
          "type": "uint256"
        }
      ],
      "name": "previewDeposit",
      "outputs": [
        {
          "internalType": "uint256",
          "name": "shares",
          "type": "uint256"
        }
      ],
      "stateMutability": "view",
      "type": "function"
    },
    {
      "inputs": [
        {
          "internalType": "uint256",
          "name": "shares",
          "type": "uint256"
        }
      ],
      "name": "previewMint",
      "outputs": [
        {
          "internalType": "uint256",
          "name": "assets",
          "type": "uint256"
        }
      ],
      "stateMutability": "view",
      "type": "function"
    },
    {
      "inputs": [
        {
          "internalType": "uint256",
          "name": "shares",
          "type": "uint256"
        }
      ],
      "name": "previewRedeem",
      "outputs": [
        {
          "internalType": "uint256",
          "name": "assets",
          "type": "uint256"
        }
      ],
      "stateMutability": "view",
      "type": "function"
    },
    {
      "inputs": [
        {
          "internalType": "uint256",
          "name": "assets",
          "type": "uint256"
        }
      ],
      "name": "previewWithdraw",
      "outputs": [
        {
          "internalType": "uint256",
          "name": "shares",
          "type": "uint256"
        }
      ],
      "stateMutability": "view",
      "type": "function"
    },
    {
      "inputs": [],
      "name": "rebalance",
      "outputs": [
        {
          "internalType": "int256",
          "name": "balanceChange",
          "type": "int256"
        }
      ],
      "stateMutability": "nonpayable",
      "type": "function"
    },
    {
      "inputs": [
        {
          "internalType": "uint256",
          "name": "shares",
          "type": "uint256"
        },
        {
          "internalType": "address",
          "name": "receiver",
          "type": "address"
        },
        {
          "internalType": "address",
          "name": "holder",
          "type": "address"
        }
      ],
      "name": "redeem",
      "outputs": [
        {
          "internalType": "uint256",
          "name": "retAmount",
          "type": "uint256"
        }
      ],
      "stateMutability": "nonpayable",
      "type": "function"
    },
    {
      "inputs": [
        {
          "internalType": "uint256",
          "name": "shares",
          "type": "uint256"
        }
      ],
      "name": "redeemNative",
      "outputs": [
        {
          "internalType": "uint256",
          "name": "assets",
          "type": "uint256"
        }
      ],
      "stateMutability": "nonpayable",
      "type": "function"
    },
    {
      "inputs": [],
      "name": "renounceOwnership",
      "outputs": [],
      "stateMutability": "nonpayable",
      "type": "function"
    },
    {
      "inputs": [
        {
          "internalType": "bytes32",
          "name": "role",
          "type": "bytes32"
        },
        {
          "internalType": "address",
          "name": "account",
          "type": "address"
        }
      ],
      "name": "renounceRole",
      "outputs": [],
      "stateMutability": "nonpayable",
      "type": "function"
    },
    {
      "inputs": [
        {
          "internalType": "bytes32",
          "name": "role",
          "type": "bytes32"
        },
        {
          "internalType": "address",
          "name": "account",
          "type": "address"
        }
      ],
      "name": "revokeRole",
      "outputs": [],
      "stateMutability": "nonpayable",
      "type": "function"
    },
    {
      "inputs": [
        {
          "internalType": "address",
          "name": "receiver",
          "type": "address"
        }
      ],
      "name": "setFeeReceiver",
      "outputs": [],
      "stateMutability": "nonpayable",
      "type": "function"
    },
    {
      "inputs": [
        {
          "internalType": "uint256",
          "name": "value",
          "type": "uint256"
        }
      ],
      "name": "setMaxDeposit",
      "outputs": [],
      "stateMutability": "nonpayable",
      "type": "function"
    },
    {
      "inputs": [
        {
          "internalType": "uint256",
          "name": "fee",
          "type": "uint256"
        }
      ],
      "name": "setPerformanceFee",
      "outputs": [],
      "stateMutability": "nonpayable",
      "type": "function"
    },
    {
      "inputs": [
        {
          "internalType": "uint256",
          "name": "fee",
          "type": "uint256"
        }
      ],
      "name": "setWithdrawalFee",
      "outputs": [],
      "stateMutability": "nonpayable",
      "type": "function"
    },
    {
      "inputs": [
        {
          "internalType": "bytes4",
          "name": "interfaceId",
          "type": "bytes4"
        }
      ],
      "name": "supportsInterface",
      "outputs": [
        {
          "internalType": "bool",
          "name": "",
          "type": "bool"
        }
      ],
      "stateMutability": "view",
      "type": "function"
    },
    {
      "inputs": [],
      "name": "symbol",
      "outputs": [
        {
          "internalType": "string",
          "name": "",
          "type": "string"
        }
      ],
      "stateMutability": "view",
      "type": "function"
    },
    {
      "inputs": [],
      "name": "tokenPerAsset",
      "outputs": [
        {
          "internalType": "uint256",
          "name": "",
          "type": "uint256"
        }
      ],
      "stateMutability": "view",
      "type": "function"
    },
    {
      "inputs": [],
      "name": "totalAssets",
      "outputs": [
        {
          "internalType": "uint256",
          "name": "amount",
          "type": "uint256"
        }
      ],
      "stateMutability": "view",
      "type": "function"
    },
    {
      "inputs": [],
      "name": "totalSupply",
      "outputs": [
        {
          "internalType": "uint256",
          "name": "",
          "type": "uint256"
        }
      ],
      "stateMutability": "view",
      "type": "function"
    },
    {
      "inputs": [
        {
          "internalType": "address",
          "name": "to",
          "type": "address"
        },
        {
          "internalType": "uint256",
          "name": "amount",
          "type": "uint256"
        }
      ],
      "name": "transfer",
      "outputs": [
        {
          "internalType": "bool",
          "name": "",
          "type": "bool"
        }
      ],
      "stateMutability": "nonpayable",
      "type": "function"
    },
    {
      "inputs": [
        {
          "internalType": "address",
          "name": "from",
          "type": "address"
        },
        {
          "internalType": "address",
          "name": "to",
          "type": "address"
        },
        {
          "internalType": "uint256",
          "name": "amount",
          "type": "uint256"
        }
      ],
      "name": "transferFrom",
      "outputs": [
        {
          "internalType": "bool",
          "name": "",
          "type": "bool"
        }
      ],
      "stateMutability": "nonpayable",
      "type": "function"
    },
    {
      "inputs": [
        {
          "internalType": "address",
          "name": "newOwner",
          "type": "address"
        }
      ],
      "name": "transferOwnership",
      "outputs": [],
      "stateMutability": "nonpayable",
      "type": "function"
    },
    {
      "inputs": [],
      "name": "unpause",
      "outputs": [],
      "stateMutability": "nonpayable",
      "type": "function"
    },
    {
      "inputs": [
        {
          "internalType": "uint256",
          "name": "assets",
          "type": "uint256"
        },
        {
          "internalType": "address",
          "name": "receiver",
          "type": "address"
        },
        {
          "internalType": "address",
          "name": "holder",
          "type": "address"
        }
      ],
      "name": "withdraw",
      "outputs": [
        {
          "internalType": "uint256",
          "name": "shares",
          "type": "uint256"
        }
      ],
      "stateMutability": "nonpayable",
      "type": "function"
    },
    {
      "inputs": [
        {
          "internalType": "uint256",
          "name": "assets",
          "type": "uint256"
        }
      ],
      "name": "withdrawNative",
      "outputs": [
        {
          "internalType": "uint256",
          "name": "shares",
          "type": "uint256"
        }
      ],
      "stateMutability": "nonpayable",
      "type": "function"
    },
    {
      "stateMutability": "payable",
      "type": "receive"
    }
  ],
  "bytecode": "0x60806040523480156200001157600080fd5b506200001c6200002c565b620000266200002c565b620000ed565b600054610100900460ff1615620000995760405162461bcd60e51b815260206004820152602760248201527f496e697469616c697a61626c653a20636f6e747261637420697320696e697469604482015266616c697a696e6760c81b606482015260840160405180910390fd5b60005460ff90811614620000eb576000805460ff191660ff9081179091556040519081527f7f26b83ff96e1f2b6a682f133852f6798a09c465da95921460cefb38474024989060200160405180910390a15b565b6147f880620000fd6000396000f3fe6080604052600436106103c75760003560e01c806384b0196e116101f2578063c63d75b61161010d578063db8d8fc6116100a0578063e8a353921161006f578063e8a3539214610af2578063ef8b30f7146104c0578063efdcd97414610b11578063f2fde38b14610b3157600080fd5b8063db8d8fc614610a72578063dd62ed3e14610a92578063e30c397814610ab2578063e63ab1e914610ad057600080fd5b8063d505accf116100dc578063d505accf146109fc578063d547741f14610a1c578063d8e159f814610a3c578063d905777e14610a5257600080fd5b8063c63d75b614610648578063c6e6f592146109a7578063cd435cdd146109c7578063ce96cb77146109dc57600080fd5b8063a4dbc6a811610185578063b460af9411610154578063b460af9414610927578063b8b359cc14610947578063ba08765214610967578063bb371fdd1461098757600080fd5b8063a4dbc6a8146108d1578063a9059cbb146108e7578063ac1e502514610907578063b3d7f6b91461068a57600080fd5b806394bf804d116101c157806394bf804d1461086757806395d89b4114610887578063a217fddf1461089c578063a457c2d7146108b157600080fd5b806384b0196e146107e15780638645e84b146108095780638da5cb5b1461082957806391d148541461084757600080fd5b806339509351116102e257806370897b23116102755780637d7c2a1c116102445780637d7c2a1c146107775780637ecebe001461078c57806384276d81146107ac5780638456cb59146107cc57600080fd5b806370897b23146106f757806370a0823114610717578063715018a61461074d57806379ba50971461076257600080fd5b80634cdad506116102b15780634cdad5061461068a5780635c975abb146106aa57806363e334a7146106c25780636e553f65146106d757600080fd5b806339509351146106135780633f4ba83a14610633578063402d267d146106485780634bf03edf1461066a57600080fd5b806323b872dd1161035a57806333bb7f911161032957806333bb7f91146105985780633644e515146105ab57806336568abe146105c057806338d52e0f146105e057600080fd5b806323b872dd1461050b578063248a9ca31461052b5780632f2ff15d1461055c578063313ce5671461057c57600080fd5b8063095ea7b311610396578063095ea7b3146104a05780630a28a477146104c057806318160ddd146104e0578063235c3603146104f557600080fd5b806301e1d1141461040657806301ffc9a71461042e57806306fdde031461045e57806307a2d13a1461048057600080fd5b36610401576101cc546001600160a01b031633146103ff576040516312a017cd60e11b81523360048201526024015b60405180910390fd5b005b600080fd5b34801561041257600080fd5b5061041b610b51565b6040519081526020015b60405180910390f35b34801561043a57600080fd5b5061044e610449366004613fdc565b610bc4565b6040519015158152602001610425565b34801561046a57600080fd5b50610473610bfb565b6040516104259190614056565b34801561048c57600080fd5b5061041b61049b366004614069565b610c8d565b3480156104ac57600080fd5b5061044e6104bb366004614097565b610cc8565b3480156104cc57600080fd5b5061041b6104db366004614069565b610ce0565b3480156104ec57600080fd5b5060fd5461041b565b34801561050157600080fd5b506101955461041b565b34801561051757600080fd5b5061044e6105263660046140c3565b610d44565b34801561053757600080fd5b5061041b610546366004614069565b60009081526101ff602052604090206001015490565b34801561056857600080fd5b506103ff610577366004614104565b610d68565b34801561058857600080fd5b5060405160128152602001610425565b61041b6105a6366004614134565b610d93565b3480156105b757600080fd5b5061041b610e8b565b3480156105cc57600080fd5b506103ff6105db366004614104565b610e95565b3480156105ec57600080fd5b50610232546001600160a01b03165b6040516001600160a01b039091168152602001610425565b34801561061f57600080fd5b5061044e61062e366004614097565b610f13565b34801561063f57600080fd5b506103ff610f35565b34801561065457600080fd5b5061041b610663366004614134565b5060001990565b34801561067657600080fd5b5061041b610685366004614069565b610f58565b34801561069657600080fd5b5061041b6106a5366004614069565b610fcf565b3480156106b657600080fd5b5060975460ff1661044e565b3480156106ce57600080fd5b5061041b610ff6565b3480156106e357600080fd5b5061041b6106f2366004614104565b611057565b34801561070357600080fd5b506103ff610712366004614069565b6110de565b34801561072357600080fd5b5061041b610732366004614134565b6001600160a01b0316600090815260fb602052604090205490565b34801561075957600080fd5b506103ff61113e565b34801561076e57600080fd5b506103ff611152565b34801561078357600080fd5b5061041b6111c9565b34801561079857600080fd5b5061041b6107a7366004614134565b61132c565b3480156107b857600080fd5b5061041b6107c7366004614069565b61134b565b3480156107d857600080fd5b506103ff61142f565b3480156107ed57600080fd5b506107f661144f565b6040516104259796959493929190614151565b34801561081557600080fd5b506103ff6108243660046141f8565b6114ef565b34801561083557600080fd5b506033546001600160a01b03166105fb565b34801561085357600080fd5b5061044e610862366004614104565b6115f0565b34801561087357600080fd5b5061041b610882366004614104565b61161c565b34801561089357600080fd5b50610473611705565b3480156108a857600080fd5b5061041b600081565b3480156108bd57600080fd5b5061044e6108cc366004614097565b611714565b3480156108dd57600080fd5b506101995461041b565b3480156108f357600080fd5b5061044e610902366004614097565b61178f565b34801561091357600080fd5b506103ff610922366004614069565b61179d565b34801561093357600080fd5b5061041b610942366004614226565b6117fd565b34801561095357600080fd5b5061044e610962366004614134565b6118af565b34801561097357600080fd5b5061041b610982366004614226565b6118cf565b34801561099357600080fd5b506103ff6109a2366004614069565b611913565b3480156109b357600080fd5b5061041b6109c2366004614069565b61194f565b3480156109d357600080fd5b506103ff611983565b3480156109e857600080fd5b5061041b6109f7366004614134565b6119d1565b348015610a0857600080fd5b506103ff610a17366004614268565b611a16565b348015610a2857600080fd5b506103ff610a37366004614104565b611b7a565b348015610a4857600080fd5b506101945461041b565b348015610a5e57600080fd5b5061041b610a6d366004614134565b611ba0565b348015610a7e57600080fd5b506103ff610a8d366004614328565b611bbe565b348015610a9e57600080fd5b5061041b610aad3660046143e3565b611ed9565b348015610abe57600080fd5b506065546001600160a01b03166105fb565b348015610adc57600080fd5b5061041b6000805160206147a383398151915281565b348015610afe57600080fd5b50610196546001600160a01b03166105fb565b348015610b1d57600080fd5b506103ff610b2c366004614134565b611f04565b348015610b3d57600080fd5b506103ff610b4c366004614134565b611f7e565b61023154604080516278744560e21b815290516000926001600160a01b0316916301e1d1149160048083019260209291908290030181865afa158015610b9b573d6000803e3d6000fd5b505050506040513d601f19601f82011682018060405250810190610bbf9190614411565b905090565b60006001600160e01b03198216637965db0b60e01b1480610bf557506301ffc9a760e01b6001600160e01b03198316145b92915050565b606060fe8054610c0a9061442a565b80601f0160208091040260200160405190810160405280929190818152602001828054610c369061442a565b8015610c835780601f10610c5857610100808354040283529160200191610c83565b820191906000526020600020905b815481529060010190602001808311610c6657829003601f168201915b5050505050905090565b6000806040518060400160405280610ca3610b51565b8152602001610cb160fd5490565b90529050610cc181846000611fef565b9392505050565b600033610cd6818585612061565b5060019392505050565b6040516363737ac960e11b815260048101829052600090309063c6e6f592906024015b602060405180830381865afa158015610d20573d6000803e3d6000fd5b505050506040513d601f19601f82011682018060405250810190610bf59190614411565b600033610d52858285612185565b610d5d8585856121ff565b506001949350505050565b60008281526101ff6020526040902060010154610d84816123aa565b610d8e83836123b4565b505050565b6000610d9d61243b565b610da5612494565b610dae336118af565b610dca57604051621cf80b60e71b815260040160405180910390fd5b34600003610deb5760405163fe9ba5cd60e01b815260040160405180910390fd5b6101cc54610232546001600160a01b03908116911614610e1e57604051639ec4017360e01b815260040160405180910390fd5b6040805160048152602481019091526020810180516001600160e01b0316630d0e30db60e41b179052610e6f9034610e5f6101cc546001600160a01b031690565b6001600160a01b031691906124da565b50610e7a3483612508565b9050610e86600160c955565b919050565b6000610bbf61274c565b6001600160a01b0381163314610f055760405162461bcd60e51b815260206004820152602f60248201527f416363657373436f6e74726f6c3a2063616e206f6e6c792072656e6f756e636560448201526e103937b632b9903337b91039b2b63360891b60648201526084016103f6565b610f0f8282612756565b5050565b600033610cd6818585610f268383611ed9565b610f309190614474565b612061565b6000805160206147a3833981519152610f4d816123aa565b610f556127be565b50565b6000610f6261243b565b610f6a612494565b610f73336118af565b610f8f57604051621cf80b60e71b815260040160405180910390fd5b6101cc54610232546001600160a01b03908116911614610fc257604051639ec4017360e01b815260040160405180910390fd5b610e7a8233336001612810565b6040516303d1689d60e11b81526004810182905260009030906307a2d13a90602401610d03565b600080611001610b51565b905061100c60fd5490565b1580611016575080155b1561102a57670de0b6b3a764000091505090565b80670de0b6b3a764000061103d60fd5490565b6110479190614487565b611051919061449e565b91505090565b600061106161243b565b611069612494565b611072336118af565b61108e57604051621cf80b60e71b815260040160405180910390fd5b826000036110af5760405163fe9ba5cd60e01b815260040160405180910390fd5b610232546110c8906001600160a01b0316333086612cde565b6110d28383612508565b9050610bf5600160c955565b6110e6612d49565b633b9aca00811061110a57604051631f3b85d360e01b815260040160405180910390fd5b61019581905560405181907ff150d916e598956cbb01367e89d0d59fc910f13bea1441c4b2040ff89b7615bf90600090a250565b611146612d49565b6111506000612da3565b565b60655433906001600160a01b031681146111c05760405162461bcd60e51b815260206004820152602960248201527f4f776e61626c6532537465703a2063616c6c6572206973206e6f7420746865206044820152683732bb9037bbb732b960b91b60648201526084016103f6565b610f5581612da3565b60006111d361243b565b6111db612494565b60006111e5610b51565b9050806000036111f957600091505061131f565b61023160009054906101000a90046001600160a01b03166001600160a01b0316634641257d6040518163ffffffff1660e01b81526004016020604051808303816000875af115801561124f573d6000803e3d6000fd5b505050506040513d601f19601f820116820180604052508101906112739190614411565b915060008213611283575061131f565b6000611298610196546001600160a01b031690565b905060006112a66101955490565b90506001600160a01b03821630148015906112c957506001600160a01b03821615155b80156112d55750600081115b1561131b5760006112e68286614487565b9050600061130c6112f660fd5490565b611304633b9aca0088614487565b849190612dbc565b90506113188482612e2f565b50505b5050505b611329600160c955565b90565b6001600160a01b03811660009081526101616020526040812054610bf5565b600061135561243b565b61135d612494565b611366336118af565b61138257604051621cf80b60e71b815260040160405180910390fd5b6101cc54610232546001600160a01b039081169116146113b557604051639ec4017360e01b815260040160405180910390fd5b6040516363737ac960e11b815260048101839052309063c6e6f59290602401602060405180830381865afa1580156113f1573d6000803e3d6000fd5b505050506040513d601f19601f820116820180604052508101906114159190614411565b90506114248133336001612810565b50610e86600160c955565b6000805160206147a3833981519152611447816123aa565b610f55612ef0565b60006060806000806000606061012d546000801b148015611471575061012e54155b6114b55760405162461bcd60e51b81526020600482015260156024820152741152540dcc4c8e88155b9a5b9a5d1a585b1a5e9959605a1b60448201526064016103f6565b6114bd612f2d565b6114c5612f3d565b60408051600080825260208201909252600f60f81b9b939a50919850469750309650945092509050565b6114f7612d49565b80156115555761150961019783612f4d565b156115275760405163f0de760960e01b815260040160405180910390fd5b61153361019783612f6f565b61155057604051634d42d83760e01b815260040160405180910390fd5b6115a7565b61156161019783612f4d565b61157e5760405163df7f799b60e01b815260040160405180910390fd5b61158a61019783612f84565b6115a757604051631c9b290760e11b815260040160405180910390fd5b816001600160a01b03167f78de0ca54bde2d97cdf93a275dfd5a966a9960011162ee36171985c5928ef462826040516115e4911515815260200190565b60405180910390a25050565b60009182526101ff602090815260408084206001600160a01b0393909316845291905290205460ff1690565b600061162661243b565b61162e612494565b611637336118af565b61165357604051621cf80b60e71b815260040160405180910390fd5b826000036116745760405163fe9ba5cd60e01b815260040160405180910390fd5b6040516303d1689d60e11b81526004810184905230906307a2d13a90602401602060405180830381865afa1580156116b0573d6000803e3d6000fd5b505050506040513d601f19601f820116820180604052508101906116d49190614411565b610232549091506116f0906001600160a01b0316333084612cde565b6116fa8183612508565b50610bf5600160c955565b606060ff8054610c0a9061442a565b600033816117228286611ed9565b9050838110156117825760405162461bcd60e51b815260206004820152602560248201527f45524332303a2064656372656173656420616c6c6f77616e63652062656c6f77604482015264207a65726f60d81b60648201526084016103f6565b610d5d8286868403612061565b600033610cd68185856121ff565b6117a5612d49565b633b9aca0081106117c957604051631f3b85d360e01b815260040160405180910390fd5b61019481905560405181907ffc1353e6b18ce07b5a979c8edf77a87455939a17a9eebbb084dcde5bfb3b19ac90600090a250565b600061180761243b565b61180f612494565b611818336118af565b61183457604051621cf80b60e71b815260040160405180910390fd5b6040516363737ac960e11b815260048101859052309063c6e6f59290602401602060405180830381865afa158015611870573d6000803e3d6000fd5b505050506040513d601f19601f820116820180604052508101906118949190614411565b90506118a38184846000612810565b9050610cc1600160c955565b60006118bc610197612f99565b1580610bf55750610bf561019783612f4d565b60006118d961243b565b6118e2336118af565b6118fe57604051621cf80b60e71b815260040160405180910390fd5b611906612494565b6118a38484846000612810565b61191b612d49565b61019981905560405181907f99bada54b2a917867d043b855b7725d9ecfca8069e0f793345b940f1b4f9890e90600090a250565b6000806040518060400160405280611965610b51565b815260200161197360fd5490565b90529050610cc181846000612fa3565b600054610100900460ff166119aa5760405162461bcd60e51b81526004016103f6906144d6565b629896806101948190556101955561019680546001600160a01b0319169055600061019955565b6000306307a2d13a6119f8846001600160a01b0316600090815260fb602052604090205490565b6040518263ffffffff1660e01b8152600401610d0391815260200190565b83421115611a665760405162461bcd60e51b815260206004820152601d60248201527f45524332305065726d69743a206578706972656420646561646c696e6500000060448201526064016103f6565b60007f6e71edae12b1b97f4d1f60370fef10105fa2faae0126114a169c64845d6126c9888888611a958c612ffb565b6040805160208101969096526001600160a01b0394851690860152929091166060840152608083015260a082015260c0810186905260e0016040516020818303038152906040528051906020012090506000611af082613024565b90506000611b0082878787613051565b9050896001600160a01b0316816001600160a01b031614611b635760405162461bcd60e51b815260206004820152601e60248201527f45524332305065726d69743a20696e76616c6964207369676e6174757265000060448201526064016103f6565b611b6e8a8a8a612061565b50505050505050505050565b60008281526101ff6020526040902060010154611b96816123aa565b610d8e8383612756565b6001600160a01b038116600090815260fb6020526040812054610bf5565b600054610100900460ff1615808015611bde5750600054600160ff909116105b80611bf85750303b158015611bf8575060005460ff166001145b611c5b5760405162461bcd60e51b815260206004820152602e60248201527f496e697469616c697a61626c653a20636f6e747261637420697320616c72656160448201526d191e481a5b9a5d1a585b1a5e995960921b60648201526084016103f6565b6000805460ff191660011790558015611c7e576000805461ff0019166101001790555b611cbd88888080601f01602080910402602001604051908101604052809392919081815260200183838082843760009201919091525061307992505050565b611d3088888080601f01602080910402602001604051908101604052809392919081815260200183838082843760009201919091525050604080516020601f8c018190048102820181019092528a815292508a91508990819084018382808284376000920191909152506130c392505050565b611d39826130f4565b611d41613157565b6001600160a01b038916611d68576040516349e27cff60e01b815260040160405180910390fd5b6001600160a01b038416611d8f57604051636448d6e960e11b815260040160405180910390fd5b826001600160a01b03166338d52e0f6040518163ffffffff1660e01b8152600401602060405180830381865afa158015611dcd573d6000803e3d6000fd5b505050506040513d601f19601f82011682018060405250810190611df19190614521565b6001600160a01b0316846001600160a01b031614611e2257604051636448d6e960e11b815260040160405180910390fd5b611e2d60008a6123b4565b611e456000805160206147a38339815191528a6123b4565b611e4d611983565b611e5689612da3565b61023180546001600160a01b038086166001600160a01b0319928316179092556102328054928716929091169190911790558015611ece576000805461ff0019169055604051600181527f7f26b83ff96e1f2b6a682f133852f6798a09c465da95921460cefb38474024989060200160405180910390a15b505050505050505050565b6001600160a01b03918216600090815260fc6020908152604080832093909416825291909152205490565b611f0c612d49565b6001600160a01b038116611f335760405163e6c4247b60e01b815260040160405180910390fd5b61019680546001600160a01b0319166001600160a01b0383169081179091556040517f647672599d3468abcfa241a13c9e3d34383caadb5cc80fb67c3cdfcd5f78605990600090a250565b611f86612d49565b606580546001600160a01b0383166001600160a01b03199091168117909155611fb76033546001600160a01b031690565b6001600160a01b03167f38d16b8cac22d99fc7c124b9cd0de2d3fa1faef420bfe791d8c362d765e2270060405160405180910390a350565b60008360200151600003612004575081610cc1565b602084015184516120159085614487565b61201f919061449e565b905081801561204957508351602085015184919061203d9084614487565b612047919061449e565b105b15610cc157806120588161453e565b95945050505050565b6001600160a01b0383166120c35760405162461bcd60e51b8152602060048201526024808201527f45524332303a20617070726f76652066726f6d20746865207a65726f206164646044820152637265737360e01b60648201526084016103f6565b6001600160a01b0382166121245760405162461bcd60e51b815260206004820152602260248201527f45524332303a20617070726f766520746f20746865207a65726f206164647265604482015261737360f01b60648201526084016103f6565b6001600160a01b03838116600081815260fc602090815260408083209487168084529482529182902085905590518481527f8c5be1e5ebec7d5bd14f71427d1e84f3dd0314c0f7b2291e5b200ac8c7c3b925910160405180910390a3505050565b60006121918484611ed9565b905060001981146121f957818110156121ec5760405162461bcd60e51b815260206004820152601d60248201527f45524332303a20696e73756666696369656e7420616c6c6f77616e636500000060448201526064016103f6565b6121f98484848403612061565b50505050565b6001600160a01b0383166122635760405162461bcd60e51b815260206004820152602560248201527f45524332303a207472616e736665722066726f6d20746865207a65726f206164604482015264647265737360d81b60648201526084016103f6565b6001600160a01b0382166122c55760405162461bcd60e51b815260206004820152602360248201527f45524332303a207472616e7366657220746f20746865207a65726f206164647260448201526265737360e81b60648201526084016103f6565b6001600160a01b038316600090815260fb60205260409020548181101561233d5760405162461bcd60e51b815260206004820152602660248201527f45524332303a207472616e7366657220616d6f756e7420657863656564732062604482015265616c616e636560d01b60648201526084016103f6565b6001600160a01b03808516600081815260fb602052604080822086860390559286168082529083902080548601905591517fddf252ad1be2c89b69c2b068fc378daa952ba7f163c4a11628f55a4df523b3ef9061239d9086815260200190565b60405180910390a36121f9565b610f55813361317e565b6123be82826115f0565b610f0f5760008281526101ff602090815260408083206001600160a01b03851684529091529020805460ff191660011790556123f73390565b6001600160a01b0316816001600160a01b0316837f2f8788117e7eff1d82e926ec794901d17c78024a50270940304540a733656f0d60405160405180910390a45050565b600260c9540361248d5760405162461bcd60e51b815260206004820152601f60248201527f5265656e7472616e637947756172643a207265656e7472616e742063616c6c0060448201526064016103f6565b600260c955565b60975460ff16156111505760405162461bcd60e51b815260206004820152601060248201526f14185d5cd8589b194e881c185d5cd95960821b60448201526064016103f6565b606061250084848460405180606001604052806029815260200161477a602991396131d7565b949350505050565b60006001600160a01b03821661253157604051631e4ec46b60e01b815260040160405180910390fd5b60006040518060400160405280612546610b51565b815260200161255460fd5490565b9052805190915015801561256a57506020810151155b806125845750600081602001511180156125845750805115155b6125a157604051636ccb80a360e01b815260040160405180910390fd5b60006125ad6101995490565b905080156126205760006125bf610ff6565b33600090815260fb60205260409020546125e290670de0b6b3a764000090614487565b6125ec919061449e565b905060006125fa8288614474565b90508281111561261d5760405163a942f8cd60e01b815260040160405180910390fd5b50505b610231546102325461263f916001600160a01b039182169116876132b2565b6102315460405163a5e3875160e01b8152600481018790526000916001600160a01b03169063a5e38751906024016020604051808303816000875af115801561268c573d6000803e3d6000fd5b505050506040513d601f19601f820116820180604052508101906126b09190614411565b90506126be83826000612fa3565b9350826020015160001480156126d557506103e884105b156126f357604051630aed3ed760e11b815260040160405180910390fd5b6126fd8585612e2f565b60408051878152602081018690526001600160a01b0387169133917fdcbc1c05240f31ff3ad067ef1ee35ce4997762752e3a095284754544f4c709d7910160405180910390a350505092915050565b6000610bbf6133c7565b61276082826115f0565b15610f0f5760008281526101ff602090815260408083206001600160a01b0385168085529252808320805460ff1916905551339285917ff6391f5c32d9c69d2a47ea670b442974b53935d1edc7fd64eb21e047a839171b9190a45050565b6127c661343b565b6097805460ff191690557f5db9ee0a495bf2e6ff9c91a7834c1ba4fdd244a5e8aa4e537bd38aeae4b073aa335b6040516001600160a01b03909116815260200160405180910390a1565b60008460000361283357604051630db73cdf60e41b815260040160405180910390fd5b6001600160a01b03841661285a57604051631e4ec46b60e01b815260040160405180910390fd5b8461287a846001600160a01b0316600090815260fb602052604090205490565b101561289957604051631b7451e560e21b815260040160405180910390fd5b336001600160a01b038416146128e057846128b48433611ed9565b10156128d357604051631d7eb35960e31b815260040160405180910390fd5b6128de833387610d44565b505b60006128eb60fd5490565b6128f3610b51565b6128fd9088614487565b612907919061449e565b90508060000361292a57604051635da3252f60e11b815260040160405180910390fd5b6102315460405163440e6dff60e01b8152600481018390526000916001600160a01b03169063440e6dff906024016020604051808303816000875af1158015612977573d6000803e3d6000fd5b505050506040513d601f19601f8201168201806040525081019061299b9190614411565b9050600080886129aa60fd5490565b6129b49190614557565b90506103e8811080156129c657508015155b156129e457604051630aed3ed760e11b815260040160405180910390fd5b6129ee338a613484565b6101945415801590612a1c57506000612a10610196546001600160a01b031690565b6001600160a01b031614155b15612bda57612a3a612a2e6101945490565b8490633b9aca00612dbc565b9150858015612a5b57506101cc54610232546001600160a01b039081169116145b15612ab157612a69836135b8565b612a86612a768385614557565b6001600160a01b038a16906136cd565b612aac82612a9d610196546001600160a01b031690565b6001600160a01b0316906136cd565b612c76565b610232546001600160a01b031663a9059cbb89612ace8587614557565b6040516001600160e01b031960e085901b1681526001600160a01b03909216600483015260248201526044016020604051808303816000875af1158015612b19573d6000803e3d6000fd5b505050506040513d601f19601f82011682018060405250810190612b3d919061456a565b50610232546001600160a01b031663a9059cbb612b63610196546001600160a01b031690565b6040516001600160e01b031960e084901b1681526001600160a01b039091166004820152602481018590526044016020604051808303816000875af1158015612bb0573d6000803e3d6000fd5b505050506040513d601f19601f82011682018060405250810190612bd4919061456a565b50612c76565b8515612bfc57612be9836135b8565b612aac6001600160a01b038916846136cd565b6102325460405163a9059cbb60e01b81526001600160a01b038a81166004830152602482018690529091169063a9059cbb906044016020604051808303816000875af1158015612c50573d6000803e3d6000fd5b505050506040513d601f19601f82011682018060405250810190612c74919061456a565b505b6001600160a01b03808816908916337ffbde797d201c681b91056529119e0b02407c7bb96a4a2c75c01fc9667232c8db612cb08688614557565b60408051918252602082018f90520160405180910390a4612cd18284614557565b9998505050505050505050565b6040516001600160a01b03808516602483015283166044820152606481018290526121f99085906323b872dd60e01b906084015b60408051601f198184030181529190526020810180516001600160e01b03166001600160e01b0319909316929092179091526137e6565b6033546001600160a01b031633146111505760405162461bcd60e51b815260206004820181905260248201527f4f776e61626c653a2063616c6c6572206973206e6f7420746865206f776e657260448201526064016103f6565b606580546001600160a01b0319169055610f55816138bb565b600080612dc98486614487565b905082600003612dec57604051639124a73d60e01b815260040160405180910390fd5b841580612df7575083155b15612e06576000915050610cc1565b82612e12600183614557565b612e1c919061449e565b612e27906001614474565b915050610cc1565b6001600160a01b038216612e855760405162461bcd60e51b815260206004820152601f60248201527f45524332303a206d696e7420746f20746865207a65726f20616464726573730060448201526064016103f6565b8060fd6000828254612e979190614474565b90915550506001600160a01b038216600081815260fb60209081526040808320805486019055518481527fddf252ad1be2c89b69c2b068fc378daa952ba7f163c4a11628f55a4df523b3ef910160405180910390a35050565b612ef8612494565b6097805460ff191660011790557f62e78cea01bee320cd4e420270b5ea74000d11b0c9f74754ebdbfc544b05a2586127f33390565b606061012f8054610c0a9061442a565b60606101308054610c0a9061442a565b6001600160a01b03811660009081526001830160205260408120541515610cc1565b6000610cc1836001600160a01b03841661390d565b6000610cc1836001600160a01b03841661395c565b6000610bf5825490565b82516000901580612fb657506020840151155b15612fc2575081610cc1565b83516020850151612fd39085614487565b612fdd919061449e565b905081801561204957506020840151845184919061203d9084614487565b6001600160a01b0381166000908152610161602052604090208054600181018255905b50919050565b6000610bf561303161274c565b8360405161190160f01b8152600281019290925260228201526042902090565b600080600061306287878787613a4f565b9150915061306f81613b13565b5095945050505050565b600054610100900460ff166130a05760405162461bcd60e51b81526004016103f6906144d6565b610f5581604051806040016040528060018152602001603160f81b815250613c5d565b600054610100900460ff166130ea5760405162461bcd60e51b81526004016103f6906144d6565b610f0f8282613cb0565b600054610100900460ff1661311b5760405162461bcd60e51b81526004016103f6906144d6565b6101cc80546001600160a01b0319166001600160a01b038316908117909155610f55576040516332a1e6cf60e21b815260040160405180910390fd5b600054610100900460ff166111505760405162461bcd60e51b81526004016103f6906144d6565b61318882826115f0565b610f0f5761319581613cf0565b6131a0836020613d02565b6040516020016131b1929190614587565b60408051601f198184030181529082905262461bcd60e51b82526103f691600401614056565b6060824710156132385760405162461bcd60e51b815260206004820152602660248201527f416464726573733a20696e73756666696369656e742062616c616e636520666f6044820152651c8818d85b1b60d21b60648201526084016103f6565b600080866001600160a01b0316858760405161325491906145fc565b60006040518083038185875af1925050503d8060008114613291576040519150601f19603f3d011682016040523d82523d6000602084013e613296565b606091505b50915091506132a787838387613e9e565b979650505050505050565b80158061332c5750604051636eb1769f60e11b81523060048201526001600160a01b03838116602483015284169063dd62ed3e90604401602060405180830381865afa158015613306573d6000803e3d6000fd5b505050506040513d601f19601f8201168201806040525081019061332a9190614411565b155b6133975760405162461bcd60e51b815260206004820152603660248201527f5361666545524332303a20617070726f76652066726f6d206e6f6e2d7a65726f60448201527520746f206e6f6e2d7a65726f20616c6c6f77616e636560501b60648201526084016103f6565b6040516001600160a01b038316602482015260448101829052610d8e90849063095ea7b360e01b90606401612d12565b60007f8b73c3c69bb8fe3d512ecc4cf759cc79239f7b179b0ffacaa9a75d522b39400f6133f2613f17565b6133fa613f71565b60408051602081019490945283019190915260608201524660808201523060a082015260c00160405160208183030381529060405280519060200120905090565b60975460ff166111505760405162461bcd60e51b815260206004820152601460248201527314185d5cd8589b194e881b9bdd081c185d5cd95960621b60448201526064016103f6565b6001600160a01b0382166134e45760405162461bcd60e51b815260206004820152602160248201527f45524332303a206275726e2066726f6d20746865207a65726f206164647265736044820152607360f81b60648201526084016103f6565b6001600160a01b038216600090815260fb6020526040902054818110156135585760405162461bcd60e51b815260206004820152602260248201527f45524332303a206275726e20616d6f756e7420657863656564732062616c616e604482015261636560f01b60648201526084016103f6565b6001600160a01b038316600081815260fb60209081526040808320868603905560fd80548790039055518581529192917fddf252ad1be2c89b69c2b068fc378daa952ba7f163c4a11628f55a4df523b3ef910160405180910390a3505050565b806000036135d9576040516393116e7160e01b815260040160405180910390fd5b6101cc546040516370a0823160e01b81523060048201526000916001600160a01b0316906370a0823190602401602060405180830381865afa158015613623573d6000803e3d6000fd5b505050506040513d601f19601f820116820180604052508101906136479190614411565b90508181101561366a5760405163ea920f3760e01b815260040160405180910390fd5b6101cc54604051632e1a7d4d60e01b8152600481018490526001600160a01b0390911690632e1a7d4d90602401600060405180830381600087803b1580156136b157600080fd5b505af11580156136c5573d6000803e3d6000fd5b505050505050565b8047101561371d5760405162461bcd60e51b815260206004820152601d60248201527f416464726573733a20696e73756666696369656e742062616c616e636500000060448201526064016103f6565b6000826001600160a01b03168260405160006040518083038185875af1925050503d806000811461376a576040519150601f19603f3d011682016040523d82523d6000602084013e61376f565b606091505b5050905080610d8e5760405162461bcd60e51b815260206004820152603a60248201527f416464726573733a20756e61626c6520746f2073656e642076616c75652c207260448201527f6563697069656e74206d6179206861766520726576657274656400000000000060648201526084016103f6565b600061383b826040518060400160405280602081526020017f5361666545524332303a206c6f772d6c6576656c2063616c6c206661696c6564815250856001600160a01b0316613fa39092919063ffffffff16565b905080516000148061385c57508080602001905181019061385c919061456a565b610d8e5760405162461bcd60e51b815260206004820152602a60248201527f5361666545524332303a204552433230206f7065726174696f6e20646964206e6044820152691bdd081cdd58d8d9595960b21b60648201526084016103f6565b603380546001600160a01b038381166001600160a01b0319831681179093556040519116919082907f8be0079c531659141344cd1fd0a4f28419497f9722a3daafe3b4186f6b6457e090600090a35050565b600081815260018301602052604081205461395457508154600181810184556000848152602080822090930184905584548482528286019093526040902091909155610bf5565b506000610bf5565b60008181526001830160205260408120548015613a45576000613980600183614557565b855490915060009061399490600190614557565b90508181146139f95760008660000182815481106139b4576139b4614618565b90600052602060002001549050808760000184815481106139d7576139d7614618565b6000918252602080832090910192909255918252600188019052604090208390555b8554869080613a0a57613a0a61462e565b600190038181906000526020600020016000905590558560010160008681526020019081526020016000206000905560019350505050610bf5565b6000915050610bf5565b6000807f7fffffffffffffffffffffffffffffff5d576e7357a4501ddfe92f46681b20a0831115613a865750600090506003613b0a565b6040805160008082526020820180845289905260ff881692820192909252606081018690526080810185905260019060a0016020604051602081039080840390855afa158015613ada573d6000803e3d6000fd5b5050604051601f1901519150506001600160a01b038116613b0357600060019250925050613b0a565b9150600090505b94509492505050565b6000816004811115613b2757613b27614644565b03613b2f5750565b6001816004811115613b4357613b43614644565b03613b905760405162461bcd60e51b815260206004820152601860248201527f45434453413a20696e76616c6964207369676e6174757265000000000000000060448201526064016103f6565b6002816004811115613ba457613ba4614644565b03613bf15760405162461bcd60e51b815260206004820152601f60248201527f45434453413a20696e76616c6964207369676e6174757265206c656e6774680060448201526064016103f6565b6003816004811115613c0557613c05614644565b03610f555760405162461bcd60e51b815260206004820152602260248201527f45434453413a20696e76616c6964207369676e6174757265202773272076616c604482015261756560f01b60648201526084016103f6565b600054610100900460ff16613c845760405162461bcd60e51b81526004016103f6906144d6565b61012f613c9183826146a2565b50610130613c9f82826146a2565b5050600061012d81905561012e5550565b600054610100900460ff16613cd75760405162461bcd60e51b81526004016103f6906144d6565b60fe613ce383826146a2565b5060ff610d8e82826146a2565b6060610bf56001600160a01b03831660145b60606000613d11836002614487565b613d1c906002614474565b67ffffffffffffffff811115613d3457613d346144c0565b6040519080825280601f01601f191660200182016040528015613d5e576020820181803683370190505b509050600360fc1b81600081518110613d7957613d79614618565b60200101906001600160f81b031916908160001a905350600f60fb1b81600181518110613da857613da8614618565b60200101906001600160f81b031916908160001a9053506000613dcc846002614487565b613dd7906001614474565b90505b6001811115613e4f576f181899199a1a9b1b9c1cb0b131b232b360811b85600f1660108110613e0b57613e0b614618565b1a60f81b828281518110613e2157613e21614618565b60200101906001600160f81b031916908160001a90535060049490941c93613e4881614762565b9050613dda565b508315610cc15760405162461bcd60e51b815260206004820181905260248201527f537472696e67733a20686578206c656e67746820696e73756666696369656e7460448201526064016103f6565b60608315613f0d578251600003613f06576001600160a01b0385163b613f065760405162461bcd60e51b815260206004820152601d60248201527f416464726573733a2063616c6c20746f206e6f6e2d636f6e747261637400000060448201526064016103f6565b5081612500565b6125008383613fb2565b600080613f22612f2d565b805190915015613f39578051602090910120919050565b61012d548015613f495792915050565b7fc5d2460186f7233c927e7db2dcc703c0e500b653ca82273b7bfad8045d85a4709250505090565b600080613f7c612f3d565b805190915015613f93578051602090910120919050565b61012e548015613f495792915050565b606061250084846000856131d7565b815115613fc25781518083602001fd5b8060405162461bcd60e51b81526004016103f69190614056565b600060208284031215613fee57600080fd5b81356001600160e01b031981168114610cc157600080fd5b60005b83811015614021578181015183820152602001614009565b50506000910152565b60008151808452614042816020860160208601614006565b601f01601f19169290920160200192915050565b602081526000610cc1602083018461402a565b60006020828403121561407b57600080fd5b5035919050565b6001600160a01b0381168114610f5557600080fd5b600080604083850312156140aa57600080fd5b82356140b581614082565b946020939093013593505050565b6000806000606084860312156140d857600080fd5b83356140e381614082565b925060208401356140f381614082565b929592945050506040919091013590565b6000806040838503121561411757600080fd5b82359150602083013561412981614082565b809150509250929050565b60006020828403121561414657600080fd5b8135610cc181614082565b60ff60f81b881681526000602060e0602084015261417260e084018a61402a565b8381036040850152614184818a61402a565b606085018990526001600160a01b038816608086015260a0850187905284810360c08601528551808252602080880193509091019060005b818110156141d8578351835292840192918401916001016141bc565b50909c9b505050505050505050505050565b8015158114610f5557600080fd5b6000806040838503121561420b57600080fd5b823561421681614082565b91506020830135614129816141ea565b60008060006060848603121561423b57600080fd5b83359250602084013561424d81614082565b9150604084013561425d81614082565b809150509250925092565b600080600080600080600060e0888a03121561428357600080fd5b873561428e81614082565b9650602088013561429e81614082565b95506040880135945060608801359350608088013560ff811681146142c257600080fd5b9699959850939692959460a0840135945060c09093013592915050565b60008083601f8401126142f157600080fd5b50813567ffffffffffffffff81111561430957600080fd5b60208301915083602082850101111561432157600080fd5b9250929050565b60008060008060008060008060c0898b03121561434457600080fd5b883561434f81614082565b9750602089013567ffffffffffffffff8082111561436c57600080fd5b6143788c838d016142df565b909950975060408b013591508082111561439157600080fd5b5061439e8b828c016142df565b90965094505060608901356143b281614082565b925060808901356143c281614082565b915060a08901356143d281614082565b809150509295985092959890939650565b600080604083850312156143f657600080fd5b823561440181614082565b9150602083013561412981614082565b60006020828403121561442357600080fd5b5051919050565b600181811c9082168061443e57607f821691505b60208210810361301e57634e487b7160e01b600052602260045260246000fd5b634e487b7160e01b600052601160045260246000fd5b80820180821115610bf557610bf561445e565b8082028115828204841417610bf557610bf561445e565b6000826144bb57634e487b7160e01b600052601260045260246000fd5b500490565b634e487b7160e01b600052604160045260246000fd5b6020808252602b908201527f496e697469616c697a61626c653a20636f6e7472616374206973206e6f74206960408201526a6e697469616c697a696e6760a81b606082015260800190565b60006020828403121561453357600080fd5b8151610cc181614082565b6000600182016145505761455061445e565b5060010190565b81810381811115610bf557610bf561445e565b60006020828403121561457c57600080fd5b8151610cc1816141ea565b7f416363657373436f6e74726f6c3a206163636f756e74200000000000000000008152600083516145bf816017850160208801614006565b7001034b99036b4b9b9b4b733903937b6329607d1b60179184019182015283516145f0816028840160208801614006565b01602801949350505050565b6000825161460e818460208701614006565b9190910192915050565b634e487b7160e01b600052603260045260246000fd5b634e487b7160e01b600052603160045260246000fd5b634e487b7160e01b600052602160045260246000fd5b601f821115610d8e576000816000526020600020601f850160051c810160208610156146835750805b601f850160051c820191505b818110156136c55782815560010161468f565b815167ffffffffffffffff8111156146bc576146bc6144c0565b6146d0816146ca845461442a565b8461465a565b602080601f83116001811461470557600084156146ed5750858301515b600019600386901b1c1916600185901b1785556136c5565b600085815260208120601f198616915b8281101561473457888601518255948401946001909101908401614715565b50858210156147525787850151600019600388901b60f8161c191681555b5050505050600190811b01905550565b6000816147715761477161445e565b50600019019056fe416464726573733a206c6f772d6c6576656c2063616c6c20776974682076616c7565206661696c656465d7a28e3265b37a6474929f336521b332c1681b933f6cb9f3376673440d862aa26469706673582212201c8ad8279b7d2752bf7d7227962f73ce0d2b24f098a06c4b1cb4d80ecf19766f64736f6c63430008180033",
  "linkReferences": {},
  "deployedLinkReferences": {}
}