{
  "_format": "hh-sol-artifact-1",
  "contractName": "VaultSettings",
  "sourceName": "contracts/core/VaultSettings.sol",
  "abi": [
    {
      "inputs": [],
      "stateMutability": "nonpayable",
      "type": "constructor"
    },
    {
      "inputs": [],
      "name": "InvalidAddress",
      "type": "error"
    },
    {
      "inputs": [],
      "name": "InvalidMaxLoanToValue",
      "type": "error"
    },
    {
      "inputs": [],
      "name": "InvalidOwner",
      "type": "error"
    },
    {
      "inputs": [],
      "name": "InvalidPercentage",
      "type": "error"
    },
    {
      "inputs": [],
      "name": "InvalidValue",
      "type": "error"
    },
    {
      "inputs": [],
      "name": "WhiteListAlreadyEnabled",
      "type": "error"
    },
    {
      "inputs": [],
      "name": "WhiteListFailedToAdd",
      "type": "error"
    },
    {
      "inputs": [],
      "name": "WhiteListFailedToRemove",
      "type": "error"
    },
    {
      "inputs": [],
      "name": "WhiteListNotEnabled",
      "type": "error"
    },
    {
      "anonymous": false,
      "inputs": [
        {
          "indexed": true,
          "internalType": "address",
          "name": "account",
          "type": "address"
        },
        {
          "indexed": false,
          "internalType": "bool",
          "name": "enabled",
          "type": "bool"
        }
      ],
      "name": "AccountWhiteList",
      "type": "event"
    },
    {
      "anonymous": false,
      "inputs": [
        {
          "indexed": true,
          "internalType": "address",
          "name": "value",
          "type": "address"
        }
      ],
      "name": "FeeReceiverChanged",
      "type": "event"
    },
    {
      "anonymous": false,
      "inputs": [
        {
          "indexed": false,
          "internalType": "uint8",
          "name": "version",
          "type": "uint8"
        }
      ],
      "name": "Initialized",
      "type": "event"
    },
    {
      "anonymous": false,
      "inputs": [
        {
          "indexed": true,
          "internalType": "uint256",
          "name": "value",
          "type": "uint256"
        }
      ],
      "name": "MaxDepositChanged",
      "type": "event"
    },
    {
      "anonymous": false,
      "inputs": [
        {
          "indexed": true,
          "internalType": "address",
          "name": "previousOwner",
          "type": "address"
        },
        {
          "indexed": true,
          "internalType": "address",
          "name": "newOwner",
          "type": "address"
        }
      ],
      "name": "OwnershipTransferStarted",
      "type": "event"
    },
    {
      "anonymous": false,
      "inputs": [
        {
          "indexed": true,
          "internalType": "address",
          "name": "previousOwner",
          "type": "address"
        },
        {
          "indexed": true,
          "internalType": "address",
          "name": "newOwner",
          "type": "address"
        }
      ],
      "name": "OwnershipTransferred",
      "type": "event"
    },
    {
      "anonymous": false,
      "inputs": [
        {
          "indexed": true,
          "internalType": "uint256",
          "name": "value",
          "type": "uint256"
        }
      ],
      "name": "PerformanceFeeChanged",
      "type": "event"
    },
    {
      "anonymous": false,
      "inputs": [
        {
          "indexed": true,
          "internalType": "uint256",
          "name": "value",
          "type": "uint256"
        }
      ],
      "name": "WithdrawalFeeChanged",
      "type": "event"
    },
    {
      "inputs": [],
      "name": "_initializeVaultSettings",
      "outputs": [],
      "stateMutability": "nonpayable",
      "type": "function"
    },
    {
      "inputs": [],
      "name": "acceptOwnership",
      "outputs": [],
      "stateMutability": "nonpayable",
      "type": "function"
    },
    {
      "inputs": [
        {
          "internalType": "address",
          "name": "account",
          "type": "address"
        },
        {
          "internalType": "bool",
          "name": "enabled",
          "type": "bool"
        }
      ],
      "name": "enableAccount",
      "outputs": [],
      "stateMutability": "nonpayable",
      "type": "function"
    },
    {
      "inputs": [],
      "name": "getFeeReceiver",
      "outputs": [
        {
          "internalType": "address",
          "name": "",
          "type": "address"
        }
      ],
      "stateMutability": "view",
      "type": "function"
    },
    {
      "inputs": [],
      "name": "getMaxDeposit",
      "outputs": [
        {
          "internalType": "uint256",
          "name": "",
          "type": "uint256"
        }
      ],
      "stateMutability": "view",
      "type": "function"
    },
    {
      "inputs": [],
      "name": "getPerformanceFee",
      "outputs": [
        {
          "internalType": "uint256",
          "name": "",
          "type": "uint256"
        }
      ],
      "stateMutability": "view",
      "type": "function"
    },
    {
      "inputs": [],
      "name": "getWithdrawalFee",
      "outputs": [
        {
          "internalType": "uint256",
          "name": "",
          "type": "uint256"
        }
      ],
      "stateMutability": "view",
      "type": "function"
    },
    {
      "inputs": [
        {
          "internalType": "address",
          "name": "account",
          "type": "address"
        }
      ],
      "name": "isAccountEnabled",
      "outputs": [
        {
          "internalType": "bool",
          "name": "",
          "type": "bool"
        }
      ],
      "stateMutability": "view",
      "type": "function"
    },
    {
      "inputs": [],
      "name": "owner",
      "outputs": [
        {
          "internalType": "address",
          "name": "",
          "type": "address"
        }
      ],
      "stateMutability": "view",
      "type": "function"
    },
    {
      "inputs": [],
      "name": "pendingOwner",
      "outputs": [
        {
          "internalType": "address",
          "name": "",
          "type": "address"
        }
      ],
      "stateMutability": "view",
      "type": "function"
    },
    {
      "inputs": [],
      "name": "renounceOwnership",
      "outputs": [],
      "stateMutability": "nonpayable",
      "type": "function"
    },
    {
      "inputs": [
        {
          "internalType": "address",
          "name": "receiver",
          "type": "address"
        }
      ],
      "name": "setFeeReceiver",
      "outputs": [],
      "stateMutability": "nonpayable",
      "type": "function"
    },
    {
      "inputs": [
        {
          "internalType": "uint256",
          "name": "value",
          "type": "uint256"
        }
      ],
      "name": "setMaxDeposit",
      "outputs": [],
      "stateMutability": "nonpayable",
      "type": "function"
    },
    {
      "inputs": [
        {
          "internalType": "uint256",
          "name": "fee",
          "type": "uint256"
        }
      ],
      "name": "setPerformanceFee",
      "outputs": [],
      "stateMutability": "nonpayable",
      "type": "function"
    },
    {
      "inputs": [
        {
          "internalType": "uint256",
          "name": "fee",
          "type": "uint256"
        }
      ],
      "name": "setWithdrawalFee",
      "outputs": [],
      "stateMutability": "nonpayable",
      "type": "function"
    },
    {
      "inputs": [
        {
          "internalType": "address",
          "name": "newOwner",
          "type": "address"
        }
      ],
      "name": "transferOwnership",
      "outputs": [],
      "stateMutability": "nonpayable",
      "type": "function"
    }
  ],
  "bytecode": "0x608060405234801561001057600080fd5b5061001961001e565b6100dd565b600054610100900460ff161561008a5760405162461bcd60e51b815260206004820152602760248201527f496e697469616c697a61626c653a20636f6e747261637420697320696e697469604482015266616c697a696e6760c81b606482015260840160405180910390fd5b60005460ff908116146100db576000805460ff191660ff9081179091556040519081527f7f26b83ff96e1f2b6a682f133852f6798a09c465da95921460cefb38474024989060200160405180910390a15b565b6109b6806100ec6000396000f3fe608060405234801561001057600080fd5b50600436106101005760003560e01c8063b8b359cc11610097578063e30c397811610066578063e30c3978146101da578063e8a35392146101eb578063efdcd974146101fc578063f2fde38b1461020f57600080fd5b8063b8b359cc14610194578063bb371fdd146101b7578063cd435cdd146101ca578063d8e159f8146101d257600080fd5b80638645e84b116100d35780638645e84b146101415780638da5cb5b14610154578063a4dbc6a814610179578063ac1e50251461018157600080fd5b8063235c36031461010557806370897b231461011c578063715018a61461013157806379ba509714610139575b600080fd5b6098545b6040519081526020015b60405180910390f35b61012f61012a3660046108a7565b610222565b005b61012f610281565b61012f610295565b61012f61014f3660046108dc565b610314565b6033546001600160a01b03165b6040516001600160a01b039091168152602001610113565b609c54610109565b61012f61018f3660046108a7565b610411565b6101a76101a2366004610918565b610470565b6040519015158152602001610113565b61012f6101c53660046108a7565b610494565b61012f6104cf565b609754610109565b6065546001600160a01b0316610161565b6099546001600160a01b0316610161565b61012f61020a366004610918565b61055d565b61012f61021d366004610918565b6105d6565b61022a610647565b633b9aca00811061024e57604051631f3b85d360e01b815260040160405180910390fd5b609881905560405181907ff150d916e598956cbb01367e89d0d59fc910f13bea1441c4b2040ff89b7615bf90600090a250565b610289610647565b61029360006106a1565b565b60655433906001600160a01b031681146103085760405162461bcd60e51b815260206004820152602960248201527f4f776e61626c6532537465703a2063616c6c6572206973206e6f7420746865206044820152683732bb9037bbb732b960b91b60648201526084015b60405180910390fd5b610311816106a1565b50565b61031c610647565b80156103785761032d609a836106ba565b1561034b5760405163f0de760960e01b815260040160405180910390fd5b610356609a836106df565b61037357604051634d42d83760e01b815260040160405180910390fd5b6103c8565b610383609a836106ba565b6103a05760405163df7f799b60e01b815260040160405180910390fd5b6103ab609a836106f4565b6103c857604051631c9b290760e11b815260040160405180910390fd5b816001600160a01b03167f78de0ca54bde2d97cdf93a275dfd5a966a9960011162ee36171985c5928ef46282604051610405911515815260200190565b60405180910390a25050565b610419610647565b633b9aca00811061043d57604051631f3b85d360e01b815260040160405180910390fd5b609781905560405181907ffc1353e6b18ce07b5a979c8edf77a87455939a17a9eebbb084dcde5bfb3b19ac90600090a250565b600061047c609a610709565b158061048e575061048e609a836106ba565b92915050565b61049c610647565b609c81905560405181907f99bada54b2a917867d043b855b7725d9ecfca8069e0f793345b940f1b4f9890e90600090a250565b600054610100900460ff1661053a5760405162461bcd60e51b815260206004820152602b60248201527f496e697469616c697a61626c653a20636f6e7472616374206973206e6f74206960448201526a6e697469616c697a696e6760a81b60648201526084016102ff565b629896806097819055609855609980546001600160a01b03191690556000609c55565b610565610647565b6001600160a01b03811661058c5760405163e6c4247b60e01b815260040160405180910390fd5b609980546001600160a01b0319166001600160a01b0383169081179091556040517f647672599d3468abcfa241a13c9e3d34383caadb5cc80fb67c3cdfcd5f78605990600090a250565b6105de610647565b606580546001600160a01b0383166001600160a01b0319909116811790915561060f6033546001600160a01b031690565b6001600160a01b03167f38d16b8cac22d99fc7c124b9cd0de2d3fa1faef420bfe791d8c362d765e2270060405160405180910390a350565b6033546001600160a01b031633146102935760405162461bcd60e51b815260206004820181905260248201527f4f776e61626c653a2063616c6c6572206973206e6f7420746865206f776e657260448201526064016102ff565b606580546001600160a01b031916905561031181610713565b6001600160a01b038116600090815260018301602052604081205415155b9392505050565b60006106d8836001600160a01b038416610765565b60006106d8836001600160a01b0384166107b4565b600061048e825490565b603380546001600160a01b038381166001600160a01b0319831681179093556040519116919082907f8be0079c531659141344cd1fd0a4f28419497f9722a3daafe3b4186f6b6457e090600090a35050565b60008181526001830160205260408120546107ac5750815460018181018455600084815260208082209093018490558454848252828601909352604090209190915561048e565b50600061048e565b6000818152600183016020526040812054801561089d5760006107d8600183610933565b85549091506000906107ec90600190610933565b905081811461085157600086600001828154811061080c5761080c610954565b906000526020600020015490508087600001848154811061082f5761082f610954565b6000918252602080832090910192909255918252600188019052604090208390555b85548690806108625761086261096a565b60019003818190600052602060002001600090559055856001016000868152602001908152602001600020600090556001935050505061048e565b600091505061048e565b6000602082840312156108b957600080fd5b5035919050565b80356001600160a01b03811681146108d757600080fd5b919050565b600080604083850312156108ef57600080fd5b6108f8836108c0565b91506020830135801515811461090d57600080fd5b809150509250929050565b60006020828403121561092a57600080fd5b6106d8826108c0565b8181038181111561048e57634e487b7160e01b600052601160045260246000fd5b634e487b7160e01b600052603260045260246000fd5b634e487b7160e01b600052603160045260246000fdfea2646970667358221220205c351826d8d9a2ce289df22e5943c1857a81ffb24670bc9c8a47ce13acbbff64736f6c63430008180033",
  "linkReferences": {},
  "deployedLinkReferences": {}
}